{
  "_format": "hh-sol-artifact-1",
  "contractName": "PolsStake",
  "sourceName": "contracts/PolsStake.sol",
  "abi": [
    {
      "inputs": [
        {
          "internalType": "address",
          "name": "_stakingToken",
          "type": "address"
        },
        {
          "internalType": "uint48",
          "name": "_lockTimePeriod",
          "type": "uint48"
        }
      ],
      "stateMutability": "nonpayable",
      "type": "constructor"
    },
    {
      "anonymous": false,
      "inputs": [
        {
          "indexed": true,
          "internalType": "address",
          "name": "wallet",
          "type": "address"
        },
        {
          "indexed": true,
          "internalType": "address",
          "name": "rewardToken",
          "type": "address"
        },
        {
          "indexed": false,
          "internalType": "uint256",
          "name": "amount",
          "type": "uint256"
        }
      ],
      "name": "Claimed",
      "type": "event"
    },
    {
      "anonymous": false,
      "inputs": [
        {
          "indexed": true,
          "internalType": "address",
          "name": "tokenAddress",
          "type": "address"
        },
        {
          "indexed": true,
          "internalType": "address",
          "name": "receiver",
          "type": "address"
        },
        {
          "indexed": false,
          "internalType": "uint256",
          "name": "amount",
          "type": "uint256"
        }
      ],
      "name": "ERC20TokensRemoved",
      "type": "event"
    },
    {
      "anonymous": false,
      "inputs": [
        {
          "indexed": false,
          "internalType": "uint48",
          "name": "lockTimePeriod",
          "type": "uint48"
        }
      ],
      "name": "LockTimePeriodChanged",
      "type": "event"
    },
    {
      "anonymous": false,
      "inputs": [
        {
          "indexed": true,
          "internalType": "address",
          "name": "oldRewardToken",
          "type": "address"
        },
        {
          "indexed": false,
          "internalType": "uint256",
          "name": "returnedAmount",
          "type": "uint256"
        },
        {
          "indexed": true,
          "internalType": "address",
          "name": "newRewardToken",
          "type": "address"
        }
      ],
      "name": "RewardTokenChanged",
      "type": "event"
    },
    {
      "anonymous": false,
      "inputs": [
        {
          "indexed": true,
          "internalType": "address",
          "name": "staker",
          "type": "address"
        },
        {
          "indexed": false,
          "internalType": "uint256",
          "name": "amount",
          "type": "uint256"
        }
      ],
      "name": "RewardsBurned",
      "type": "event"
    },
    {
      "anonymous": false,
      "inputs": [
        {
          "indexed": true,
          "internalType": "bytes32",
          "name": "role",
          "type": "bytes32"
        },
        {
          "indexed": true,
          "internalType": "bytes32",
          "name": "previousAdminRole",
          "type": "bytes32"
        },
        {
          "indexed": true,
          "internalType": "bytes32",
          "name": "newAdminRole",
          "type": "bytes32"
        }
      ],
      "name": "RoleAdminChanged",
      "type": "event"
    },
    {
      "anonymous": false,
      "inputs": [
        {
          "indexed": true,
          "internalType": "bytes32",
          "name": "role",
          "type": "bytes32"
        },
        {
          "indexed": true,
          "internalType": "address",
          "name": "account",
          "type": "address"
        },
        {
          "indexed": true,
          "internalType": "address",
          "name": "sender",
          "type": "address"
        }
      ],
      "name": "RoleGranted",
      "type": "event"
    },
    {
      "anonymous": false,
      "inputs": [
        {
          "indexed": true,
          "internalType": "bytes32",
          "name": "role",
          "type": "bytes32"
        },
        {
          "indexed": true,
          "internalType": "address",
          "name": "account",
          "type": "address"
        },
        {
          "indexed": true,
          "internalType": "address",
          "name": "sender",
          "type": "address"
        }
      ],
      "name": "RoleRevoked",
      "type": "event"
    },
    {
      "anonymous": false,
      "inputs": [
        {
          "indexed": true,
          "internalType": "address",
          "name": "wallet",
          "type": "address"
        },
        {
          "indexed": false,
          "internalType": "uint256",
          "name": "amount",
          "type": "uint256"
        },
        {
          "indexed": false,
          "internalType": "uint256",
          "name": "date",
          "type": "uint256"
        }
      ],
      "name": "Stake",
      "type": "event"
    },
    {
      "anonymous": false,
      "inputs": [
        {
          "indexed": false,
          "internalType": "uint48",
          "name": "stakeRewardEndTime",
          "type": "uint48"
        }
      ],
      "name": "StakeRewardEndTimeChanged",
      "type": "event"
    },
    {
      "anonymous": false,
      "inputs": [
        {
          "indexed": false,
          "internalType": "uint256",
          "name": "stakeRewardFactor",
          "type": "uint256"
        }
      ],
      "name": "StakeRewardFactorChanged",
      "type": "event"
    },
    {
      "anonymous": false,
      "inputs": [
        {
          "indexed": true,
          "internalType": "address",
          "name": "wallet",
          "type": "address"
        },
        {
          "indexed": false,
          "internalType": "uint256",
          "name": "amount",
          "type": "uint256"
        },
        {
          "indexed": false,
          "internalType": "uint256",
          "name": "date",
          "type": "uint256"
        }
      ],
      "name": "Withdraw",
      "type": "event"
    },
    {
      "inputs": [],
      "name": "BURNER_ROLE",
      "outputs": [
        {
          "internalType": "bytes32",
          "name": "",
          "type": "bytes32"
        }
      ],
      "stateMutability": "view",
      "type": "function"
    },
    {
      "inputs": [],
      "name": "DEFAULT_ADMIN_ROLE",
      "outputs": [
        {
          "internalType": "bytes32",
          "name": "",
          "type": "bytes32"
        }
      ],
      "stateMutability": "view",
      "type": "function"
    },
    {
      "inputs": [],
      "name": "MAX_TIME",
      "outputs": [
        {
          "internalType": "uint48",
          "name": "",
          "type": "uint48"
        }
      ],
      "stateMutability": "view",
      "type": "function"
    },
    {
      "inputs": [
        {
          "internalType": "address",
          "name": "_staker",
          "type": "address"
        }
      ],
      "name": "balanceOf",
      "outputs": [
        {
          "internalType": "uint256",
          "name": "balance",
          "type": "uint256"
        }
      ],
      "stateMutability": "view",
      "type": "function"
    },
    {
      "inputs": [
        {
          "internalType": "address",
          "name": "_staker",
          "type": "address"
        },
        {
          "internalType": "uint256",
          "name": "_amount",
          "type": "uint256"
        }
      ],
      "name": "burnRewards",
      "outputs": [],
      "stateMutability": "nonpayable",
      "type": "function"
    },
    {
      "inputs": [],
      "name": "claim",
      "outputs": [
        {
          "internalType": "uint256",
          "name": "",
          "type": "uint256"
        }
      ],
      "stateMutability": "nonpayable",
      "type": "function"
    },
    {
      "inputs": [
        {
          "internalType": "address",
          "name": "_staker",
          "type": "address"
        }
      ],
      "name": "getEarnedRewardTokens",
      "outputs": [
        {
          "internalType": "uint256",
          "name": "claimableRewardTokens",
          "type": "uint256"
        }
      ],
      "stateMutability": "view",
      "type": "function"
    },
    {
      "inputs": [],
      "name": "getEarnedRewardTokens_msgSender",
      "outputs": [
        {
          "internalType": "uint256",
          "name": "",
          "type": "uint256"
        }
      ],
      "stateMutability": "view",
      "type": "function"
    },
    {
      "inputs": [],
      "name": "getRewardTokenBalance",
      "outputs": [
        {
          "internalType": "uint256",
          "name": "balance",
          "type": "uint256"
        }
      ],
      "stateMutability": "view",
      "type": "function"
    },
    {
      "inputs": [
        {
          "internalType": "bytes32",
          "name": "role",
          "type": "bytes32"
        }
      ],
      "name": "getRoleAdmin",
      "outputs": [
        {
          "internalType": "bytes32",
          "name": "",
          "type": "bytes32"
        }
      ],
      "stateMutability": "view",
      "type": "function"
    },
    {
      "inputs": [
        {
          "internalType": "address",
          "name": "_staker",
          "type": "address"
        }
      ],
      "name": "getUnlockTime",
      "outputs": [
        {
          "internalType": "uint48",
          "name": "unlockTime",
          "type": "uint48"
        }
      ],
      "stateMutability": "view",
      "type": "function"
    },
    {
      "inputs": [],
      "name": "getUnlockTime_msgSender",
      "outputs": [
        {
          "internalType": "uint48",
          "name": "unlockTime",
          "type": "uint48"
        }
      ],
      "stateMutability": "view",
      "type": "function"
    },
    {
      "inputs": [
        {
          "internalType": "bytes32",
          "name": "role",
          "type": "bytes32"
        },
        {
          "internalType": "address",
          "name": "account",
          "type": "address"
        }
      ],
      "name": "grantRole",
      "outputs": [],
      "stateMutability": "nonpayable",
      "type": "function"
    },
    {
      "inputs": [
        {
          "internalType": "bytes32",
          "name": "role",
          "type": "bytes32"
        },
        {
          "internalType": "address",
          "name": "account",
          "type": "address"
        }
      ],
      "name": "hasRole",
      "outputs": [
        {
          "internalType": "bool",
          "name": "",
          "type": "bool"
        }
      ],
      "stateMutability": "view",
      "type": "function"
    },
    {
      "inputs": [],
      "name": "lockTimePeriod",
      "outputs": [
        {
          "internalType": "uint48",
          "name": "",
          "type": "uint48"
        }
      ],
      "stateMutability": "view",
      "type": "function"
    },
    {
      "inputs": [
        {
          "internalType": "address",
          "name": "_tokenAddress",
          "type": "address"
        }
      ],
      "name": "removeOtherERC20Tokens",
      "outputs": [],
      "stateMutability": "nonpayable",
      "type": "function"
    },
    {
      "inputs": [
        {
          "internalType": "bytes32",
          "name": "role",
          "type": "bytes32"
        },
        {
          "internalType": "address",
          "name": "account",
          "type": "address"
        }
      ],
      "name": "renounceRole",
      "outputs": [],
      "stateMutability": "nonpayable",
      "type": "function"
    },
    {
      "inputs": [
        {
          "internalType": "bytes32",
          "name": "role",
          "type": "bytes32"
        },
        {
          "internalType": "address",
          "name": "account",
          "type": "address"
        }
      ],
      "name": "revokeRole",
      "outputs": [],
      "stateMutability": "nonpayable",
      "type": "function"
    },
    {
      "inputs": [],
      "name": "rewardToken",
      "outputs": [
        {
          "internalType": "address",
          "name": "",
          "type": "address"
        }
      ],
      "stateMutability": "view",
      "type": "function"
    },
    {
      "inputs": [
        {
          "internalType": "uint48",
          "name": "_lockTimePeriod",
          "type": "uint48"
        }
      ],
      "name": "setLockTimePeriod",
      "outputs": [],
      "stateMutability": "nonpayable",
      "type": "function"
    },
    {
      "inputs": [
        {
          "internalType": "address",
          "name": "newRewardToken",
          "type": "address"
        }
      ],
      "name": "setRewardToken",
      "outputs": [],
      "stateMutability": "nonpayable",
      "type": "function"
    },
    {
      "inputs": [
        {
          "internalType": "uint48",
          "name": "_stakeRewardEndTime",
          "type": "uint48"
        }
      ],
      "name": "setStakeRewardEndTime",
      "outputs": [],
      "stateMutability": "nonpayable",
      "type": "function"
    },
    {
      "inputs": [
        {
          "internalType": "uint256",
          "name": "_stakeRewardFactor",
          "type": "uint256"
        }
      ],
      "name": "setStakeRewardFactor",
      "outputs": [],
      "stateMutability": "nonpayable",
      "type": "function"
    },
    {
      "inputs": [
        {
          "internalType": "uint256",
          "name": "_amount",
          "type": "uint256"
        }
      ],
      "name": "stake",
      "outputs": [
        {
          "internalType": "uint256",
          "name": "",
          "type": "uint256"
        }
      ],
      "stateMutability": "nonpayable",
      "type": "function"
    },
    {
      "inputs": [
        {
          "internalType": "address",
          "name": "_staker",
          "type": "address"
        }
      ],
      "name": "stakeAmount",
      "outputs": [
        {
          "internalType": "uint256",
          "name": "balance",
          "type": "uint256"
        }
      ],
      "stateMutability": "view",
      "type": "function"
    },
    {
      "inputs": [],
      "name": "stakeAmount_msgSender",
      "outputs": [
        {
          "internalType": "uint256",
          "name": "",
          "type": "uint256"
        }
      ],
      "stateMutability": "view",
      "type": "function"
    },
    {
      "inputs": [],
      "name": "stakeRewardEndTime",
      "outputs": [
        {
          "internalType": "uint48",
          "name": "",
          "type": "uint48"
        }
      ],
      "stateMutability": "view",
      "type": "function"
    },
    {
      "inputs": [],
      "name": "stakeRewardFactor",
      "outputs": [
        {
          "internalType": "uint256",
          "name": "",
          "type": "uint256"
        }
      ],
      "stateMutability": "view",
      "type": "function"
    },
    {
      "inputs": [
        {
          "internalType": "address",
          "name": "_staker",
          "type": "address"
        }
      ],
      "name": "stakeTime",
      "outputs": [
        {
          "internalType": "uint48",
          "name": "dateTime",
          "type": "uint48"
        }
      ],
      "stateMutability": "view",
      "type": "function"
    },
    {
      "inputs": [],
      "name": "stakeTime_msgSender",
      "outputs": [
        {
          "internalType": "uint48",
          "name": "",
          "type": "uint48"
        }
      ],
      "stateMutability": "view",
      "type": "function"
    },
    {
      "inputs": [],
      "name": "stakingToken",
      "outputs": [
        {
          "internalType": "address",
          "name": "",
          "type": "address"
        }
      ],
      "stateMutability": "view",
      "type": "function"
    },
    {
      "inputs": [
        {
          "internalType": "bytes4",
          "name": "interfaceId",
          "type": "bytes4"
        }
      ],
      "name": "supportsInterface",
      "outputs": [
        {
          "internalType": "bool",
          "name": "",
          "type": "bool"
        }
      ],
      "stateMutability": "view",
      "type": "function"
    },
    {
      "inputs": [],
      "name": "tokenTotalStaked",
      "outputs": [
        {
          "internalType": "uint256",
          "name": "",
          "type": "uint256"
        }
      ],
      "stateMutability": "view",
      "type": "function"
    },
    {
      "inputs": [
        {
          "internalType": "address",
          "name": "_staker",
          "type": "address"
        }
      ],
      "name": "userAccumulatedRewards",
      "outputs": [
        {
          "internalType": "uint256",
          "name": "rewards",
          "type": "uint256"
        }
      ],
      "stateMutability": "view",
      "type": "function"
    },
    {
      "inputs": [],
      "name": "userAccumulatedRewards_msgSender",
      "outputs": [
        {
          "internalType": "uint256",
          "name": "",
          "type": "uint256"
        }
      ],
      "stateMutability": "view",
      "type": "function"
    },
    {
      "inputs": [
        {
          "internalType": "address",
          "name": "_staker",
          "type": "address"
        }
      ],
      "name": "userClaimableRewards",
      "outputs": [
        {
          "internalType": "uint256",
          "name": "",
          "type": "uint256"
        }
      ],
      "stateMutability": "view",
      "type": "function"
    },
    {
      "inputs": [],
      "name": "userClaimableRewards_msgSender",
      "outputs": [
        {
          "internalType": "uint256",
          "name": "",
          "type": "uint256"
        }
      ],
      "stateMutability": "view",
      "type": "function"
    },
    {
      "inputs": [
        {
          "internalType": "address",
          "name": "",
          "type": "address"
        }
      ],
      "name": "userMap",
      "outputs": [
        {
          "internalType": "uint48",
          "name": "stakeTime",
          "type": "uint48"
        },
        {
          "internalType": "uint48",
          "name": "unlockTime",
          "type": "uint48"
        },
        {
          "internalType": "uint160",
          "name": "stakeAmount",
          "type": "uint160"
        },
        {
          "internalType": "uint256",
          "name": "accumulatedRewards",
          "type": "uint256"
        }
      ],
      "stateMutability": "view",
      "type": "function"
    },
    {
      "inputs": [
        {
          "internalType": "address",
          "name": "_staker",
          "type": "address"
        }
      ],
      "name": "userTotalRewards",
      "outputs": [
        {
          "internalType": "uint256",
          "name": "",
          "type": "uint256"
        }
      ],
      "stateMutability": "view",
      "type": "function"
    },
    {
      "inputs": [],
      "name": "userTotalRewards_msgSender",
      "outputs": [
        {
          "internalType": "uint256",
          "name": "",
          "type": "uint256"
        }
      ],
      "stateMutability": "view",
      "type": "function"
    },
    {
      "inputs": [
        {
          "internalType": "uint256",
          "name": "amount",
          "type": "uint256"
        }
      ],
      "name": "withdraw",
      "outputs": [
        {
          "internalType": "uint256",
          "name": "",
          "type": "uint256"
        }
      ],
      "stateMutability": "nonpayable",
      "type": "function"
    },
    {
      "inputs": [],
      "name": "withdrawAll",
      "outputs": [
        {
          "internalType": "uint256",
          "name": "",
          "type": "uint256"
        }
      ],
      "stateMutability": "nonpayable",
      "type": "function"
    }
  ],
  "bytecode": "0x60a06040523480156200001157600080fd5b5060405162004201380380620042018339818101604052810190620000379190620003df565b60018081905550600073ffffffffffffffffffffffffffffffffffffffff168273ffffffffffffffffffffffffffffffffffffffff161415620000b1576040517f08c379a0000000000000000000000000000000000000000000000000000000008152600401620000a89062000487565b60405180910390fd5b6301e285008165ffffffffffff161062000102576040517f08c379a0000000000000000000000000000000000000000000000000000000008152600401620000f990620004f9565b60405180910390fd5b8173ffffffffffffffffffffffffffffffffffffffff1660808173ffffffffffffffffffffffffffffffffffffffff168152505080600460146101000a81548165ffffffffffff021916908365ffffffffffff1602179055506305265c006005819055506301e285004262000178919062000554565b6004601a6101000a81548165ffffffffffff021916908365ffffffffffff160217905550620001b16000801b33620001b960201b60201c565b5050620005b1565b620001cb8282620001cf60201b60201c565b5050565b620001e18282620002c060201b60201c565b620002bc57600160008084815260200190815260200160002060000160008373ffffffffffffffffffffffffffffffffffffffff1673ffffffffffffffffffffffffffffffffffffffff16815260200190815260200160002060006101000a81548160ff021916908315150217905550620002616200032a60201b60201c565b73ffffffffffffffffffffffffffffffffffffffff168173ffffffffffffffffffffffffffffffffffffffff16837f2f8788117e7eff1d82e926ec794901d17c78024a50270940304540a733656f0d60405160405180910390a45b5050565b600080600084815260200190815260200160002060000160008373ffffffffffffffffffffffffffffffffffffffff1673ffffffffffffffffffffffffffffffffffffffff16815260200190815260200160002060009054906101000a900460ff16905092915050565b600033905090565b600080fd5b600073ffffffffffffffffffffffffffffffffffffffff82169050919050565b6000620003648262000337565b9050919050565b620003768162000357565b81146200038257600080fd5b50565b60008151905062000396816200036b565b92915050565b600065ffffffffffff82169050919050565b620003b9816200039c565b8114620003c557600080fd5b50565b600081519050620003d981620003ae565b92915050565b60008060408385031215620003f957620003f862000332565b5b6000620004098582860162000385565b92505060206200041c85828601620003c8565b9150509250929050565b600082825260208201905092915050565b7f7374616b696e67546f6b656e2e61646472657373203d3d203000000000000000600082015250565b60006200046f60198362000426565b91506200047c8262000437565b602082019050919050565b60006020820190508181036000830152620004a28162000460565b9050919050565b7f6c6f636b54696d65506572696f64203e3d203336362064617973000000000000600082015250565b6000620004e1601a8362000426565b9150620004ee82620004a9565b602082019050919050565b600060208201905081810360008301526200051481620004d2565b9050919050565b6000819050919050565b7f4e487b7100000000000000000000000000000000000000000000000000000000600052601160045260246000fd5b600062000561826200051b565b91506200056e836200051b565b9250827fffffffffffffffffffffffffffffffffffffffffffffffffffffffffffffffff03821115620005a657620005a562000525565b5b828201905092915050565b608051613c18620005e960003960008181610d1401528181610fc80152818161134101528181611b71015261225f0152613c186000f3fe608060405234801561001057600080fd5b506004361061025e5760003560e01c806387f075d911610146578063bf135267116100c3578063dfdf35c411610087578063dfdf35c41461076a578063ee2d505e14610786578063ee61e0cd146107b6578063f3b95cd7146107d2578063f6a3f3cf146107ee578063f7c618c11461081e5761025e565b8063bf135267146106b2578063d547741f146106e2578063d953a867146106fe578063dbed1e881461071c578063de3717fc1461074c5761025e565b80639a7cc1b81161010a5780639a7cc1b81461060a578063a217fddf14610628578063a38a57c414610646578063a694fc3a14610664578063aaa748d3146106945761025e565b806387f075d9146105665780638aee8127146105845780638efb31c7146105a057806391d14854146105bc57806393ce5343146105ec5761025e565b80632f2ff15d116101df5780635bd4b5df116101a35780635bd4b5df146104a05780636bb64e23146104be57806370a08231146104dc57806372f702f31461050c578063853828b61461052a578063872b26da146105485761025e565b80632f2ff15d1461041057806336568abe1461042c5780633cb2efc9146104485780634e71d92d146104665780635951eff1146104845761025e565b8063248a9ca311610226578063248a9ca3146103415780632694998414610371578063282c51f31461038f5780632bcc23f8146103ad5780632e1a7d4d146103e05761025e565b806301ffc9a7146102635780630584bd091461029357806307dc1e1a146102c357806309ef67e6146102e15780632170e47214610311575b600080fd5b61027d60048036038101906102789190612ac0565b61083c565b60405161028a9190612b08565b60405180910390f35b6102ad60048036038101906102a89190612b81565b6108b6565b6040516102ba9190612bc7565b60405180910390f35b6102cb610a5b565b6040516102d89190612bc7565b60405180910390f35b6102fb60048036038101906102f69190612b81565b610aa5565b6040516103089190612bc7565b60405180910390f35b61032b60048036038101906103269190612b81565b610af1565b6040516103389190612c03565b60405180910390f35b61035b60048036038101906103569190612c54565b610b4f565b6040516103689190612c90565b60405180910390f35b610379610b6e565b6040516103869190612c03565b60405180910390f35b610397610b78565b6040516103a49190612c90565b60405180910390f35b6103c760048036038101906103c29190612b81565b610b9c565b6040516103d79493929190612cba565b60405180910390f35b6103fa60048036038101906103f59190612d2b565b610c10565b6040516104079190612bc7565b60405180910390f35b61042a60048036038101906104259190612d58565b610c32565b005b61044660048036038101906104419190612d58565b610c53565b005b610450610cd6565b60405161045d9190612c03565b60405180910390f35b61046e610ce6565b60405161047b9190612bc7565b60405180910390f35b61049e60048036038101906104999190612b81565b610d05565b005b6104a8610eb4565b6040516104b59190612bc7565b60405180910390f35b6104c6610ec4565b6040516104d39190612bc7565b60405180910390f35b6104f660048036038101906104f19190612b81565b610f44565b6040516105039190612bc7565b60405180910390f35b610514610fc6565b6040516105219190612da7565b60405180910390f35b610532610fea565b60405161053f9190612bc7565b60405180910390f35b610550611011565b60405161055d9190612bc7565b60405180910390f35b61056e611017565b60405161057b9190612bc7565b60405180910390f35b61059e60048036038101906105999190612b81565b61101d565b005b6105ba60048036038101906105b59190612d2b565b61114e565b005b6105d660048036038101906105d19190612d58565b61119d565b6040516105e39190612b08565b60405180910390f35b6105f4611207565b6040516106019190612bc7565b60405180910390f35b610612611391565b60405161061f9190612bc7565b60405180910390f35b6106306113a1565b60405161063d9190612c90565b60405180910390f35b61064e6113a8565b60405161065b9190612c03565b60405180910390f35b61067e60048036038101906106799190612d2b565b6113c0565b60405161068b9190612bc7565b60405180910390f35b61069c6113e2565b6040516106a99190612c03565b60405180910390f35b6106cc60048036038101906106c79190612b81565b61143e565b6040516106d99190612bc7565b60405180910390f35b6106fc60048036038101906106f79190612d58565b6114c0565b005b6107066114e1565b6040516107139190612c03565b60405180910390f35b61073660048036038101906107319190612b81565b6114f9565b6040516107439190612c03565b60405180910390f35b6107546115e3565b6040516107619190612bc7565b60405180910390f35b610784600480360381019061077f9190612dee565b6115f3565b005b6107a0600480360381019061079b9190612b81565b6116be565b6040516107ad9190612bc7565b60405180910390f35b6107d060048036038101906107cb9190612dee565b61174a565b005b6107ec60048036038101906107e79190612e1b565b6117b7565b005b61080860048036038101906108039190612b81565b611879565b6040516108159190612bc7565b60405180910390f35b6108266118d8565b6040516108339190612da7565b60405180910390f35b60007f7965db0b000000000000000000000000000000000000000000000000000000007bffffffffffffffffffffffffffffffffffffffffffffffffffffffff1916827bffffffffffffffffffffffffffffffffffffffffffffffffffffffff191614806108af57506108ae826118fe565b5b9050919050565b600080600260008473ffffffffffffffffffffffffffffffffffffffff1673ffffffffffffffffffffffffffffffffffffffff16815260200190815260200160002090508060000160009054906101000a900465ffffffffffff1665ffffffffffff164211610929576000915050610a56565b8060000160009054906101000a900465ffffffffffff1665ffffffffffff166004601a9054906101000a900465ffffffffffff1665ffffffffffff1611610974576000915050610a56565b60006004601a9054906101000a900465ffffffffffff1665ffffffffffff1642116109ca578160000160009054906101000a900465ffffffffffff1665ffffffffffff16426109c39190612e8a565b9050610a0b565b8160000160009054906101000a900465ffffffffffff166004601a9054906101000a900465ffffffffffff16610a009190612ebe565b65ffffffffffff1690505b81600001600c9054906101000a900473ffffffffffffffffffffffffffffffffffffffff1673ffffffffffffffffffffffffffffffffffffffff1681610a519190612ef2565b925050505b919050565b6000600260003373ffffffffffffffffffffffffffffffffffffffff1673ffffffffffffffffffffffffffffffffffffffff16815260200190815260200160002060010154905090565b6000600260008373ffffffffffffffffffffffffffffffffffffffff1673ffffffffffffffffffffffffffffffffffffffff168152602001908152602001600020600101549050919050565b6000600260008373ffffffffffffffffffffffffffffffffffffffff1673ffffffffffffffffffffffffffffffffffffffff16815260200190815260200160002060000160009054906101000a900465ffffffffffff169050919050565b6000806000838152602001908152602001600020600101549050919050565b65ffffffffffff81565b7f3c11d16cbaffd01df69ce1c404f6340ee057498f5f00246190ea54220576a84881565b60026020528060005260406000206000915090508060000160009054906101000a900465ffffffffffff16908060000160069054906101000a900465ffffffffffff169080600001600c9054906101000a900473ffffffffffffffffffffffffffffffffffffffff16908060010154905084565b6000610c1a611968565b610c23826119b8565b9050610c2d611c16565b919050565b610c3b82610b4f565b610c4481611c1f565b610c4e8383611c33565b505050565b610c5b611d13565b73ffffffffffffffffffffffffffffffffffffffff168173ffffffffffffffffffffffffffffffffffffffff1614610cc8576040517f08c379a0000000000000000000000000000000000000000000000000000000008152600401610cbf90612fcf565b60405180910390fd5b610cd28282611d1b565b5050565b6000610ce1336114f9565b905090565b6000610cf0611968565b610cf8611dfc565b9050610d02611c16565b90565b6000801b610d1281611c1f565b7f000000000000000000000000000000000000000000000000000000000000000073ffffffffffffffffffffffffffffffffffffffff168273ffffffffffffffffffffffffffffffffffffffff161415610da1576040517f08c379a0000000000000000000000000000000000000000000000000000000008152600401610d989061303b565b60405180910390fd5b60008273ffffffffffffffffffffffffffffffffffffffff166370a08231306040518263ffffffff1660e01b8152600401610ddc9190612da7565b602060405180830381865afa158015610df9573d6000803e3d6000fd5b505050506040513d601f19601f82011682018060405250810190610e1d9190613070565b9050610e4a33828573ffffffffffffffffffffffffffffffffffffffff166120819092919063ffffffff16565b3373ffffffffffffffffffffffffffffffffffffffff168373ffffffffffffffffffffffffffffffffffffffff167f4c9443772ec3472e2ea8a88e5c31e6bb75e94541dc672d5ca2a1197ada10b59883604051610ea79190612bc7565b60405180910390a3505050565b6000610ebf336108b6565b905090565b6000600260003373ffffffffffffffffffffffffffffffffffffffff1673ffffffffffffffffffffffffffffffffffffffff168152602001908152602001600020600001600c9054906101000a900473ffffffffffffffffffffffffffffffffffffffff1673ffffffffffffffffffffffffffffffffffffffff16905090565b6000600260008373ffffffffffffffffffffffffffffffffffffffff1673ffffffffffffffffffffffffffffffffffffffff168152602001908152602001600020600001600c9054906101000a900473ffffffffffffffffffffffffffffffffffffffff1673ffffffffffffffffffffffffffffffffffffffff169050919050565b7f000000000000000000000000000000000000000000000000000000000000000081565b6000610ff4611968565b611004610fff610ec4565b6119b8565b905061100e611c16565b90565b60035481565b60055481565b611025611968565b6000801b61103281611c1f565b6000600460009054906101000a900473ffffffffffffffffffffffffffffffffffffffff1690506000611063611207565b9050600081111561109a5761109933828473ffffffffffffffffffffffffffffffffffffffff166120819092919063ffffffff16565b5b83600460006101000a81548173ffffffffffffffffffffffffffffffffffffffff021916908373ffffffffffffffffffffffffffffffffffffffff1602179055508373ffffffffffffffffffffffffffffffffffffffff168273ffffffffffffffffffffffffffffffffffffffff167fc133375757269458a329c73a344c8ef483535870f46ed4cd332f857a5ef525d0836040516111389190612bc7565b60405180910390a350505061114b611c16565b50565b6000801b61115b81611c1f565b816005819055507f929e0b2903ee7e8bb87bf220a340db1f5551e7042e5f2567ed08117c0709fa21826040516111919190612bc7565b60405180910390a15050565b600080600084815260200190815260200160002060000160008373ffffffffffffffffffffffffffffffffffffffff1673ffffffffffffffffffffffffffffffffffffffff16815260200190815260200160002060009054906101000a900460ff16905092915050565b60008073ffffffffffffffffffffffffffffffffffffffff16600460009054906101000a900473ffffffffffffffffffffffffffffffffffffffff1673ffffffffffffffffffffffffffffffffffffffff161415611268576000905061138e565b600460009054906101000a900473ffffffffffffffffffffffffffffffffffffffff1673ffffffffffffffffffffffffffffffffffffffff166370a08231306040518263ffffffff1660e01b81526004016112c39190612da7565b602060405180830381865afa1580156112e0573d6000803e3d6000fd5b505050506040513d601f19601f820116820180604052508101906113049190613070565b9050600460009054906101000a900473ffffffffffffffffffffffffffffffffffffffff1673ffffffffffffffffffffffffffffffffffffffff167f000000000000000000000000000000000000000000000000000000000000000073ffffffffffffffffffffffffffffffffffffffff16141561138d576003548161138a9190612e8a565b90505b5b90565b600061139c336116be565b905090565b6000801b81565b6004601a9054906101000a900465ffffffffffff1681565b60006113ca611968565b6113d382612107565b90506113dd611c16565b919050565b6000600260003373ffffffffffffffffffffffffffffffffffffffff1673ffffffffffffffffffffffffffffffffffffffff16815260200190815260200160002060000160009054906101000a900465ffffffffffff16905090565b6000600260008373ffffffffffffffffffffffffffffffffffffffff1673ffffffffffffffffffffffffffffffffffffffff168152602001908152602001600020600001600c9054906101000a900473ffffffffffffffffffffffffffffffffffffffff1673ffffffffffffffffffffffffffffffffffffffff169050919050565b6114c982610b4f565b6114d281611c1f565b6114dc8383611d1b565b505050565b600460149054906101000a900465ffffffffffff1681565b600080600260008473ffffffffffffffffffffffffffffffffffffffff1673ffffffffffffffffffffffffffffffffffffffff168152602001908152602001600020600001600c9054906101000a900473ffffffffffffffffffffffffffffffffffffffff1673ffffffffffffffffffffffffffffffffffffffff16116115865765ffffffffffff6115dc565b600260008373ffffffffffffffffffffffffffffffffffffffff1673ffffffffffffffffffffffffffffffffffffffff16815260200190815260200160002060000160069054906101000a900465ffffffffffff165b9050919050565b60006115ee33611879565b905090565b6000801b61160081611c1f565b426004601a9054906101000a900465ffffffffffff1665ffffffffffff161161165e576040517f08c379a0000000000000000000000000000000000000000000000000000000008152600401611655906130e9565b60405180910390fd5b816004601a6101000a81548165ffffffffffff021916908365ffffffffffff1602179055507fb8ec1a7db76539d0a932b67153298ec5ba41b1f965bd5f66e9419431d517291a826040516116b29190612c03565b60405180910390a15050565b60008073ffffffffffffffffffffffffffffffffffffffff16600460009054906101000a900473ffffffffffffffffffffffffffffffffffffffff1673ffffffffffffffffffffffffffffffffffffffff16148061171e57506000600554145b1561172c5760009050611745565b60055461173883611879565b6117429190613138565b90505b919050565b6000801b61175781611c1f565b81600460146101000a81548165ffffffffffff021916908365ffffffffffff1602179055507fe9f020bdf01408388704d87e8162e06252d160de9f8cc075b32ce7ebbebc263e826040516117ab9190612c03565b60405180910390a15050565b7f3c11d16cbaffd01df69ce1c404f6340ee057498f5f00246190ea54220576a8486117e181611c1f565b60006117ec84612305565b9050806001015483101561181a578281600101600082825461180e9190612e8a565b92505081905550611825565b600081600101819055505b8373ffffffffffffffffffffffffffffffffffffffff167f33e88885e6abd26d1f3ea3b4b37c2f6e0ff31fa24c7721763eca867537bdf5d28460405161186b9190612bc7565b60405180910390a250505050565b6000600260008373ffffffffffffffffffffffffffffffffffffffff1673ffffffffffffffffffffffffffffffffffffffff168152602001908152602001600020600101546118c7836108b6565b6118d19190613169565b9050919050565b600460009054906101000a900473ffffffffffffffffffffffffffffffffffffffff1681565b60007f01ffc9a7000000000000000000000000000000000000000000000000000000007bffffffffffffffffffffffffffffffffffffffffffffffffffffffff1916827bffffffffffffffffffffffffffffffffffffffffffffffffffffffff1916149050919050565b600260015414156119ae576040517f08c379a00000000000000000000000000000000000000000000000000000000081526004016119a59061320b565b60405180910390fd5b6002600181905550565b60008082116119fc576040517f08c379a00000000000000000000000000000000000000000000000000000000081526004016119f390613277565b60405180910390fd5b611a05336114f9565b65ffffffffffff164211611a4e576040517f08c379a0000000000000000000000000000000000000000000000000000000008152600401611a45906132e3565b60405180910390fd5b6000611a5933612305565b905080600001600c9054906101000a900473ffffffffffffffffffffffffffffffffffffffff1673ffffffffffffffffffffffffffffffffffffffff16831115611ad8576040517f08c379a0000000000000000000000000000000000000000000000000000000008152600401611acf9061334f565b60405180910390fd5b611ae18361239f565b81600001600c8282829054906101000a900473ffffffffffffffffffffffffffffffffffffffff16611b13919061336f565b92506101000a81548173ffffffffffffffffffffffffffffffffffffffff021916908373ffffffffffffffffffffffffffffffffffffffff1602179055508260036000828254611b639190612e8a565b92505081905550611bb533847f000000000000000000000000000000000000000000000000000000000000000073ffffffffffffffffffffffffffffffffffffffff166120819092919063ffffffff16565b3373ffffffffffffffffffffffffffffffffffffffff167ff279e6a1f5e320cca91135676d9cb6e44ca8a08c0b88342bcdb1144f6511b56884611bf742612402565b604051611c059291906133de565b60405180910390a282915050919050565b60018081905550565b611c3081611c2b611d13565b612457565b50565b611c3d828261119d565b611d0f57600160008084815260200190815260200160002060000160008373ffffffffffffffffffffffffffffffffffffffff1673ffffffffffffffffffffffffffffffffffffffff16815260200190815260200160002060006101000a81548160ff021916908315150217905550611cb4611d13565b73ffffffffffffffffffffffffffffffffffffffff168173ffffffffffffffffffffffffffffffffffffffff16837f2f8788117e7eff1d82e926ec794901d17c78024a50270940304540a733656f0d60405160405180910390a45b5050565b600033905090565b611d25828261119d565b15611df857600080600084815260200190815260200160002060000160008373ffffffffffffffffffffffffffffffffffffffff1673ffffffffffffffffffffffffffffffffffffffff16815260200190815260200160002060006101000a81548160ff021916908315150217905550611d9d611d13565b73ffffffffffffffffffffffffffffffffffffffff168173ffffffffffffffffffffffffffffffffffffffff16837ff6391f5c32d9c69d2a47ea670b442974b53935d1edc7fd64eb21e047a839171b60405160405180910390a45b5050565b60008073ffffffffffffffffffffffffffffffffffffffff16600460009054906101000a900473ffffffffffffffffffffffffffffffffffffffff1673ffffffffffffffffffffffffffffffffffffffff161415611e8f576040517f08c379a0000000000000000000000000000000000000000000000000000000008152600401611e8690613453565b60405180910390fd5b6000611e9a336116be565b905060008111611edf576040517f08c379a0000000000000000000000000000000000000000000000000000000008152600401611ed6906134bf565b60405180910390fd5b6000600260003373ffffffffffffffffffffffffffffffffffffffff1673ffffffffffffffffffffffffffffffffffffffff168152602001908152602001600020905060008160010181905550611f3542612402565b8160000160006101000a81548165ffffffffffff021916908365ffffffffffff160217905550611f63611207565b821115611fa5576040517f08c379a0000000000000000000000000000000000000000000000000000000008152600401611f9c9061352b565b60405180910390fd5b611ff23383600460009054906101000a900473ffffffffffffffffffffffffffffffffffffffff1673ffffffffffffffffffffffffffffffffffffffff166120819092919063ffffffff16565b600460009054906101000a900473ffffffffffffffffffffffffffffffffffffffff1673ffffffffffffffffffffffffffffffffffffffff163373ffffffffffffffffffffffffffffffffffffffff167ff7a40077ff7a04c7e61f6f26fb13774259ddf1b6bce9ecf26a8276cdd3992683846040516120719190612bc7565b60405180910390a3819250505090565b6121028363a9059cbb60e01b84846040516024016120a092919061354b565b604051602081830303815290604052907bffffffffffffffffffffffffffffffffffffffffffffffffffffffff19166020820180517bffffffffffffffffffffffffffffffffffffffffffffffffffffffff83818316178352505050506124dc565b505050565b600080821161214b576040517f08c379a0000000000000000000000000000000000000000000000000000000008152600401612142906135c0565b60405180910390fd5b600061215633612305565b90506121a68382600001600c9054906101000a900473ffffffffffffffffffffffffffffffffffffffff1673ffffffffffffffffffffffffffffffffffffffff166121a19190613169565b61239f565b81600001600c6101000a81548173ffffffffffffffffffffffffffffffffffffffff021916908373ffffffffffffffffffffffffffffffffffffffff16021790555082600360008282546121fa9190613169565b92505081905550612231600460149054906101000a900465ffffffffffff1665ffffffffffff164261222c9190613169565b612402565b8160000160066101000a81548165ffffffffffff021916908365ffffffffffff1602179055506122a43330857f000000000000000000000000000000000000000000000000000000000000000073ffffffffffffffffffffffffffffffffffffffff166125a3909392919063ffffffff16565b3373ffffffffffffffffffffffffffffffffffffffff167f5af417134f72a9d41143ace85b0a26dce6f550f894f2cbc1eeee8810603d91b6846122e642612402565b6040516122f49291906133de565b60405180910390a282915050919050565b6000600260008373ffffffffffffffffffffffffffffffffffffffff1673ffffffffffffffffffffffffffffffffffffffff1681526020019081526020016000209050612351826108b6565b8160010160008282546123649190613169565b9250508190555061237442612402565b8160000160006101000a81548165ffffffffffff021916908365ffffffffffff160217905550919050565b600073ffffffffffffffffffffffffffffffffffffffff80168211156123fa576040517f08c379a00000000000000000000000000000000000000000000000000000000081526004016123f19061362c565b60405180910390fd5b819050919050565b600065ffffffffffff801682111561244f576040517f08c379a000000000000000000000000000000000000000000000000000000000815260040161244690613698565b60405180910390fd5b819050919050565b612461828261119d565b6124d85761246e8161262c565b61247c8360001c6020612659565b60405160200161248d9291906137ca565b6040516020818303038152906040526040517f08c379a00000000000000000000000000000000000000000000000000000000081526004016124cf919061384e565b60405180910390fd5b5050565b600061253e826040518060400160405280602081526020017f5361666545524332303a206c6f772d6c6576656c2063616c6c206661696c65648152508573ffffffffffffffffffffffffffffffffffffffff166128959092919063ffffffff16565b905060008151111561259e578080602001905181019061255e919061389c565b61259d576040517f08c379a00000000000000000000000000000000000000000000000000000000081526004016125949061393b565b60405180910390fd5b5b505050565b612626846323b872dd60e01b8585856040516024016125c49392919061395b565b604051602081830303815290604052907bffffffffffffffffffffffffffffffffffffffffffffffffffffffff19166020820180517bffffffffffffffffffffffffffffffffffffffffffffffffffffffff83818316178352505050506124dc565b50505050565b60606126528273ffffffffffffffffffffffffffffffffffffffff16601460ff16612659565b9050919050565b60606000600283600261266c9190612ef2565b6126769190613169565b67ffffffffffffffff81111561268f5761268e613992565b5b6040519080825280601f01601f1916602001820160405280156126c15781602001600182028036833780820191505090505b5090507f3000000000000000000000000000000000000000000000000000000000000000816000815181106126f9576126f86139c1565b5b60200101907effffffffffffffffffffffffffffffffffffffffffffffffffffffffffffff1916908160001a9053507f78000000000000000000000000000000000000000000000000000000000000008160018151811061275d5761275c6139c1565b5b60200101907effffffffffffffffffffffffffffffffffffffffffffffffffffffffffffff1916908160001a9053506000600184600261279d9190612ef2565b6127a79190613169565b90505b6001811115612847577f3031323334353637383961626364656600000000000000000000000000000000600f8616601081106127e9576127e86139c1565b5b1a60f81b828281518110612800576127ff6139c1565b5b60200101907effffffffffffffffffffffffffffffffffffffffffffffffffffffffffffff1916908160001a905350600485901c945080612840906139f0565b90506127aa565b506000841461288b576040517f08c379a000000000000000000000000000000000000000000000000000000000815260040161288290613a66565b60405180910390fd5b8091505092915050565b60606128a484846000856128ad565b90509392505050565b6060824710156128f2576040517f08c379a00000000000000000000000000000000000000000000000000000000081526004016128e990613af8565b60405180910390fd5b6000808673ffffffffffffffffffffffffffffffffffffffff16858760405161291b9190613b5f565b60006040518083038185875af1925050503d8060008114612958576040519150601f19603f3d011682016040523d82523d6000602084013e61295d565b606091505b509150915061296e8783838761297a565b92505050949350505050565b606083156129dd576000835114156129d557612995856129f0565b6129d4576040517f08c379a00000000000000000000000000000000000000000000000000000000081526004016129cb90613bc2565b60405180910390fd5b5b8290506129e8565b6129e78383612a13565b5b949350505050565b6000808273ffffffffffffffffffffffffffffffffffffffff163b119050919050565b600082511115612a265781518083602001fd5b806040517f08c379a0000000000000000000000000000000000000000000000000000000008152600401612a5a919061384e565b60405180910390fd5b600080fd5b60007fffffffff0000000000000000000000000000000000000000000000000000000082169050919050565b612a9d81612a68565b8114612aa857600080fd5b50565b600081359050612aba81612a94565b92915050565b600060208284031215612ad657612ad5612a63565b5b6000612ae484828501612aab565b91505092915050565b60008115159050919050565b612b0281612aed565b82525050565b6000602082019050612b1d6000830184612af9565b92915050565b600073ffffffffffffffffffffffffffffffffffffffff82169050919050565b6000612b4e82612b23565b9050919050565b612b5e81612b43565b8114612b6957600080fd5b50565b600081359050612b7b81612b55565b92915050565b600060208284031215612b9757612b96612a63565b5b6000612ba584828501612b6c565b91505092915050565b6000819050919050565b612bc181612bae565b82525050565b6000602082019050612bdc6000830184612bb8565b92915050565b600065ffffffffffff82169050919050565b612bfd81612be2565b82525050565b6000602082019050612c186000830184612bf4565b92915050565b6000819050919050565b612c3181612c1e565b8114612c3c57600080fd5b50565b600081359050612c4e81612c28565b92915050565b600060208284031215612c6a57612c69612a63565b5b6000612c7884828501612c3f565b91505092915050565b612c8a81612c1e565b82525050565b6000602082019050612ca56000830184612c81565b92915050565b612cb481612b23565b82525050565b6000608082019050612ccf6000830187612bf4565b612cdc6020830186612bf4565b612ce96040830185612cab565b612cf66060830184612bb8565b95945050505050565b612d0881612bae565b8114612d1357600080fd5b50565b600081359050612d2581612cff565b92915050565b600060208284031215612d4157612d40612a63565b5b6000612d4f84828501612d16565b91505092915050565b60008060408385031215612d6f57612d6e612a63565b5b6000612d7d85828601612c3f565b9250506020612d8e85828601612b6c565b9150509250929050565b612da181612b43565b82525050565b6000602082019050612dbc6000830184612d98565b92915050565b612dcb81612be2565b8114612dd657600080fd5b50565b600081359050612de881612dc2565b92915050565b600060208284031215612e0457612e03612a63565b5b6000612e1284828501612dd9565b91505092915050565b60008060408385031215612e3257612e31612a63565b5b6000612e4085828601612b6c565b9250506020612e5185828601612d16565b9150509250929050565b7f4e487b7100000000000000000000000000000000000000000000000000000000600052601160045260246000fd5b6000612e9582612bae565b9150612ea083612bae565b925082821015612eb357612eb2612e5b565b5b828203905092915050565b6000612ec982612be2565b9150612ed483612be2565b925082821015612ee757612ee6612e5b565b5b828203905092915050565b6000612efd82612bae565b9150612f0883612bae565b9250817fffffffffffffffffffffffffffffffffffffffffffffffffffffffffffffffff0483118215151615612f4157612f40612e5b565b5b828202905092915050565b600082825260208201905092915050565b7f416363657373436f6e74726f6c3a2063616e206f6e6c792072656e6f756e636560008201527f20726f6c657320666f722073656c660000000000000000000000000000000000602082015250565b6000612fb9602f83612f4c565b9150612fc482612f5d565b604082019050919050565b60006020820190508181036000830152612fe881612fac565b9050919050565b7f63616e206e6f74207769746864726177207374616b696e6720746f6b656e0000600082015250565b6000613025601e83612f4c565b915061303082612fef565b602082019050919050565b6000602082019050818103600083015261305481613018565b9050919050565b60008151905061306a81612cff565b92915050565b60006020828403121561308657613085612a63565b5b60006130948482850161305b565b91505092915050565b7f74696d652068617320746f20626520696e207468652066757475726500000000600082015250565b60006130d3601c83612f4c565b91506130de8261309d565b602082019050919050565b60006020820190508181036000830152613102816130c6565b9050919050565b7f4e487b7100000000000000000000000000000000000000000000000000000000600052601260045260246000fd5b600061314382612bae565b915061314e83612bae565b92508261315e5761315d613109565b5b828204905092915050565b600061317482612bae565b915061317f83612bae565b9250827fffffffffffffffffffffffffffffffffffffffffffffffffffffffffffffffff038211156131b4576131b3612e5b565b5b828201905092915050565b7f5265656e7472616e637947756172643a207265656e7472616e742063616c6c00600082015250565b60006131f5601f83612f4c565b9150613200826131bf565b602082019050919050565b60006020820190508181036000830152613224816131e8565b9050919050565b7f616d6f756e7420746f207769746864726177206e6f74203e2030000000000000600082015250565b6000613261601a83612f4c565b915061326c8261322b565b602082019050919050565b6000602082019050818103600083015261329081613254565b9050919050565b7f7374616b656420746f6b656e7320617265207374696c6c206c6f636b65640000600082015250565b60006132cd601e83612f4c565b91506132d882613297565b602082019050919050565b600060208201905081810360008301526132fc816132c0565b9050919050565b7f776974686472617720616d6f756e74203e207374616b656420616d6f756e7400600082015250565b6000613339601f83612f4c565b915061334482613303565b602082019050919050565b600060208201905081810360008301526133688161332c565b9050919050565b600061337a82612b23565b915061338583612b23565b92508282101561339857613397612e5b565b5b828203905092915050565b6000819050919050565b60006133c86133c36133be84612be2565b6133a3565b612bae565b9050919050565b6133d8816133ad565b82525050565b60006040820190506133f36000830185612bb8565b61340060208301846133cf565b9392505050565b7f6e6f2072657761726420746f6b656e20636f6e74726163740000000000000000600082015250565b600061343d601883612f4c565b915061344882613407565b602082019050919050565b6000602082019050818103600083015261346c81613430565b9050919050565b7f6e6f20746f6b656e7320746f20636c61696d0000000000000000000000000000600082015250565b60006134a9601283612f4c565b91506134b482613473565b602082019050919050565b600060208201905081810360008301526134d88161349c565b9050919050565b7f6e6f7420656e6f7567682072657761726420746f6b656e730000000000000000600082015250565b6000613515601883612f4c565b9150613520826134df565b602082019050919050565b6000602082019050818103600083015261354481613508565b9050919050565b60006040820190506135606000830185612d98565b61356d6020830184612bb8565b9392505050565b7f7374616b6520616d6f756e74206d757374206265203e20300000000000000000600082015250565b60006135aa601883612f4c565b91506135b582613574565b602082019050919050565b600060208201905081810360008301526135d98161359d565b9050919050565b7f76616c756520646f65736e27742066697420696e203136302062697473000000600082015250565b6000613616601d83612f4c565b9150613621826135e0565b602082019050919050565b6000602082019050818103600083015261364581613609565b9050919050565b7f76616c756520646f65736e27742066697420696e203438206269747300000000600082015250565b6000613682601c83612f4c565b915061368d8261364c565b602082019050919050565b600060208201905081810360008301526136b181613675565b9050919050565b600081905092915050565b7f416363657373436f6e74726f6c3a206163636f756e7420000000000000000000600082015250565b60006136f96017836136b8565b9150613704826136c3565b601782019050919050565b600081519050919050565b60005b8381101561373857808201518184015260208101905061371d565b83811115613747576000848401525b50505050565b60006137588261370f565b61376281856136b8565b935061377281856020860161371a565b80840191505092915050565b7f206973206d697373696e6720726f6c6520000000000000000000000000000000600082015250565b60006137b46011836136b8565b91506137bf8261377e565b601182019050919050565b60006137d5826136ec565b91506137e1828561374d565b91506137ec826137a7565b91506137f8828461374d565b91508190509392505050565b6000601f19601f8301169050919050565b60006138208261370f565b61382a8185612f4c565b935061383a81856020860161371a565b61384381613804565b840191505092915050565b600060208201905081810360008301526138688184613815565b905092915050565b61387981612aed565b811461388457600080fd5b50565b60008151905061389681613870565b92915050565b6000602082840312156138b2576138b1612a63565b5b60006138c084828501613887565b91505092915050565b7f5361666545524332303a204552433230206f7065726174696f6e20646964206e60008201527f6f74207375636365656400000000000000000000000000000000000000000000602082015250565b6000613925602a83612f4c565b9150613930826138c9565b604082019050919050565b6000602082019050818103600083015261395481613918565b9050919050565b60006060820190506139706000830186612d98565b61397d6020830185612d98565b61398a6040830184612bb8565b949350505050565b7f4e487b7100000000000000000000000000000000000000000000000000000000600052604160045260246000fd5b7f4e487b7100000000000000000000000000000000000000000000000000000000600052603260045260246000fd5b60006139fb82612bae565b91506000821415613a0f57613a0e612e5b565b5b600182039050919050565b7f537472696e67733a20686578206c656e67746820696e73756666696369656e74600082015250565b6000613a50602083612f4c565b9150613a5b82613a1a565b602082019050919050565b60006020820190508181036000830152613a7f81613a43565b9050919050565b7f416464726573733a20696e73756666696369656e742062616c616e636520666f60008201527f722063616c6c0000000000000000000000000000000000000000000000000000602082015250565b6000613ae2602683612f4c565b9150613aed82613a86565b604082019050919050565b60006020820190508181036000830152613b1181613ad5565b9050919050565b600081519050919050565b600081905092915050565b6000613b3982613b18565b613b438185613b23565b9350613b5381856020860161371a565b80840191505092915050565b6000613b6b8284613b2e565b915081905092915050565b7f416464726573733a2063616c6c20746f206e6f6e2d636f6e7472616374000000600082015250565b6000613bac601d83612f4c565b9150613bb782613b76565b602082019050919050565b60006020820190508181036000830152613bdb81613b9f565b905091905056fea2646970667358221220eb3858010c4ff6ab4bb240867f528a0ad02bb981a2b9388f45ee57c90dbca59664736f6c634300080a0033",
  "linkReferences": {},
  "deployedLinkReferences": {}
}