{
  "contractName": "K4RallyTokenV1",
  "abi": [
    {
      "inputs": [],
      "stateMutability": "nonpayable",
      "type": "constructor"
    },
    {
      "anonymous": false,
      "inputs": [
        {
          "indexed": true,
          "internalType": "address",
          "name": "owner",
          "type": "address"
        },
        {
          "indexed": true,
          "internalType": "address",
          "name": "spender",
          "type": "address"
        },
        {
          "indexed": false,
          "internalType": "uint256",
          "name": "value",
          "type": "uint256"
        }
      ],
      "name": "Approval",
      "type": "event"
    },
    {
      "anonymous": false,
      "inputs": [
        {
          "indexed": true,
          "internalType": "address",
          "name": "wallet",
          "type": "address"
        },
        {
          "indexed": true,
          "internalType": "address",
          "name": "rewardToken",
          "type": "address"
        },
        {
          "indexed": false,
          "internalType": "uint256",
          "name": "amount",
          "type": "uint256"
        }
      ],
      "name": "Claimed",
      "type": "event"
    },
    {
      "anonymous": false,
      "inputs": [
        {
          "indexed": true,
          "internalType": "address",
          "name": "tokenAddress",
          "type": "address"
        },
        {
          "indexed": true,
          "internalType": "address",
          "name": "receiver",
          "type": "address"
        },
        {
          "indexed": false,
          "internalType": "uint256",
          "name": "amount",
          "type": "uint256"
        }
      ],
      "name": "ERC20TokensRemoved",
      "type": "event"
    },
    {
      "anonymous": false,
      "inputs": [
        {
          "indexed": false,
          "internalType": "uint8",
          "name": "version",
          "type": "uint8"
        }
      ],
      "name": "Initialized",
      "type": "event"
    },
    {
      "anonymous": false,
      "inputs": [
        {
          "indexed": false,
          "internalType": "uint48",
          "name": "lockTimePeriod",
          "type": "uint48"
        }
      ],
      "name": "LockTimePeriodChanged",
      "type": "event"
    },
    {
      "anonymous": false,
      "inputs": [
        {
          "indexed": true,
          "internalType": "address",
          "name": "previousOwner",
          "type": "address"
        },
        {
          "indexed": true,
          "internalType": "address",
          "name": "newOwner",
          "type": "address"
        }
      ],
      "name": "OwnershipTransferred",
      "type": "event"
    },
    {
      "anonymous": false,
      "inputs": [
        {
          "indexed": false,
          "internalType": "address",
          "name": "account",
          "type": "address"
        }
      ],
      "name": "Paused",
      "type": "event"
    },
    {
      "anonymous": false,
      "inputs": [
        {
          "indexed": true,
          "internalType": "address",
          "name": "oldRewardToken",
          "type": "address"
        },
        {
          "indexed": false,
          "internalType": "uint256",
          "name": "returnedAmount",
          "type": "uint256"
        },
        {
          "indexed": true,
          "internalType": "address",
          "name": "newRewardToken",
          "type": "address"
        }
      ],
      "name": "RewardTokenChanged",
      "type": "event"
    },
    {
      "anonymous": false,
      "inputs": [
        {
          "indexed": true,
          "internalType": "address",
          "name": "staker",
          "type": "address"
        },
        {
          "indexed": false,
          "internalType": "uint256",
          "name": "amount",
          "type": "uint256"
        }
      ],
      "name": "RewardsBurned",
      "type": "event"
    },
    {
      "anonymous": false,
      "inputs": [
        {
          "indexed": true,
          "internalType": "bytes32",
          "name": "role",
          "type": "bytes32"
        },
        {
          "indexed": true,
          "internalType": "bytes32",
          "name": "previousAdminRole",
          "type": "bytes32"
        },
        {
          "indexed": true,
          "internalType": "bytes32",
          "name": "newAdminRole",
          "type": "bytes32"
        }
      ],
      "name": "RoleAdminChanged",
      "type": "event"
    },
    {
      "anonymous": false,
      "inputs": [
        {
          "indexed": true,
          "internalType": "bytes32",
          "name": "role",
          "type": "bytes32"
        },
        {
          "indexed": true,
          "internalType": "address",
          "name": "account",
          "type": "address"
        },
        {
          "indexed": true,
          "internalType": "address",
          "name": "sender",
          "type": "address"
        }
      ],
      "name": "RoleGranted",
      "type": "event"
    },
    {
      "anonymous": false,
      "inputs": [
        {
          "indexed": true,
          "internalType": "bytes32",
          "name": "role",
          "type": "bytes32"
        },
        {
          "indexed": true,
          "internalType": "address",
          "name": "account",
          "type": "address"
        },
        {
          "indexed": true,
          "internalType": "address",
          "name": "sender",
          "type": "address"
        }
      ],
      "name": "RoleRevoked",
      "type": "event"
    },
    {
      "anonymous": false,
      "inputs": [
        {
          "indexed": true,
          "internalType": "address",
          "name": "wallet",
          "type": "address"
        },
        {
          "indexed": false,
          "internalType": "uint256",
          "name": "amount",
          "type": "uint256"
        },
        {
          "indexed": false,
          "internalType": "uint256",
          "name": "date",
          "type": "uint256"
        }
      ],
      "name": "Stake",
      "type": "event"
    },
    {
      "anonymous": false,
      "inputs": [
        {
          "indexed": false,
          "internalType": "uint48",
          "name": "stakeRewardEndTime",
          "type": "uint48"
        }
      ],
      "name": "StakeRewardEndTimeChanged",
      "type": "event"
    },
    {
      "anonymous": false,
      "inputs": [
        {
          "indexed": false,
          "internalType": "uint256",
          "name": "stakeRewardFactor",
          "type": "uint256"
        }
      ],
      "name": "StakeRewardFactorChanged",
      "type": "event"
    },
    {
      "anonymous": false,
      "inputs": [
        {
          "indexed": true,
          "internalType": "address",
          "name": "from",
          "type": "address"
        },
        {
          "indexed": true,
          "internalType": "address",
          "name": "to",
          "type": "address"
        },
        {
          "indexed": false,
          "internalType": "uint256",
          "name": "value",
          "type": "uint256"
        }
      ],
      "name": "Transfer",
      "type": "event"
    },
    {
      "anonymous": false,
      "inputs": [
        {
          "indexed": false,
          "internalType": "address",
          "name": "account",
          "type": "address"
        }
      ],
      "name": "Unpaused",
      "type": "event"
    },
    {
      "anonymous": false,
      "inputs": [
        {
          "indexed": true,
          "internalType": "address",
          "name": "wallet",
          "type": "address"
        },
        {
          "indexed": false,
          "internalType": "uint256",
          "name": "amount",
          "type": "uint256"
        },
        {
          "indexed": false,
          "internalType": "uint256",
          "name": "date",
          "type": "uint256"
        }
      ],
      "name": "Withdraw",
      "type": "event"
    },
    {
      "inputs": [],
      "name": "BURNER_ROLE",
      "outputs": [
        {
          "internalType": "bytes32",
          "name": "",
          "type": "bytes32"
        }
      ],
      "stateMutability": "view",
      "type": "function"
    },
    {
      "inputs": [],
      "name": "DEFAULT_ADMIN_ROLE",
      "outputs": [
        {
          "internalType": "bytes32",
          "name": "",
          "type": "bytes32"
        }
      ],
      "stateMutability": "view",
      "type": "function"
    },
    {
      "inputs": [],
      "name": "MAX_TIME",
      "outputs": [
        {
          "internalType": "uint48",
          "name": "",
          "type": "uint48"
        }
      ],
      "stateMutability": "view",
      "type": "function"
    },
    {
      "inputs": [
        {
          "internalType": "address",
          "name": "owner",
          "type": "address"
        },
        {
          "internalType": "address",
          "name": "spender",
          "type": "address"
        }
      ],
      "name": "allowance",
      "outputs": [
        {
          "internalType": "uint256",
          "name": "",
          "type": "uint256"
        }
      ],
      "stateMutability": "view",
      "type": "function"
    },
    {
      "inputs": [
        {
          "internalType": "address",
          "name": "spender",
          "type": "address"
        },
        {
          "internalType": "uint256",
          "name": "amount",
          "type": "uint256"
        }
      ],
      "name": "approve",
      "outputs": [
        {
          "internalType": "bool",
          "name": "",
          "type": "bool"
        }
      ],
      "stateMutability": "nonpayable",
      "type": "function"
    },
    {
      "inputs": [
        {
          "internalType": "address",
          "name": "_staker",
          "type": "address"
        }
      ],
      "name": "balanceOf",
      "outputs": [
        {
          "internalType": "uint256",
          "name": "balance",
          "type": "uint256"
        }
      ],
      "stateMutability": "view",
      "type": "function"
    },
    {
      "inputs": [
        {
          "internalType": "address",
          "name": "_staker",
          "type": "address"
        },
        {
          "internalType": "uint256",
          "name": "_amount",
          "type": "uint256"
        }
      ],
      "name": "burnRewards",
      "outputs": [],
      "stateMutability": "nonpayable",
      "type": "function"
    },
    {
      "inputs": [],
      "name": "claim",
      "outputs": [
        {
          "internalType": "uint256",
          "name": "",
          "type": "uint256"
        }
      ],
      "stateMutability": "nonpayable",
      "type": "function"
    },
    {
      "inputs": [],
      "name": "decimals",
      "outputs": [
        {
          "internalType": "uint8",
          "name": "",
          "type": "uint8"
        }
      ],
      "stateMutability": "view",
      "type": "function"
    },
    {
      "inputs": [
        {
          "internalType": "address",
          "name": "spender",
          "type": "address"
        },
        {
          "internalType": "uint256",
          "name": "subtractedValue",
          "type": "uint256"
        }
      ],
      "name": "decreaseAllowance",
      "outputs": [
        {
          "internalType": "bool",
          "name": "",
          "type": "bool"
        }
      ],
      "stateMutability": "nonpayable",
      "type": "function"
    },
    {
      "inputs": [
        {
          "internalType": "address",
          "name": "_staker",
          "type": "address"
        }
      ],
      "name": "getEarnedRewardTokens",
      "outputs": [
        {
          "internalType": "uint256",
          "name": "claimableRewardTokens",
          "type": "uint256"
        }
      ],
      "stateMutability": "view",
      "type": "function"
    },
    {
      "inputs": [],
      "name": "getEarnedRewardTokens_msgSender",
      "outputs": [
        {
          "internalType": "uint256",
          "name": "",
          "type": "uint256"
        }
      ],
      "stateMutability": "view",
      "type": "function"
    },
    {
      "inputs": [],
      "name": "getRewardTokenBalance",
      "outputs": [
        {
          "internalType": "uint256",
          "name": "balance",
          "type": "uint256"
        }
      ],
      "stateMutability": "view",
      "type": "function"
    },
    {
      "inputs": [
        {
          "internalType": "bytes32",
          "name": "role",
          "type": "bytes32"
        }
      ],
      "name": "getRoleAdmin",
      "outputs": [
        {
          "internalType": "bytes32",
          "name": "",
          "type": "bytes32"
        }
      ],
      "stateMutability": "view",
      "type": "function"
    },
    {
      "inputs": [
        {
          "internalType": "address",
          "name": "_staker",
          "type": "address"
        }
      ],
      "name": "getUnlockTime",
      "outputs": [
        {
          "internalType": "uint48",
          "name": "unlockTime",
          "type": "uint48"
        }
      ],
      "stateMutability": "view",
      "type": "function"
    },
    {
      "inputs": [],
      "name": "getUnlockTime_msgSender",
      "outputs": [
        {
          "internalType": "uint48",
          "name": "unlockTime",
          "type": "uint48"
        }
      ],
      "stateMutability": "view",
      "type": "function"
    },
    {
      "inputs": [
        {
          "internalType": "bytes32",
          "name": "role",
          "type": "bytes32"
        },
        {
          "internalType": "address",
          "name": "account",
          "type": "address"
        }
      ],
      "name": "grantRole",
      "outputs": [],
      "stateMutability": "nonpayable",
      "type": "function"
    },
    {
      "inputs": [
        {
          "internalType": "bytes32",
          "name": "role",
          "type": "bytes32"
        },
        {
          "internalType": "address",
          "name": "account",
          "type": "address"
        }
      ],
      "name": "hasRole",
      "outputs": [
        {
          "internalType": "bool",
          "name": "",
          "type": "bool"
        }
      ],
      "stateMutability": "view",
      "type": "function"
    },
    {
      "inputs": [
        {
          "internalType": "address",
          "name": "spender",
          "type": "address"
        },
        {
          "internalType": "uint256",
          "name": "addedValue",
          "type": "uint256"
        }
      ],
      "name": "increaseAllowance",
      "outputs": [
        {
          "internalType": "bool",
          "name": "",
          "type": "bool"
        }
      ],
      "stateMutability": "nonpayable",
      "type": "function"
    },
    {
      "inputs": [],
      "name": "lockTimePeriod",
      "outputs": [
        {
          "internalType": "uint48",
          "name": "",
          "type": "uint48"
        }
      ],
      "stateMutability": "view",
      "type": "function"
    },
    {
      "inputs": [],
      "name": "name",
      "outputs": [
        {
          "internalType": "string",
          "name": "",
          "type": "string"
        }
      ],
      "stateMutability": "view",
      "type": "function"
    },
    {
      "inputs": [],
      "name": "owner",
      "outputs": [
        {
          "internalType": "address",
          "name": "",
          "type": "address"
        }
      ],
      "stateMutability": "view",
      "type": "function"
    },
    {
      "inputs": [],
      "name": "paused",
      "outputs": [
        {
          "internalType": "bool",
          "name": "",
          "type": "bool"
        }
      ],
      "stateMutability": "view",
      "type": "function"
    },
    {
      "inputs": [
        {
          "internalType": "address",
          "name": "_tokenAddress",
          "type": "address"
        }
      ],
      "name": "removeOtherERC20Tokens",
      "outputs": [],
      "stateMutability": "nonpayable",
      "type": "function"
    },
    {
      "inputs": [],
      "name": "renounceOwnership",
      "outputs": [],
      "stateMutability": "nonpayable",
      "type": "function"
    },
    {
      "inputs": [
        {
          "internalType": "bytes32",
          "name": "role",
          "type": "bytes32"
        },
        {
          "internalType": "address",
          "name": "account",
          "type": "address"
        }
      ],
      "name": "renounceRole",
      "outputs": [],
      "stateMutability": "nonpayable",
      "type": "function"
    },
    {
      "inputs": [
        {
          "internalType": "bytes32",
          "name": "role",
          "type": "bytes32"
        },
        {
          "internalType": "address",
          "name": "account",
          "type": "address"
        }
      ],
      "name": "revokeRole",
      "outputs": [],
      "stateMutability": "nonpayable",
      "type": "function"
    },
    {
      "inputs": [],
      "name": "rewardToken",
      "outputs": [
        {
          "internalType": "address",
          "name": "",
          "type": "address"
        }
      ],
      "stateMutability": "view",
      "type": "function"
    },
    {
      "inputs": [
        {
          "internalType": "uint48",
          "name": "_lockTimePeriod",
          "type": "uint48"
        }
      ],
      "name": "setLockTimePeriod",
      "outputs": [],
      "stateMutability": "nonpayable",
      "type": "function"
    },
    {
      "inputs": [
        {
          "internalType": "address",
          "name": "newRewardToken",
          "type": "address"
        }
      ],
      "name": "setRewardToken",
      "outputs": [],
      "stateMutability": "nonpayable",
      "type": "function"
    },
    {
      "inputs": [
        {
          "internalType": "uint48",
          "name": "_stakeRewardEndTime",
          "type": "uint48"
        }
      ],
      "name": "setStakeRewardEndTime",
      "outputs": [],
      "stateMutability": "nonpayable",
      "type": "function"
    },
    {
      "inputs": [
        {
          "internalType": "uint256",
          "name": "_stakeRewardFactor",
          "type": "uint256"
        }
      ],
      "name": "setStakeRewardFactor",
      "outputs": [],
      "stateMutability": "nonpayable",
      "type": "function"
    },
    {
      "inputs": [
        {
          "internalType": "uint256",
          "name": "_amount",
          "type": "uint256"
        }
      ],
      "name": "stake",
      "outputs": [
        {
          "internalType": "uint256",
          "name": "",
          "type": "uint256"
        }
      ],
      "stateMutability": "nonpayable",
      "type": "function"
    },
    {
      "inputs": [
        {
          "internalType": "address",
          "name": "_staker",
          "type": "address"
        }
      ],
      "name": "stakeAmount",
      "outputs": [
        {
          "internalType": "uint256",
          "name": "balance",
          "type": "uint256"
        }
      ],
      "stateMutability": "view",
      "type": "function"
    },
    {
      "inputs": [],
      "name": "stakeAmount_msgSender",
      "outputs": [
        {
          "internalType": "uint256",
          "name": "",
          "type": "uint256"
        }
      ],
      "stateMutability": "view",
      "type": "function"
    },
    {
      "inputs": [],
      "name": "stakeRewardEndTime",
      "outputs": [
        {
          "internalType": "uint48",
          "name": "",
          "type": "uint48"
        }
      ],
      "stateMutability": "view",
      "type": "function"
    },
    {
      "inputs": [],
      "name": "stakeRewardFactor",
      "outputs": [
        {
          "internalType": "uint256",
          "name": "",
          "type": "uint256"
        }
      ],
      "stateMutability": "view",
      "type": "function"
    },
    {
      "inputs": [
        {
          "internalType": "address",
          "name": "_staker",
          "type": "address"
        }
      ],
      "name": "stakeTime",
      "outputs": [
        {
          "internalType": "uint48",
          "name": "dateTime",
          "type": "uint48"
        }
      ],
      "stateMutability": "view",
      "type": "function"
    },
    {
      "inputs": [],
      "name": "stakeTime_msgSender",
      "outputs": [
        {
          "internalType": "uint48",
          "name": "",
          "type": "uint48"
        }
      ],
      "stateMutability": "view",
      "type": "function"
    },
    {
      "inputs": [],
      "name": "stakingToken",
      "outputs": [
        {
          "internalType": "address",
          "name": "",
          "type": "address"
        }
      ],
      "stateMutability": "view",
      "type": "function"
    },
    {
      "inputs": [
        {
          "internalType": "bytes4",
          "name": "interfaceId",
          "type": "bytes4"
        }
      ],
      "name": "supportsInterface",
      "outputs": [
        {
          "internalType": "bool",
          "name": "",
          "type": "bool"
        }
      ],
      "stateMutability": "view",
      "type": "function"
    },
    {
      "inputs": [],
      "name": "symbol",
      "outputs": [
        {
          "internalType": "string",
          "name": "",
          "type": "string"
        }
      ],
      "stateMutability": "view",
      "type": "function"
    },
    {
      "inputs": [],
      "name": "tokenTotalStaked",
      "outputs": [
        {
          "internalType": "uint256",
          "name": "",
          "type": "uint256"
        }
      ],
      "stateMutability": "view",
      "type": "function"
    },
    {
      "inputs": [],
      "name": "totalSupply",
      "outputs": [
        {
          "internalType": "uint256",
          "name": "",
          "type": "uint256"
        }
      ],
      "stateMutability": "view",
      "type": "function"
    },
    {
      "inputs": [
        {
          "internalType": "address",
          "name": "recipient",
          "type": "address"
        },
        {
          "internalType": "uint256",
          "name": "amount",
          "type": "uint256"
        }
      ],
      "name": "transfer",
      "outputs": [
        {
          "internalType": "bool",
          "name": "",
          "type": "bool"
        }
      ],
      "stateMutability": "nonpayable",
      "type": "function"
    },
    {
      "inputs": [
        {
          "internalType": "address",
          "name": "sender",
          "type": "address"
        },
        {
          "internalType": "address",
          "name": "recipient",
          "type": "address"
        },
        {
          "internalType": "uint256",
          "name": "amount",
          "type": "uint256"
        }
      ],
      "name": "transferFrom",
      "outputs": [
        {
          "internalType": "bool",
          "name": "",
          "type": "bool"
        }
      ],
      "stateMutability": "nonpayable",
      "type": "function"
    },
    {
      "inputs": [
        {
          "internalType": "address",
          "name": "newOwner",
          "type": "address"
        }
      ],
      "name": "transferOwnership",
      "outputs": [],
      "stateMutability": "nonpayable",
      "type": "function"
    },
    {
      "inputs": [
        {
          "internalType": "address",
          "name": "_staker",
          "type": "address"
        }
      ],
      "name": "userAccumulatedRewards",
      "outputs": [
        {
          "internalType": "uint256",
          "name": "rewards",
          "type": "uint256"
        }
      ],
      "stateMutability": "view",
      "type": "function"
    },
    {
      "inputs": [],
      "name": "userAccumulatedRewards_msgSender",
      "outputs": [
        {
          "internalType": "uint256",
          "name": "",
          "type": "uint256"
        }
      ],
      "stateMutability": "view",
      "type": "function"
    },
    {
      "inputs": [
        {
          "internalType": "address",
          "name": "_staker",
          "type": "address"
        }
      ],
      "name": "userClaimableRewards",
      "outputs": [
        {
          "internalType": "uint256",
          "name": "",
          "type": "uint256"
        }
      ],
      "stateMutability": "view",
      "type": "function"
    },
    {
      "inputs": [],
      "name": "userClaimableRewards_msgSender",
      "outputs": [
        {
          "internalType": "uint256",
          "name": "",
          "type": "uint256"
        }
      ],
      "stateMutability": "view",
      "type": "function"
    },
    {
      "inputs": [
        {
          "internalType": "address",
          "name": "",
          "type": "address"
        }
      ],
      "name": "userMap",
      "outputs": [
        {
          "internalType": "uint48",
          "name": "stakeTime",
          "type": "uint48"
        },
        {
          "internalType": "uint48",
          "name": "unlockTime",
          "type": "uint48"
        },
        {
          "internalType": "uint160",
          "name": "stakeAmount",
          "type": "uint160"
        },
        {
          "internalType": "uint256",
          "name": "accumulatedRewards",
          "type": "uint256"
        }
      ],
      "stateMutability": "view",
      "type": "function"
    },
    {
      "inputs": [
        {
          "internalType": "address",
          "name": "_staker",
          "type": "address"
        }
      ],
      "name": "userTotalRewards",
      "outputs": [
        {
          "internalType": "uint256",
          "name": "",
          "type": "uint256"
        }
      ],
      "stateMutability": "view",
      "type": "function"
    },
    {
      "inputs": [],
      "name": "userTotalRewards_msgSender",
      "outputs": [
        {
          "internalType": "uint256",
          "name": "",
          "type": "uint256"
        }
      ],
      "stateMutability": "view",
      "type": "function"
    },
    {
      "inputs": [
        {
          "internalType": "uint256",
          "name": "amount",
          "type": "uint256"
        }
      ],
      "name": "withdraw",
      "outputs": [
        {
          "internalType": "uint256",
          "name": "",
          "type": "uint256"
        }
      ],
      "stateMutability": "nonpayable",
      "type": "function"
    },
    {
      "inputs": [],
      "name": "withdrawAll",
      "outputs": [
        {
          "internalType": "uint256",
          "name": "",
          "type": "uint256"
        }
      ],
      "stateMutability": "nonpayable",
      "type": "function"
    },
    {
      "inputs": [
        {
          "internalType": "address",
          "name": "_stakingToken",
          "type": "address"
        },
        {
          "internalType": "uint48",
          "name": "_lockTimePeriod",
          "type": "uint48"
        }
      ],
      "name": "initialize",
      "outputs": [],
      "stateMutability": "nonpayable",
      "type": "function"
    },
    {
      "inputs": [],
      "name": "pause",
      "outputs": [],
      "stateMutability": "nonpayable",
      "type": "function"
    },
    {
      "inputs": [],
      "name": "unpause",
      "outputs": [],
      "stateMutability": "nonpayable",
      "type": "function"
    }
  ],
  "bytecode": "0x60806040523480156200001157600080fd5b5060008060019054906101000a900460ff16159050808015620000445750600160008054906101000a900460ff1660ff16105b8062000080575062000061306200016360201b620027fe1760201c565b1580156200007f5750600160008054906101000a900460ff1660ff16145b5b620000c2576040517f08c379a0000000000000000000000000000000000000000000000000000000008152600401620000b99062000238565b60405180910390fd5b60016000806101000a81548160ff021916908360ff160217905550801562000100576001600060016101000a81548160ff0219169083151502179055505b80156200015c5760008060016101000a81548160ff0219169083151502179055507f7f26b83ff96e1f2b6a682f133852f6798a09c465da95921460cefb384740249860016040516200015391906200021b565b60405180910390a15b506200028c565b6000808273ffffffffffffffffffffffffffffffffffffffff16803b806020016040519081016040528181526000908060200190933c51119050919050565b620001ad8162000278565b82525050565b6000620001c2602e836200025a565b91507f496e697469616c697a61626c653a20636f6e747261637420697320616c72656160008301527f647920696e697469616c697a65640000000000000000000000000000000000006020830152604082019050919050565b6000602082019050620002326000830184620001a2565b92915050565b600060208201905081810360008301526200025381620001b3565b9050919050565b600082825260208201905092915050565b600060ff82169050919050565b600062000285826200026b565b9050919050565b6161da806200029c6000396000f3fe608060405234801561001057600080fd5b50600436106103995760003560e01c8063853828b6116101e9578063aaa748d31161010f578063dfdf35c4116100ad578063f3b95cd71161007c578063f3b95cd714610b1b578063f4b9786c14610b37578063f6a3f3cf14610b53578063f7c618c114610b8357610399565b8063dfdf35c414610a97578063ee2d505e14610ab3578063ee61e0cd14610ae3578063f2fde38b14610aff57610399565b8063d953a867116100e9578063d953a867146109fb578063dbed1e8814610a19578063dd62ed3e14610a49578063de3717fc14610a7957610399565b8063aaa748d314610991578063bf135267146109af578063d547741f146109df57610399565b806393ce534311610187578063a38a57c411610156578063a38a57c4146108e3578063a457c2d714610901578063a694fc3a14610931578063a9059cbb1461096157610399565b806393ce53431461086b57806395d89b41146108895780639a7cc1b8146108a7578063a217fddf146108c557610399565b80638aee8127116101c35780638aee8127146107e55780638da5cb5b146108015780638efb31c71461081f57806391d148541461083b57610399565b8063853828b61461078b578063872b26da146107a957806387f075d9146107c757610399565b80632f2ff15d116102ce5780635951eff11161026c57806370a082311161023b57806370a0823114610729578063715018a61461075957806372f702f3146107635780638456cb591461078157610399565b80635951eff1146106b35780635bd4b5df146106cf5780635c975abb146106ed5780636bb64e231461070b57610399565b806339509351116102a8578063395093511461063d5780633cb2efc91461066d5780633f4ba83a1461068b5780634e71d92d1461069557610399565b80632f2ff15d146105e7578063313ce5671461060357806336568abe1461062157610399565b80632170e4721161033b57806326949984116103155780632694998414610548578063282c51f3146105665780632bcc23f8146105845780632e1a7d4d146105b757610399565b80632170e472146104b857806323b872dd146104e8578063248a9ca31461051857610399565b806307dc1e1a1161037757806307dc1e1a1461041c578063095ea7b31461043a57806309ef67e61461046a57806318160ddd1461049a57610399565b806301ffc9a71461039e5780630584bd09146103ce57806306fdde03146103fe575b600080fd5b6103b860048036038101906103b39190614b2c565b610ba1565b6040516103c59190615718565b60405180910390f35b6103e860048036038101906103e39190614972565b610c1b565b6040516103f59190615b4b565b60405180910390f35b610406610dc0565b6040516104139190615769565b60405180910390f35b610424610e52565b6040516104319190615b4b565b60405180910390f35b610454600480360381019061044f9190614a26565b610e9c565b6040516104619190615718565b60405180910390f35b610484600480360381019061047f9190614972565b610eba565b6040516104919190615b4b565b60405180910390f35b6104a2610f06565b6040516104af9190615b4b565b60405180910390f35b6104d260048036038101906104cd9190614972565b610f10565b6040516104df9190615b8f565b60405180910390f35b61050260048036038101906104fd91906149d7565b610f6e565b60405161050f9190615718565b60405180910390f35b610532600480360381019061052d9190614ac7565b611066565b60405161053f9190615733565b60405180910390f35b610550611086565b60405161055d9190615b8f565b60405180910390f35b61056e611090565b60405161057b9190615733565b60405180910390f35b61059e60048036038101906105999190614972565b6110b4565b6040516105ae9493929190615baa565b60405180910390f35b6105d160048036038101906105cc9190614b55565b611128565b6040516105de9190615b4b565b60405180910390f35b61060160048036038101906105fc9190614af0565b61114a565b005b61060b61116b565b6040516106189190615bef565b60405180910390f35b61063b60048036038101906106369190614af0565b611174565b005b61065760048036038101906106529190614a26565b6111f7565b6040516106649190615718565b60405180910390f35b6106756112a3565b6040516106829190615b8f565b60405180910390f35b6106936112b3565b005b61069d611339565b6040516106aa9190615b4b565b60405180910390f35b6106cd60048036038101906106c89190614972565b611358565b005b6106d761157b565b6040516106e49190615b4b565b60405180910390f35b6106f561158b565b6040516107029190615718565b60405180910390f35b6107136115a2565b6040516107209190615b4b565b60405180910390f35b610743600480360381019061073e9190614972565b611622565b6040516107509190615b4b565b60405180910390f35b6107616116a4565b005b61076b61172c565b604051610778919061569d565b60405180910390f35b610789611752565b005b6107936117d8565b6040516107a09190615b4b565b60405180910390f35b6107b16117ff565b6040516107be9190615b4b565b60405180910390f35b6107cf611805565b6040516107dc9190615b4b565b60405180910390f35b6107ff60048036038101906107fa9190614972565b61180b565b005b61080961199f565b604051610816919061569d565b60405180910390f35b61083960048036038101906108349190614b55565b6119ca565b005b61085560048036038101906108509190614af0565b611a19565b6040516108629190615718565b60405180910390f35b610873611a84565b6040516108809190615b4b565b60405180910390f35b610891611c1f565b60405161089e9190615769565b60405180910390f35b6108af611cb1565b6040516108bc9190615b4b565b60405180910390f35b6108cd611cc1565b6040516108da9190615733565b60405180910390f35b6108eb611cc8565b6040516108f89190615b8f565b60405180910390f35b61091b60048036038101906109169190614a26565b611ce0565b6040516109289190615718565b60405180910390f35b61094b60048036038101906109469190614b55565b611dcb565b6040516109589190615b4b565b60405180910390f35b61097b60048036038101906109769190614a26565b611ded565b6040516109889190615718565b60405180910390f35b610999611e0b565b6040516109a69190615b8f565b60405180910390f35b6109c960048036038101906109c49190614972565b611e67565b6040516109d69190615b4b565b60405180910390f35b6109f960048036038101906109f49190614af0565b611ee9565b005b610a03611f0a565b604051610a109190615b8f565b60405180910390f35b610a336004803603810190610a2e9190614972565b611f22565b604051610a409190615b8f565b60405180910390f35b610a636004803603810190610a5e919061499b565b61200c565b604051610a709190615b4b565b60405180910390f35b610a81612093565b604051610a8e9190615b4b565b60405180910390f35b610ab16004803603810190610aac9190614ba7565b6120a3565b005b610acd6004803603810190610ac89190614972565b61216e565b604051610ada9190615b4b565b60405180910390f35b610afd6004803603810190610af89190614ba7565b6121fa565b005b610b196004803603810190610b149190614972565b612267565b005b610b356004803603810190610b309190614a26565b61235f565b005b610b516004803603810190610b4c9190614a62565b612421565b005b610b6d6004803603810190610b689190614972565b612779565b604051610b7a9190615b4b565b60405180910390f35b610b8b6127d8565b604051610b98919061569d565b60405180910390f35b60007f7965db0b000000000000000000000000000000000000000000000000000000007bffffffffffffffffffffffffffffffffffffffffffffffffffffffff1916827bffffffffffffffffffffffffffffffffffffffffffffffffffffffff19161480610c145750610c138261283d565b5b9050919050565b60008060ca60008473ffffffffffffffffffffffffffffffffffffffff1673ffffffffffffffffffffffffffffffffffffffff16815260200190815260200160002090508060000160009054906101000a900465ffffffffffff1665ffffffffffff164211610c8e576000915050610dbb565b8060000160009054906101000a900465ffffffffffff1665ffffffffffff1660cd601a9054906101000a900465ffffffffffff1665ffffffffffff1611610cd9576000915050610dbb565b600060cd601a9054906101000a900465ffffffffffff1665ffffffffffff164211610d2f578160000160009054906101000a900465ffffffffffff1665ffffffffffff1642610d289190615eb7565b9050610d70565b8160000160009054906101000a900465ffffffffffff1660cd601a9054906101000a900465ffffffffffff16610d659190615eeb565b65ffffffffffff1690505b81600001600c9054906101000a900473ffffffffffffffffffffffffffffffffffffffff1673ffffffffffffffffffffffffffffffffffffffff1681610db69190615e29565b925050505b919050565b606060378054610dcf9061603d565b80601f0160208091040260200160405190810160405280929190818152602001828054610dfb9061603d565b8015610e485780601f10610e1d57610100808354040283529160200191610e48565b820191906000526020600020905b815481529060010190602001808311610e2b57829003601f168201915b5050505050905090565b600060ca60003373ffffffffffffffffffffffffffffffffffffffff1673ffffffffffffffffffffffffffffffffffffffff16815260200190815260200160002060010154905090565b6000610eb0610ea96128a7565b84846128af565b6001905092915050565b600060ca60008373ffffffffffffffffffffffffffffffffffffffff1673ffffffffffffffffffffffffffffffffffffffff168152602001908152602001600020600101549050919050565b6000603654905090565b600060ca60008373ffffffffffffffffffffffffffffffffffffffff1673ffffffffffffffffffffffffffffffffffffffff16815260200190815260200160002060000160009054906101000a900465ffffffffffff169050919050565b6000610f7b848484612a7a565b6000603560008673ffffffffffffffffffffffffffffffffffffffff1673ffffffffffffffffffffffffffffffffffffffff1681526020019081526020016000206000610fc66128a7565b73ffffffffffffffffffffffffffffffffffffffff1673ffffffffffffffffffffffffffffffffffffffff16815260200190815260200160002054905082811015611046576040517f08c379a000000000000000000000000000000000000000000000000000000000815260040161103d9061594b565b60405180910390fd5b61105a856110526128a7565b8584036128af565b60019150509392505050565b600060986000838152602001908152602001600020600101549050919050565b65ffffffffffff81565b7f3c11d16cbaffd01df69ce1c404f6340ee057498f5f00246190ea54220576a84881565b60ca6020528060005260406000206000915090508060000160009054906101000a900465ffffffffffff16908060000160069054906101000a900465ffffffffffff169080600001600c9054906101000a900473ffffffffffffffffffffffffffffffffffffffff16908060010154905084565b6000611132612cfe565b61113b82612d4e565b9050611145613011565b919050565b61115382611066565b61115c8161301a565b611166838361302e565b505050565b60006012905090565b61117c6128a7565b73ffffffffffffffffffffffffffffffffffffffff168173ffffffffffffffffffffffffffffffffffffffff16146111e9576040517f08c379a00000000000000000000000000000000000000000000000000000000081526004016111e090615b0b565b60405180910390fd5b6111f3828261310f565b5050565b60006112996112046128a7565b8484603560006112126128a7565b73ffffffffffffffffffffffffffffffffffffffff1673ffffffffffffffffffffffffffffffffffffffff16815260200190815260200160002060008873ffffffffffffffffffffffffffffffffffffffff1673ffffffffffffffffffffffffffffffffffffffff168152602001908152602001600020546112949190615c31565b6128af565b6001905092915050565b60006112ae33611f22565b905090565b6112bb6128a7565b73ffffffffffffffffffffffffffffffffffffffff166112d961199f565b73ffffffffffffffffffffffffffffffffffffffff161461132f576040517f08c379a00000000000000000000000000000000000000000000000000000000081526004016113269061596b565b60405180910390fd5b6113376131f1565b565b6000611343612cfe565b61134b613293565b9050611355613011565b90565b6000801b6113658161301a565b60cc60009054906101000a900473ffffffffffffffffffffffffffffffffffffffff1673ffffffffffffffffffffffffffffffffffffffff168273ffffffffffffffffffffffffffffffffffffffff1614156113f6576040517f08c379a00000000000000000000000000000000000000000000000000000000081526004016113ed906159eb565b60405180910390fd5b60008273ffffffffffffffffffffffffffffffffffffffff166370a08231306040518263ffffffff1660e01b8152600401611431919061569d565b60206040518083038186803b15801561144957600080fd5b505afa15801561145d573d6000803e3d6000fd5b505050506040513d601f19601f820116820180604052508101906114819190614b7e565b90508273ffffffffffffffffffffffffffffffffffffffff1663a9059cbb33836040518363ffffffff1660e01b81526004016114be9291906156ef565b602060405180830381600087803b1580156114d857600080fd5b505af11580156114ec573d6000803e3d6000fd5b505050506040513d601f19601f820116820180604052508101906115109190614a9e565b503373ffffffffffffffffffffffffffffffffffffffff168373ffffffffffffffffffffffffffffffffffffffff167f4c9443772ec3472e2ea8a88e5c31e6bb75e94541dc672d5ca2a1197ada10b5988360405161156e9190615b4b565b60405180910390a3505050565b600061158633610c1b565b905090565b600060cf60009054906101000a900460ff16905090565b600060ca60003373ffffffffffffffffffffffffffffffffffffffff1673ffffffffffffffffffffffffffffffffffffffff168152602001908152602001600020600001600c9054906101000a900473ffffffffffffffffffffffffffffffffffffffff1673ffffffffffffffffffffffffffffffffffffffff16905090565b600060ca60008373ffffffffffffffffffffffffffffffffffffffff1673ffffffffffffffffffffffffffffffffffffffff168152602001908152602001600020600001600c9054906101000a900473ffffffffffffffffffffffffffffffffffffffff1673ffffffffffffffffffffffffffffffffffffffff169050919050565b6116ac6128a7565b73ffffffffffffffffffffffffffffffffffffffff166116ca61199f565b73ffffffffffffffffffffffffffffffffffffffff1614611720576040517f08c379a00000000000000000000000000000000000000000000000000000000081526004016117179061596b565b60405180910390fd5b61172a600061357b565b565b60cc60009054906101000a900473ffffffffffffffffffffffffffffffffffffffff1681565b61175a6128a7565b73ffffffffffffffffffffffffffffffffffffffff1661177861199f565b73ffffffffffffffffffffffffffffffffffffffff16146117ce576040517f08c379a00000000000000000000000000000000000000000000000000000000081526004016117c59061596b565b60405180910390fd5b6117d6613643565b565b60006117e2612cfe565b6117f26117ed6115a2565b612d4e565b90506117fc613011565b90565b60cb5481565b60ce5481565b611813612cfe565b6000801b6118208161301a565b600060cd60009054906101000a900473ffffffffffffffffffffffffffffffffffffffff1690506000611851611a84565b905060008111156118eb578173ffffffffffffffffffffffffffffffffffffffff1663a9059cbb33836040518363ffffffff1660e01b81526004016118979291906156ef565b602060405180830381600087803b1580156118b157600080fd5b505af11580156118c5573d6000803e3d6000fd5b505050506040513d601f19601f820116820180604052508101906118e99190614a9e565b505b8360cd60006101000a81548173ffffffffffffffffffffffffffffffffffffffff021916908373ffffffffffffffffffffffffffffffffffffffff1602179055508373ffffffffffffffffffffffffffffffffffffffff168273ffffffffffffffffffffffffffffffffffffffff167fc133375757269458a329c73a344c8ef483535870f46ed4cd332f857a5ef525d0836040516119899190615b4b565b60405180910390a350505061199c613011565b50565b600061010160009054906101000a900473ffffffffffffffffffffffffffffffffffffffff16905090565b6000801b6119d78161301a565b8160ce819055507f929e0b2903ee7e8bb87bf220a340db1f5551e7042e5f2567ed08117c0709fa2182604051611a0d9190615b4b565b60405180910390a15050565b60006098600084815260200190815260200160002060000160008373ffffffffffffffffffffffffffffffffffffffff1673ffffffffffffffffffffffffffffffffffffffff16815260200190815260200160002060009054906101000a900460ff16905092915050565b60008073ffffffffffffffffffffffffffffffffffffffff1660cd60009054906101000a900473ffffffffffffffffffffffffffffffffffffffff1673ffffffffffffffffffffffffffffffffffffffff161415611ae55760009050611c1c565b60cd60009054906101000a900473ffffffffffffffffffffffffffffffffffffffff1673ffffffffffffffffffffffffffffffffffffffff166370a08231306040518263ffffffff1660e01b8152600401611b40919061569d565b60206040518083038186803b158015611b5857600080fd5b505afa158015611b6c573d6000803e3d6000fd5b505050506040513d601f19601f82011682018060405250810190611b909190614b7e565b905060cd60009054906101000a900473ffffffffffffffffffffffffffffffffffffffff1673ffffffffffffffffffffffffffffffffffffffff1660cc60009054906101000a900473ffffffffffffffffffffffffffffffffffffffff1673ffffffffffffffffffffffffffffffffffffffff161415611c1b5760cb5481611c189190615eb7565b90505b5b90565b606060388054611c2e9061603d565b80601f0160208091040260200160405190810160405280929190818152602001828054611c5a9061603d565b8015611ca75780601f10611c7c57610100808354040283529160200191611ca7565b820191906000526020600020905b815481529060010190602001808311611c8a57829003601f168201915b5050505050905090565b6000611cbc3361216e565b905090565b6000801b81565b60cd601a9054906101000a900465ffffffffffff1681565b60008060356000611cef6128a7565b73ffffffffffffffffffffffffffffffffffffffff1673ffffffffffffffffffffffffffffffffffffffff16815260200190815260200160002060008573ffffffffffffffffffffffffffffffffffffffff1673ffffffffffffffffffffffffffffffffffffffff16815260200190815260200160002054905082811015611dac576040517f08c379a0000000000000000000000000000000000000000000000000000000008152600401611da390615aeb565b60405180910390fd5b611dc0611db76128a7565b858584036128af565b600191505092915050565b6000611dd5612cfe565b611dde826136e6565b9050611de8613011565b919050565b6000611e01611dfa6128a7565b8484612a7a565b6001905092915050565b600060ca60003373ffffffffffffffffffffffffffffffffffffffff1673ffffffffffffffffffffffffffffffffffffffff16815260200190815260200160002060000160009054906101000a900465ffffffffffff16905090565b600060ca60008373ffffffffffffffffffffffffffffffffffffffff1673ffffffffffffffffffffffffffffffffffffffff168152602001908152602001600020600001600c9054906101000a900473ffffffffffffffffffffffffffffffffffffffff1673ffffffffffffffffffffffffffffffffffffffff169050919050565b611ef282611066565b611efb8161301a565b611f05838361310f565b505050565b60cd60149054906101000a900465ffffffffffff1681565b60008060ca60008473ffffffffffffffffffffffffffffffffffffffff1673ffffffffffffffffffffffffffffffffffffffff168152602001908152602001600020600001600c9054906101000a900473ffffffffffffffffffffffffffffffffffffffff1673ffffffffffffffffffffffffffffffffffffffff1611611faf5765ffffffffffff612005565b60ca60008373ffffffffffffffffffffffffffffffffffffffff1673ffffffffffffffffffffffffffffffffffffffff16815260200190815260200160002060000160069054906101000a900465ffffffffffff165b9050919050565b6000603560008473ffffffffffffffffffffffffffffffffffffffff1673ffffffffffffffffffffffffffffffffffffffff16815260200190815260200160002060008373ffffffffffffffffffffffffffffffffffffffff1673ffffffffffffffffffffffffffffffffffffffff16815260200190815260200160002054905092915050565b600061209e33612779565b905090565b6000801b6120b08161301a565b4260cd601a9054906101000a900465ffffffffffff1665ffffffffffff161161210e576040517f08c379a000000000000000000000000000000000000000000000000000000000815260040161210590615a0b565b60405180910390fd5b8160cd601a6101000a81548165ffffffffffff021916908365ffffffffffff1602179055507fb8ec1a7db76539d0a932b67153298ec5ba41b1f965bd5f66e9419431d517291a826040516121629190615b8f565b60405180910390a15050565b60008073ffffffffffffffffffffffffffffffffffffffff1660cd60009054906101000a900473ffffffffffffffffffffffffffffffffffffffff1673ffffffffffffffffffffffffffffffffffffffff1614806121ce5750600060ce54145b156121dc57600090506121f5565b60ce546121e883612779565b6121f29190615c87565b90505b919050565b6000801b6122078161301a565b8160cd60146101000a81548165ffffffffffff021916908365ffffffffffff1602179055507fe9f020bdf01408388704d87e8162e06252d160de9f8cc075b32ce7ebbebc263e8260405161225b9190615b8f565b60405180910390a15050565b61226f6128a7565b73ffffffffffffffffffffffffffffffffffffffff1661228d61199f565b73ffffffffffffffffffffffffffffffffffffffff16146122e3576040517f08c379a00000000000000000000000000000000000000000000000000000000081526004016122da9061596b565b60405180910390fd5b600073ffffffffffffffffffffffffffffffffffffffff168173ffffffffffffffffffffffffffffffffffffffff161415612353576040517f08c379a000000000000000000000000000000000000000000000000000000000815260040161234a9061584b565b60405180910390fd5b61235c8161357b565b50565b7f3c11d16cbaffd01df69ce1c404f6340ee057498f5f00246190ea54220576a8486123898161301a565b600061239484613949565b905080600101548310156123c257828160010160008282546123b69190615eb7565b925050819055506123cd565b600081600101819055505b8373ffffffffffffffffffffffffffffffffffffffff167f33e88885e6abd26d1f3ea3b4b37c2f6e0ff31fa24c7721763eca867537bdf5d2846040516124139190615b4b565b60405180910390a250505050565b60008060019054906101000a900460ff161590508080156124525750600160008054906101000a900460ff1660ff16105b8061247f5750612461306127fe565b15801561247e5750600160008054906101000a900460ff1660ff16145b5b6124be576040517f08c379a00000000000000000000000000000000000000000000000000000000081526004016124b59061590b565b60405180910390fd5b60016000806101000a81548160ff021916908360ff16021790555080156124fb576001600060016101000a81548160ff0219169083151502179055505b61256f6040518060400160405280600e81526020017f4b342052616c6c7920546f6b656e0000000000000000000000000000000000008152506040518060400160405280600381526020017f4b345200000000000000000000000000000000000000000000000000000000008152506139e3565b612577613b2d565b61257f613c73565b600073ffffffffffffffffffffffffffffffffffffffff168373ffffffffffffffffffffffffffffffffffffffff1614156125ef576040517f08c379a00000000000000000000000000000000000000000000000000000000081526004016125e6906159ab565b60405180910390fd5b6301e285008265ffffffffffff161061263d576040517f08c379a0000000000000000000000000000000000000000000000000000000008152600401612634906159cb565b60405180910390fd5b8260cc60006101000a81548173ffffffffffffffffffffffffffffffffffffffff021916908373ffffffffffffffffffffffffffffffffffffffff1602179055508160cd60146101000a81548165ffffffffffff021916908365ffffffffffff1602179055506305265c0060ce819055506301e28500426126be9190615c31565b60cd601a6101000a81548165ffffffffffff021916908365ffffffffffff1602179055506126ef6000801b33613db9565b61271b336126fb61116b565b600a6127079190615d0b565b633b9aca006127169190615e29565b613dc7565b80156127745760008060016101000a81548160ff0219169083151502179055507f7f26b83ff96e1f2b6a682f133852f6798a09c465da95921460cefb3847402498600160405161276b919061574e565b60405180910390a15b505050565b600060ca60008373ffffffffffffffffffffffffffffffffffffffff1673ffffffffffffffffffffffffffffffffffffffff168152602001908152602001600020600101546127c783610c1b565b6127d19190615c31565b9050919050565b60cd60009054906101000a900473ffffffffffffffffffffffffffffffffffffffff1681565b6000808273ffffffffffffffffffffffffffffffffffffffff16803b806020016040519081016040528181526000908060200190933c51119050919050565b60007f01ffc9a7000000000000000000000000000000000000000000000000000000007bffffffffffffffffffffffffffffffffffffffffffffffffffffffff1916827bffffffffffffffffffffffffffffffffffffffffffffffffffffffff1916149050919050565b600033905090565b600073ffffffffffffffffffffffffffffffffffffffff168373ffffffffffffffffffffffffffffffffffffffff16141561291f576040517f08c379a000000000000000000000000000000000000000000000000000000000815260040161291690615a6b565b60405180910390fd5b600073ffffffffffffffffffffffffffffffffffffffff168273ffffffffffffffffffffffffffffffffffffffff16141561298f576040517f08c379a00000000000000000000000000000000000000000000000000000000081526004016129869061586b565b60405180910390fd5b80603560008573ffffffffffffffffffffffffffffffffffffffff1673ffffffffffffffffffffffffffffffffffffffff16815260200190815260200160002060008473ffffffffffffffffffffffffffffffffffffffff1673ffffffffffffffffffffffffffffffffffffffff168152602001908152602001600020819055508173ffffffffffffffffffffffffffffffffffffffff168373ffffffffffffffffffffffffffffffffffffffff167f8c5be1e5ebec7d5bd14f71427d1e84f3dd0314c0f7b2291e5b200ac8c7c3b92583604051612a6d9190615b4b565b60405180910390a3505050565b600073ffffffffffffffffffffffffffffffffffffffff168373ffffffffffffffffffffffffffffffffffffffff161415612aea576040517f08c379a0000000000000000000000000000000000000000000000000000000008152600401612ae190615a2b565b60405180910390fd5b600073ffffffffffffffffffffffffffffffffffffffff168273ffffffffffffffffffffffffffffffffffffffff161415612b5a576040517f08c379a0000000000000000000000000000000000000000000000000000000008152600401612b51906157ab565b60405180910390fd5b612b65838383613f28565b6000603460008573ffffffffffffffffffffffffffffffffffffffff1673ffffffffffffffffffffffffffffffffffffffff16815260200190815260200160002054905081811015612bec576040517f08c379a0000000000000000000000000000000000000000000000000000000008152600401612be39061588b565b60405180910390fd5b818103603460008673ffffffffffffffffffffffffffffffffffffffff1673ffffffffffffffffffffffffffffffffffffffff1681526020019081526020016000208190555081603460008573ffffffffffffffffffffffffffffffffffffffff1673ffffffffffffffffffffffffffffffffffffffff1681526020019081526020016000206000828254612c819190615c31565b925050819055508273ffffffffffffffffffffffffffffffffffffffff168473ffffffffffffffffffffffffffffffffffffffff167fddf252ad1be2c89b69c2b068fc378daa952ba7f163c4a11628f55a4df523b3ef84604051612ce59190615b4b565b60405180910390a3612cf8848484613f80565b50505050565b60026001541415612d44576040517f08c379a0000000000000000000000000000000000000000000000000000000008152600401612d3b90615acb565b60405180910390fd5b6002600181905550565b6000808211612d92576040517f08c379a0000000000000000000000000000000000000000000000000000000008152600401612d8990615a4b565b60405180910390fd5b612d9b33611f22565b65ffffffffffff164211612de4576040517f08c379a0000000000000000000000000000000000000000000000000000000008152600401612ddb9061580b565b60405180910390fd5b6000612def33613949565b905080600001600c9054906101000a900473ffffffffffffffffffffffffffffffffffffffff1673ffffffffffffffffffffffffffffffffffffffff16831115612e6e576040517f08c379a0000000000000000000000000000000000000000000000000000000008152600401612e659061598b565b60405180910390fd5b612e7783613f85565b81600001600c8282829054906101000a900473ffffffffffffffffffffffffffffffffffffffff16612ea99190615e83565b92506101000a81548173ffffffffffffffffffffffffffffffffffffffff021916908373ffffffffffffffffffffffffffffffffffffffff1602179055508260cb6000828254612ef99190615eb7565b9250508190555060cc60009054906101000a900473ffffffffffffffffffffffffffffffffffffffff1673ffffffffffffffffffffffffffffffffffffffff1663a9059cbb33856040518363ffffffff1660e01b8152600401612f5d9291906156ef565b602060405180830381600087803b158015612f7757600080fd5b505af1158015612f8b573d6000803e3d6000fd5b505050506040513d601f19601f82011682018060405250810190612faf9190614a9e565b503373ffffffffffffffffffffffffffffffffffffffff167ff279e6a1f5e320cca91135676d9cb6e44ca8a08c0b88342bcdb1144f6511b56884612ff242613fe8565b604051613000929190615b66565b60405180910390a282915050919050565b60018081905550565b61302b816130266128a7565b61403d565b50565b6130388282611a19565b61310b5760016098600084815260200190815260200160002060000160008373ffffffffffffffffffffffffffffffffffffffff1673ffffffffffffffffffffffffffffffffffffffff16815260200190815260200160002060006101000a81548160ff0219169083151502179055506130b06128a7565b73ffffffffffffffffffffffffffffffffffffffff168173ffffffffffffffffffffffffffffffffffffffff16837f2f8788117e7eff1d82e926ec794901d17c78024a50270940304540a733656f0d60405160405180910390a45b5050565b6131198282611a19565b156131ed5760006098600084815260200190815260200160002060000160008373ffffffffffffffffffffffffffffffffffffffff1673ffffffffffffffffffffffffffffffffffffffff16815260200190815260200160002060006101000a81548160ff0219169083151502179055506131926128a7565b73ffffffffffffffffffffffffffffffffffffffff168173ffffffffffffffffffffffffffffffffffffffff16837ff6391f5c32d9c69d2a47ea670b442974b53935d1edc7fd64eb21e047a839171b60405160405180910390a45b5050565b6131f961158b565b613238576040517f08c379a000000000000000000000000000000000000000000000000000000000815260040161322f906157cb565b60405180910390fd5b600060cf60006101000a81548160ff0219169083151502179055507f5db9ee0a495bf2e6ff9c91a7834c1ba4fdd244a5e8aa4e537bd38aeae4b073aa61327c6128a7565b604051613289919061569d565b60405180910390a1565b60008073ffffffffffffffffffffffffffffffffffffffff1660cd60009054906101000a900473ffffffffffffffffffffffffffffffffffffffff1673ffffffffffffffffffffffffffffffffffffffff161415613326576040517f08c379a000000000000000000000000000000000000000000000000000000000815260040161331d9061592b565b60405180910390fd5b60006133313361216e565b905060008111613376576040517f08c379a000000000000000000000000000000000000000000000000000000000815260040161336d906157eb565b60405180910390fd5b600060ca60003373ffffffffffffffffffffffffffffffffffffffff1673ffffffffffffffffffffffffffffffffffffffff1681526020019081526020016000209050600081600101819055506133cc42613fe8565b8160000160006101000a81548165ffffffffffff021916908365ffffffffffff1602179055506133fa611a84565b82111561343c576040517f08c379a0000000000000000000000000000000000000000000000000000000008152600401613433906158eb565b60405180910390fd5b60cd60009054906101000a900473ffffffffffffffffffffffffffffffffffffffff1673ffffffffffffffffffffffffffffffffffffffff1663a9059cbb33846040518363ffffffff1660e01b81526004016134999291906156ef565b602060405180830381600087803b1580156134b357600080fd5b505af11580156134c7573d6000803e3d6000fd5b505050506040513d601f19601f820116820180604052508101906134eb9190614a9e565b5060cd60009054906101000a900473ffffffffffffffffffffffffffffffffffffffff1673ffffffffffffffffffffffffffffffffffffffff163373ffffffffffffffffffffffffffffffffffffffff167ff7a40077ff7a04c7e61f6f26fb13774259ddf1b6bce9ecf26a8276cdd39926838460405161356b9190615b4b565b60405180910390a3819250505090565b600061010160009054906101000a900473ffffffffffffffffffffffffffffffffffffffff1690508161010160006101000a81548173ffffffffffffffffffffffffffffffffffffffff021916908373ffffffffffffffffffffffffffffffffffffffff1602179055508173ffffffffffffffffffffffffffffffffffffffff168173ffffffffffffffffffffffffffffffffffffffff167f8be0079c531659141344cd1fd0a4f28419497f9722a3daafe3b4186f6b6457e060405160405180910390a35050565b61364b61158b565b1561368b576040517f08c379a0000000000000000000000000000000000000000000000000000000008152600401613682906158ab565b60405180910390fd5b600160cf60006101000a81548160ff0219169083151502179055507f62e78cea01bee320cd4e420270b5ea74000d11b0c9f74754ebdbfc544b05a2586136cf6128a7565b6040516136dc919061569d565b60405180910390a1565b600080821161372a576040517f08c379a0000000000000000000000000000000000000000000000000000000008152600401613721906158cb565b60405180910390fd5b600061373533613949565b90506137858382600001600c9054906101000a900473ffffffffffffffffffffffffffffffffffffffff1673ffffffffffffffffffffffffffffffffffffffff166137809190615c31565b613f85565b81600001600c6101000a81548173ffffffffffffffffffffffffffffffffffffffff021916908373ffffffffffffffffffffffffffffffffffffffff1602179055508260cb60008282546137d99190615c31565b9250508190555061381060cd60149054906101000a900465ffffffffffff1665ffffffffffff164261380b9190615c31565b613fe8565b8160000160066101000a81548165ffffffffffff021916908365ffffffffffff16021790555060cc60009054906101000a900473ffffffffffffffffffffffffffffffffffffffff1673ffffffffffffffffffffffffffffffffffffffff166323b872dd3330866040518463ffffffff1660e01b8152600401613895939291906156b8565b602060405180830381600087803b1580156138af57600080fd5b505af11580156138c3573d6000803e3d6000fd5b505050506040513d601f19601f820116820180604052508101906138e79190614a9e565b503373ffffffffffffffffffffffffffffffffffffffff167f5af417134f72a9d41143ace85b0a26dce6f550f894f2cbc1eeee8810603d91b68461392a42613fe8565b604051613938929190615b66565b60405180910390a282915050919050565b600060ca60008373ffffffffffffffffffffffffffffffffffffffff1673ffffffffffffffffffffffffffffffffffffffff168152602001908152602001600020905061399582610c1b565b8160010160008282546139a89190615c31565b925050819055506139b842613fe8565b8160000160006101000a81548165ffffffffffff021916908365ffffffffffff160217905550919050565b60008060019054906101000a900460ff16159050808015613a145750600160008054906101000a900460ff1660ff16105b80613a415750613a23306127fe565b158015613a405750600160008054906101000a900460ff1660ff16145b5b613a80576040517f08c379a0000000000000000000000000000000000000000000000000000000008152600401613a779061590b565b60405180910390fd5b60016000806101000a81548160ff021916908360ff1602179055508015613abd576001600060016101000a81548160ff0219169083151502179055505b613ac56140c2565b613acf8383614113565b8015613b285760008060016101000a81548160ff0219169083151502179055507f7f26b83ff96e1f2b6a682f133852f6798a09c465da95921460cefb38474024986001604051613b1f919061574e565b60405180910390a15b505050565b60008060019054906101000a900460ff16159050808015613b5e5750600160008054906101000a900460ff1660ff16105b80613b8b5750613b6d306127fe565b158015613b8a5750600160008054906101000a900460ff1660ff16145b5b613bca576040517f08c379a0000000000000000000000000000000000000000000000000000000008152600401613bc19061590b565b60405180910390fd5b60016000806101000a81548160ff021916908360ff1602179055508015613c07576001600060016101000a81548160ff0219169083151502179055505b613c0f6140c2565b613c17614279565b8015613c705760008060016101000a81548160ff0219169083151502179055507f7f26b83ff96e1f2b6a682f133852f6798a09c465da95921460cefb38474024986001604051613c67919061574e565b60405180910390a15b50565b60008060019054906101000a900460ff16159050808015613ca45750600160008054906101000a900460ff1660ff16105b80613cd15750613cb3306127fe565b158015613cd05750600160008054906101000a900460ff1660ff16145b5b613d10576040517f08c379a0000000000000000000000000000000000000000000000000000000008152600401613d079061590b565b60405180910390fd5b60016000806101000a81548160ff021916908360ff1602179055508015613d4d576001600060016101000a81548160ff0219169083151502179055505b613d556140c2565b613d5d6143ca565b8015613db65760008060016101000a81548160ff0219169083151502179055507f7f26b83ff96e1f2b6a682f133852f6798a09c465da95921460cefb38474024986001604051613dad919061574e565b60405180910390a15b50565b613dc3828261302e565b5050565b600073ffffffffffffffffffffffffffffffffffffffff168273ffffffffffffffffffffffffffffffffffffffff161415613e37576040517f08c379a0000000000000000000000000000000000000000000000000000000008152600401613e2e90615b2b565b60405180910390fd5b613e4360008383613f28565b8060366000828254613e559190615c31565b9250508190555080603460008473ffffffffffffffffffffffffffffffffffffffff1673ffffffffffffffffffffffffffffffffffffffff1681526020019081526020016000206000828254613eab9190615c31565b925050819055508173ffffffffffffffffffffffffffffffffffffffff16600073ffffffffffffffffffffffffffffffffffffffff167fddf252ad1be2c89b69c2b068fc378daa952ba7f163c4a11628f55a4df523b3ef83604051613f109190615b4b565b60405180910390a3613f2460008383613f80565b5050565b613f3061158b565b15613f70576040517f08c379a0000000000000000000000000000000000000000000000000000000008152600401613f67906158ab565b60405180910390fd5b613f7b838383614510565b505050565b505050565b600073ffffffffffffffffffffffffffffffffffffffff8016821115613fe0576040517f08c379a0000000000000000000000000000000000000000000000000000000008152600401613fd790615aab565b60405180910390fd5b819050919050565b600065ffffffffffff8016821115614035576040517f08c379a000000000000000000000000000000000000000000000000000000000815260040161402c9061582b565b60405180910390fd5b819050919050565b6140478282611a19565b6140be5761405481614515565b6140628360001c6020614542565b604051602001614073929190615663565b6040516020818303038152906040526040517f08c379a00000000000000000000000000000000000000000000000000000000081526004016140b59190615769565b60405180910390fd5b5050565b600060019054906101000a900460ff16614111576040517f08c379a000000000000000000000000000000000000000000000000000000000815260040161410890615a8b565b60405180910390fd5b565b60008060019054906101000a900460ff161590508080156141445750600160008054906101000a900460ff1660ff16105b806141715750614153306127fe565b1580156141705750600160008054906101000a900460ff1660ff16145b5b6141b0576040517f08c379a00000000000000000000000000000000000000000000000000000000081526004016141a79061590b565b60405180910390fd5b60016000806101000a81548160ff021916908360ff16021790555080156141ed576001600060016101000a81548160ff0219169083151502179055505b826037908051906020019061420392919061483c565b50816038908051906020019061421a92919061483c565b5080156142745760008060016101000a81548160ff0219169083151502179055507f7f26b83ff96e1f2b6a682f133852f6798a09c465da95921460cefb3847402498600160405161426b919061574e565b60405180910390a15b505050565b60008060019054906101000a900460ff161590508080156142aa5750600160008054906101000a900460ff1660ff16105b806142d757506142b9306127fe565b1580156142d65750600160008054906101000a900460ff1660ff16145b5b614316576040517f08c379a000000000000000000000000000000000000000000000000000000000815260040161430d9061590b565b60405180910390fd5b60016000806101000a81548160ff021916908360ff1602179055508015614353576001600060016101000a81548160ff0219169083151502179055505b600060cf60006101000a81548160ff02191690831515021790555080156143c75760008060016101000a81548160ff0219169083151502179055507f7f26b83ff96e1f2b6a682f133852f6798a09c465da95921460cefb384740249860016040516143be919061574e565b60405180910390a15b50565b60008060019054906101000a900460ff161590508080156143fb5750600160008054906101000a900460ff1660ff16105b80614428575061440a306127fe565b1580156144275750600160008054906101000a900460ff1660ff16145b5b614467576040517f08c379a000000000000000000000000000000000000000000000000000000000815260040161445e9061590b565b60405180910390fd5b60016000806101000a81548160ff021916908360ff16021790555080156144a4576001600060016101000a81548160ff0219169083151502179055505b6144b46144af6128a7565b61357b565b801561450d5760008060016101000a81548160ff0219169083151502179055507f7f26b83ff96e1f2b6a682f133852f6798a09c465da95921460cefb38474024986001604051614504919061574e565b60405180910390a15b50565b505050565b606061453b8273ffffffffffffffffffffffffffffffffffffffff16601460ff16614542565b9050919050565b6060600060028360026145559190615e29565b61455f9190615c31565b67ffffffffffffffff81111561459e577f4e487b7100000000000000000000000000000000000000000000000000000000600052604160045260246000fd5b6040519080825280601f01601f1916602001820160405280156145d05781602001600182028036833780820191505090505b5090507f30000000000000000000000000000000000000000000000000000000000000008160008151811061462e577f4e487b7100000000000000000000000000000000000000000000000000000000600052603260045260246000fd5b60200101907effffffffffffffffffffffffffffffffffffffffffffffffffffffffffffff1916908160001a9053507f7800000000000000000000000000000000000000000000000000000000000000816001815181106146b8577f4e487b7100000000000000000000000000000000000000000000000000000000600052603260045260246000fd5b60200101907effffffffffffffffffffffffffffffffffffffffffffffffffffffffffffff1916908160001a905350600060018460026146f89190615e29565b6147029190615c31565b90505b60018111156147ee577f3031323334353637383961626364656600000000000000000000000000000000600f86166010811061476a577f4e487b7100000000000000000000000000000000000000000000000000000000600052603260045260246000fd5b1a60f81b8282815181106147a7577f4e487b7100000000000000000000000000000000000000000000000000000000600052603260045260246000fd5b60200101907effffffffffffffffffffffffffffffffffffffffffffffffffffffffffffff1916908160001a905350600485901c9450806147e790616013565b9050614705565b5060008414614832576040517f08c379a00000000000000000000000000000000000000000000000000000000081526004016148299061578b565b60405180910390fd5b8091505092915050565b8280546148489061603d565b90600052602060002090601f01602090048101928261486a57600085556148b1565b82601f1061488357805160ff19168380011785556148b1565b828001600101855582156148b1579182015b828111156148b0578251825591602001919060010190614895565b5b5090506148be91906148c2565b5090565b5b808211156148db5760008160009055506001016148c3565b5090565b6000813590506148ee8161611a565b92915050565b60008151905061490381616131565b92915050565b60008135905061491881616148565b92915050565b60008135905061492d8161615f565b92915050565b60008135905061494281616176565b92915050565b60008151905061495781616176565b92915050565b60008135905061496c8161618d565b92915050565b60006020828403121561498457600080fd5b6000614992848285016148df565b91505092915050565b600080604083850312156149ae57600080fd5b60006149bc858286016148df565b92505060206149cd858286016148df565b9150509250929050565b6000806000606084860312156149ec57600080fd5b60006149fa868287016148df565b9350506020614a0b868287016148df565b9250506040614a1c86828701614933565b9150509250925092565b60008060408385031215614a3957600080fd5b6000614a47858286016148df565b9250506020614a5885828601614933565b9150509250929050565b60008060408385031215614a7557600080fd5b6000614a83858286016148df565b9250506020614a948582860161495d565b9150509250929050565b600060208284031215614ab057600080fd5b6000614abe848285016148f4565b91505092915050565b600060208284031215614ad957600080fd5b6000614ae784828501614909565b91505092915050565b60008060408385031215614b0357600080fd5b6000614b1185828601614909565b9250506020614b22858286016148df565b9150509250929050565b600060208284031215614b3e57600080fd5b6000614b4c8482850161491e565b91505092915050565b600060208284031215614b6757600080fd5b6000614b7584828501614933565b91505092915050565b600060208284031215614b9057600080fd5b6000614b9e84828501614948565b91505092915050565b600060208284031215614bb957600080fd5b6000614bc78482850161495d565b91505092915050565b614bd981615f1f565b82525050565b614be881615f31565b82525050565b614bf781615f3d565b82525050565b614c0681615fbc565b82525050565b6000614c1782615c0a565b614c218185615c15565b9350614c31818560208601615fe0565b614c3a816160fc565b840191505092915050565b6000614c5082615c0a565b614c5a8185615c26565b9350614c6a818560208601615fe0565b80840191505092915050565b6000614c83602083615c15565b91507f537472696e67733a20686578206c656e67746820696e73756666696369656e746000830152602082019050919050565b6000614cc3602383615c15565b91507f45524332303a207472616e7366657220746f20746865207a65726f206164647260008301527f65737300000000000000000000000000000000000000000000000000000000006020830152604082019050919050565b6000614d29601483615c15565b91507f5061757361626c653a206e6f74207061757365640000000000000000000000006000830152602082019050919050565b6000614d69601283615c15565b91507f6e6f20746f6b656e7320746f20636c61696d00000000000000000000000000006000830152602082019050919050565b6000614da9601e83615c15565b91507f7374616b656420746f6b656e7320617265207374696c6c206c6f636b656400006000830152602082019050919050565b6000614de9601c83615c15565b91507f76616c756520646f65736e27742066697420696e2034382062697473000000006000830152602082019050919050565b6000614e29602683615c15565b91507f4f776e61626c653a206e6577206f776e657220697320746865207a65726f206160008301527f64647265737300000000000000000000000000000000000000000000000000006020830152604082019050919050565b6000614e8f602283615c15565b91507f45524332303a20617070726f766520746f20746865207a65726f20616464726560008301527f73730000000000000000000000000000000000000000000000000000000000006020830152604082019050919050565b6000614ef5602683615c15565b91507f45524332303a207472616e7366657220616d6f756e742065786365656473206260008301527f616c616e636500000000000000000000000000000000000000000000000000006020830152604082019050919050565b6000614f5b601083615c15565b91507f5061757361626c653a20706175736564000000000000000000000000000000006000830152602082019050919050565b6000614f9b601883615c15565b91507f7374616b6520616d6f756e74206d757374206265203e203000000000000000006000830152602082019050919050565b6000614fdb601883615c15565b91507f6e6f7420656e6f7567682072657761726420746f6b656e7300000000000000006000830152602082019050919050565b600061501b602e83615c15565b91507f496e697469616c697a61626c653a20636f6e747261637420697320616c72656160008301527f647920696e697469616c697a65640000000000000000000000000000000000006020830152604082019050919050565b6000615081601883615c15565b91507f6e6f2072657761726420746f6b656e20636f6e747261637400000000000000006000830152602082019050919050565b60006150c1602883615c15565b91507f45524332303a207472616e7366657220616d6f756e742065786365656473206160008301527f6c6c6f77616e63650000000000000000000000000000000000000000000000006020830152604082019050919050565b6000615127602083615c15565b91507f4f776e61626c653a2063616c6c6572206973206e6f7420746865206f776e65726000830152602082019050919050565b6000615167601f83615c15565b91507f776974686472617720616d6f756e74203e207374616b656420616d6f756e74006000830152602082019050919050565b60006151a7601983615c15565b91507f7374616b696e67546f6b656e2e61646472657373203d3d2030000000000000006000830152602082019050919050565b60006151e7601a83615c15565b91507f6c6f636b54696d65506572696f64203e3d2033363620646179730000000000006000830152602082019050919050565b6000615227601e83615c15565b91507f63616e206e6f74207769746864726177207374616b696e6720746f6b656e00006000830152602082019050919050565b6000615267601c83615c15565b91507f74696d652068617320746f20626520696e2074686520667574757265000000006000830152602082019050919050565b60006152a7602583615c15565b91507f45524332303a207472616e736665722066726f6d20746865207a65726f20616460008301527f64726573730000000000000000000000000000000000000000000000000000006020830152604082019050919050565b600061530d601a83615c15565b91507f616d6f756e7420746f207769746864726177206e6f74203e20300000000000006000830152602082019050919050565b600061534d602483615c15565b91507f45524332303a20617070726f76652066726f6d20746865207a65726f2061646460008301527f72657373000000000000000000000000000000000000000000000000000000006020830152604082019050919050565b60006153b3602b83615c15565b91507f496e697469616c697a61626c653a20636f6e7472616374206973206e6f74206960008301527f6e697469616c697a696e670000000000000000000000000000000000000000006020830152604082019050919050565b6000615419601783615c26565b91507f416363657373436f6e74726f6c3a206163636f756e74200000000000000000006000830152601782019050919050565b6000615459601d83615c15565b91507f76616c756520646f65736e27742066697420696e2031363020626974730000006000830152602082019050919050565b6000615499601f83615c15565b91507f5265656e7472616e637947756172643a207265656e7472616e742063616c6c006000830152602082019050919050565b60006154d9602583615c15565b91507f45524332303a2064656372656173656420616c6c6f77616e63652062656c6f7760008301527f207a65726f0000000000000000000000000000000000000000000000000000006020830152604082019050919050565b600061553f601183615c26565b91507f206973206d697373696e6720726f6c65200000000000000000000000000000006000830152601182019050919050565b600061557f602f83615c15565b91507f416363657373436f6e74726f6c3a2063616e206f6e6c792072656e6f756e636560008301527f20726f6c657320666f722073656c6600000000000000000000000000000000006020830152604082019050919050565b60006155e5601f83615c15565b91507f45524332303a206d696e7420746f20746865207a65726f2061646472657373006000830152602082019050919050565b61562181615f73565b82525050565b61563081615f93565b82525050565b61563f81615fce565b82525050565b61564e81615f9d565b82525050565b61565d81615faf565b82525050565b600061566e8261540c565b915061567a8285614c45565b915061568582615532565b91506156918284614c45565b91508190509392505050565b60006020820190506156b26000830184614bd0565b92915050565b60006060820190506156cd6000830186614bd0565b6156da6020830185614bd0565b6156e76040830184615627565b949350505050565b60006040820190506157046000830185614bd0565b6157116020830184615627565b9392505050565b600060208201905061572d6000830184614bdf565b92915050565b60006020820190506157486000830184614bee565b92915050565b60006020820190506157636000830184614bfd565b92915050565b600060208201905081810360008301526157838184614c0c565b905092915050565b600060208201905081810360008301526157a481614c76565b9050919050565b600060208201905081810360008301526157c481614cb6565b9050919050565b600060208201905081810360008301526157e481614d1c565b9050919050565b6000602082019050818103600083015261580481614d5c565b9050919050565b6000602082019050818103600083015261582481614d9c565b9050919050565b6000602082019050818103600083015261584481614ddc565b9050919050565b6000602082019050818103600083015261586481614e1c565b9050919050565b6000602082019050818103600083015261588481614e82565b9050919050565b600060208201905081810360008301526158a481614ee8565b9050919050565b600060208201905081810360008301526158c481614f4e565b9050919050565b600060208201905081810360008301526158e481614f8e565b9050919050565b6000602082019050818103600083015261590481614fce565b9050919050565b600060208201905081810360008301526159248161500e565b9050919050565b6000602082019050818103600083015261594481615074565b9050919050565b60006020820190508181036000830152615964816150b4565b9050919050565b600060208201905081810360008301526159848161511a565b9050919050565b600060208201905081810360008301526159a48161515a565b9050919050565b600060208201905081810360008301526159c48161519a565b9050919050565b600060208201905081810360008301526159e4816151da565b9050919050565b60006020820190508181036000830152615a048161521a565b9050919050565b60006020820190508181036000830152615a248161525a565b9050919050565b60006020820190508181036000830152615a448161529a565b9050919050565b60006020820190508181036000830152615a6481615300565b9050919050565b60006020820190508181036000830152615a8481615340565b9050919050565b60006020820190508181036000830152615aa4816153a6565b9050919050565b60006020820190508181036000830152615ac48161544c565b9050919050565b60006020820190508181036000830152615ae48161548c565b9050919050565b60006020820190508181036000830152615b04816154cc565b9050919050565b60006020820190508181036000830152615b2481615572565b9050919050565b60006020820190508181036000830152615b44816155d8565b9050919050565b6000602082019050615b606000830184615627565b92915050565b6000604082019050615b7b6000830185615627565b615b886020830184615636565b9392505050565b6000602082019050615ba46000830184615645565b92915050565b6000608082019050615bbf6000830187615645565b615bcc6020830186615645565b615bd96040830185615618565b615be66060830184615627565b95945050505050565b6000602082019050615c046000830184615654565b92915050565b600081519050919050565b600082825260208201905092915050565b600081905092915050565b6000615c3c82615f93565b9150615c4783615f93565b9250827fffffffffffffffffffffffffffffffffffffffffffffffffffffffffffffffff03821115615c7c57615c7b61606f565b5b828201905092915050565b6000615c9282615f93565b9150615c9d83615f93565b925082615cad57615cac61609e565b5b828204905092915050565b6000808291508390505b6001851115615d0257808604811115615cde57615cdd61606f565b5b6001851615615ced5780820291505b8081029050615cfb8561610d565b9450615cc2565b94509492505050565b6000615d1682615f93565b9150615d2183615faf565b9250615d4e7fffffffffffffffffffffffffffffffffffffffffffffffffffffffffffffffff8484615d56565b905092915050565b600082615d665760019050615e22565b81615d745760009050615e22565b8160018114615d8a5760028114615d9457615dc3565b6001915050615e22565b60ff841115615da657615da561606f565b5b8360020a915084821115615dbd57615dbc61606f565b5b50615e22565b5060208310610133831016604e8410600b8410161715615df85782820a905083811115615df357615df261606f565b5b615e22565b615e058484846001615cb8565b92509050818404811115615e1c57615e1b61606f565b5b81810290505b9392505050565b6000615e3482615f93565b9150615e3f83615f93565b9250817fffffffffffffffffffffffffffffffffffffffffffffffffffffffffffffffff0483118215151615615e7857615e7761606f565b5b828202905092915050565b6000615e8e82615f73565b9150615e9983615f73565b925082821015615eac57615eab61606f565b5b828203905092915050565b6000615ec282615f93565b9150615ecd83615f93565b925082821015615ee057615edf61606f565b5b828203905092915050565b6000615ef682615f9d565b9150615f0183615f9d565b925082821015615f1457615f1361606f565b5b828203905092915050565b6000615f2a82615f73565b9050919050565b60008115159050919050565b6000819050919050565b60007fffffffff0000000000000000000000000000000000000000000000000000000082169050919050565b600073ffffffffffffffffffffffffffffffffffffffff82169050919050565b6000819050919050565b600065ffffffffffff82169050919050565b600060ff82169050919050565b6000615fc782615faf565b9050919050565b6000615fd982615f9d565b9050919050565b60005b83811015615ffe578082015181840152602081019050615fe3565b8381111561600d576000848401525b50505050565b600061601e82615f93565b915060008214156160325761603161606f565b5b600182039050919050565b6000600282049050600182168061605557607f821691505b60208210811415616069576160686160cd565b5b50919050565b7f4e487b7100000000000000000000000000000000000000000000000000000000600052601160045260246000fd5b7f4e487b7100000000000000000000000000000000000000000000000000000000600052601260045260246000fd5b7f4e487b7100000000000000000000000000000000000000000000000000000000600052602260045260246000fd5b6000601f19601f8301169050919050565b60008160011c9050919050565b61612381615f1f565b811461612e57600080fd5b50565b61613a81615f31565b811461614557600080fd5b50565b61615181615f3d565b811461615c57600080fd5b50565b61616881615f47565b811461617357600080fd5b50565b61617f81615f93565b811461618a57600080fd5b50565b61619681615f9d565b81146161a157600080fd5b5056fea2646970667358221220977b6f3305957aa0ea9a6a2caeaf269e008197f31b280661a6a3d49df447eb0064736f6c63430008000033",
  "immutableReferences": {},
  "source": "/**\n *Submitted for verification at BscScan.com on 2021-12-01\n*/\n\n// File: @openzeppelin/contracts-upgradeable/proxy/utils/Initializable.sol\n\n\n// OpenZeppelin Contracts v4.4.0 (proxy/utils/Initializable.sol)\n\npragma solidity ^0.8.0;\n\n/**\n * @dev Contract module which provides a basic access control mechanism, where\n * there is an account (an owner) that can be granted exclusive access to\n * specific functions.\n *\n * By default, the owner account will be the one that deploys the contract. This\n * can later be changed with {transferOwnership}.\n *\n * This module is used through inheritance. It will make available the modifier\n * `onlyOwner`, which can be applied to your functions to restrict their use to\n * the owner.\n */\nabstract contract OwnableUpgradeable is Initializable, ContextUpgradeable {\n    address private _owner;\n\n    event OwnershipTransferred(address indexed previousOwner, address indexed newOwner);\n\n    /**\n     * @dev Initializes the contract setting the deployer as the initial owner.\n     */\n    function __Ownable_init() internal initializer {\n        __Context_init_unchained();\n        __Ownable_init_unchained();\n    }\n\n    function __Ownable_init_unchained() internal initializer {\n        _transferOwnership(_msgSender());\n    }\n\n    /**\n     * @dev Returns the address of the current owner.\n     */\n    function owner() public view virtual returns (address) {\n        return _owner;\n    }\n\n    /**\n     * @dev Throws if called by any account other than the owner.\n     */\n    modifier onlyOwner() {\n        require(owner() == _msgSender(), \"Ownable: caller is not the owner\");\n        _;\n    }\n\n    /**\n     * @dev Leaves the contract without owner. It will not be possible to call\n     * `onlyOwner` functions anymore. Can only be called by the current owner.\n     *\n     * NOTE: Renouncing ownership will leave the contract without an owner,\n     * thereby removing any functionality that is only available to the owner.\n     */\n    function renounceOwnership() public virtual onlyOwner {\n        _transferOwnership(address(0));\n    }\n\n    /**\n     * @dev Transfers ownership of the contract to a new account (`newOwner`).\n     * Can only be called by the current owner.\n     */\n    function transferOwnership(address newOwner) public virtual onlyOwner {\n        require(newOwner != address(0), \"Ownable: new owner is the zero address\");\n        _transferOwnership(newOwner);\n    }\n\n    /**\n     * @dev Transfers ownership of the contract to a new account (`newOwner`).\n     * Internal function without access restriction.\n     */\n    function _transferOwnership(address newOwner) internal virtual {\n        address oldOwner = _owner;\n        _owner = newOwner;\n        emit OwnershipTransferred(oldOwner, newOwner);\n    }\n    uint256[49] private __gap;\n}\n\n// File: @openzeppelin/contracts-upgradeable/security/PausableUpgradeable.sol\n\n\n// OpenZeppelin Contracts v4.4.0 (security/Pausable.sol)\n\npragma solidity ^0.8.0;\n\n/**\n * @dev Contract module which allows children to implement an emergency stop\n * mechanism that can be triggered by an authorized account.\n *\n * This module is used through inheritance. It will make available the\n * modifiers `whenNotPaused` and `whenPaused`, which can be applied to\n * the functions of your contract. Note that they will not be pausable by\n * simply including this module, only once the modifiers are put in place.\n */\nabstract contract PausableUpgradeable is Initializable, ContextUpgradeable {\n    /**\n     * @dev Emitted when the pause is triggered by `account`.\n     */\n    event Paused(address account);\n\n    /**\n     * @dev Emitted when the pause is lifted by `account`.\n     */\n    event Unpaused(address account);\n\n    bool private _paused;\n\n    /**\n     * @dev Initializes the contract in unpaused state.\n     */\n    function __Pausable_init() internal initializer {\n        __Context_init_unchained();\n        __Pausable_init_unchained();\n    }\n\n    function __Pausable_init_unchained() internal initializer {\n        _paused = false;\n    }\n\n    /**\n     * @dev Returns true if the contract is paused, and false otherwise.\n     */\n    function paused() public view virtual returns (bool) {\n        return _paused;\n    }\n\n    /**\n     * @dev Modifier to make a function callable only when the contract is not paused.\n     *\n     * Requirements:\n     *\n     * - The contract must not be paused.\n     */\n    modifier whenNotPaused() {\n        require(!paused(), \"Pausable: paused\");\n        _;\n    }\n\n    /**\n     * @dev Modifier to make a function callable only when the contract is paused.\n     *\n     * Requirements:\n     *\n     * - The contract must be paused.\n     */\n    modifier whenPaused() {\n        require(paused(), \"Pausable: not paused\");\n        _;\n    }\n\n    /**\n     * @dev Triggers stopped state.\n     *\n     * Requirements:\n     *\n     * - The contract must not be paused.\n     */\n    function _pause() internal virtual whenNotPaused {\n        _paused = true;\n        emit Paused(_msgSender());\n    }\n\n    /**\n     * @dev Returns to normal state.\n     *\n     * Requirements:\n     *\n     * - The contract must be paused.\n     */\n    function _unpause() internal virtual whenPaused {\n        _paused = false;\n        emit Unpaused(_msgSender());\n    }\n    uint256[49] private __gap;\n}\n\n// File: contracts/K4RallyToken.sol\nimport \"./PolsStake.sol\";\n\npragma solidity ^0.8.0;\n// @custom:security-contact security@k4rally.com\ncontract K4RallyTokenV1 is PolsStake, PausableUpgradeable, OwnableUpgradeable {\n    // @custom:oz-upgrades-unsafe-allow constructor\n    constructor() initializer {}\n\n    function initialize(address _stakingToken, uint48 _lockTimePeriod) initializer public {\n        __ERC20_init(\"K4 Rally Token\", \"K4R\");\n        __Pausable_init();\n        __Ownable_init();\n\n        require(_stakingToken != address(0), \"stakingToken.address == 0\");\n        require(_lockTimePeriod < 366 days, \"lockTimePeriod >= 366 days\");\n        stakingToken = _stakingToken;\n        lockTimePeriod = _lockTimePeriod;\n        // set some defaults\n        stakeRewardFactor = 1000 * 1 days; // default : a user has to stake 1000 token for 1 day to receive 1 reward token\n        stakeRewardEndTime = uint48(block.timestamp + 366 days); // default : reward scheme ends in 1 year\n        _setupRole(DEFAULT_ADMIN_ROLE, msg.sender);\n\n        _mint(msg.sender, 1000000000 * 10 ** decimals());\n    }\n\n    function pause() public onlyOwner {\n        _pause();\n    }\n\n    function unpause() public onlyOwner {\n        _unpause();\n    }\n\n    function _beforeTokenTransfer(address from, address to, uint256 amount)\n        internal\n        whenNotPaused\n        override\n    {\n        super._beforeTokenTransfer(from, to, amount);\n    }\n}",
  "sourcePath": "/home/sevenbits/Documents/K4Contract/k4RallyToken-updradeable-contracts/Truffle-K4/contracts/K4RallyTokenV1.sol",
  "compiler": {
    "name": "solc",
    "version": "0.8.0+commit.c7dfd78e.Emscripten.clang"
  },
  "schemaVersion": "3.4.10",
  "updatedAt": "2022-11-14T11:09:14.323Z",
  "devdoc": {
    "kind": "dev",
    "methods": {
      "allowance(address,address)": {
        "details": "See {IERC20-allowance}."
      },
      "approve(address,uint256)": {
        "details": "See {IERC20-approve}. Requirements: - `spender` cannot be the zero address."
      },
      "decimals()": {
        "details": "Returns the number of decimals used to get its user representation. For example, if `decimals` equals `2`, a balance of `505` tokens should be displayed to a user as `5.05` (`505 / 10 ** 2`). Tokens usually opt for a value of 18, imitating the relationship between Ether and Wei. This is the value {ERC20} uses, unless this function is overridden; NOTE: This information is only used for _display_ purposes: it in no way affects any of the arithmetic of the contract, including {IERC20-balanceOf} and {IERC20-transfer}."
      },
      "decreaseAllowance(address,uint256)": {
        "details": "Atomically decreases the allowance granted to `spender` by the caller. This is an alternative to {approve} that can be used as a mitigation for problems described in {IERC20-approve}. Emits an {Approval} event indicating the updated allowance. Requirements: - `spender` cannot be the zero address. - `spender` must have allowance for the caller of at least `subtractedValue`."
      },
      "getRewardTokenBalance()": {
        "returns": {
          "balance": "of reward tokens held by this contract"
        }
      },
      "getRoleAdmin(bytes32)": {
        "details": "Returns the admin role that controls `role`. See {grantRole} and {revokeRole}. To change a role's admin, use {_setRoleAdmin}."
      },
      "getUnlockTime(address)": {
        "details": "return unix epoch time when staked tokens will be unlockedreturn MAX_INT_UINT48 = 2**48-1 if user has no token stakedthis always allows an easy check with : require(block.timestamp > getUnlockTime(account));",
        "returns": {
          "unlockTime": "unix epoch time in seconds"
        }
      },
      "grantRole(bytes32,address)": {
        "details": "Grants `role` to `account`. If `account` had not been already granted `role`, emits a {RoleGranted} event. Requirements: - the caller must have ``role``'s admin role. May emit a {RoleGranted} event."
      },
      "hasRole(bytes32,address)": {
        "details": "Returns `true` if `account` has been granted `role`."
      },
      "increaseAllowance(address,uint256)": {
        "details": "Atomically increases the allowance granted to `spender` by the caller. This is an alternative to {approve} that can be used as a mitigation for problems described in {IERC20-approve}. Emits an {Approval} event indicating the updated allowance. Requirements: - `spender` cannot be the zero address."
      },
      "name()": {
        "details": "Returns the name of the token."
      },
      "owner()": {
        "details": "Returns the address of the current owner."
      },
      "paused()": {
        "details": "Returns true if the contract is paused, and false otherwise."
      },
      "removeOtherERC20Tokens(address)": {
        "params": {
          "_tokenAddress": "address of token to withdraw"
        }
      },
      "renounceOwnership()": {
        "details": "Leaves the contract without owner. It will not be possible to call `onlyOwner` functions anymore. Can only be called by the current owner. NOTE: Renouncing ownership will leave the contract without an owner, thereby removing any functionality that is only available to the owner."
      },
      "renounceRole(bytes32,address)": {
        "details": "Revokes `role` from the calling account. Roles are often managed via {grantRole} and {revokeRole}: this function's purpose is to provide a mechanism for accounts to lose their privileges if they are compromised (such as when a trusted device is misplaced). If the calling account had been revoked `role`, emits a {RoleRevoked} event. Requirements: - the caller must be `account`. May emit a {RoleRevoked} event."
      },
      "revokeRole(bytes32,address)": {
        "details": "Revokes `role` from `account`. If `account` had been granted `role`, emits a {RoleRevoked} event. Requirements: - the caller must have ``role``'s admin role. May emit a {RoleRevoked} event."
      },
      "setLockTimePeriod(uint48)": {
        "params": {
          "_lockTimePeriod": "time in seconds"
        }
      },
      "setRewardToken(address)": {
        "params": {
          "newRewardToken": "address"
        }
      },
      "setStakeRewardEndTime(uint48)": {
        "params": {
          "_stakeRewardEndTime": "unix time in seconds"
        }
      },
      "setStakeRewardFactor(uint256)": {
        "details": "requires that reward token has the same decimals as stake token",
        "params": {
          "_stakeRewardFactor": "time in seconds * amount of staked token to receive 1 reward token"
        }
      },
      "supportsInterface(bytes4)": {
        "details": "See {IERC165-supportsInterface}."
      },
      "symbol()": {
        "details": "Returns the symbol of the token, usually a shorter version of the name."
      },
      "totalSupply()": {
        "details": "See {IERC20-totalSupply}."
      },
      "transfer(address,uint256)": {
        "details": "See {IERC20-transfer}. Requirements: - `recipient` cannot be the zero address. - the caller must have a balance of at least `amount`."
      },
      "transferFrom(address,address,uint256)": {
        "details": "See {IERC20-transferFrom}. Emits an {Approval} event indicating the updated allowance. This is not required by the EIP. See the note at the beginning of {ERC20}. Requirements: - `sender` and `recipient` cannot be the zero address. - `sender` must have a balance of at least `amount`. - the caller must have allowance for ``sender``'s tokens of at least `amount`."
      },
      "transferOwnership(address)": {
        "details": "Transfers ownership of the contract to a new account (`newOwner`). Can only be called by the current owner."
      },
      "userClaimableRewards(address)": {
        "params": {
          "_staker": "address"
        },
        "returns": {
          "_0": "claimableRewards = timePeriod * stakeAmount"
        }
      }
    },
    "version": 1
  },
  "userdoc": {
    "kind": "user",
    "methods": {
      "burnRewards(address,uint256)": {
        "notice": "ADMIN_ROLE has to set BURNER_ROLE allows an external (lottery token sale) contract to substract rewards"
      },
      "lockTimePeriod()": {
        "notice": "Using block.timestamp instead of block.number for reward calculation 1) Easier to handle for users 2) Should result in same rewards across different chain with different block times 3) \"The current block timestamp must be strictly larger than the timestamp of the last block, ...     but the only guarantee is that it will be somewhere between the timestamps ...     of two consecutive blocks in the canonical chain.\"    https://docs.soliditylang.org/en/v0.7.6/cheatsheet.html?highlight=block.timestamp#global-variables"
      },
      "removeOtherERC20Tokens(address)": {
        "notice": "withdraw accidently sent ERC20 tokens"
      },
      "setLockTimePeriod(uint48)": {
        "notice": "set time a user has to wait after calling unlock until staked token can be withdrawn"
      },
      "setRewardToken(address)": {
        "notice": "setting rewardToken to address(0) disables claim/mintif there was a reward token set before, return remaining tokens to msg.sender/admin"
      },
      "setStakeRewardEndTime(uint48)": {
        "notice": "set block time when stake reward scheme will end"
      },
      "setStakeRewardFactor(uint256)": {
        "notice": "see calculateUserClaimableReward() docs"
      },
      "stakeAmount_msgSender()": {
        "notice": "msg.sender external view convenience functions ********************************"
      },
      "stakeTime(address)": {
        "notice": "External API functions"
      },
      "userClaimableRewards(address)": {
        "notice": "calculates unclaimed rewards unclaimed rewards = expired time since last stake/unstake transaction * current staked amount We have to cover 6 cases here : 1) block time < stake time < end time   : should never happen => error 2) block time < end time   < stake time : should never happen => error 3) end time   < block time < stake time : should never happen => error 4) end time   < stake time < block time : staked after reward period is over => no rewards 5) stake time < block time < end time   : end time in the future 6) stake time < end time   < block time : end time in the past & staked before"
      }
    },
    "version": 1
  }
}