{
  "contractName": "K4RallyTokenV2",
  "abi": [
    {
      "inputs": [],
      "stateMutability": "nonpayable",
      "type": "constructor"
    },
    {
      "anonymous": false,
      "inputs": [
        {
          "indexed": true,
          "internalType": "address",
          "name": "owner",
          "type": "address"
        },
        {
          "indexed": true,
          "internalType": "address",
          "name": "spender",
          "type": "address"
        },
        {
          "indexed": false,
          "internalType": "uint256",
          "name": "value",
          "type": "uint256"
        }
      ],
      "name": "Approval",
      "type": "event"
    },
    {
      "anonymous": false,
      "inputs": [
        {
          "indexed": true,
          "internalType": "address",
          "name": "wallet",
          "type": "address"
        },
        {
          "indexed": true,
          "internalType": "address",
          "name": "rewardToken",
          "type": "address"
        },
        {
          "indexed": false,
          "internalType": "uint256",
          "name": "amount",
          "type": "uint256"
        }
      ],
      "name": "Claimed",
      "type": "event"
    },
    {
      "anonymous": false,
      "inputs": [
        {
          "indexed": true,
          "internalType": "address",
          "name": "tokenAddress",
          "type": "address"
        },
        {
          "indexed": true,
          "internalType": "address",
          "name": "receiver",
          "type": "address"
        },
        {
          "indexed": false,
          "internalType": "uint256",
          "name": "amount",
          "type": "uint256"
        }
      ],
      "name": "ERC20TokensRemoved",
      "type": "event"
    },
    {
      "anonymous": false,
      "inputs": [
        {
          "indexed": false,
          "internalType": "uint8",
          "name": "version",
          "type": "uint8"
        }
      ],
      "name": "Initialized",
      "type": "event"
    },
    {
      "anonymous": false,
      "inputs": [
        {
          "indexed": false,
          "internalType": "uint48",
          "name": "lockTimePeriod",
          "type": "uint48"
        }
      ],
      "name": "LockTimePeriodChanged",
      "type": "event"
    },
    {
      "anonymous": false,
      "inputs": [
        {
          "indexed": true,
          "internalType": "address",
          "name": "previousOwner",
          "type": "address"
        },
        {
          "indexed": true,
          "internalType": "address",
          "name": "newOwner",
          "type": "address"
        }
      ],
      "name": "OwnershipTransferred",
      "type": "event"
    },
    {
      "anonymous": false,
      "inputs": [
        {
          "indexed": false,
          "internalType": "address",
          "name": "account",
          "type": "address"
        }
      ],
      "name": "Paused",
      "type": "event"
    },
    {
      "anonymous": false,
      "inputs": [
        {
          "indexed": true,
          "internalType": "address",
          "name": "oldRewardToken",
          "type": "address"
        },
        {
          "indexed": false,
          "internalType": "uint256",
          "name": "returnedAmount",
          "type": "uint256"
        },
        {
          "indexed": true,
          "internalType": "address",
          "name": "newRewardToken",
          "type": "address"
        }
      ],
      "name": "RewardTokenChanged",
      "type": "event"
    },
    {
      "anonymous": false,
      "inputs": [
        {
          "indexed": true,
          "internalType": "address",
          "name": "staker",
          "type": "address"
        },
        {
          "indexed": false,
          "internalType": "uint256",
          "name": "amount",
          "type": "uint256"
        }
      ],
      "name": "RewardsBurned",
      "type": "event"
    },
    {
      "anonymous": false,
      "inputs": [
        {
          "indexed": true,
          "internalType": "bytes32",
          "name": "role",
          "type": "bytes32"
        },
        {
          "indexed": true,
          "internalType": "bytes32",
          "name": "previousAdminRole",
          "type": "bytes32"
        },
        {
          "indexed": true,
          "internalType": "bytes32",
          "name": "newAdminRole",
          "type": "bytes32"
        }
      ],
      "name": "RoleAdminChanged",
      "type": "event"
    },
    {
      "anonymous": false,
      "inputs": [
        {
          "indexed": true,
          "internalType": "bytes32",
          "name": "role",
          "type": "bytes32"
        },
        {
          "indexed": true,
          "internalType": "address",
          "name": "account",
          "type": "address"
        },
        {
          "indexed": true,
          "internalType": "address",
          "name": "sender",
          "type": "address"
        }
      ],
      "name": "RoleGranted",
      "type": "event"
    },
    {
      "anonymous": false,
      "inputs": [
        {
          "indexed": true,
          "internalType": "bytes32",
          "name": "role",
          "type": "bytes32"
        },
        {
          "indexed": true,
          "internalType": "address",
          "name": "account",
          "type": "address"
        },
        {
          "indexed": true,
          "internalType": "address",
          "name": "sender",
          "type": "address"
        }
      ],
      "name": "RoleRevoked",
      "type": "event"
    },
    {
      "anonymous": false,
      "inputs": [
        {
          "indexed": true,
          "internalType": "address",
          "name": "wallet",
          "type": "address"
        },
        {
          "indexed": false,
          "internalType": "uint256",
          "name": "amount",
          "type": "uint256"
        },
        {
          "indexed": false,
          "internalType": "uint256",
          "name": "date",
          "type": "uint256"
        }
      ],
      "name": "Stake",
      "type": "event"
    },
    {
      "anonymous": false,
      "inputs": [
        {
          "indexed": false,
          "internalType": "uint48",
          "name": "stakeRewardEndTime",
          "type": "uint48"
        }
      ],
      "name": "StakeRewardEndTimeChanged",
      "type": "event"
    },
    {
      "anonymous": false,
      "inputs": [
        {
          "indexed": false,
          "internalType": "uint256",
          "name": "stakeRewardFactor",
          "type": "uint256"
        }
      ],
      "name": "StakeRewardFactorChanged",
      "type": "event"
    },
    {
      "anonymous": false,
      "inputs": [
        {
          "indexed": true,
          "internalType": "address",
          "name": "from",
          "type": "address"
        },
        {
          "indexed": true,
          "internalType": "address",
          "name": "to",
          "type": "address"
        },
        {
          "indexed": false,
          "internalType": "uint256",
          "name": "value",
          "type": "uint256"
        }
      ],
      "name": "Transfer",
      "type": "event"
    },
    {
      "anonymous": false,
      "inputs": [
        {
          "indexed": false,
          "internalType": "address",
          "name": "account",
          "type": "address"
        }
      ],
      "name": "Unpaused",
      "type": "event"
    },
    {
      "anonymous": false,
      "inputs": [
        {
          "indexed": true,
          "internalType": "address",
          "name": "wallet",
          "type": "address"
        },
        {
          "indexed": false,
          "internalType": "uint256",
          "name": "amount",
          "type": "uint256"
        },
        {
          "indexed": false,
          "internalType": "uint256",
          "name": "date",
          "type": "uint256"
        }
      ],
      "name": "Withdraw",
      "type": "event"
    },
    {
      "inputs": [],
      "name": "BURNER_ROLE",
      "outputs": [
        {
          "internalType": "bytes32",
          "name": "",
          "type": "bytes32"
        }
      ],
      "stateMutability": "view",
      "type": "function"
    },
    {
      "inputs": [],
      "name": "DEFAULT_ADMIN_ROLE",
      "outputs": [
        {
          "internalType": "bytes32",
          "name": "",
          "type": "bytes32"
        }
      ],
      "stateMutability": "view",
      "type": "function"
    },
    {
      "inputs": [],
      "name": "MAX_TIME",
      "outputs": [
        {
          "internalType": "uint48",
          "name": "",
          "type": "uint48"
        }
      ],
      "stateMutability": "view",
      "type": "function"
    },
    {
      "inputs": [
        {
          "internalType": "address",
          "name": "owner",
          "type": "address"
        },
        {
          "internalType": "address",
          "name": "spender",
          "type": "address"
        }
      ],
      "name": "allowance",
      "outputs": [
        {
          "internalType": "uint256",
          "name": "",
          "type": "uint256"
        }
      ],
      "stateMutability": "view",
      "type": "function"
    },
    {
      "inputs": [
        {
          "internalType": "address",
          "name": "spender",
          "type": "address"
        },
        {
          "internalType": "uint256",
          "name": "amount",
          "type": "uint256"
        }
      ],
      "name": "approve",
      "outputs": [
        {
          "internalType": "bool",
          "name": "",
          "type": "bool"
        }
      ],
      "stateMutability": "nonpayable",
      "type": "function"
    },
    {
      "inputs": [
        {
          "internalType": "address",
          "name": "_staker",
          "type": "address"
        }
      ],
      "name": "balanceOf",
      "outputs": [
        {
          "internalType": "uint256",
          "name": "balance",
          "type": "uint256"
        }
      ],
      "stateMutability": "view",
      "type": "function"
    },
    {
      "inputs": [
        {
          "internalType": "address",
          "name": "_staker",
          "type": "address"
        },
        {
          "internalType": "uint256",
          "name": "_amount",
          "type": "uint256"
        }
      ],
      "name": "burnRewards",
      "outputs": [],
      "stateMutability": "nonpayable",
      "type": "function"
    },
    {
      "inputs": [],
      "name": "claim",
      "outputs": [
        {
          "internalType": "uint256",
          "name": "",
          "type": "uint256"
        }
      ],
      "stateMutability": "nonpayable",
      "type": "function"
    },
    {
      "inputs": [],
      "name": "decimals",
      "outputs": [
        {
          "internalType": "uint8",
          "name": "",
          "type": "uint8"
        }
      ],
      "stateMutability": "view",
      "type": "function"
    },
    {
      "inputs": [
        {
          "internalType": "address",
          "name": "spender",
          "type": "address"
        },
        {
          "internalType": "uint256",
          "name": "subtractedValue",
          "type": "uint256"
        }
      ],
      "name": "decreaseAllowance",
      "outputs": [
        {
          "internalType": "bool",
          "name": "",
          "type": "bool"
        }
      ],
      "stateMutability": "nonpayable",
      "type": "function"
    },
    {
      "inputs": [
        {
          "internalType": "address",
          "name": "_staker",
          "type": "address"
        }
      ],
      "name": "getEarnedRewardTokens",
      "outputs": [
        {
          "internalType": "uint256",
          "name": "claimableRewardTokens",
          "type": "uint256"
        }
      ],
      "stateMutability": "view",
      "type": "function"
    },
    {
      "inputs": [],
      "name": "getEarnedRewardTokens_msgSender",
      "outputs": [
        {
          "internalType": "uint256",
          "name": "",
          "type": "uint256"
        }
      ],
      "stateMutability": "view",
      "type": "function"
    },
    {
      "inputs": [],
      "name": "getRewardTokenBalance",
      "outputs": [
        {
          "internalType": "uint256",
          "name": "balance",
          "type": "uint256"
        }
      ],
      "stateMutability": "view",
      "type": "function"
    },
    {
      "inputs": [
        {
          "internalType": "bytes32",
          "name": "role",
          "type": "bytes32"
        }
      ],
      "name": "getRoleAdmin",
      "outputs": [
        {
          "internalType": "bytes32",
          "name": "",
          "type": "bytes32"
        }
      ],
      "stateMutability": "view",
      "type": "function"
    },
    {
      "inputs": [
        {
          "internalType": "address",
          "name": "_staker",
          "type": "address"
        }
      ],
      "name": "getUnlockTime",
      "outputs": [
        {
          "internalType": "uint48",
          "name": "unlockTime",
          "type": "uint48"
        }
      ],
      "stateMutability": "view",
      "type": "function"
    },
    {
      "inputs": [],
      "name": "getUnlockTime_msgSender",
      "outputs": [
        {
          "internalType": "uint48",
          "name": "unlockTime",
          "type": "uint48"
        }
      ],
      "stateMutability": "view",
      "type": "function"
    },
    {
      "inputs": [
        {
          "internalType": "bytes32",
          "name": "role",
          "type": "bytes32"
        },
        {
          "internalType": "address",
          "name": "account",
          "type": "address"
        }
      ],
      "name": "grantRole",
      "outputs": [],
      "stateMutability": "nonpayable",
      "type": "function"
    },
    {
      "inputs": [
        {
          "internalType": "bytes32",
          "name": "role",
          "type": "bytes32"
        },
        {
          "internalType": "address",
          "name": "account",
          "type": "address"
        }
      ],
      "name": "hasRole",
      "outputs": [
        {
          "internalType": "bool",
          "name": "",
          "type": "bool"
        }
      ],
      "stateMutability": "view",
      "type": "function"
    },
    {
      "inputs": [
        {
          "internalType": "address",
          "name": "spender",
          "type": "address"
        },
        {
          "internalType": "uint256",
          "name": "addedValue",
          "type": "uint256"
        }
      ],
      "name": "increaseAllowance",
      "outputs": [
        {
          "internalType": "bool",
          "name": "",
          "type": "bool"
        }
      ],
      "stateMutability": "nonpayable",
      "type": "function"
    },
    {
      "inputs": [],
      "name": "lockTimePeriod",
      "outputs": [
        {
          "internalType": "uint48",
          "name": "",
          "type": "uint48"
        }
      ],
      "stateMutability": "view",
      "type": "function"
    },
    {
      "inputs": [],
      "name": "name",
      "outputs": [
        {
          "internalType": "string",
          "name": "",
          "type": "string"
        }
      ],
      "stateMutability": "view",
      "type": "function"
    },
    {
      "inputs": [],
      "name": "owner",
      "outputs": [
        {
          "internalType": "address",
          "name": "",
          "type": "address"
        }
      ],
      "stateMutability": "view",
      "type": "function"
    },
    {
      "inputs": [],
      "name": "paused",
      "outputs": [
        {
          "internalType": "bool",
          "name": "",
          "type": "bool"
        }
      ],
      "stateMutability": "view",
      "type": "function"
    },
    {
      "inputs": [
        {
          "internalType": "address",
          "name": "_tokenAddress",
          "type": "address"
        }
      ],
      "name": "removeOtherERC20Tokens",
      "outputs": [],
      "stateMutability": "nonpayable",
      "type": "function"
    },
    {
      "inputs": [],
      "name": "renounceOwnership",
      "outputs": [],
      "stateMutability": "nonpayable",
      "type": "function"
    },
    {
      "inputs": [
        {
          "internalType": "bytes32",
          "name": "role",
          "type": "bytes32"
        },
        {
          "internalType": "address",
          "name": "account",
          "type": "address"
        }
      ],
      "name": "renounceRole",
      "outputs": [],
      "stateMutability": "nonpayable",
      "type": "function"
    },
    {
      "inputs": [
        {
          "internalType": "bytes32",
          "name": "role",
          "type": "bytes32"
        },
        {
          "internalType": "address",
          "name": "account",
          "type": "address"
        }
      ],
      "name": "revokeRole",
      "outputs": [],
      "stateMutability": "nonpayable",
      "type": "function"
    },
    {
      "inputs": [],
      "name": "rewardToken",
      "outputs": [
        {
          "internalType": "address",
          "name": "",
          "type": "address"
        }
      ],
      "stateMutability": "view",
      "type": "function"
    },
    {
      "inputs": [
        {
          "internalType": "uint48",
          "name": "_lockTimePeriod",
          "type": "uint48"
        }
      ],
      "name": "setLockTimePeriod",
      "outputs": [],
      "stateMutability": "nonpayable",
      "type": "function"
    },
    {
      "inputs": [
        {
          "internalType": "address",
          "name": "newRewardToken",
          "type": "address"
        }
      ],
      "name": "setRewardToken",
      "outputs": [],
      "stateMutability": "nonpayable",
      "type": "function"
    },
    {
      "inputs": [
        {
          "internalType": "uint48",
          "name": "_stakeRewardEndTime",
          "type": "uint48"
        }
      ],
      "name": "setStakeRewardEndTime",
      "outputs": [],
      "stateMutability": "nonpayable",
      "type": "function"
    },
    {
      "inputs": [
        {
          "internalType": "uint256",
          "name": "_stakeRewardFactor",
          "type": "uint256"
        }
      ],
      "name": "setStakeRewardFactor",
      "outputs": [],
      "stateMutability": "nonpayable",
      "type": "function"
    },
    {
      "inputs": [
        {
          "internalType": "uint256",
          "name": "_amount",
          "type": "uint256"
        }
      ],
      "name": "stake",
      "outputs": [
        {
          "internalType": "uint256",
          "name": "",
          "type": "uint256"
        }
      ],
      "stateMutability": "nonpayable",
      "type": "function"
    },
    {
      "inputs": [
        {
          "internalType": "address",
          "name": "_staker",
          "type": "address"
        }
      ],
      "name": "stakeAmount",
      "outputs": [
        {
          "internalType": "uint256",
          "name": "balance",
          "type": "uint256"
        }
      ],
      "stateMutability": "view",
      "type": "function"
    },
    {
      "inputs": [],
      "name": "stakeAmount_msgSender",
      "outputs": [
        {
          "internalType": "uint256",
          "name": "",
          "type": "uint256"
        }
      ],
      "stateMutability": "view",
      "type": "function"
    },
    {
      "inputs": [],
      "name": "stakeRewardEndTime",
      "outputs": [
        {
          "internalType": "uint48",
          "name": "",
          "type": "uint48"
        }
      ],
      "stateMutability": "view",
      "type": "function"
    },
    {
      "inputs": [],
      "name": "stakeRewardFactor",
      "outputs": [
        {
          "internalType": "uint256",
          "name": "",
          "type": "uint256"
        }
      ],
      "stateMutability": "view",
      "type": "function"
    },
    {
      "inputs": [
        {
          "internalType": "address",
          "name": "_staker",
          "type": "address"
        }
      ],
      "name": "stakeTime",
      "outputs": [
        {
          "internalType": "uint48",
          "name": "dateTime",
          "type": "uint48"
        }
      ],
      "stateMutability": "view",
      "type": "function"
    },
    {
      "inputs": [],
      "name": "stakeTime_msgSender",
      "outputs": [
        {
          "internalType": "uint48",
          "name": "",
          "type": "uint48"
        }
      ],
      "stateMutability": "view",
      "type": "function"
    },
    {
      "inputs": [],
      "name": "stakingToken",
      "outputs": [
        {
          "internalType": "address",
          "name": "",
          "type": "address"
        }
      ],
      "stateMutability": "view",
      "type": "function"
    },
    {
      "inputs": [
        {
          "internalType": "bytes4",
          "name": "interfaceId",
          "type": "bytes4"
        }
      ],
      "name": "supportsInterface",
      "outputs": [
        {
          "internalType": "bool",
          "name": "",
          "type": "bool"
        }
      ],
      "stateMutability": "view",
      "type": "function"
    },
    {
      "inputs": [],
      "name": "symbol",
      "outputs": [
        {
          "internalType": "string",
          "name": "",
          "type": "string"
        }
      ],
      "stateMutability": "view",
      "type": "function"
    },
    {
      "inputs": [],
      "name": "tokenTotalStaked",
      "outputs": [
        {
          "internalType": "uint256",
          "name": "",
          "type": "uint256"
        }
      ],
      "stateMutability": "view",
      "type": "function"
    },
    {
      "inputs": [],
      "name": "totalSupply",
      "outputs": [
        {
          "internalType": "uint256",
          "name": "",
          "type": "uint256"
        }
      ],
      "stateMutability": "view",
      "type": "function"
    },
    {
      "inputs": [
        {
          "internalType": "address",
          "name": "recipient",
          "type": "address"
        },
        {
          "internalType": "uint256",
          "name": "amount",
          "type": "uint256"
        }
      ],
      "name": "transfer",
      "outputs": [
        {
          "internalType": "bool",
          "name": "",
          "type": "bool"
        }
      ],
      "stateMutability": "nonpayable",
      "type": "function"
    },
    {
      "inputs": [
        {
          "internalType": "address",
          "name": "sender",
          "type": "address"
        },
        {
          "internalType": "address",
          "name": "recipient",
          "type": "address"
        },
        {
          "internalType": "uint256",
          "name": "amount",
          "type": "uint256"
        }
      ],
      "name": "transferFrom",
      "outputs": [
        {
          "internalType": "bool",
          "name": "",
          "type": "bool"
        }
      ],
      "stateMutability": "nonpayable",
      "type": "function"
    },
    {
      "inputs": [
        {
          "internalType": "address",
          "name": "newOwner",
          "type": "address"
        }
      ],
      "name": "transferOwnership",
      "outputs": [],
      "stateMutability": "nonpayable",
      "type": "function"
    },
    {
      "inputs": [
        {
          "internalType": "address",
          "name": "_staker",
          "type": "address"
        }
      ],
      "name": "userAccumulatedRewards",
      "outputs": [
        {
          "internalType": "uint256",
          "name": "rewards",
          "type": "uint256"
        }
      ],
      "stateMutability": "view",
      "type": "function"
    },
    {
      "inputs": [],
      "name": "userAccumulatedRewards_msgSender",
      "outputs": [
        {
          "internalType": "uint256",
          "name": "",
          "type": "uint256"
        }
      ],
      "stateMutability": "view",
      "type": "function"
    },
    {
      "inputs": [
        {
          "internalType": "address",
          "name": "_staker",
          "type": "address"
        }
      ],
      "name": "userClaimableRewards",
      "outputs": [
        {
          "internalType": "uint256",
          "name": "",
          "type": "uint256"
        }
      ],
      "stateMutability": "view",
      "type": "function"
    },
    {
      "inputs": [],
      "name": "userClaimableRewards_msgSender",
      "outputs": [
        {
          "internalType": "uint256",
          "name": "",
          "type": "uint256"
        }
      ],
      "stateMutability": "view",
      "type": "function"
    },
    {
      "inputs": [
        {
          "internalType": "address",
          "name": "",
          "type": "address"
        }
      ],
      "name": "userMap",
      "outputs": [
        {
          "internalType": "uint48",
          "name": "stakeTime",
          "type": "uint48"
        },
        {
          "internalType": "uint48",
          "name": "unlockTime",
          "type": "uint48"
        },
        {
          "internalType": "uint160",
          "name": "stakeAmount",
          "type": "uint160"
        },
        {
          "internalType": "uint256",
          "name": "accumulatedRewards",
          "type": "uint256"
        }
      ],
      "stateMutability": "view",
      "type": "function"
    },
    {
      "inputs": [
        {
          "internalType": "address",
          "name": "_staker",
          "type": "address"
        }
      ],
      "name": "userTotalRewards",
      "outputs": [
        {
          "internalType": "uint256",
          "name": "",
          "type": "uint256"
        }
      ],
      "stateMutability": "view",
      "type": "function"
    },
    {
      "inputs": [],
      "name": "userTotalRewards_msgSender",
      "outputs": [
        {
          "internalType": "uint256",
          "name": "",
          "type": "uint256"
        }
      ],
      "stateMutability": "view",
      "type": "function"
    },
    {
      "inputs": [
        {
          "internalType": "uint256",
          "name": "amount",
          "type": "uint256"
        }
      ],
      "name": "withdraw",
      "outputs": [
        {
          "internalType": "uint256",
          "name": "",
          "type": "uint256"
        }
      ],
      "stateMutability": "nonpayable",
      "type": "function"
    },
    {
      "inputs": [],
      "name": "withdrawAll",
      "outputs": [
        {
          "internalType": "uint256",
          "name": "",
          "type": "uint256"
        }
      ],
      "stateMutability": "nonpayable",
      "type": "function"
    },
    {
      "inputs": [
        {
          "internalType": "address",
          "name": "_stakingToken",
          "type": "address"
        },
        {
          "internalType": "uint48",
          "name": "_lockTimePeriod",
          "type": "uint48"
        }
      ],
      "name": "initialize",
      "outputs": [],
      "stateMutability": "nonpayable",
      "type": "function"
    },
    {
      "inputs": [],
      "name": "pause",
      "outputs": [],
      "stateMutability": "nonpayable",
      "type": "function"
    },
    {
      "inputs": [],
      "name": "unpause",
      "outputs": [],
      "stateMutability": "nonpayable",
      "type": "function"
    },
    {
      "inputs": [
        {
          "internalType": "address",
          "name": "account",
          "type": "address"
        },
        {
          "internalType": "uint256",
          "name": "amount",
          "type": "uint256"
        }
      ],
      "name": "burn",
      "outputs": [],
      "stateMutability": "nonpayable",
      "type": "function"
    }
  ],
  "bytecode": "0x60806040523480156200001157600080fd5b5060008060019054906101000a900460ff16159050808015620000445750600160008054906101000a900460ff1660ff16105b8062000080575062000061306200016360201b6200283f1760201c565b1580156200007f5750600160008054906101000a900460ff1660ff16145b5b620000c2576040517f08c379a0000000000000000000000000000000000000000000000000000000008152600401620000b99062000238565b60405180910390fd5b60016000806101000a81548160ff021916908360ff160217905550801562000100576001600060016101000a81548160ff0219169083151502179055505b80156200015c5760008060016101000a81548160ff0219169083151502179055507f7f26b83ff96e1f2b6a682f133852f6798a09c465da95921460cefb384740249860016040516200015391906200021b565b60405180910390a15b506200028c565b6000808273ffffffffffffffffffffffffffffffffffffffff16803b806020016040519081016040528181526000908060200190933c51119050919050565b620001ad8162000278565b82525050565b6000620001c2602e836200025a565b91507f496e697469616c697a61626c653a20636f6e747261637420697320616c72656160008301527f647920696e697469616c697a65640000000000000000000000000000000000006020830152604082019050919050565b6000602082019050620002326000830184620001a2565b92915050565b600060208201905081810360008301526200025381620001b3565b9050919050565b600082825260208201905092915050565b600060ff82169050919050565b600062000285826200026b565b9050919050565b61647a806200029c6000396000f3fe608060405234801561001057600080fd5b50600436106103a45760003560e01c8063872b26da116101e9578063aaa748d31161010f578063dfdf35c4116100ad578063f3b95cd71161007c578063f3b95cd714610b42578063f4b9786c14610b5e578063f6a3f3cf14610b7a578063f7c618c114610baa576103a4565b8063dfdf35c414610abe578063ee2d505e14610ada578063ee61e0cd14610b0a578063f2fde38b14610b26576103a4565b8063d953a867116100e9578063d953a86714610a22578063dbed1e8814610a40578063dd62ed3e14610a70578063de3717fc14610aa0576103a4565b8063aaa748d3146109b8578063bf135267146109d6578063d547741f14610a06576103a4565b806395d89b4111610187578063a38a57c411610156578063a38a57c41461090a578063a457c2d714610928578063a694fc3a14610958578063a9059cbb14610988576103a4565b806395d89b41146108945780639a7cc1b8146108b25780639dc29fac146108d0578063a217fddf146108ec576103a4565b80638da5cb5b116101c35780638da5cb5b1461080c5780638efb31c71461082a57806391d148541461084657806393ce534314610876576103a4565b8063872b26da146107b457806387f075d9146107d25780638aee8127146107f0576103a4565b8063313ce567116102ce5780635bd4b5df1161026c578063715018a61161023b578063715018a61461076457806372f702f31461076e5780638456cb591461078c578063853828b614610796576103a4565b80635bd4b5df146106da5780635c975abb146106f85780636bb64e231461071657806370a0823114610734576103a4565b80633cb2efc9116102a85780633cb2efc9146106785780633f4ba83a146106965780634e71d92d146106a05780635951eff1146106be576103a4565b8063313ce5671461060e57806336568abe1461062c5780633950935114610648576103a4565b80632170e47211610346578063282c51f311610315578063282c51f3146105715780632bcc23f81461058f5780632e1a7d4d146105c25780632f2ff15d146105f2576103a4565b80632170e472146104c357806323b872dd146104f3578063248a9ca3146105235780632694998414610553576103a4565b806307dc1e1a1161038257806307dc1e1a14610427578063095ea7b31461044557806309ef67e61461047557806318160ddd146104a5576103a4565b806301ffc9a7146103a95780630584bd09146103d957806306fdde0314610409575b600080fd5b6103c360048036038101906103be9190614d46565b610bc8565b6040516103d09190615998565b60405180910390f35b6103f360048036038101906103ee9190614b8c565b610c42565b6040516104009190615deb565b60405180910390f35b610411610de7565b60405161041e91906159e9565b60405180910390f35b61042f610e79565b60405161043c9190615deb565b60405180910390f35b61045f600480360381019061045a9190614c40565b610ec3565b60405161046c9190615998565b60405180910390f35b61048f600480360381019061048a9190614b8c565b610ee1565b60405161049c9190615deb565b60405180910390f35b6104ad610f2d565b6040516104ba9190615deb565b60405180910390f35b6104dd60048036038101906104d89190614b8c565b610f37565b6040516104ea9190615e2f565b60405180910390f35b61050d60048036038101906105089190614bf1565b610f95565b60405161051a9190615998565b60405180910390f35b61053d60048036038101906105389190614ce1565b61108d565b60405161054a91906159b3565b60405180910390f35b61055b6110ad565b6040516105689190615e2f565b60405180910390f35b6105796110b7565b60405161058691906159b3565b60405180910390f35b6105a960048036038101906105a49190614b8c565b6110db565b6040516105b99493929190615e4a565b60405180910390f35b6105dc60048036038101906105d79190614d6f565b61114f565b6040516105e99190615deb565b60405180910390f35b61060c60048036038101906106079190614d0a565b611171565b005b610616611192565b6040516106239190615e8f565b60405180910390f35b61064660048036038101906106419190614d0a565b61119b565b005b610662600480360381019061065d9190614c40565b61121e565b60405161066f9190615998565b60405180910390f35b6106806112ca565b60405161068d9190615e2f565b60405180910390f35b61069e6112da565b005b6106a8611360565b6040516106b59190615deb565b60405180910390f35b6106d860048036038101906106d39190614b8c565b61137f565b005b6106e26115a2565b6040516106ef9190615deb565b60405180910390f35b6107006115b2565b60405161070d9190615998565b60405180910390f35b61071e6115c9565b60405161072b9190615deb565b60405180910390f35b61074e60048036038101906107499190614b8c565b611649565b60405161075b9190615deb565b60405180910390f35b61076c6116cb565b005b610776611753565b604051610783919061591d565b60405180910390f35b610794611779565b005b61079e6117ff565b6040516107ab9190615deb565b60405180910390f35b6107bc611826565b6040516107c99190615deb565b60405180910390f35b6107da61182c565b6040516107e79190615deb565b60405180910390f35b61080a60048036038101906108059190614b8c565b611832565b005b6108146119c6565b604051610821919061591d565b60405180910390f35b610844600480360381019061083f9190614d6f565b6119f1565b005b610860600480360381019061085b9190614d0a565b611a40565b60405161086d9190615998565b60405180910390f35b61087e611aab565b60405161088b9190615deb565b60405180910390f35b61089c611c46565b6040516108a991906159e9565b60405180910390f35b6108ba611cd8565b6040516108c79190615deb565b60405180910390f35b6108ea60048036038101906108e59190614c40565b611ce8565b005b6108f4611d72565b60405161090191906159b3565b60405180910390f35b610912611d79565b60405161091f9190615e2f565b60405180910390f35b610942600480360381019061093d9190614c40565b611d91565b60405161094f9190615998565b60405180910390f35b610972600480360381019061096d9190614d6f565b611e7c565b60405161097f9190615deb565b60405180910390f35b6109a2600480360381019061099d9190614c40565b611e9e565b6040516109af9190615998565b60405180910390f35b6109c0611ebc565b6040516109cd9190615e2f565b60405180910390f35b6109f060048036038101906109eb9190614b8c565b611f18565b6040516109fd9190615deb565b60405180910390f35b610a206004803603810190610a1b9190614d0a565b611f9a565b005b610a2a611fbb565b604051610a379190615e2f565b60405180910390f35b610a5a6004803603810190610a559190614b8c565b611fd3565b604051610a679190615e2f565b60405180910390f35b610a8a6004803603810190610a859190614bb5565b6120bd565b604051610a979190615deb565b60405180910390f35b610aa8612144565b604051610ab59190615deb565b60405180910390f35b610ad86004803603810190610ad39190614dc1565b612154565b005b610af46004803603810190610aef9190614b8c565b61221f565b604051610b019190615deb565b60405180910390f35b610b246004803603810190610b1f9190614dc1565b6122ab565b005b610b406004803603810190610b3b9190614b8c565b612318565b005b610b5c6004803603810190610b579190614c40565b6123a0565b005b610b786004803603810190610b739190614c7c565b612462565b005b610b946004803603810190610b8f9190614b8c565b6127ba565b604051610ba19190615deb565b60405180910390f35b610bb2612819565b604051610bbf919061591d565b60405180910390f35b60007f7965db0b000000000000000000000000000000000000000000000000000000007bffffffffffffffffffffffffffffffffffffffffffffffffffffffff1916827bffffffffffffffffffffffffffffffffffffffffffffffffffffffff19161480610c3b5750610c3a8261287e565b5b9050919050565b60008060ca60008473ffffffffffffffffffffffffffffffffffffffff1673ffffffffffffffffffffffffffffffffffffffff16815260200190815260200160002090508060000160009054906101000a900465ffffffffffff1665ffffffffffff164211610cb5576000915050610de2565b8060000160009054906101000a900465ffffffffffff1665ffffffffffff1660cd601a9054906101000a900465ffffffffffff1665ffffffffffff1611610d00576000915050610de2565b600060cd601a9054906101000a900465ffffffffffff1665ffffffffffff164211610d56578160000160009054906101000a900465ffffffffffff1665ffffffffffff1642610d4f9190616157565b9050610d97565b8160000160009054906101000a900465ffffffffffff1660cd601a9054906101000a900465ffffffffffff16610d8c919061618b565b65ffffffffffff1690505b81600001600c9054906101000a900473ffffffffffffffffffffffffffffffffffffffff1673ffffffffffffffffffffffffffffffffffffffff1681610ddd91906160c9565b925050505b919050565b606060378054610df6906162dd565b80601f0160208091040260200160405190810160405280929190818152602001828054610e22906162dd565b8015610e6f5780601f10610e4457610100808354040283529160200191610e6f565b820191906000526020600020905b815481529060010190602001808311610e5257829003601f168201915b5050505050905090565b600060ca60003373ffffffffffffffffffffffffffffffffffffffff1673ffffffffffffffffffffffffffffffffffffffff16815260200190815260200160002060010154905090565b6000610ed7610ed06128e8565b84846128f0565b6001905092915050565b600060ca60008373ffffffffffffffffffffffffffffffffffffffff1673ffffffffffffffffffffffffffffffffffffffff168152602001908152602001600020600101549050919050565b6000603654905090565b600060ca60008373ffffffffffffffffffffffffffffffffffffffff1673ffffffffffffffffffffffffffffffffffffffff16815260200190815260200160002060000160009054906101000a900465ffffffffffff169050919050565b6000610fa2848484612abb565b6000603560008673ffffffffffffffffffffffffffffffffffffffff1673ffffffffffffffffffffffffffffffffffffffff1681526020019081526020016000206000610fed6128e8565b73ffffffffffffffffffffffffffffffffffffffff1673ffffffffffffffffffffffffffffffffffffffff1681526020019081526020016000205490508281101561106d576040517f08c379a000000000000000000000000000000000000000000000000000000000815260040161106490615bcb565b60405180910390fd5b611081856110796128e8565b8584036128f0565b60019150509392505050565b600060986000838152602001908152602001600020600101549050919050565b65ffffffffffff81565b7f3c11d16cbaffd01df69ce1c404f6340ee057498f5f00246190ea54220576a84881565b60ca6020528060005260406000206000915090508060000160009054906101000a900465ffffffffffff16908060000160069054906101000a900465ffffffffffff169080600001600c9054906101000a900473ffffffffffffffffffffffffffffffffffffffff16908060010154905084565b6000611159612d3f565b61116282612d8f565b905061116c613052565b919050565b61117a8261108d565b6111838161305b565b61118d838361306f565b505050565b60006012905090565b6111a36128e8565b73ffffffffffffffffffffffffffffffffffffffff168173ffffffffffffffffffffffffffffffffffffffff1614611210576040517f08c379a000000000000000000000000000000000000000000000000000000000815260040161120790615dab565b60405180910390fd5b61121a8282613150565b5050565b60006112c061122b6128e8565b8484603560006112396128e8565b73ffffffffffffffffffffffffffffffffffffffff1673ffffffffffffffffffffffffffffffffffffffff16815260200190815260200160002060008873ffffffffffffffffffffffffffffffffffffffff1673ffffffffffffffffffffffffffffffffffffffff168152602001908152602001600020546112bb9190615ed1565b6128f0565b6001905092915050565b60006112d533611fd3565b905090565b6112e26128e8565b73ffffffffffffffffffffffffffffffffffffffff166113006119c6565b73ffffffffffffffffffffffffffffffffffffffff1614611356576040517f08c379a000000000000000000000000000000000000000000000000000000000815260040161134d90615beb565b60405180910390fd5b61135e613232565b565b600061136a612d3f565b6113726132d4565b905061137c613052565b90565b6000801b61138c8161305b565b60cc60009054906101000a900473ffffffffffffffffffffffffffffffffffffffff1673ffffffffffffffffffffffffffffffffffffffff168273ffffffffffffffffffffffffffffffffffffffff16141561141d576040517f08c379a000000000000000000000000000000000000000000000000000000000815260040161141490615c8b565b60405180910390fd5b60008273ffffffffffffffffffffffffffffffffffffffff166370a08231306040518263ffffffff1660e01b8152600401611458919061591d565b60206040518083038186803b15801561147057600080fd5b505afa158015611484573d6000803e3d6000fd5b505050506040513d601f19601f820116820180604052508101906114a89190614d98565b90508273ffffffffffffffffffffffffffffffffffffffff1663a9059cbb33836040518363ffffffff1660e01b81526004016114e592919061596f565b602060405180830381600087803b1580156114ff57600080fd5b505af1158015611513573d6000803e3d6000fd5b505050506040513d601f19601f820116820180604052508101906115379190614cb8565b503373ffffffffffffffffffffffffffffffffffffffff168373ffffffffffffffffffffffffffffffffffffffff167f4c9443772ec3472e2ea8a88e5c31e6bb75e94541dc672d5ca2a1197ada10b598836040516115959190615deb565b60405180910390a3505050565b60006115ad33610c42565b905090565b600060cf60009054906101000a900460ff16905090565b600060ca60003373ffffffffffffffffffffffffffffffffffffffff1673ffffffffffffffffffffffffffffffffffffffff168152602001908152602001600020600001600c9054906101000a900473ffffffffffffffffffffffffffffffffffffffff1673ffffffffffffffffffffffffffffffffffffffff16905090565b600060ca60008373ffffffffffffffffffffffffffffffffffffffff1673ffffffffffffffffffffffffffffffffffffffff168152602001908152602001600020600001600c9054906101000a900473ffffffffffffffffffffffffffffffffffffffff1673ffffffffffffffffffffffffffffffffffffffff169050919050565b6116d36128e8565b73ffffffffffffffffffffffffffffffffffffffff166116f16119c6565b73ffffffffffffffffffffffffffffffffffffffff1614611747576040517f08c379a000000000000000000000000000000000000000000000000000000000815260040161173e90615beb565b60405180910390fd5b61175160006135bc565b565b60cc60009054906101000a900473ffffffffffffffffffffffffffffffffffffffff1681565b6117816128e8565b73ffffffffffffffffffffffffffffffffffffffff1661179f6119c6565b73ffffffffffffffffffffffffffffffffffffffff16146117f5576040517f08c379a00000000000000000000000000000000000000000000000000000000081526004016117ec90615beb565b60405180910390fd5b6117fd613684565b565b6000611809612d3f565b6118196118146115c9565b612d8f565b9050611823613052565b90565b60cb5481565b60ce5481565b61183a612d3f565b6000801b6118478161305b565b600060cd60009054906101000a900473ffffffffffffffffffffffffffffffffffffffff1690506000611878611aab565b90506000811115611912578173ffffffffffffffffffffffffffffffffffffffff1663a9059cbb33836040518363ffffffff1660e01b81526004016118be92919061596f565b602060405180830381600087803b1580156118d857600080fd5b505af11580156118ec573d6000803e3d6000fd5b505050506040513d601f19601f820116820180604052508101906119109190614cb8565b505b8360cd60006101000a81548173ffffffffffffffffffffffffffffffffffffffff021916908373ffffffffffffffffffffffffffffffffffffffff1602179055508373ffffffffffffffffffffffffffffffffffffffff168273ffffffffffffffffffffffffffffffffffffffff167fc133375757269458a329c73a344c8ef483535870f46ed4cd332f857a5ef525d0836040516119b09190615deb565b60405180910390a35050506119c3613052565b50565b600061010160009054906101000a900473ffffffffffffffffffffffffffffffffffffffff16905090565b6000801b6119fe8161305b565b8160ce819055507f929e0b2903ee7e8bb87bf220a340db1f5551e7042e5f2567ed08117c0709fa2182604051611a349190615deb565b60405180910390a15050565b60006098600084815260200190815260200160002060000160008373ffffffffffffffffffffffffffffffffffffffff1673ffffffffffffffffffffffffffffffffffffffff16815260200190815260200160002060009054906101000a900460ff16905092915050565b60008073ffffffffffffffffffffffffffffffffffffffff1660cd60009054906101000a900473ffffffffffffffffffffffffffffffffffffffff1673ffffffffffffffffffffffffffffffffffffffff161415611b0c5760009050611c43565b60cd60009054906101000a900473ffffffffffffffffffffffffffffffffffffffff1673ffffffffffffffffffffffffffffffffffffffff166370a08231306040518263ffffffff1660e01b8152600401611b67919061591d565b60206040518083038186803b158015611b7f57600080fd5b505afa158015611b93573d6000803e3d6000fd5b505050506040513d601f19601f82011682018060405250810190611bb79190614d98565b905060cd60009054906101000a900473ffffffffffffffffffffffffffffffffffffffff1673ffffffffffffffffffffffffffffffffffffffff1660cc60009054906101000a900473ffffffffffffffffffffffffffffffffffffffff1673ffffffffffffffffffffffffffffffffffffffff161415611c425760cb5481611c3f9190616157565b90505b5b90565b606060388054611c55906162dd565b80601f0160208091040260200160405190810160405280929190818152602001828054611c81906162dd565b8015611cce5780601f10611ca357610100808354040283529160200191611cce565b820191906000526020600020905b815481529060010190602001808311611cb157829003601f168201915b5050505050905090565b6000611ce33361221f565b905090565b611cf06128e8565b73ffffffffffffffffffffffffffffffffffffffff16611d0e6119c6565b73ffffffffffffffffffffffffffffffffffffffff1614611d64576040517f08c379a0000000000000000000000000000000000000000000000000000000008152600401611d5b90615beb565b60405180910390fd5b611d6e8282613727565b5050565b6000801b81565b60cd601a9054906101000a900465ffffffffffff1681565b60008060356000611da06128e8565b73ffffffffffffffffffffffffffffffffffffffff1673ffffffffffffffffffffffffffffffffffffffff16815260200190815260200160002060008573ffffffffffffffffffffffffffffffffffffffff1673ffffffffffffffffffffffffffffffffffffffff16815260200190815260200160002054905082811015611e5d576040517f08c379a0000000000000000000000000000000000000000000000000000000008152600401611e5490615d8b565b60405180910390fd5b611e71611e686128e8565b858584036128f0565b600191505092915050565b6000611e86612d3f565b611e8f82613900565b9050611e99613052565b919050565b6000611eb2611eab6128e8565b8484612abb565b6001905092915050565b600060ca60003373ffffffffffffffffffffffffffffffffffffffff1673ffffffffffffffffffffffffffffffffffffffff16815260200190815260200160002060000160009054906101000a900465ffffffffffff16905090565b600060ca60008373ffffffffffffffffffffffffffffffffffffffff1673ffffffffffffffffffffffffffffffffffffffff168152602001908152602001600020600001600c9054906101000a900473ffffffffffffffffffffffffffffffffffffffff1673ffffffffffffffffffffffffffffffffffffffff169050919050565b611fa38261108d565b611fac8161305b565b611fb68383613150565b505050565b60cd60149054906101000a900465ffffffffffff1681565b60008060ca60008473ffffffffffffffffffffffffffffffffffffffff1673ffffffffffffffffffffffffffffffffffffffff168152602001908152602001600020600001600c9054906101000a900473ffffffffffffffffffffffffffffffffffffffff1673ffffffffffffffffffffffffffffffffffffffff16116120605765ffffffffffff6120b6565b60ca60008373ffffffffffffffffffffffffffffffffffffffff1673ffffffffffffffffffffffffffffffffffffffff16815260200190815260200160002060000160069054906101000a900465ffffffffffff165b9050919050565b6000603560008473ffffffffffffffffffffffffffffffffffffffff1673ffffffffffffffffffffffffffffffffffffffff16815260200190815260200160002060008373ffffffffffffffffffffffffffffffffffffffff1673ffffffffffffffffffffffffffffffffffffffff16815260200190815260200160002054905092915050565b600061214f336127ba565b905090565b6000801b6121618161305b565b4260cd601a9054906101000a900465ffffffffffff1665ffffffffffff16116121bf576040517f08c379a00000000000000000000000000000000000000000000000000000000081526004016121b690615cab565b60405180910390fd5b8160cd601a6101000a81548165ffffffffffff021916908365ffffffffffff1602179055507fb8ec1a7db76539d0a932b67153298ec5ba41b1f965bd5f66e9419431d517291a826040516122139190615e2f565b60405180910390a15050565b60008073ffffffffffffffffffffffffffffffffffffffff1660cd60009054906101000a900473ffffffffffffffffffffffffffffffffffffffff1673ffffffffffffffffffffffffffffffffffffffff16148061227f5750600060ce54145b1561228d57600090506122a6565b60ce54612299836127ba565b6122a39190615f27565b90505b919050565b6000801b6122b88161305b565b8160cd60146101000a81548165ffffffffffff021916908365ffffffffffff1602179055507fe9f020bdf01408388704d87e8162e06252d160de9f8cc075b32ce7ebbebc263e8260405161230c9190615e2f565b60405180910390a15050565b6123206128e8565b73ffffffffffffffffffffffffffffffffffffffff1661233e6119c6565b73ffffffffffffffffffffffffffffffffffffffff1614612394576040517f08c379a000000000000000000000000000000000000000000000000000000000815260040161238b90615beb565b60405180910390fd5b61239d816135bc565b50565b7f3c11d16cbaffd01df69ce1c404f6340ee057498f5f00246190ea54220576a8486123ca8161305b565b60006123d584613b63565b9050806001015483101561240357828160010160008282546123f79190616157565b9250508190555061240e565b600081600101819055505b8373ffffffffffffffffffffffffffffffffffffffff167f33e88885e6abd26d1f3ea3b4b37c2f6e0ff31fa24c7721763eca867537bdf5d2846040516124549190615deb565b60405180910390a250505050565b60008060019054906101000a900460ff161590508080156124935750600160008054906101000a900460ff1660ff16105b806124c057506124a23061283f565b1580156124bf5750600160008054906101000a900460ff1660ff16145b5b6124ff576040517f08c379a00000000000000000000000000000000000000000000000000000000081526004016124f690615b8b565b60405180910390fd5b60016000806101000a81548160ff021916908360ff160217905550801561253c576001600060016101000a81548160ff0219169083151502179055505b6125b06040518060400160405280600e81526020017f4b342052616c6c7920546f6b656e0000000000000000000000000000000000008152506040518060400160405280600381526020017f4b34520000000000000000000000000000000000000000000000000000000000815250613bfd565b6125b8613d47565b6125c0613e8d565b600073ffffffffffffffffffffffffffffffffffffffff168373ffffffffffffffffffffffffffffffffffffffff161415612630576040517f08c379a000000000000000000000000000000000000000000000000000000000815260040161262790615c2b565b60405180910390fd5b6301e285008265ffffffffffff161061267e576040517f08c379a000000000000000000000000000000000000000000000000000000000815260040161267590615c4b565b60405180910390fd5b8260cc60006101000a81548173ffffffffffffffffffffffffffffffffffffffff021916908373ffffffffffffffffffffffffffffffffffffffff1602179055508160cd60146101000a81548165ffffffffffff021916908365ffffffffffff1602179055506305265c0060ce819055506301e28500426126ff9190615ed1565b60cd601a6101000a81548165ffffffffffff021916908365ffffffffffff1602179055506127306000801b33613fd3565b61275c3361273c611192565b600a6127489190615fab565b633b9aca0061275791906160c9565b613fe1565b80156127b55760008060016101000a81548160ff0219169083151502179055507f7f26b83ff96e1f2b6a682f133852f6798a09c465da95921460cefb384740249860016040516127ac91906159ce565b60405180910390a15b505050565b600060ca60008373ffffffffffffffffffffffffffffffffffffffff1673ffffffffffffffffffffffffffffffffffffffff1681526020019081526020016000206001015461280883610c42565b6128129190615ed1565b9050919050565b60cd60009054906101000a900473ffffffffffffffffffffffffffffffffffffffff1681565b6000808273ffffffffffffffffffffffffffffffffffffffff16803b806020016040519081016040528181526000908060200190933c51119050919050565b60007f01ffc9a7000000000000000000000000000000000000000000000000000000007bffffffffffffffffffffffffffffffffffffffffffffffffffffffff1916827bffffffffffffffffffffffffffffffffffffffffffffffffffffffff1916149050919050565b600033905090565b600073ffffffffffffffffffffffffffffffffffffffff168373ffffffffffffffffffffffffffffffffffffffff161415612960576040517f08c379a000000000000000000000000000000000000000000000000000000000815260040161295790615d0b565b60405180910390fd5b600073ffffffffffffffffffffffffffffffffffffffff168273ffffffffffffffffffffffffffffffffffffffff1614156129d0576040517f08c379a00000000000000000000000000000000000000000000000000000000081526004016129c790615aeb565b60405180910390fd5b80603560008573ffffffffffffffffffffffffffffffffffffffff1673ffffffffffffffffffffffffffffffffffffffff16815260200190815260200160002060008473ffffffffffffffffffffffffffffffffffffffff1673ffffffffffffffffffffffffffffffffffffffff168152602001908152602001600020819055508173ffffffffffffffffffffffffffffffffffffffff168373ffffffffffffffffffffffffffffffffffffffff167f8c5be1e5ebec7d5bd14f71427d1e84f3dd0314c0f7b2291e5b200ac8c7c3b92583604051612aae9190615deb565b60405180910390a3505050565b600073ffffffffffffffffffffffffffffffffffffffff168373ffffffffffffffffffffffffffffffffffffffff161415612b2b576040517f08c379a0000000000000000000000000000000000000000000000000000000008152600401612b2290615ccb565b60405180910390fd5b600073ffffffffffffffffffffffffffffffffffffffff168273ffffffffffffffffffffffffffffffffffffffff161415612b9b576040517f08c379a0000000000000000000000000000000000000000000000000000000008152600401612b9290615a2b565b60405180910390fd5b612ba6838383614142565b6000603460008573ffffffffffffffffffffffffffffffffffffffff1673ffffffffffffffffffffffffffffffffffffffff16815260200190815260200160002054905081811015612c2d576040517f08c379a0000000000000000000000000000000000000000000000000000000008152600401612c2490615b0b565b60405180910390fd5b818103603460008673ffffffffffffffffffffffffffffffffffffffff1673ffffffffffffffffffffffffffffffffffffffff1681526020019081526020016000208190555081603460008573ffffffffffffffffffffffffffffffffffffffff1673ffffffffffffffffffffffffffffffffffffffff1681526020019081526020016000206000828254612cc29190615ed1565b925050819055508273ffffffffffffffffffffffffffffffffffffffff168473ffffffffffffffffffffffffffffffffffffffff167fddf252ad1be2c89b69c2b068fc378daa952ba7f163c4a11628f55a4df523b3ef84604051612d269190615deb565b60405180910390a3612d3984848461419a565b50505050565b60026001541415612d85576040517f08c379a0000000000000000000000000000000000000000000000000000000008152600401612d7c90615d6b565b60405180910390fd5b6002600181905550565b6000808211612dd3576040517f08c379a0000000000000000000000000000000000000000000000000000000008152600401612dca90615ceb565b60405180910390fd5b612ddc33611fd3565b65ffffffffffff164211612e25576040517f08c379a0000000000000000000000000000000000000000000000000000000008152600401612e1c90615aab565b60405180910390fd5b6000612e3033613b63565b905080600001600c9054906101000a900473ffffffffffffffffffffffffffffffffffffffff1673ffffffffffffffffffffffffffffffffffffffff16831115612eaf576040517f08c379a0000000000000000000000000000000000000000000000000000000008152600401612ea690615c0b565b60405180910390fd5b612eb88361419f565b81600001600c8282829054906101000a900473ffffffffffffffffffffffffffffffffffffffff16612eea9190616123565b92506101000a81548173ffffffffffffffffffffffffffffffffffffffff021916908373ffffffffffffffffffffffffffffffffffffffff1602179055508260cb6000828254612f3a9190616157565b9250508190555060cc60009054906101000a900473ffffffffffffffffffffffffffffffffffffffff1673ffffffffffffffffffffffffffffffffffffffff1663a9059cbb33856040518363ffffffff1660e01b8152600401612f9e92919061596f565b602060405180830381600087803b158015612fb857600080fd5b505af1158015612fcc573d6000803e3d6000fd5b505050506040513d601f19601f82011682018060405250810190612ff09190614cb8565b503373ffffffffffffffffffffffffffffffffffffffff167ff279e6a1f5e320cca91135676d9cb6e44ca8a08c0b88342bcdb1144f6511b5688461303342614202565b604051613041929190615e06565b60405180910390a282915050919050565b60018081905550565b61306c816130676128e8565b614257565b50565b6130798282611a40565b61314c5760016098600084815260200190815260200160002060000160008373ffffffffffffffffffffffffffffffffffffffff1673ffffffffffffffffffffffffffffffffffffffff16815260200190815260200160002060006101000a81548160ff0219169083151502179055506130f16128e8565b73ffffffffffffffffffffffffffffffffffffffff168173ffffffffffffffffffffffffffffffffffffffff16837f2f8788117e7eff1d82e926ec794901d17c78024a50270940304540a733656f0d60405160405180910390a45b5050565b61315a8282611a40565b1561322e5760006098600084815260200190815260200160002060000160008373ffffffffffffffffffffffffffffffffffffffff1673ffffffffffffffffffffffffffffffffffffffff16815260200190815260200160002060006101000a81548160ff0219169083151502179055506131d36128e8565b73ffffffffffffffffffffffffffffffffffffffff168173ffffffffffffffffffffffffffffffffffffffff16837ff6391f5c32d9c69d2a47ea670b442974b53935d1edc7fd64eb21e047a839171b60405160405180910390a45b5050565b61323a6115b2565b613279576040517f08c379a000000000000000000000000000000000000000000000000000000000815260040161327090615a4b565b60405180910390fd5b600060cf60006101000a81548160ff0219169083151502179055507f5db9ee0a495bf2e6ff9c91a7834c1ba4fdd244a5e8aa4e537bd38aeae4b073aa6132bd6128e8565b6040516132ca919061591d565b60405180910390a1565b60008073ffffffffffffffffffffffffffffffffffffffff1660cd60009054906101000a900473ffffffffffffffffffffffffffffffffffffffff1673ffffffffffffffffffffffffffffffffffffffff161415613367576040517f08c379a000000000000000000000000000000000000000000000000000000000815260040161335e90615bab565b60405180910390fd5b60006133723361221f565b9050600081116133b7576040517f08c379a00000000000000000000000000000000000000000000000000000000081526004016133ae90615a6b565b60405180910390fd5b600060ca60003373ffffffffffffffffffffffffffffffffffffffff1673ffffffffffffffffffffffffffffffffffffffff16815260200190815260200160002090506000816001018190555061340d42614202565b8160000160006101000a81548165ffffffffffff021916908365ffffffffffff16021790555061343b611aab565b82111561347d576040517f08c379a000000000000000000000000000000000000000000000000000000000815260040161347490615b6b565b60405180910390fd5b60cd60009054906101000a900473ffffffffffffffffffffffffffffffffffffffff1673ffffffffffffffffffffffffffffffffffffffff1663a9059cbb33846040518363ffffffff1660e01b81526004016134da92919061596f565b602060405180830381600087803b1580156134f457600080fd5b505af1158015613508573d6000803e3d6000fd5b505050506040513d601f19601f8201168201806040525081019061352c9190614cb8565b5060cd60009054906101000a900473ffffffffffffffffffffffffffffffffffffffff1673ffffffffffffffffffffffffffffffffffffffff163373ffffffffffffffffffffffffffffffffffffffff167ff7a40077ff7a04c7e61f6f26fb13774259ddf1b6bce9ecf26a8276cdd3992683846040516135ac9190615deb565b60405180910390a3819250505090565b600061010160009054906101000a900473ffffffffffffffffffffffffffffffffffffffff1690508161010160006101000a81548173ffffffffffffffffffffffffffffffffffffffff021916908373ffffffffffffffffffffffffffffffffffffffff1602179055508173ffffffffffffffffffffffffffffffffffffffff168173ffffffffffffffffffffffffffffffffffffffff167f8be0079c531659141344cd1fd0a4f28419497f9722a3daafe3b4186f6b6457e060405160405180910390a35050565b61368c6115b2565b156136cc576040517f08c379a00000000000000000000000000000000000000000000000000000000081526004016136c390615b2b565b60405180910390fd5b600160cf60006101000a81548160ff0219169083151502179055507f62e78cea01bee320cd4e420270b5ea74000d11b0c9f74754ebdbfc544b05a2586137106128e8565b60405161371d919061591d565b60405180910390a1565b600073ffffffffffffffffffffffffffffffffffffffff168273ffffffffffffffffffffffffffffffffffffffff161415613797576040517f08c379a000000000000000000000000000000000000000000000000000000000815260040161378e90615c6b565b60405180910390fd5b6137a382600083614142565b6000603460008473ffffffffffffffffffffffffffffffffffffffff1673ffffffffffffffffffffffffffffffffffffffff1681526020019081526020016000205490508181101561382a576040517f08c379a000000000000000000000000000000000000000000000000000000000815260040161382190615a8b565b60405180910390fd5b818103603460008573ffffffffffffffffffffffffffffffffffffffff1673ffffffffffffffffffffffffffffffffffffffff1681526020019081526020016000208190555081603660008282546138829190616157565b92505081905550600073ffffffffffffffffffffffffffffffffffffffff168373ffffffffffffffffffffffffffffffffffffffff167fddf252ad1be2c89b69c2b068fc378daa952ba7f163c4a11628f55a4df523b3ef846040516138e79190615deb565b60405180910390a36138fb8360008461419a565b505050565b6000808211613944576040517f08c379a000000000000000000000000000000000000000000000000000000000815260040161393b90615b4b565b60405180910390fd5b600061394f33613b63565b905061399f8382600001600c9054906101000a900473ffffffffffffffffffffffffffffffffffffffff1673ffffffffffffffffffffffffffffffffffffffff1661399a9190615ed1565b61419f565b81600001600c6101000a81548173ffffffffffffffffffffffffffffffffffffffff021916908373ffffffffffffffffffffffffffffffffffffffff1602179055508260cb60008282546139f39190615ed1565b92505081905550613a2a60cd60149054906101000a900465ffffffffffff1665ffffffffffff1642613a259190615ed1565b614202565b8160000160066101000a81548165ffffffffffff021916908365ffffffffffff16021790555060cc60009054906101000a900473ffffffffffffffffffffffffffffffffffffffff1673ffffffffffffffffffffffffffffffffffffffff166323b872dd3330866040518463ffffffff1660e01b8152600401613aaf93929190615938565b602060405180830381600087803b158015613ac957600080fd5b505af1158015613add573d6000803e3d6000fd5b505050506040513d601f19601f82011682018060405250810190613b019190614cb8565b503373ffffffffffffffffffffffffffffffffffffffff167f5af417134f72a9d41143ace85b0a26dce6f550f894f2cbc1eeee8810603d91b684613b4442614202565b604051613b52929190615e06565b60405180910390a282915050919050565b600060ca60008373ffffffffffffffffffffffffffffffffffffffff1673ffffffffffffffffffffffffffffffffffffffff1681526020019081526020016000209050613baf82610c42565b816001016000828254613bc29190615ed1565b92505081905550613bd242614202565b8160000160006101000a81548165ffffffffffff021916908365ffffffffffff160217905550919050565b60008060019054906101000a900460ff16159050808015613c2e5750600160008054906101000a900460ff1660ff16105b80613c5b5750613c3d3061283f565b158015613c5a5750600160008054906101000a900460ff1660ff16145b5b613c9a576040517f08c379a0000000000000000000000000000000000000000000000000000000008152600401613c9190615b8b565b60405180910390fd5b60016000806101000a81548160ff021916908360ff1602179055508015613cd7576001600060016101000a81548160ff0219169083151502179055505b613cdf6142dc565b613ce9838361432d565b8015613d425760008060016101000a81548160ff0219169083151502179055507f7f26b83ff96e1f2b6a682f133852f6798a09c465da95921460cefb38474024986001604051613d3991906159ce565b60405180910390a15b505050565b60008060019054906101000a900460ff16159050808015613d785750600160008054906101000a900460ff1660ff16105b80613da55750613d873061283f565b158015613da45750600160008054906101000a900460ff1660ff16145b5b613de4576040517f08c379a0000000000000000000000000000000000000000000000000000000008152600401613ddb90615b8b565b60405180910390fd5b60016000806101000a81548160ff021916908360ff1602179055508015613e21576001600060016101000a81548160ff0219169083151502179055505b613e296142dc565b613e31614493565b8015613e8a5760008060016101000a81548160ff0219169083151502179055507f7f26b83ff96e1f2b6a682f133852f6798a09c465da95921460cefb38474024986001604051613e8191906159ce565b60405180910390a15b50565b60008060019054906101000a900460ff16159050808015613ebe5750600160008054906101000a900460ff1660ff16105b80613eeb5750613ecd3061283f565b158015613eea5750600160008054906101000a900460ff1660ff16145b5b613f2a576040517f08c379a0000000000000000000000000000000000000000000000000000000008152600401613f2190615b8b565b60405180910390fd5b60016000806101000a81548160ff021916908360ff1602179055508015613f67576001600060016101000a81548160ff0219169083151502179055505b613f6f6142dc565b613f776145e4565b8015613fd05760008060016101000a81548160ff0219169083151502179055507f7f26b83ff96e1f2b6a682f133852f6798a09c465da95921460cefb38474024986001604051613fc791906159ce565b60405180910390a15b50565b613fdd828261306f565b5050565b600073ffffffffffffffffffffffffffffffffffffffff168273ffffffffffffffffffffffffffffffffffffffff161415614051576040517f08c379a000000000000000000000000000000000000000000000000000000000815260040161404890615dcb565b60405180910390fd5b61405d60008383614142565b806036600082825461406f9190615ed1565b9250508190555080603460008473ffffffffffffffffffffffffffffffffffffffff1673ffffffffffffffffffffffffffffffffffffffff16815260200190815260200160002060008282546140c59190615ed1565b925050819055508173ffffffffffffffffffffffffffffffffffffffff16600073ffffffffffffffffffffffffffffffffffffffff167fddf252ad1be2c89b69c2b068fc378daa952ba7f163c4a11628f55a4df523b3ef8360405161412a9190615deb565b60405180910390a361413e6000838361419a565b5050565b61414a6115b2565b1561418a576040517f08c379a000000000000000000000000000000000000000000000000000000000815260040161418190615b2b565b60405180910390fd5b61419583838361472a565b505050565b505050565b600073ffffffffffffffffffffffffffffffffffffffff80168211156141fa576040517f08c379a00000000000000000000000000000000000000000000000000000000081526004016141f190615d4b565b60405180910390fd5b819050919050565b600065ffffffffffff801682111561424f576040517f08c379a000000000000000000000000000000000000000000000000000000000815260040161424690615acb565b60405180910390fd5b819050919050565b6142618282611a40565b6142d85761426e8161472f565b61427c8360001c602061475c565b60405160200161428d9291906158e3565b6040516020818303038152906040526040517f08c379a00000000000000000000000000000000000000000000000000000000081526004016142cf91906159e9565b60405180910390fd5b5050565b600060019054906101000a900460ff1661432b576040517f08c379a000000000000000000000000000000000000000000000000000000000815260040161432290615d2b565b60405180910390fd5b565b60008060019054906101000a900460ff1615905080801561435e5750600160008054906101000a900460ff1660ff16105b8061438b575061436d3061283f565b15801561438a5750600160008054906101000a900460ff1660ff16145b5b6143ca576040517f08c379a00000000000000000000000000000000000000000000000000000000081526004016143c190615b8b565b60405180910390fd5b60016000806101000a81548160ff021916908360ff1602179055508015614407576001600060016101000a81548160ff0219169083151502179055505b826037908051906020019061441d929190614a56565b508160389080519060200190614434929190614a56565b50801561448e5760008060016101000a81548160ff0219169083151502179055507f7f26b83ff96e1f2b6a682f133852f6798a09c465da95921460cefb3847402498600160405161448591906159ce565b60405180910390a15b505050565b60008060019054906101000a900460ff161590508080156144c45750600160008054906101000a900460ff1660ff16105b806144f157506144d33061283f565b1580156144f05750600160008054906101000a900460ff1660ff16145b5b614530576040517f08c379a000000000000000000000000000000000000000000000000000000000815260040161452790615b8b565b60405180910390fd5b60016000806101000a81548160ff021916908360ff160217905550801561456d576001600060016101000a81548160ff0219169083151502179055505b600060cf60006101000a81548160ff02191690831515021790555080156145e15760008060016101000a81548160ff0219169083151502179055507f7f26b83ff96e1f2b6a682f133852f6798a09c465da95921460cefb384740249860016040516145d891906159ce565b60405180910390a15b50565b60008060019054906101000a900460ff161590508080156146155750600160008054906101000a900460ff1660ff16105b8061464257506146243061283f565b1580156146415750600160008054906101000a900460ff1660ff16145b5b614681576040517f08c379a000000000000000000000000000000000000000000000000000000000815260040161467890615b8b565b60405180910390fd5b60016000806101000a81548160ff021916908360ff16021790555080156146be576001600060016101000a81548160ff0219169083151502179055505b6146ce6146c96128e8565b6135bc565b80156147275760008060016101000a81548160ff0219169083151502179055507f7f26b83ff96e1f2b6a682f133852f6798a09c465da95921460cefb3847402498600160405161471e91906159ce565b60405180910390a15b50565b505050565b60606147558273ffffffffffffffffffffffffffffffffffffffff16601460ff1661475c565b9050919050565b60606000600283600261476f91906160c9565b6147799190615ed1565b67ffffffffffffffff8111156147b8577f4e487b7100000000000000000000000000000000000000000000000000000000600052604160045260246000fd5b6040519080825280601f01601f1916602001820160405280156147ea5781602001600182028036833780820191505090505b5090507f300000000000000000000000000000000000000000000000000000000000000081600081518110614848577f4e487b7100000000000000000000000000000000000000000000000000000000600052603260045260246000fd5b60200101907effffffffffffffffffffffffffffffffffffffffffffffffffffffffffffff1916908160001a9053507f7800000000000000000000000000000000000000000000000000000000000000816001815181106148d2577f4e487b7100000000000000000000000000000000000000000000000000000000600052603260045260246000fd5b60200101907effffffffffffffffffffffffffffffffffffffffffffffffffffffffffffff1916908160001a9053506000600184600261491291906160c9565b61491c9190615ed1565b90505b6001811115614a08577f3031323334353637383961626364656600000000000000000000000000000000600f861660108110614984577f4e487b7100000000000000000000000000000000000000000000000000000000600052603260045260246000fd5b1a60f81b8282815181106149c1577f4e487b7100000000000000000000000000000000000000000000000000000000600052603260045260246000fd5b60200101907effffffffffffffffffffffffffffffffffffffffffffffffffffffffffffff1916908160001a905350600485901c945080614a01906162b3565b905061491f565b5060008414614a4c576040517f08c379a0000000000000000000000000000000000000000000000000000000008152600401614a4390615a0b565b60405180910390fd5b8091505092915050565b828054614a62906162dd565b90600052602060002090601f016020900481019282614a845760008555614acb565b82601f10614a9d57805160ff1916838001178555614acb565b82800160010185558215614acb579182015b82811115614aca578251825591602001919060010190614aaf565b5b509050614ad89190614adc565b5090565b5b80821115614af5576000816000905550600101614add565b5090565b600081359050614b08816163ba565b92915050565b600081519050614b1d816163d1565b92915050565b600081359050614b32816163e8565b92915050565b600081359050614b47816163ff565b92915050565b600081359050614b5c81616416565b92915050565b600081519050614b7181616416565b92915050565b600081359050614b868161642d565b92915050565b600060208284031215614b9e57600080fd5b6000614bac84828501614af9565b91505092915050565b60008060408385031215614bc857600080fd5b6000614bd685828601614af9565b9250506020614be785828601614af9565b9150509250929050565b600080600060608486031215614c0657600080fd5b6000614c1486828701614af9565b9350506020614c2586828701614af9565b9250506040614c3686828701614b4d565b9150509250925092565b60008060408385031215614c5357600080fd5b6000614c6185828601614af9565b9250506020614c7285828601614b4d565b9150509250929050565b60008060408385031215614c8f57600080fd5b6000614c9d85828601614af9565b9250506020614cae85828601614b77565b9150509250929050565b600060208284031215614cca57600080fd5b6000614cd884828501614b0e565b91505092915050565b600060208284031215614cf357600080fd5b6000614d0184828501614b23565b91505092915050565b60008060408385031215614d1d57600080fd5b6000614d2b85828601614b23565b9250506020614d3c85828601614af9565b9150509250929050565b600060208284031215614d5857600080fd5b6000614d6684828501614b38565b91505092915050565b600060208284031215614d8157600080fd5b6000614d8f84828501614b4d565b91505092915050565b600060208284031215614daa57600080fd5b6000614db884828501614b62565b91505092915050565b600060208284031215614dd357600080fd5b6000614de184828501614b77565b91505092915050565b614df3816161bf565b82525050565b614e02816161d1565b82525050565b614e11816161dd565b82525050565b614e208161625c565b82525050565b6000614e3182615eaa565b614e3b8185615eb5565b9350614e4b818560208601616280565b614e548161639c565b840191505092915050565b6000614e6a82615eaa565b614e748185615ec6565b9350614e84818560208601616280565b80840191505092915050565b6000614e9d602083615eb5565b91507f537472696e67733a20686578206c656e67746820696e73756666696369656e746000830152602082019050919050565b6000614edd602383615eb5565b91507f45524332303a207472616e7366657220746f20746865207a65726f206164647260008301527f65737300000000000000000000000000000000000000000000000000000000006020830152604082019050919050565b6000614f43601483615eb5565b91507f5061757361626c653a206e6f74207061757365640000000000000000000000006000830152602082019050919050565b6000614f83601283615eb5565b91507f6e6f20746f6b656e7320746f20636c61696d00000000000000000000000000006000830152602082019050919050565b6000614fc3602283615eb5565b91507f45524332303a206275726e20616d6f756e7420657863656564732062616c616e60008301527f63650000000000000000000000000000000000000000000000000000000000006020830152604082019050919050565b6000615029601e83615eb5565b91507f7374616b656420746f6b656e7320617265207374696c6c206c6f636b656400006000830152602082019050919050565b6000615069601c83615eb5565b91507f76616c756520646f65736e27742066697420696e2034382062697473000000006000830152602082019050919050565b60006150a9602283615eb5565b91507f45524332303a20617070726f766520746f20746865207a65726f20616464726560008301527f73730000000000000000000000000000000000000000000000000000000000006020830152604082019050919050565b600061510f602683615eb5565b91507f45524332303a207472616e7366657220616d6f756e742065786365656473206260008301527f616c616e636500000000000000000000000000000000000000000000000000006020830152604082019050919050565b6000615175601083615eb5565b91507f5061757361626c653a20706175736564000000000000000000000000000000006000830152602082019050919050565b60006151b5601883615eb5565b91507f7374616b6520616d6f756e74206d757374206265203e203000000000000000006000830152602082019050919050565b60006151f5601883615eb5565b91507f6e6f7420656e6f7567682072657761726420746f6b656e7300000000000000006000830152602082019050919050565b6000615235602e83615eb5565b91507f496e697469616c697a61626c653a20636f6e747261637420697320616c72656160008301527f647920696e697469616c697a65640000000000000000000000000000000000006020830152604082019050919050565b600061529b601883615eb5565b91507f6e6f2072657761726420746f6b656e20636f6e747261637400000000000000006000830152602082019050919050565b60006152db602883615eb5565b91507f45524332303a207472616e7366657220616d6f756e742065786365656473206160008301527f6c6c6f77616e63650000000000000000000000000000000000000000000000006020830152604082019050919050565b6000615341602083615eb5565b91507f4f776e61626c653a2063616c6c6572206973206e6f7420746865206f776e65726000830152602082019050919050565b6000615381601f83615eb5565b91507f776974686472617720616d6f756e74203e207374616b656420616d6f756e74006000830152602082019050919050565b60006153c1601983615eb5565b91507f7374616b696e67546f6b656e2e61646472657373203d3d2030000000000000006000830152602082019050919050565b6000615401601a83615eb5565b91507f6c6f636b54696d65506572696f64203e3d2033363620646179730000000000006000830152602082019050919050565b6000615441602183615eb5565b91507f45524332303a206275726e2066726f6d20746865207a65726f2061646472657360008301527f73000000000000000000000000000000000000000000000000000000000000006020830152604082019050919050565b60006154a7601e83615eb5565b91507f63616e206e6f74207769746864726177207374616b696e6720746f6b656e00006000830152602082019050919050565b60006154e7601c83615eb5565b91507f74696d652068617320746f20626520696e2074686520667574757265000000006000830152602082019050919050565b6000615527602583615eb5565b91507f45524332303a207472616e736665722066726f6d20746865207a65726f20616460008301527f64726573730000000000000000000000000000000000000000000000000000006020830152604082019050919050565b600061558d601a83615eb5565b91507f616d6f756e7420746f207769746864726177206e6f74203e20300000000000006000830152602082019050919050565b60006155cd602483615eb5565b91507f45524332303a20617070726f76652066726f6d20746865207a65726f2061646460008301527f72657373000000000000000000000000000000000000000000000000000000006020830152604082019050919050565b6000615633602b83615eb5565b91507f496e697469616c697a61626c653a20636f6e7472616374206973206e6f74206960008301527f6e697469616c697a696e670000000000000000000000000000000000000000006020830152604082019050919050565b6000615699601783615ec6565b91507f416363657373436f6e74726f6c3a206163636f756e74200000000000000000006000830152601782019050919050565b60006156d9601d83615eb5565b91507f76616c756520646f65736e27742066697420696e2031363020626974730000006000830152602082019050919050565b6000615719601f83615eb5565b91507f5265656e7472616e637947756172643a207265656e7472616e742063616c6c006000830152602082019050919050565b6000615759602583615eb5565b91507f45524332303a2064656372656173656420616c6c6f77616e63652062656c6f7760008301527f207a65726f0000000000000000000000000000000000000000000000000000006020830152604082019050919050565b60006157bf601183615ec6565b91507f206973206d697373696e6720726f6c65200000000000000000000000000000006000830152601182019050919050565b60006157ff602f83615eb5565b91507f416363657373436f6e74726f6c3a2063616e206f6e6c792072656e6f756e636560008301527f20726f6c657320666f722073656c6600000000000000000000000000000000006020830152604082019050919050565b6000615865601f83615eb5565b91507f45524332303a206d696e7420746f20746865207a65726f2061646472657373006000830152602082019050919050565b6158a181616213565b82525050565b6158b081616233565b82525050565b6158bf8161626e565b82525050565b6158ce8161623d565b82525050565b6158dd8161624f565b82525050565b60006158ee8261568c565b91506158fa8285614e5f565b9150615905826157b2565b91506159118284614e5f565b91508190509392505050565b60006020820190506159326000830184614dea565b92915050565b600060608201905061594d6000830186614dea565b61595a6020830185614dea565b61596760408301846158a7565b949350505050565b60006040820190506159846000830185614dea565b61599160208301846158a7565b9392505050565b60006020820190506159ad6000830184614df9565b92915050565b60006020820190506159c86000830184614e08565b92915050565b60006020820190506159e36000830184614e17565b92915050565b60006020820190508181036000830152615a038184614e26565b905092915050565b60006020820190508181036000830152615a2481614e90565b9050919050565b60006020820190508181036000830152615a4481614ed0565b9050919050565b60006020820190508181036000830152615a6481614f36565b9050919050565b60006020820190508181036000830152615a8481614f76565b9050919050565b60006020820190508181036000830152615aa481614fb6565b9050919050565b60006020820190508181036000830152615ac48161501c565b9050919050565b60006020820190508181036000830152615ae48161505c565b9050919050565b60006020820190508181036000830152615b048161509c565b9050919050565b60006020820190508181036000830152615b2481615102565b9050919050565b60006020820190508181036000830152615b4481615168565b9050919050565b60006020820190508181036000830152615b64816151a8565b9050919050565b60006020820190508181036000830152615b84816151e8565b9050919050565b60006020820190508181036000830152615ba481615228565b9050919050565b60006020820190508181036000830152615bc48161528e565b9050919050565b60006020820190508181036000830152615be4816152ce565b9050919050565b60006020820190508181036000830152615c0481615334565b9050919050565b60006020820190508181036000830152615c2481615374565b9050919050565b60006020820190508181036000830152615c44816153b4565b9050919050565b60006020820190508181036000830152615c64816153f4565b9050919050565b60006020820190508181036000830152615c8481615434565b9050919050565b60006020820190508181036000830152615ca48161549a565b9050919050565b60006020820190508181036000830152615cc4816154da565b9050919050565b60006020820190508181036000830152615ce48161551a565b9050919050565b60006020820190508181036000830152615d0481615580565b9050919050565b60006020820190508181036000830152615d24816155c0565b9050919050565b60006020820190508181036000830152615d4481615626565b9050919050565b60006020820190508181036000830152615d64816156cc565b9050919050565b60006020820190508181036000830152615d848161570c565b9050919050565b60006020820190508181036000830152615da48161574c565b9050919050565b60006020820190508181036000830152615dc4816157f2565b9050919050565b60006020820190508181036000830152615de481615858565b9050919050565b6000602082019050615e0060008301846158a7565b92915050565b6000604082019050615e1b60008301856158a7565b615e2860208301846158b6565b9392505050565b6000602082019050615e4460008301846158c5565b92915050565b6000608082019050615e5f60008301876158c5565b615e6c60208301866158c5565b615e796040830185615898565b615e8660608301846158a7565b95945050505050565b6000602082019050615ea460008301846158d4565b92915050565b600081519050919050565b600082825260208201905092915050565b600081905092915050565b6000615edc82616233565b9150615ee783616233565b9250827fffffffffffffffffffffffffffffffffffffffffffffffffffffffffffffffff03821115615f1c57615f1b61630f565b5b828201905092915050565b6000615f3282616233565b9150615f3d83616233565b925082615f4d57615f4c61633e565b5b828204905092915050565b6000808291508390505b6001851115615fa257808604811115615f7e57615f7d61630f565b5b6001851615615f8d5780820291505b8081029050615f9b856163ad565b9450615f62565b94509492505050565b6000615fb682616233565b9150615fc18361624f565b9250615fee7fffffffffffffffffffffffffffffffffffffffffffffffffffffffffffffffff8484615ff6565b905092915050565b60008261600657600190506160c2565b8161601457600090506160c2565b816001811461602a576002811461603457616063565b60019150506160c2565b60ff8411156160465761604561630f565b5b8360020a91508482111561605d5761605c61630f565b5b506160c2565b5060208310610133831016604e8410600b84101617156160985782820a9050838111156160935761609261630f565b5b6160c2565b6160a58484846001615f58565b925090508184048111156160bc576160bb61630f565b5b81810290505b9392505050565b60006160d482616233565b91506160df83616233565b9250817fffffffffffffffffffffffffffffffffffffffffffffffffffffffffffffffff04831182151516156161185761611761630f565b5b828202905092915050565b600061612e82616213565b915061613983616213565b92508282101561614c5761614b61630f565b5b828203905092915050565b600061616282616233565b915061616d83616233565b9250828210156161805761617f61630f565b5b828203905092915050565b60006161968261623d565b91506161a18361623d565b9250828210156161b4576161b361630f565b5b828203905092915050565b60006161ca82616213565b9050919050565b60008115159050919050565b6000819050919050565b60007fffffffff0000000000000000000000000000000000000000000000000000000082169050919050565b600073ffffffffffffffffffffffffffffffffffffffff82169050919050565b6000819050919050565b600065ffffffffffff82169050919050565b600060ff82169050919050565b60006162678261624f565b9050919050565b60006162798261623d565b9050919050565b60005b8381101561629e578082015181840152602081019050616283565b838111156162ad576000848401525b50505050565b60006162be82616233565b915060008214156162d2576162d161630f565b5b600182039050919050565b600060028204905060018216806162f557607f821691505b602082108114156163095761630861636d565b5b50919050565b7f4e487b7100000000000000000000000000000000000000000000000000000000600052601160045260246000fd5b7f4e487b7100000000000000000000000000000000000000000000000000000000600052601260045260246000fd5b7f4e487b7100000000000000000000000000000000000000000000000000000000600052602260045260246000fd5b6000601f19601f8301169050919050565b60008160011c9050919050565b6163c3816161bf565b81146163ce57600080fd5b50565b6163da816161d1565b81146163e557600080fd5b50565b6163f1816161dd565b81146163fc57600080fd5b50565b616408816161e7565b811461641357600080fd5b50565b61641f81616233565b811461642a57600080fd5b50565b6164368161623d565b811461644157600080fd5b5056fea2646970667358221220151807b158c8c4d0f237796438b313368e8c1ca72d203cad1cb88eccb1f921d064736f6c63430008000033",
  "immutableReferences": {},
  "source": "/**\n *Submitted for verification at BscScan.com on 2021-12-01\n*/\n\npragma solidity ^0.8.0;\n\n/*\n * @dev Contract module which provides a basic access control mechanism, where\n * there is an account (an owner) that can be granted exclusive access to\n * specific functions.\n *\n * By default, the owner account will be the one that deploys the contract. This\n * can later be changed with {transferOwnership}.\n *\n * This module is used through inheritance. It will make available the modifier\n * `onlyOwner`, which can be applied to your functions to restrict their use to\n * the owner.\n */\nabstract contract OwnableUpgradeable is Initializable, ContextUpgradeable {\n    address private _owner;\n\n    event OwnershipTransferred(address indexed previousOwner, address indexed newOwner);\n\n    /**\n     * @dev Initializes the contract setting the deployer as the initial owner.\n     */\n    function __Ownable_init() internal initializer {\n        __Context_init_unchained();\n        __Ownable_init_unchained();\n    }\n\n    function __Ownable_init_unchained() internal initializer {\n        _transferOwnership(_msgSender());\n    }\n\n    /**\n     * @dev Returns the address of the current owner.\n     */\n    function owner() public view virtual returns (address) {\n        return _owner;\n    }\n\n    /**\n     * @dev Throws if called by any account other than the owner.\n     */\n    modifier onlyOwner() {\n        require(owner() == _msgSender(), \"Ownable: caller is not the owner\");\n        _;\n    }\n\n    /**\n     * @dev Leaves the contract without owner. It will not be possible to call\n     * `onlyOwner` functions anymore. Can only be called by the current owner.\n     *\n     * NOTE: Renouncing ownership will leave the contract without an owner,\n     * thereby removing any functionality that is only available to the owner.\n     */\n    function renounceOwnership() public virtual onlyOwner {\n        _transferOwnership(address(0));\n    }\n\n    /**\n     * @dev Transfers ownership of the contract to a new account (`newOwner`).\n     * Can only be called by the current owner.\n     */\n    function transferOwnership(address newOwner) public virtual onlyOwner {\n        // require(newOwner != address(0), \"Ownable: new owner is the zero address\");\n        _transferOwnership(newOwner);\n    }\n\n    /**\n     * @dev Transfers ownership of the contract to a new account (`newOwner`).\n     * Internal function without access restriction.\n     */\n    function _transferOwnership(address newOwner) internal virtual {\n        address oldOwner = _owner;\n        _owner = newOwner;\n        emit OwnershipTransferred(oldOwner, newOwner);\n    }\n    uint256[49] private __gap;\n}\n\n// File: @openzeppelin/contracts-upgradeable/security/PausableUpgradeable.sol\n\n\n// OpenZeppelin Contracts v4.4.0 (security/Pausable.sol)\n\npragma solidity ^0.8.0;\n\n\n\n/**\n * @dev Contract module which allows children to implement an emergency stop\n * mechanism that can be triggered by an authorized account.\n *\n * This module is used through inheritance. It will make available the\n * modifiers `whenNotPaused` and `whenPaused`, which can be applied to\n * the functions of your contract. Note that they will not be pausable by\n * simply including this module, only once the modifiers are put in place.\n */\nabstract contract PausableUpgradeable is Initializable, ContextUpgradeable {\n    /**\n     * @dev Emitted when the pause is triggered by `account`.\n     */\n    event Paused(address account);\n\n    /**\n     * @dev Emitted when the pause is lifted by `account`.\n     */\n    event Unpaused(address account);\n\n    bool private _paused;\n\n    /**\n     * @dev Initializes the contract in unpaused state.\n     */\n    function __Pausable_init() internal initializer {\n        __Context_init_unchained();\n        __Pausable_init_unchained();\n    }\n\n    function __Pausable_init_unchained() internal initializer {\n        _paused = false;\n    }\n\n    /**\n     * @dev Returns true if the contract is paused, and false otherwise.\n     */\n    function paused() public view virtual returns (bool) {\n        return _paused;\n    }\n\n    /**\n     * @dev Modifier to make a function callable only when the contract is not paused.\n     *\n     * Requirements:\n     *\n     * - The contract must not be paused.\n     */\n    modifier whenNotPaused() {\n        require(!paused(), \"Pausable: paused\");\n        _;\n    }\n\n    /**\n     * @dev Modifier to make a function callable only when the contract is paused.\n     *\n     * Requirements:\n     *\n     * - The contract must be paused.\n     */\n    modifier whenPaused() {\n        require(paused(), \"Pausable: not paused\");\n        _;\n    }\n\n    /**\n     * @dev Triggers stopped state.\n     *\n     * Requirements:\n     *\n     * - The contract must not be paused.\n     */\n    function _pause() internal virtual whenNotPaused {\n        _paused = true;\n        emit Paused(_msgSender());\n    }\n\n    /**\n     * @dev Returns to normal state.\n     *\n     * Requirements:\n     *\n     * - The contract must be paused.\n     */\n    function _unpause() internal virtual whenPaused {\n        _paused = false;\n        emit Unpaused(_msgSender());\n    }\n    uint256[49] private __gap;\n}\n\nimport \"./PolsStake.sol\";\n\n// File: contracts/K4RallyToken.sol\npragma solidity ^0.8.0;\n// @custom:security-contact security@k4rally.com\ncontract K4RallyTokenV2 is PolsStake, PausableUpgradeable, OwnableUpgradeable {\n    // @custom:oz-upgrades-unsafe-allow constructor\n    constructor() initializer {}\n\n    function initialize(address _stakingToken, uint48 _lockTimePeriod) initializer public {\n        __ERC20_init(\"K4 Rally Token\", \"K4R\");\n        __Pausable_init();\n        __Ownable_init();\n\n        require(_stakingToken != address(0), \"stakingToken.address == 0\");\n        require(_lockTimePeriod < 366 days, \"lockTimePeriod >= 366 days\");\n        stakingToken = _stakingToken;\n        lockTimePeriod = _lockTimePeriod;\n        // set some defaults\n        stakeRewardFactor = 1000 * 1 days; // default : a user has to stake 1000 token for 1 day to receive 1 reward token\n        stakeRewardEndTime = uint48(block.timestamp + 366 days); // default : reward scheme ends in 1 year\n        _setupRole(DEFAULT_ADMIN_ROLE, msg.sender);\n\n        _mint(msg.sender, 1000000000 * 10 ** decimals());\n    }\n\n    function pause() public onlyOwner {\n        _pause();\n    }\n\n    function unpause() public onlyOwner {\n        _unpause();\n    }\n\n    function _beforeTokenTransfer(address from, address to, uint256 amount)\n        internal\n        whenNotPaused\n        override\n    {\n        super._beforeTokenTransfer(from, to, amount);\n    }\n    \n    function burn(address account, uint256 amount) onlyOwner public{\n        //Burn functionality\n        _burn(account, amount);\n    }\n}",
  "sourcePath": "/home/sevenbits/Documents/K4Contract/k4RallyToken-updradeable-contracts/Truffle-K4/contracts/K4RallyTokenV2.sol",
  "compiler": {
    "name": "solc",
    "version": "0.8.0+commit.c7dfd78e.Emscripten.clang"
  },
  "schemaVersion": "3.4.10",
  "updatedAt": "2022-11-14T11:09:14.333Z",
  "devdoc": {
    "kind": "dev",
    "methods": {
      "allowance(address,address)": {
        "details": "See {IERC20-allowance}."
      },
      "approve(address,uint256)": {
        "details": "See {IERC20-approve}. Requirements: - `spender` cannot be the zero address."
      },
      "decimals()": {
        "details": "Returns the number of decimals used to get its user representation. For example, if `decimals` equals `2`, a balance of `505` tokens should be displayed to a user as `5.05` (`505 / 10 ** 2`). Tokens usually opt for a value of 18, imitating the relationship between Ether and Wei. This is the value {ERC20} uses, unless this function is overridden; NOTE: This information is only used for _display_ purposes: it in no way affects any of the arithmetic of the contract, including {IERC20-balanceOf} and {IERC20-transfer}."
      },
      "decreaseAllowance(address,uint256)": {
        "details": "Atomically decreases the allowance granted to `spender` by the caller. This is an alternative to {approve} that can be used as a mitigation for problems described in {IERC20-approve}. Emits an {Approval} event indicating the updated allowance. Requirements: - `spender` cannot be the zero address. - `spender` must have allowance for the caller of at least `subtractedValue`."
      },
      "getRewardTokenBalance()": {
        "returns": {
          "balance": "of reward tokens held by this contract"
        }
      },
      "getRoleAdmin(bytes32)": {
        "details": "Returns the admin role that controls `role`. See {grantRole} and {revokeRole}. To change a role's admin, use {_setRoleAdmin}."
      },
      "getUnlockTime(address)": {
        "details": "return unix epoch time when staked tokens will be unlockedreturn MAX_INT_UINT48 = 2**48-1 if user has no token stakedthis always allows an easy check with : require(block.timestamp > getUnlockTime(account));",
        "returns": {
          "unlockTime": "unix epoch time in seconds"
        }
      },
      "grantRole(bytes32,address)": {
        "details": "Grants `role` to `account`. If `account` had not been already granted `role`, emits a {RoleGranted} event. Requirements: - the caller must have ``role``'s admin role. May emit a {RoleGranted} event."
      },
      "hasRole(bytes32,address)": {
        "details": "Returns `true` if `account` has been granted `role`."
      },
      "increaseAllowance(address,uint256)": {
        "details": "Atomically increases the allowance granted to `spender` by the caller. This is an alternative to {approve} that can be used as a mitigation for problems described in {IERC20-approve}. Emits an {Approval} event indicating the updated allowance. Requirements: - `spender` cannot be the zero address."
      },
      "name()": {
        "details": "Returns the name of the token."
      },
      "owner()": {
        "details": "Returns the address of the current owner."
      },
      "paused()": {
        "details": "Returns true if the contract is paused, and false otherwise."
      },
      "removeOtherERC20Tokens(address)": {
        "params": {
          "_tokenAddress": "address of token to withdraw"
        }
      },
      "renounceOwnership()": {
        "details": "Leaves the contract without owner. It will not be possible to call `onlyOwner` functions anymore. Can only be called by the current owner. NOTE: Renouncing ownership will leave the contract without an owner, thereby removing any functionality that is only available to the owner."
      },
      "renounceRole(bytes32,address)": {
        "details": "Revokes `role` from the calling account. Roles are often managed via {grantRole} and {revokeRole}: this function's purpose is to provide a mechanism for accounts to lose their privileges if they are compromised (such as when a trusted device is misplaced). If the calling account had been revoked `role`, emits a {RoleRevoked} event. Requirements: - the caller must be `account`. May emit a {RoleRevoked} event."
      },
      "revokeRole(bytes32,address)": {
        "details": "Revokes `role` from `account`. If `account` had been granted `role`, emits a {RoleRevoked} event. Requirements: - the caller must have ``role``'s admin role. May emit a {RoleRevoked} event."
      },
      "setLockTimePeriod(uint48)": {
        "params": {
          "_lockTimePeriod": "time in seconds"
        }
      },
      "setRewardToken(address)": {
        "params": {
          "newRewardToken": "address"
        }
      },
      "setStakeRewardEndTime(uint48)": {
        "params": {
          "_stakeRewardEndTime": "unix time in seconds"
        }
      },
      "setStakeRewardFactor(uint256)": {
        "details": "requires that reward token has the same decimals as stake token",
        "params": {
          "_stakeRewardFactor": "time in seconds * amount of staked token to receive 1 reward token"
        }
      },
      "supportsInterface(bytes4)": {
        "details": "See {IERC165-supportsInterface}."
      },
      "symbol()": {
        "details": "Returns the symbol of the token, usually a shorter version of the name."
      },
      "totalSupply()": {
        "details": "See {IERC20-totalSupply}."
      },
      "transfer(address,uint256)": {
        "details": "See {IERC20-transfer}. Requirements: - `recipient` cannot be the zero address. - the caller must have a balance of at least `amount`."
      },
      "transferFrom(address,address,uint256)": {
        "details": "See {IERC20-transferFrom}. Emits an {Approval} event indicating the updated allowance. This is not required by the EIP. See the note at the beginning of {ERC20}. Requirements: - `sender` and `recipient` cannot be the zero address. - `sender` must have a balance of at least `amount`. - the caller must have allowance for ``sender``'s tokens of at least `amount`."
      },
      "transferOwnership(address)": {
        "details": "Transfers ownership of the contract to a new account (`newOwner`). Can only be called by the current owner."
      },
      "userClaimableRewards(address)": {
        "params": {
          "_staker": "address"
        },
        "returns": {
          "_0": "claimableRewards = timePeriod * stakeAmount"
        }
      }
    },
    "version": 1
  },
  "userdoc": {
    "kind": "user",
    "methods": {
      "burnRewards(address,uint256)": {
        "notice": "ADMIN_ROLE has to set BURNER_ROLE allows an external (lottery token sale) contract to substract rewards"
      },
      "lockTimePeriod()": {
        "notice": "Using block.timestamp instead of block.number for reward calculation 1) Easier to handle for users 2) Should result in same rewards across different chain with different block times 3) \"The current block timestamp must be strictly larger than the timestamp of the last block, ...     but the only guarantee is that it will be somewhere between the timestamps ...     of two consecutive blocks in the canonical chain.\"    https://docs.soliditylang.org/en/v0.7.6/cheatsheet.html?highlight=block.timestamp#global-variables"
      },
      "removeOtherERC20Tokens(address)": {
        "notice": "withdraw accidently sent ERC20 tokens"
      },
      "setLockTimePeriod(uint48)": {
        "notice": "set time a user has to wait after calling unlock until staked token can be withdrawn"
      },
      "setRewardToken(address)": {
        "notice": "setting rewardToken to address(0) disables claim/mintif there was a reward token set before, return remaining tokens to msg.sender/admin"
      },
      "setStakeRewardEndTime(uint48)": {
        "notice": "set block time when stake reward scheme will end"
      },
      "setStakeRewardFactor(uint256)": {
        "notice": "see calculateUserClaimableReward() docs"
      },
      "stakeAmount_msgSender()": {
        "notice": "msg.sender external view convenience functions ********************************"
      },
      "stakeTime(address)": {
        "notice": "External API functions"
      },
      "userClaimableRewards(address)": {
        "notice": "calculates unclaimed rewards unclaimed rewards = expired time since last stake/unstake transaction * current staked amount We have to cover 6 cases here : 1) block time < stake time < end time   : should never happen => error 2) block time < end time   < stake time : should never happen => error 3) end time   < block time < stake time : should never happen => error 4) end time   < stake time < block time : staked after reward period is over => no rewards 5) stake time < block time < end time   : end time in the future 6) stake time < end time   < block time : end time in the past & staked before"
      }
    },
    "version": 1
  }
}