{
  "_format": "hh-sol-artifact-1",
  "contractName": "K4RallyTokenV2",
  "sourceName": "contracts/K4RallyTokenV2.sol",
  "abi": [
    {
      "anonymous": false,
      "inputs": [
        {
          "indexed": true,
          "internalType": "address",
          "name": "owner",
          "type": "address"
        },
        {
          "indexed": true,
          "internalType": "address",
          "name": "spender",
          "type": "address"
        },
        {
          "indexed": false,
          "internalType": "uint256",
          "name": "value",
          "type": "uint256"
        }
      ],
      "name": "Approval",
      "type": "event"
    },
    {
      "anonymous": false,
      "inputs": [
        {
          "indexed": true,
          "internalType": "address",
          "name": "previousOwner",
          "type": "address"
        },
        {
          "indexed": true,
          "internalType": "address",
          "name": "newOwner",
          "type": "address"
        }
      ],
      "name": "OwnershipTransferred",
      "type": "event"
    },
    {
      "anonymous": false,
      "inputs": [
        {
          "indexed": false,
          "internalType": "address",
          "name": "account",
          "type": "address"
        }
      ],
      "name": "Paused",
      "type": "event"
    },
    {
      "anonymous": false,
      "inputs": [
        {
          "indexed": true,
          "internalType": "address",
          "name": "from",
          "type": "address"
        },
        {
          "indexed": true,
          "internalType": "address",
          "name": "to",
          "type": "address"
        },
        {
          "indexed": false,
          "internalType": "uint256",
          "name": "value",
          "type": "uint256"
        }
      ],
      "name": "Transfer",
      "type": "event"
    },
    {
      "anonymous": false,
      "inputs": [
        {
          "indexed": false,
          "internalType": "address",
          "name": "account",
          "type": "address"
        }
      ],
      "name": "Unpaused",
      "type": "event"
    },
    {
      "inputs": [
        {
          "internalType": "address",
          "name": "owner",
          "type": "address"
        },
        {
          "internalType": "address",
          "name": "spender",
          "type": "address"
        }
      ],
      "name": "allowance",
      "outputs": [
        {
          "internalType": "uint256",
          "name": "",
          "type": "uint256"
        }
      ],
      "stateMutability": "view",
      "type": "function"
    },
    {
      "inputs": [
        {
          "internalType": "address",
          "name": "spender",
          "type": "address"
        },
        {
          "internalType": "uint256",
          "name": "amount",
          "type": "uint256"
        }
      ],
      "name": "approve",
      "outputs": [
        {
          "internalType": "bool",
          "name": "",
          "type": "bool"
        }
      ],
      "stateMutability": "nonpayable",
      "type": "function"
    },
    {
      "inputs": [
        {
          "internalType": "address",
          "name": "account",
          "type": "address"
        }
      ],
      "name": "balanceOf",
      "outputs": [
        {
          "internalType": "uint256",
          "name": "",
          "type": "uint256"
        }
      ],
      "stateMutability": "view",
      "type": "function"
    },
    {
      "inputs": [
        {
          "internalType": "address",
          "name": "account",
          "type": "address"
        },
        {
          "internalType": "uint256",
          "name": "amount",
          "type": "uint256"
        }
      ],
      "name": "burn",
      "outputs": [],
      "stateMutability": "nonpayable",
      "type": "function"
    },
    {
      "inputs": [],
      "name": "decimals",
      "outputs": [
        {
          "internalType": "uint8",
          "name": "",
          "type": "uint8"
        }
      ],
      "stateMutability": "view",
      "type": "function"
    },
    {
      "inputs": [
        {
          "internalType": "address",
          "name": "spender",
          "type": "address"
        },
        {
          "internalType": "uint256",
          "name": "subtractedValue",
          "type": "uint256"
        }
      ],
      "name": "decreaseAllowance",
      "outputs": [
        {
          "internalType": "bool",
          "name": "",
          "type": "bool"
        }
      ],
      "stateMutability": "nonpayable",
      "type": "function"
    },
    {
      "inputs": [
        {
          "internalType": "address",
          "name": "spender",
          "type": "address"
        },
        {
          "internalType": "uint256",
          "name": "addedValue",
          "type": "uint256"
        }
      ],
      "name": "increaseAllowance",
      "outputs": [
        {
          "internalType": "bool",
          "name": "",
          "type": "bool"
        }
      ],
      "stateMutability": "nonpayable",
      "type": "function"
    },
    {
      "inputs": [],
      "name": "name",
      "outputs": [
        {
          "internalType": "string",
          "name": "",
          "type": "string"
        }
      ],
      "stateMutability": "view",
      "type": "function"
    },
    {
      "inputs": [],
      "name": "owner",
      "outputs": [
        {
          "internalType": "address",
          "name": "",
          "type": "address"
        }
      ],
      "stateMutability": "view",
      "type": "function"
    },
    {
      "inputs": [],
      "name": "pause",
      "outputs": [],
      "stateMutability": "nonpayable",
      "type": "function"
    },
    {
      "inputs": [],
      "name": "paused",
      "outputs": [
        {
          "internalType": "bool",
          "name": "",
          "type": "bool"
        }
      ],
      "stateMutability": "view",
      "type": "function"
    },
    {
      "inputs": [],
      "name": "renounceOwnership",
      "outputs": [],
      "stateMutability": "nonpayable",
      "type": "function"
    },
    {
      "inputs": [],
      "name": "symbol",
      "outputs": [
        {
          "internalType": "string",
          "name": "",
          "type": "string"
        }
      ],
      "stateMutability": "view",
      "type": "function"
    },
    {
      "inputs": [],
      "name": "totalSupply",
      "outputs": [
        {
          "internalType": "uint256",
          "name": "",
          "type": "uint256"
        }
      ],
      "stateMutability": "view",
      "type": "function"
    },
    {
      "inputs": [
        {
          "internalType": "address",
          "name": "recipient",
          "type": "address"
        },
        {
          "internalType": "uint256",
          "name": "amount",
          "type": "uint256"
        }
      ],
      "name": "transfer",
      "outputs": [
        {
          "internalType": "bool",
          "name": "",
          "type": "bool"
        }
      ],
      "stateMutability": "nonpayable",
      "type": "function"
    },
    {
      "inputs": [
        {
          "internalType": "address",
          "name": "sender",
          "type": "address"
        },
        {
          "internalType": "address",
          "name": "recipient",
          "type": "address"
        },
        {
          "internalType": "uint256",
          "name": "amount",
          "type": "uint256"
        }
      ],
      "name": "transferFrom",
      "outputs": [
        {
          "internalType": "bool",
          "name": "",
          "type": "bool"
        }
      ],
      "stateMutability": "nonpayable",
      "type": "function"
    },
    {
      "inputs": [
        {
          "internalType": "address",
          "name": "newOwner",
          "type": "address"
        }
      ],
      "name": "transferOwnership",
      "outputs": [],
      "stateMutability": "nonpayable",
      "type": "function"
    },
    {
      "inputs": [],
      "name": "unpause",
      "outputs": [],
      "stateMutability": "nonpayable",
      "type": "function"
    }
  ],
  "bytecode": "0x608060405234801561001057600080fd5b50611f98806100206000396000f3fe608060405234801561001057600080fd5b50600436106101165760003560e01c8063715018a6116100a25780639dc29fac116100715780639dc29fac146102ad578063a457c2d7146102c9578063a9059cbb146102f9578063dd62ed3e14610329578063f2fde38b1461035957610116565b8063715018a61461025d5780638456cb59146102675780638da5cb5b1461027157806395d89b411461028f57610116565b8063313ce567116100e9578063313ce567146101b757806339509351146101d55780633f4ba83a146102055780635c975abb1461020f57806370a082311461022d57610116565b806306fdde031461011b578063095ea7b31461013957806318160ddd1461016957806323b872dd14610187575b600080fd5b610123610375565b60405161013091906114d4565b60405180910390f35b610153600480360381019061014e919061158f565b610407565b60405161016091906115ea565b60405180910390f35b610171610425565b60405161017e9190611614565b60405180910390f35b6101a1600480360381019061019c919061162f565b61042f565b6040516101ae91906115ea565b60405180910390f35b6101bf610527565b6040516101cc919061169e565b60405180910390f35b6101ef60048036038101906101ea919061158f565b610530565b6040516101fc91906115ea565b60405180910390f35b61020d6105dc565b005b610217610662565b60405161022491906115ea565b60405180910390f35b610247600480360381019061024291906116b9565b610679565b6040516102549190611614565b60405180910390f35b6102656106c2565b005b61026f61074a565b005b6102796107d0565b60405161028691906116f5565b60405180910390f35b6102976107fa565b6040516102a491906114d4565b60405180910390f35b6102c760048036038101906102c2919061158f565b61088c565b005b6102e360048036038101906102de919061158f565b610916565b6040516102f091906115ea565b60405180910390f35b610313600480360381019061030e919061158f565b610a01565b60405161032091906115ea565b60405180910390f35b610343600480360381019061033e9190611710565b610a1f565b6040516103509190611614565b60405180910390f35b610373600480360381019061036e91906116b9565b610aa6565b005b6060603680546103849061177f565b80601f01602080910402602001604051908101604052809291908181526020018280546103b09061177f565b80156103fd5780601f106103d2576101008083540402835291602001916103fd565b820191906000526020600020905b8154815290600101906020018083116103e057829003601f168201915b5050505050905090565b600061041b610414610b9e565b8484610ba6565b6001905092915050565b6000603554905090565b600061043c848484610d71565b6000603460008673ffffffffffffffffffffffffffffffffffffffff1673ffffffffffffffffffffffffffffffffffffffff1681526020019081526020016000206000610487610b9e565b73ffffffffffffffffffffffffffffffffffffffff1673ffffffffffffffffffffffffffffffffffffffff16815260200190815260200160002054905082811015610507576040517f08c379a00000000000000000000000000000000000000000000000000000000081526004016104fe90611823565b60405180910390fd5b61051b85610513610b9e565b858403610ba6565b60019150509392505050565b60006012905090565b60006105d261053d610b9e565b84846034600061054b610b9e565b73ffffffffffffffffffffffffffffffffffffffff1673ffffffffffffffffffffffffffffffffffffffff16815260200190815260200160002060008873ffffffffffffffffffffffffffffffffffffffff1673ffffffffffffffffffffffffffffffffffffffff168152602001908152602001600020546105cd9190611872565b610ba6565b6001905092915050565b6105e4610b9e565b73ffffffffffffffffffffffffffffffffffffffff166106026107d0565b73ffffffffffffffffffffffffffffffffffffffff1614610658576040517f08c379a000000000000000000000000000000000000000000000000000000000815260040161064f90611914565b60405180910390fd5b610660610ff5565b565b6000606560009054906101000a900460ff16905090565b6000603360008373ffffffffffffffffffffffffffffffffffffffff1673ffffffffffffffffffffffffffffffffffffffff168152602001908152602001600020549050919050565b6106ca610b9e565b73ffffffffffffffffffffffffffffffffffffffff166106e86107d0565b73ffffffffffffffffffffffffffffffffffffffff161461073e576040517f08c379a000000000000000000000000000000000000000000000000000000000815260040161073590611914565b60405180910390fd5b6107486000611097565b565b610752610b9e565b73ffffffffffffffffffffffffffffffffffffffff166107706107d0565b73ffffffffffffffffffffffffffffffffffffffff16146107c6576040517f08c379a00000000000000000000000000000000000000000000000000000000081526004016107bd90611914565b60405180910390fd5b6107ce61115d565b565b6000609760009054906101000a900473ffffffffffffffffffffffffffffffffffffffff16905090565b6060603780546108099061177f565b80601f01602080910402602001604051908101604052809291908181526020018280546108359061177f565b80156108825780601f1061085757610100808354040283529160200191610882565b820191906000526020600020905b81548152906001019060200180831161086557829003601f168201915b5050505050905090565b610894610b9e565b73ffffffffffffffffffffffffffffffffffffffff166108b26107d0565b73ffffffffffffffffffffffffffffffffffffffff1614610908576040517f08c379a00000000000000000000000000000000000000000000000000000000081526004016108ff90611914565b60405180910390fd5b6109128282611200565b5050565b60008060346000610925610b9e565b73ffffffffffffffffffffffffffffffffffffffff1673ffffffffffffffffffffffffffffffffffffffff16815260200190815260200160002060008573ffffffffffffffffffffffffffffffffffffffff1673ffffffffffffffffffffffffffffffffffffffff168152602001908152602001600020549050828110156109e2576040517f08c379a00000000000000000000000000000000000000000000000000000000081526004016109d9906119a6565b60405180910390fd5b6109f66109ed610b9e565b85858403610ba6565b600191505092915050565b6000610a15610a0e610b9e565b8484610d71565b6001905092915050565b6000603460008473ffffffffffffffffffffffffffffffffffffffff1673ffffffffffffffffffffffffffffffffffffffff16815260200190815260200160002060008373ffffffffffffffffffffffffffffffffffffffff1673ffffffffffffffffffffffffffffffffffffffff16815260200190815260200160002054905092915050565b610aae610b9e565b73ffffffffffffffffffffffffffffffffffffffff16610acc6107d0565b73ffffffffffffffffffffffffffffffffffffffff1614610b22576040517f08c379a0000000000000000000000000000000000000000000000000000000008152600401610b1990611914565b60405180910390fd5b600073ffffffffffffffffffffffffffffffffffffffff168173ffffffffffffffffffffffffffffffffffffffff161415610b92576040517f08c379a0000000000000000000000000000000000000000000000000000000008152600401610b8990611a38565b60405180910390fd5b610b9b81611097565b50565b600033905090565b600073ffffffffffffffffffffffffffffffffffffffff168373ffffffffffffffffffffffffffffffffffffffff161415610c16576040517f08c379a0000000000000000000000000000000000000000000000000000000008152600401610c0d90611aca565b60405180910390fd5b600073ffffffffffffffffffffffffffffffffffffffff168273ffffffffffffffffffffffffffffffffffffffff161415610c86576040517f08c379a0000000000000000000000000000000000000000000000000000000008152600401610c7d90611b5c565b60405180910390fd5b80603460008573ffffffffffffffffffffffffffffffffffffffff1673ffffffffffffffffffffffffffffffffffffffff16815260200190815260200160002060008473ffffffffffffffffffffffffffffffffffffffff1673ffffffffffffffffffffffffffffffffffffffff168152602001908152602001600020819055508173ffffffffffffffffffffffffffffffffffffffff168373ffffffffffffffffffffffffffffffffffffffff167f8c5be1e5ebec7d5bd14f71427d1e84f3dd0314c0f7b2291e5b200ac8c7c3b92583604051610d649190611614565b60405180910390a3505050565b600073ffffffffffffffffffffffffffffffffffffffff168373ffffffffffffffffffffffffffffffffffffffff161415610de1576040517f08c379a0000000000000000000000000000000000000000000000000000000008152600401610dd890611bee565b60405180910390fd5b600073ffffffffffffffffffffffffffffffffffffffff168273ffffffffffffffffffffffffffffffffffffffff161415610e51576040517f08c379a0000000000000000000000000000000000000000000000000000000008152600401610e4890611c80565b60405180910390fd5b610e5c8383836113d9565b6000603360008573ffffffffffffffffffffffffffffffffffffffff1673ffffffffffffffffffffffffffffffffffffffff16815260200190815260200160002054905081811015610ee3576040517f08c379a0000000000000000000000000000000000000000000000000000000008152600401610eda90611d12565b60405180910390fd5b818103603360008673ffffffffffffffffffffffffffffffffffffffff1673ffffffffffffffffffffffffffffffffffffffff1681526020019081526020016000208190555081603360008573ffffffffffffffffffffffffffffffffffffffff1673ffffffffffffffffffffffffffffffffffffffff1681526020019081526020016000206000828254610f789190611872565b925050819055508273ffffffffffffffffffffffffffffffffffffffff168473ffffffffffffffffffffffffffffffffffffffff167fddf252ad1be2c89b69c2b068fc378daa952ba7f163c4a11628f55a4df523b3ef84604051610fdc9190611614565b60405180910390a3610fef848484611431565b50505050565b610ffd610662565b61103c576040517f08c379a000000000000000000000000000000000000000000000000000000000815260040161103390611d7e565b60405180910390fd5b6000606560006101000a81548160ff0219169083151502179055507f5db9ee0a495bf2e6ff9c91a7834c1ba4fdd244a5e8aa4e537bd38aeae4b073aa611080610b9e565b60405161108d91906116f5565b60405180910390a1565b6000609760009054906101000a900473ffffffffffffffffffffffffffffffffffffffff16905081609760006101000a81548173ffffffffffffffffffffffffffffffffffffffff021916908373ffffffffffffffffffffffffffffffffffffffff1602179055508173ffffffffffffffffffffffffffffffffffffffff168173ffffffffffffffffffffffffffffffffffffffff167f8be0079c531659141344cd1fd0a4f28419497f9722a3daafe3b4186f6b6457e060405160405180910390a35050565b611165610662565b156111a5576040517f08c379a000000000000000000000000000000000000000000000000000000000815260040161119c90611dea565b60405180910390fd5b6001606560006101000a81548160ff0219169083151502179055507f62e78cea01bee320cd4e420270b5ea74000d11b0c9f74754ebdbfc544b05a2586111e9610b9e565b6040516111f691906116f5565b60405180910390a1565b600073ffffffffffffffffffffffffffffffffffffffff168273ffffffffffffffffffffffffffffffffffffffff161415611270576040517f08c379a000000000000000000000000000000000000000000000000000000000815260040161126790611e7c565b60405180910390fd5b61127c826000836113d9565b6000603360008473ffffffffffffffffffffffffffffffffffffffff1673ffffffffffffffffffffffffffffffffffffffff16815260200190815260200160002054905081811015611303576040517f08c379a00000000000000000000000000000000000000000000000000000000081526004016112fa90611f0e565b60405180910390fd5b818103603360008573ffffffffffffffffffffffffffffffffffffffff1673ffffffffffffffffffffffffffffffffffffffff16815260200190815260200160002081905550816035600082825461135b9190611f2e565b92505081905550600073ffffffffffffffffffffffffffffffffffffffff168373ffffffffffffffffffffffffffffffffffffffff167fddf252ad1be2c89b69c2b068fc378daa952ba7f163c4a11628f55a4df523b3ef846040516113c09190611614565b60405180910390a36113d483600084611431565b505050565b6113e1610662565b15611421576040517f08c379a000000000000000000000000000000000000000000000000000000000815260040161141890611dea565b60405180910390fd5b61142c838383611436565b505050565b505050565b505050565b600081519050919050565b600082825260208201905092915050565b60005b8381101561147557808201518184015260208101905061145a565b83811115611484576000848401525b50505050565b6000601f19601f8301169050919050565b60006114a68261143b565b6114b08185611446565b93506114c0818560208601611457565b6114c98161148a565b840191505092915050565b600060208201905081810360008301526114ee818461149b565b905092915050565b600080fd5b600073ffffffffffffffffffffffffffffffffffffffff82169050919050565b6000611526826114fb565b9050919050565b6115368161151b565b811461154157600080fd5b50565b6000813590506115538161152d565b92915050565b6000819050919050565b61156c81611559565b811461157757600080fd5b50565b60008135905061158981611563565b92915050565b600080604083850312156115a6576115a56114f6565b5b60006115b485828601611544565b92505060206115c58582860161157a565b9150509250929050565b60008115159050919050565b6115e4816115cf565b82525050565b60006020820190506115ff60008301846115db565b92915050565b61160e81611559565b82525050565b60006020820190506116296000830184611605565b92915050565b600080600060608486031215611648576116476114f6565b5b600061165686828701611544565b935050602061166786828701611544565b92505060406116788682870161157a565b9150509250925092565b600060ff82169050919050565b61169881611682565b82525050565b60006020820190506116b3600083018461168f565b92915050565b6000602082840312156116cf576116ce6114f6565b5b60006116dd84828501611544565b91505092915050565b6116ef8161151b565b82525050565b600060208201905061170a60008301846116e6565b92915050565b60008060408385031215611727576117266114f6565b5b600061173585828601611544565b925050602061174685828601611544565b9150509250929050565b7f4e487b7100000000000000000000000000000000000000000000000000000000600052602260045260246000fd5b6000600282049050600182168061179757607f821691505b602082108114156117ab576117aa611750565b5b50919050565b7f45524332303a207472616e7366657220616d6f756e742065786365656473206160008201527f6c6c6f77616e6365000000000000000000000000000000000000000000000000602082015250565b600061180d602883611446565b9150611818826117b1565b604082019050919050565b6000602082019050818103600083015261183c81611800565b9050919050565b7f4e487b7100000000000000000000000000000000000000000000000000000000600052601160045260246000fd5b600061187d82611559565b915061188883611559565b9250827fffffffffffffffffffffffffffffffffffffffffffffffffffffffffffffffff038211156118bd576118bc611843565b5b828201905092915050565b7f4f776e61626c653a2063616c6c6572206973206e6f7420746865206f776e6572600082015250565b60006118fe602083611446565b9150611909826118c8565b602082019050919050565b6000602082019050818103600083015261192d816118f1565b9050919050565b7f45524332303a2064656372656173656420616c6c6f77616e63652062656c6f7760008201527f207a65726f000000000000000000000000000000000000000000000000000000602082015250565b6000611990602583611446565b915061199b82611934565b604082019050919050565b600060208201905081810360008301526119bf81611983565b9050919050565b7f4f776e61626c653a206e6577206f776e657220697320746865207a65726f206160008201527f6464726573730000000000000000000000000000000000000000000000000000602082015250565b6000611a22602683611446565b9150611a2d826119c6565b604082019050919050565b60006020820190508181036000830152611a5181611a15565b9050919050565b7f45524332303a20617070726f76652066726f6d20746865207a65726f2061646460008201527f7265737300000000000000000000000000000000000000000000000000000000602082015250565b6000611ab4602483611446565b9150611abf82611a58565b604082019050919050565b60006020820190508181036000830152611ae381611aa7565b9050919050565b7f45524332303a20617070726f766520746f20746865207a65726f20616464726560008201527f7373000000000000000000000000000000000000000000000000000000000000602082015250565b6000611b46602283611446565b9150611b5182611aea565b604082019050919050565b60006020820190508181036000830152611b7581611b39565b9050919050565b7f45524332303a207472616e736665722066726f6d20746865207a65726f20616460008201527f6472657373000000000000000000000000000000000000000000000000000000602082015250565b6000611bd8602583611446565b9150611be382611b7c565b604082019050919050565b60006020820190508181036000830152611c0781611bcb565b9050919050565b7f45524332303a207472616e7366657220746f20746865207a65726f206164647260008201527f6573730000000000000000000000000000000000000000000000000000000000602082015250565b6000611c6a602383611446565b9150611c7582611c0e565b604082019050919050565b60006020820190508181036000830152611c9981611c5d565b9050919050565b7f45524332303a207472616e7366657220616d6f756e742065786365656473206260008201527f616c616e63650000000000000000000000000000000000000000000000000000602082015250565b6000611cfc602683611446565b9150611d0782611ca0565b604082019050919050565b60006020820190508181036000830152611d2b81611cef565b9050919050565b7f5061757361626c653a206e6f7420706175736564000000000000000000000000600082015250565b6000611d68601483611446565b9150611d7382611d32565b602082019050919050565b60006020820190508181036000830152611d9781611d5b565b9050919050565b7f5061757361626c653a2070617573656400000000000000000000000000000000600082015250565b6000611dd4601083611446565b9150611ddf82611d9e565b602082019050919050565b60006020820190508181036000830152611e0381611dc7565b9050919050565b7f45524332303a206275726e2066726f6d20746865207a65726f2061646472657360008201527f7300000000000000000000000000000000000000000000000000000000000000602082015250565b6000611e66602183611446565b9150611e7182611e0a565b604082019050919050565b60006020820190508181036000830152611e9581611e59565b9050919050565b7f45524332303a206275726e20616d6f756e7420657863656564732062616c616e60008201527f6365000000000000000000000000000000000000000000000000000000000000602082015250565b6000611ef8602283611446565b9150611f0382611e9c565b604082019050919050565b60006020820190508181036000830152611f2781611eeb565b9050919050565b6000611f3982611559565b9150611f4483611559565b925082821015611f5757611f56611843565b5b82820390509291505056fea2646970667358221220148ec0e0332c6f3e2e440a8dc02cd37924a54b51290509c577ea0967d2d5c2bc64736f6c634300080a0033",
  "linkReferences": {},
  "deployedLinkReferences": {}
}