{
  "_format": "hh-sol-artifact-1",
  "contractName": "PolsStake",
  "sourceName": "contracts/K4RallyTokenV2.sol",
  "abi": [
    {
      "anonymous": false,
      "inputs": [
        {
          "indexed": true,
          "internalType": "address",
          "name": "owner",
          "type": "address"
        },
        {
          "indexed": true,
          "internalType": "address",
          "name": "spender",
          "type": "address"
        },
        {
          "indexed": false,
          "internalType": "uint256",
          "name": "value",
          "type": "uint256"
        }
      ],
      "name": "Approval",
      "type": "event"
    },
    {
      "anonymous": false,
      "inputs": [
        {
          "indexed": true,
          "internalType": "address",
          "name": "wallet",
          "type": "address"
        },
        {
          "indexed": true,
          "internalType": "address",
          "name": "rewardToken",
          "type": "address"
        },
        {
          "indexed": false,
          "internalType": "uint256",
          "name": "amount",
          "type": "uint256"
        }
      ],
      "name": "Claimed",
      "type": "event"
    },
    {
      "anonymous": false,
      "inputs": [
        {
          "indexed": true,
          "internalType": "address",
          "name": "tokenAddress",
          "type": "address"
        },
        {
          "indexed": true,
          "internalType": "address",
          "name": "receiver",
          "type": "address"
        },
        {
          "indexed": false,
          "internalType": "uint256",
          "name": "amount",
          "type": "uint256"
        }
      ],
      "name": "ERC20TokensRemoved",
      "type": "event"
    },
    {
      "anonymous": false,
      "inputs": [
        {
          "indexed": false,
          "internalType": "uint8",
          "name": "version",
          "type": "uint8"
        }
      ],
      "name": "Initialized",
      "type": "event"
    },
    {
      "anonymous": false,
      "inputs": [
        {
          "indexed": false,
          "internalType": "uint48",
          "name": "lockTimePeriod",
          "type": "uint48"
        }
      ],
      "name": "LockTimePeriodChanged",
      "type": "event"
    },
    {
      "anonymous": false,
      "inputs": [
        {
          "indexed": true,
          "internalType": "address",
          "name": "oldRewardToken",
          "type": "address"
        },
        {
          "indexed": false,
          "internalType": "uint256",
          "name": "returnedAmount",
          "type": "uint256"
        },
        {
          "indexed": true,
          "internalType": "address",
          "name": "newRewardToken",
          "type": "address"
        }
      ],
      "name": "RewardTokenChanged",
      "type": "event"
    },
    {
      "anonymous": false,
      "inputs": [
        {
          "indexed": true,
          "internalType": "address",
          "name": "staker",
          "type": "address"
        },
        {
          "indexed": false,
          "internalType": "uint256",
          "name": "amount",
          "type": "uint256"
        }
      ],
      "name": "RewardsBurned",
      "type": "event"
    },
    {
      "anonymous": false,
      "inputs": [
        {
          "indexed": true,
          "internalType": "bytes32",
          "name": "role",
          "type": "bytes32"
        },
        {
          "indexed": true,
          "internalType": "bytes32",
          "name": "previousAdminRole",
          "type": "bytes32"
        },
        {
          "indexed": true,
          "internalType": "bytes32",
          "name": "newAdminRole",
          "type": "bytes32"
        }
      ],
      "name": "RoleAdminChanged",
      "type": "event"
    },
    {
      "anonymous": false,
      "inputs": [
        {
          "indexed": true,
          "internalType": "bytes32",
          "name": "role",
          "type": "bytes32"
        },
        {
          "indexed": true,
          "internalType": "address",
          "name": "account",
          "type": "address"
        },
        {
          "indexed": true,
          "internalType": "address",
          "name": "sender",
          "type": "address"
        }
      ],
      "name": "RoleGranted",
      "type": "event"
    },
    {
      "anonymous": false,
      "inputs": [
        {
          "indexed": true,
          "internalType": "bytes32",
          "name": "role",
          "type": "bytes32"
        },
        {
          "indexed": true,
          "internalType": "address",
          "name": "account",
          "type": "address"
        },
        {
          "indexed": true,
          "internalType": "address",
          "name": "sender",
          "type": "address"
        }
      ],
      "name": "RoleRevoked",
      "type": "event"
    },
    {
      "anonymous": false,
      "inputs": [
        {
          "indexed": true,
          "internalType": "address",
          "name": "wallet",
          "type": "address"
        },
        {
          "indexed": false,
          "internalType": "uint256",
          "name": "amount",
          "type": "uint256"
        },
        {
          "indexed": false,
          "internalType": "uint256",
          "name": "date",
          "type": "uint256"
        }
      ],
      "name": "Stake",
      "type": "event"
    },
    {
      "anonymous": false,
      "inputs": [
        {
          "indexed": false,
          "internalType": "uint48",
          "name": "stakeRewardEndTime",
          "type": "uint48"
        }
      ],
      "name": "StakeRewardEndTimeChanged",
      "type": "event"
    },
    {
      "anonymous": false,
      "inputs": [
        {
          "indexed": false,
          "internalType": "uint256",
          "name": "stakeRewardFactor",
          "type": "uint256"
        }
      ],
      "name": "StakeRewardFactorChanged",
      "type": "event"
    },
    {
      "anonymous": false,
      "inputs": [
        {
          "indexed": true,
          "internalType": "address",
          "name": "from",
          "type": "address"
        },
        {
          "indexed": true,
          "internalType": "address",
          "name": "to",
          "type": "address"
        },
        {
          "indexed": false,
          "internalType": "uint256",
          "name": "value",
          "type": "uint256"
        }
      ],
      "name": "Transfer",
      "type": "event"
    },
    {
      "anonymous": false,
      "inputs": [
        {
          "indexed": true,
          "internalType": "address",
          "name": "wallet",
          "type": "address"
        },
        {
          "indexed": false,
          "internalType": "uint256",
          "name": "amount",
          "type": "uint256"
        },
        {
          "indexed": false,
          "internalType": "uint256",
          "name": "date",
          "type": "uint256"
        }
      ],
      "name": "Withdraw",
      "type": "event"
    },
    {
      "inputs": [],
      "name": "BURNER_ROLE",
      "outputs": [
        {
          "internalType": "bytes32",
          "name": "",
          "type": "bytes32"
        }
      ],
      "stateMutability": "view",
      "type": "function"
    },
    {
      "inputs": [],
      "name": "DEFAULT_ADMIN_ROLE",
      "outputs": [
        {
          "internalType": "bytes32",
          "name": "",
          "type": "bytes32"
        }
      ],
      "stateMutability": "view",
      "type": "function"
    },
    {
      "inputs": [],
      "name": "MAX_TIME",
      "outputs": [
        {
          "internalType": "uint48",
          "name": "",
          "type": "uint48"
        }
      ],
      "stateMutability": "view",
      "type": "function"
    },
    {
      "inputs": [
        {
          "internalType": "address",
          "name": "owner",
          "type": "address"
        },
        {
          "internalType": "address",
          "name": "spender",
          "type": "address"
        }
      ],
      "name": "allowance",
      "outputs": [
        {
          "internalType": "uint256",
          "name": "",
          "type": "uint256"
        }
      ],
      "stateMutability": "view",
      "type": "function"
    },
    {
      "inputs": [
        {
          "internalType": "address",
          "name": "spender",
          "type": "address"
        },
        {
          "internalType": "uint256",
          "name": "amount",
          "type": "uint256"
        }
      ],
      "name": "approve",
      "outputs": [
        {
          "internalType": "bool",
          "name": "",
          "type": "bool"
        }
      ],
      "stateMutability": "nonpayable",
      "type": "function"
    },
    {
      "inputs": [
        {
          "internalType": "address",
          "name": "_staker",
          "type": "address"
        }
      ],
      "name": "balanceOf",
      "outputs": [
        {
          "internalType": "uint256",
          "name": "balance",
          "type": "uint256"
        }
      ],
      "stateMutability": "view",
      "type": "function"
    },
    {
      "inputs": [
        {
          "internalType": "address",
          "name": "_staker",
          "type": "address"
        },
        {
          "internalType": "uint256",
          "name": "_amount",
          "type": "uint256"
        }
      ],
      "name": "burnRewards",
      "outputs": [],
      "stateMutability": "nonpayable",
      "type": "function"
    },
    {
      "inputs": [],
      "name": "claim",
      "outputs": [
        {
          "internalType": "uint256",
          "name": "",
          "type": "uint256"
        }
      ],
      "stateMutability": "nonpayable",
      "type": "function"
    },
    {
      "inputs": [],
      "name": "decimals",
      "outputs": [
        {
          "internalType": "uint8",
          "name": "",
          "type": "uint8"
        }
      ],
      "stateMutability": "view",
      "type": "function"
    },
    {
      "inputs": [
        {
          "internalType": "address",
          "name": "spender",
          "type": "address"
        },
        {
          "internalType": "uint256",
          "name": "subtractedValue",
          "type": "uint256"
        }
      ],
      "name": "decreaseAllowance",
      "outputs": [
        {
          "internalType": "bool",
          "name": "",
          "type": "bool"
        }
      ],
      "stateMutability": "nonpayable",
      "type": "function"
    },
    {
      "inputs": [
        {
          "internalType": "address",
          "name": "_staker",
          "type": "address"
        }
      ],
      "name": "getEarnedRewardTokens",
      "outputs": [
        {
          "internalType": "uint256",
          "name": "claimableRewardTokens",
          "type": "uint256"
        }
      ],
      "stateMutability": "view",
      "type": "function"
    },
    {
      "inputs": [],
      "name": "getEarnedRewardTokens_msgSender",
      "outputs": [
        {
          "internalType": "uint256",
          "name": "",
          "type": "uint256"
        }
      ],
      "stateMutability": "view",
      "type": "function"
    },
    {
      "inputs": [],
      "name": "getRewardTokenBalance",
      "outputs": [
        {
          "internalType": "uint256",
          "name": "balance",
          "type": "uint256"
        }
      ],
      "stateMutability": "view",
      "type": "function"
    },
    {
      "inputs": [
        {
          "internalType": "bytes32",
          "name": "role",
          "type": "bytes32"
        }
      ],
      "name": "getRoleAdmin",
      "outputs": [
        {
          "internalType": "bytes32",
          "name": "",
          "type": "bytes32"
        }
      ],
      "stateMutability": "view",
      "type": "function"
    },
    {
      "inputs": [
        {
          "internalType": "address",
          "name": "_staker",
          "type": "address"
        }
      ],
      "name": "getUnlockTime",
      "outputs": [
        {
          "internalType": "uint48",
          "name": "unlockTime",
          "type": "uint48"
        }
      ],
      "stateMutability": "view",
      "type": "function"
    },
    {
      "inputs": [],
      "name": "getUnlockTime_msgSender",
      "outputs": [
        {
          "internalType": "uint48",
          "name": "unlockTime",
          "type": "uint48"
        }
      ],
      "stateMutability": "view",
      "type": "function"
    },
    {
      "inputs": [
        {
          "internalType": "bytes32",
          "name": "role",
          "type": "bytes32"
        },
        {
          "internalType": "address",
          "name": "account",
          "type": "address"
        }
      ],
      "name": "grantRole",
      "outputs": [],
      "stateMutability": "nonpayable",
      "type": "function"
    },
    {
      "inputs": [
        {
          "internalType": "bytes32",
          "name": "role",
          "type": "bytes32"
        },
        {
          "internalType": "address",
          "name": "account",
          "type": "address"
        }
      ],
      "name": "hasRole",
      "outputs": [
        {
          "internalType": "bool",
          "name": "",
          "type": "bool"
        }
      ],
      "stateMutability": "view",
      "type": "function"
    },
    {
      "inputs": [
        {
          "internalType": "address",
          "name": "spender",
          "type": "address"
        },
        {
          "internalType": "uint256",
          "name": "addedValue",
          "type": "uint256"
        }
      ],
      "name": "increaseAllowance",
      "outputs": [
        {
          "internalType": "bool",
          "name": "",
          "type": "bool"
        }
      ],
      "stateMutability": "nonpayable",
      "type": "function"
    },
    {
      "inputs": [],
      "name": "lockTimePeriod",
      "outputs": [
        {
          "internalType": "uint48",
          "name": "",
          "type": "uint48"
        }
      ],
      "stateMutability": "view",
      "type": "function"
    },
    {
      "inputs": [],
      "name": "name",
      "outputs": [
        {
          "internalType": "string",
          "name": "",
          "type": "string"
        }
      ],
      "stateMutability": "view",
      "type": "function"
    },
    {
      "inputs": [
        {
          "internalType": "address",
          "name": "_tokenAddress",
          "type": "address"
        }
      ],
      "name": "removeOtherERC20Tokens",
      "outputs": [],
      "stateMutability": "nonpayable",
      "type": "function"
    },
    {
      "inputs": [
        {
          "internalType": "bytes32",
          "name": "role",
          "type": "bytes32"
        },
        {
          "internalType": "address",
          "name": "account",
          "type": "address"
        }
      ],
      "name": "renounceRole",
      "outputs": [],
      "stateMutability": "nonpayable",
      "type": "function"
    },
    {
      "inputs": [
        {
          "internalType": "bytes32",
          "name": "role",
          "type": "bytes32"
        },
        {
          "internalType": "address",
          "name": "account",
          "type": "address"
        }
      ],
      "name": "revokeRole",
      "outputs": [],
      "stateMutability": "nonpayable",
      "type": "function"
    },
    {
      "inputs": [],
      "name": "rewardToken",
      "outputs": [
        {
          "internalType": "address",
          "name": "",
          "type": "address"
        }
      ],
      "stateMutability": "view",
      "type": "function"
    },
    {
      "inputs": [
        {
          "internalType": "uint48",
          "name": "_lockTimePeriod",
          "type": "uint48"
        }
      ],
      "name": "setLockTimePeriod",
      "outputs": [],
      "stateMutability": "nonpayable",
      "type": "function"
    },
    {
      "inputs": [
        {
          "internalType": "address",
          "name": "newRewardToken",
          "type": "address"
        }
      ],
      "name": "setRewardToken",
      "outputs": [],
      "stateMutability": "nonpayable",
      "type": "function"
    },
    {
      "inputs": [
        {
          "internalType": "uint48",
          "name": "_stakeRewardEndTime",
          "type": "uint48"
        }
      ],
      "name": "setStakeRewardEndTime",
      "outputs": [],
      "stateMutability": "nonpayable",
      "type": "function"
    },
    {
      "inputs": [
        {
          "internalType": "uint256",
          "name": "_stakeRewardFactor",
          "type": "uint256"
        }
      ],
      "name": "setStakeRewardFactor",
      "outputs": [],
      "stateMutability": "nonpayable",
      "type": "function"
    },
    {
      "inputs": [
        {
          "internalType": "uint256",
          "name": "_amount",
          "type": "uint256"
        }
      ],
      "name": "stake",
      "outputs": [
        {
          "internalType": "uint256",
          "name": "",
          "type": "uint256"
        }
      ],
      "stateMutability": "nonpayable",
      "type": "function"
    },
    {
      "inputs": [
        {
          "internalType": "address",
          "name": "_staker",
          "type": "address"
        }
      ],
      "name": "stakeAmount",
      "outputs": [
        {
          "internalType": "uint256",
          "name": "balance",
          "type": "uint256"
        }
      ],
      "stateMutability": "view",
      "type": "function"
    },
    {
      "inputs": [],
      "name": "stakeAmount_msgSender",
      "outputs": [
        {
          "internalType": "uint256",
          "name": "",
          "type": "uint256"
        }
      ],
      "stateMutability": "view",
      "type": "function"
    },
    {
      "inputs": [],
      "name": "stakeRewardEndTime",
      "outputs": [
        {
          "internalType": "uint48",
          "name": "",
          "type": "uint48"
        }
      ],
      "stateMutability": "view",
      "type": "function"
    },
    {
      "inputs": [],
      "name": "stakeRewardFactor",
      "outputs": [
        {
          "internalType": "uint256",
          "name": "",
          "type": "uint256"
        }
      ],
      "stateMutability": "view",
      "type": "function"
    },
    {
      "inputs": [
        {
          "internalType": "address",
          "name": "_staker",
          "type": "address"
        }
      ],
      "name": "stakeTime",
      "outputs": [
        {
          "internalType": "uint48",
          "name": "dateTime",
          "type": "uint48"
        }
      ],
      "stateMutability": "view",
      "type": "function"
    },
    {
      "inputs": [],
      "name": "stakeTime_msgSender",
      "outputs": [
        {
          "internalType": "uint48",
          "name": "",
          "type": "uint48"
        }
      ],
      "stateMutability": "view",
      "type": "function"
    },
    {
      "inputs": [],
      "name": "stakingToken",
      "outputs": [
        {
          "internalType": "address",
          "name": "",
          "type": "address"
        }
      ],
      "stateMutability": "view",
      "type": "function"
    },
    {
      "inputs": [
        {
          "internalType": "bytes4",
          "name": "interfaceId",
          "type": "bytes4"
        }
      ],
      "name": "supportsInterface",
      "outputs": [
        {
          "internalType": "bool",
          "name": "",
          "type": "bool"
        }
      ],
      "stateMutability": "view",
      "type": "function"
    },
    {
      "inputs": [],
      "name": "symbol",
      "outputs": [
        {
          "internalType": "string",
          "name": "",
          "type": "string"
        }
      ],
      "stateMutability": "view",
      "type": "function"
    },
    {
      "inputs": [],
      "name": "tokenTotalStaked",
      "outputs": [
        {
          "internalType": "uint256",
          "name": "",
          "type": "uint256"
        }
      ],
      "stateMutability": "view",
      "type": "function"
    },
    {
      "inputs": [],
      "name": "totalSupply",
      "outputs": [
        {
          "internalType": "uint256",
          "name": "",
          "type": "uint256"
        }
      ],
      "stateMutability": "view",
      "type": "function"
    },
    {
      "inputs": [
        {
          "internalType": "address",
          "name": "recipient",
          "type": "address"
        },
        {
          "internalType": "uint256",
          "name": "amount",
          "type": "uint256"
        }
      ],
      "name": "transfer",
      "outputs": [
        {
          "internalType": "bool",
          "name": "",
          "type": "bool"
        }
      ],
      "stateMutability": "nonpayable",
      "type": "function"
    },
    {
      "inputs": [
        {
          "internalType": "address",
          "name": "sender",
          "type": "address"
        },
        {
          "internalType": "address",
          "name": "recipient",
          "type": "address"
        },
        {
          "internalType": "uint256",
          "name": "amount",
          "type": "uint256"
        }
      ],
      "name": "transferFrom",
      "outputs": [
        {
          "internalType": "bool",
          "name": "",
          "type": "bool"
        }
      ],
      "stateMutability": "nonpayable",
      "type": "function"
    },
    {
      "inputs": [
        {
          "internalType": "address",
          "name": "_staker",
          "type": "address"
        }
      ],
      "name": "userAccumulatedRewards",
      "outputs": [
        {
          "internalType": "uint256",
          "name": "rewards",
          "type": "uint256"
        }
      ],
      "stateMutability": "view",
      "type": "function"
    },
    {
      "inputs": [],
      "name": "userAccumulatedRewards_msgSender",
      "outputs": [
        {
          "internalType": "uint256",
          "name": "",
          "type": "uint256"
        }
      ],
      "stateMutability": "view",
      "type": "function"
    },
    {
      "inputs": [
        {
          "internalType": "address",
          "name": "_staker",
          "type": "address"
        }
      ],
      "name": "userClaimableRewards",
      "outputs": [
        {
          "internalType": "uint256",
          "name": "",
          "type": "uint256"
        }
      ],
      "stateMutability": "view",
      "type": "function"
    },
    {
      "inputs": [],
      "name": "userClaimableRewards_msgSender",
      "outputs": [
        {
          "internalType": "uint256",
          "name": "",
          "type": "uint256"
        }
      ],
      "stateMutability": "view",
      "type": "function"
    },
    {
      "inputs": [
        {
          "internalType": "address",
          "name": "",
          "type": "address"
        }
      ],
      "name": "userMap",
      "outputs": [
        {
          "internalType": "uint48",
          "name": "stakeTime",
          "type": "uint48"
        },
        {
          "internalType": "uint48",
          "name": "unlockTime",
          "type": "uint48"
        },
        {
          "internalType": "uint160",
          "name": "stakeAmount",
          "type": "uint160"
        },
        {
          "internalType": "uint256",
          "name": "accumulatedRewards",
          "type": "uint256"
        }
      ],
      "stateMutability": "view",
      "type": "function"
    },
    {
      "inputs": [
        {
          "internalType": "address",
          "name": "_staker",
          "type": "address"
        }
      ],
      "name": "userTotalRewards",
      "outputs": [
        {
          "internalType": "uint256",
          "name": "",
          "type": "uint256"
        }
      ],
      "stateMutability": "view",
      "type": "function"
    },
    {
      "inputs": [],
      "name": "userTotalRewards_msgSender",
      "outputs": [
        {
          "internalType": "uint256",
          "name": "",
          "type": "uint256"
        }
      ],
      "stateMutability": "view",
      "type": "function"
    },
    {
      "inputs": [
        {
          "internalType": "uint256",
          "name": "amount",
          "type": "uint256"
        }
      ],
      "name": "withdraw",
      "outputs": [
        {
          "internalType": "uint256",
          "name": "",
          "type": "uint256"
        }
      ],
      "stateMutability": "nonpayable",
      "type": "function"
    },
    {
      "inputs": [],
      "name": "withdrawAll",
      "outputs": [
        {
          "internalType": "uint256",
          "name": "",
          "type": "uint256"
        }
      ],
      "stateMutability": "nonpayable",
      "type": "function"
    }
  ],
  "bytecode": "0x608060405234801561001057600080fd5b50614670806100206000396000f3fe608060405234801561001057600080fd5b506004361061030c5760003560e01c8063872b26da1161019d578063aaa748d3116100e9578063de3717fc116100a2578063ee61e0cd1161007c578063ee61e0cd146109fc578063f3b95cd714610a18578063f6a3f3cf14610a34578063f7c618c114610a645761030c565b8063de3717fc14610992578063dfdf35c4146109b0578063ee2d505e146109cc5761030c565b8063aaa748d3146108aa578063bf135267146108c8578063d547741f146108f8578063d953a86714610914578063dbed1e8814610932578063dd62ed3e146109625761030c565b806395d89b4111610156578063a38a57c411610130578063a38a57c4146107fc578063a457c2d71461081a578063a694fc3a1461084a578063a9059cbb1461087a5761030c565b806395d89b41146107a25780639a7cc1b8146107c0578063a217fddf146107de5761030c565b8063872b26da146106e057806387f075d9146106fe5780638aee81271461071c5780638efb31c71461073857806391d148541461075457806393ce5343146107845761030c565b80632e1a7d4d1161025c5780634e71d92d116102155780636bb64e23116101ef5780636bb64e231461065657806370a082311461067457806372f702f3146106a4578063853828b6146106c25761030c565b80634e71d92d146105fe5780635951eff11461061c5780635bd4b5df146106385761030c565b80632e1a7d4d1461052a5780632f2ff15d1461055a578063313ce5671461057657806336568abe1461059457806339509351146105b05780633cb2efc9146105e05761030c565b806318160ddd116102c9578063248a9ca3116102a3578063248a9ca31461048b57806326949984146104bb578063282c51f3146104d95780632bcc23f8146104f75761030c565b806318160ddd1461040d5780632170e4721461042b57806323b872dd1461045b5761030c565b806301ffc9a7146103115780630584bd091461034157806306fdde031461037157806307dc1e1a1461038f578063095ea7b3146103ad57806309ef67e6146103dd575b600080fd5b61032b60048036038101906103269190613301565b610a82565b6040516103389190613349565b60405180910390f35b61035b600480360381019061035691906133c2565b610afc565b6040516103689190613408565b60405180910390f35b610379610ca1565b60405161038691906134bc565b60405180910390f35b610397610d33565b6040516103a49190613408565b60405180910390f35b6103c760048036038101906103c2919061350a565b610d7d565b6040516103d49190613349565b60405180910390f35b6103f760048036038101906103f291906133c2565b610d9b565b6040516104049190613408565b60405180910390f35b610415610de7565b6040516104229190613408565b60405180910390f35b610445600480360381019061044091906133c2565b610df1565b604051610452919061356b565b60405180910390f35b61047560048036038101906104709190613586565b610e4f565b6040516104829190613349565b60405180910390f35b6104a560048036038101906104a0919061360f565b610f47565b6040516104b2919061364b565b60405180910390f35b6104c3610f67565b6040516104d0919061356b565b60405180910390f35b6104e1610f71565b6040516104ee919061364b565b60405180910390f35b610511600480360381019061050c91906133c2565b610f95565b6040516105219493929190613675565b60405180910390f35b610544600480360381019061053f91906136ba565b611009565b6040516105519190613408565b60405180910390f35b610574600480360381019061056f91906136e7565b61102b565b005b61057e61104c565b60405161058b9190613743565b60405180910390f35b6105ae60048036038101906105a991906136e7565b611055565b005b6105ca60048036038101906105c5919061350a565b6110d8565b6040516105d79190613349565b60405180910390f35b6105e8611184565b6040516105f5919061356b565b60405180910390f35b610606611194565b6040516106139190613408565b60405180910390f35b610636600480360381019061063191906133c2565b6111b3565b005b6106406113b8565b60405161064d9190613408565b60405180910390f35b61065e6113c8565b60405161066b9190613408565b60405180910390f35b61068e600480360381019061068991906133c2565b611448565b60405161069b9190613408565b60405180910390f35b6106ac6114ca565b6040516106b9919061376d565b60405180910390f35b6106ca6114f0565b6040516106d79190613408565b60405180910390f35b6106e8611517565b6040516106f59190613408565b60405180910390f35b61070661151d565b6040516107139190613408565b60405180910390f35b610736600480360381019061073191906133c2565b611523565b005b610752600480360381019061074d91906136ba565b6116a8565b005b61076e600480360381019061076991906136e7565b6116f7565b60405161077b9190613349565b60405180910390f35b61078c611762565b6040516107999190613408565b60405180910390f35b6107aa6118ee565b6040516107b791906134bc565b60405180910390f35b6107c8611980565b6040516107d59190613408565b60405180910390f35b6107e6611990565b6040516107f3919061364b565b60405180910390f35b610804611997565b604051610811919061356b565b60405180910390f35b610834600480360381019061082f919061350a565b6119af565b6040516108419190613349565b60405180910390f35b610864600480360381019061085f91906136ba565b611a9a565b6040516108719190613408565b60405180910390f35b610894600480360381019061088f919061350a565b611abc565b6040516108a19190613349565b60405180910390f35b6108b2611ada565b6040516108bf919061356b565b60405180910390f35b6108e260048036038101906108dd91906133c2565b611b36565b6040516108ef9190613408565b60405180910390f35b610912600480360381019061090d91906136e7565b611bb8565b005b61091c611bd9565b604051610929919061356b565b60405180910390f35b61094c600480360381019061094791906133c2565b611bf1565b604051610959919061356b565b60405180910390f35b61097c60048036038101906109779190613788565b611cdb565b6040516109899190613408565b60405180910390f35b61099a611d62565b6040516109a79190613408565b60405180910390f35b6109ca60048036038101906109c591906137f4565b611d72565b005b6109e660048036038101906109e191906133c2565b611e3d565b6040516109f39190613408565b60405180910390f35b610a166004803603810190610a1191906137f4565b611ec9565b005b610a326004803603810190610a2d919061350a565b611f36565b005b610a4e6004803603810190610a4991906133c2565b611ff8565b604051610a5b9190613408565b60405180910390f35b610a6c612057565b604051610a79919061376d565b60405180910390f35b60007f7965db0b000000000000000000000000000000000000000000000000000000007bffffffffffffffffffffffffffffffffffffffffffffffffffffffff1916827bffffffffffffffffffffffffffffffffffffffffffffffffffffffff19161480610af55750610af48261207d565b5b9050919050565b60008060ca60008473ffffffffffffffffffffffffffffffffffffffff1673ffffffffffffffffffffffffffffffffffffffff16815260200190815260200160002090508060000160009054906101000a900465ffffffffffff1665ffffffffffff164211610b6f576000915050610c9c565b8060000160009054906101000a900465ffffffffffff1665ffffffffffff1660cd601a9054906101000a900465ffffffffffff1665ffffffffffff1611610bba576000915050610c9c565b600060cd601a9054906101000a900465ffffffffffff1665ffffffffffff164211610c10578160000160009054906101000a900465ffffffffffff1665ffffffffffff1642610c099190613850565b9050610c51565b8160000160009054906101000a900465ffffffffffff1660cd601a9054906101000a900465ffffffffffff16610c469190613884565b65ffffffffffff1690505b81600001600c9054906101000a900473ffffffffffffffffffffffffffffffffffffffff1673ffffffffffffffffffffffffffffffffffffffff1681610c9791906138b8565b925050505b919050565b606060378054610cb090613941565b80601f0160208091040260200160405190810160405280929190818152602001828054610cdc90613941565b8015610d295780601f10610cfe57610100808354040283529160200191610d29565b820191906000526020600020905b815481529060010190602001808311610d0c57829003601f168201915b5050505050905090565b600060ca60003373ffffffffffffffffffffffffffffffffffffffff1673ffffffffffffffffffffffffffffffffffffffff16815260200190815260200160002060010154905090565b6000610d91610d8a6120e7565b84846120ef565b6001905092915050565b600060ca60008373ffffffffffffffffffffffffffffffffffffffff1673ffffffffffffffffffffffffffffffffffffffff168152602001908152602001600020600101549050919050565b6000603654905090565b600060ca60008373ffffffffffffffffffffffffffffffffffffffff1673ffffffffffffffffffffffffffffffffffffffff16815260200190815260200160002060000160009054906101000a900465ffffffffffff169050919050565b6000610e5c8484846122ba565b6000603560008673ffffffffffffffffffffffffffffffffffffffff1673ffffffffffffffffffffffffffffffffffffffff1681526020019081526020016000206000610ea76120e7565b73ffffffffffffffffffffffffffffffffffffffff1673ffffffffffffffffffffffffffffffffffffffff16815260200190815260200160002054905082811015610f27576040517f08c379a0000000000000000000000000000000000000000000000000000000008152600401610f1e906139e5565b60405180910390fd5b610f3b85610f336120e7565b8584036120ef565b60019150509392505050565b600060986000838152602001908152602001600020600101549050919050565b65ffffffffffff81565b7f3c11d16cbaffd01df69ce1c404f6340ee057498f5f00246190ea54220576a84881565b60ca6020528060005260406000206000915090508060000160009054906101000a900465ffffffffffff16908060000160069054906101000a900465ffffffffffff169080600001600c9054906101000a900473ffffffffffffffffffffffffffffffffffffffff16908060010154905084565b600061101361245e565b61101c826124ae565b9050611026612762565b919050565b61103482610f47565b61103d8161276b565b611047838361277f565b505050565b60006012905090565b61105d6120e7565b73ffffffffffffffffffffffffffffffffffffffff168173ffffffffffffffffffffffffffffffffffffffff16146110ca576040517f08c379a00000000000000000000000000000000000000000000000000000000081526004016110c190613a77565b60405180910390fd5b6110d48282612860565b5050565b600061117a6110e56120e7565b8484603560006110f36120e7565b73ffffffffffffffffffffffffffffffffffffffff1673ffffffffffffffffffffffffffffffffffffffff16815260200190815260200160002060008873ffffffffffffffffffffffffffffffffffffffff1673ffffffffffffffffffffffffffffffffffffffff168152602001908152602001600020546111759190613a97565b6120ef565b6001905092915050565b600061118f33611bf1565b905090565b600061119e61245e565b6111a6612942565b90506111b0612762565b90565b6000801b6111c08161276b565b60cc60009054906101000a900473ffffffffffffffffffffffffffffffffffffffff1673ffffffffffffffffffffffffffffffffffffffff168273ffffffffffffffffffffffffffffffffffffffff161415611251576040517f08c379a000000000000000000000000000000000000000000000000000000000815260040161124890613b39565b60405180910390fd5b60008273ffffffffffffffffffffffffffffffffffffffff166370a08231306040518263ffffffff1660e01b815260040161128c919061376d565b602060405180830381865afa1580156112a9573d6000803e3d6000fd5b505050506040513d601f19601f820116820180604052508101906112cd9190613b6e565b90508273ffffffffffffffffffffffffffffffffffffffff1663a9059cbb33836040518363ffffffff1660e01b815260040161130a929190613b9b565b6020604051808303816000875af1158015611329573d6000803e3d6000fd5b505050506040513d601f19601f8201168201806040525081019061134d9190613bf0565b503373ffffffffffffffffffffffffffffffffffffffff168373ffffffffffffffffffffffffffffffffffffffff167f4c9443772ec3472e2ea8a88e5c31e6bb75e94541dc672d5ca2a1197ada10b598836040516113ab9190613408565b60405180910390a3505050565b60006113c333610afc565b905090565b600060ca60003373ffffffffffffffffffffffffffffffffffffffff1673ffffffffffffffffffffffffffffffffffffffff168152602001908152602001600020600001600c9054906101000a900473ffffffffffffffffffffffffffffffffffffffff1673ffffffffffffffffffffffffffffffffffffffff16905090565b600060ca60008373ffffffffffffffffffffffffffffffffffffffff1673ffffffffffffffffffffffffffffffffffffffff168152602001908152602001600020600001600c9054906101000a900473ffffffffffffffffffffffffffffffffffffffff1673ffffffffffffffffffffffffffffffffffffffff169050919050565b60cc60009054906101000a900473ffffffffffffffffffffffffffffffffffffffff1681565b60006114fa61245e565b61150a6115056113c8565b6124ae565b9050611514612762565b90565b60cb5481565b60ce5481565b61152b61245e565b6000801b6115388161276b565b600060cd60009054906101000a900473ffffffffffffffffffffffffffffffffffffffff1690506000611569611762565b905060008111156115f4578173ffffffffffffffffffffffffffffffffffffffff1663a9059cbb33836040518363ffffffff1660e01b81526004016115af929190613b9b565b6020604051808303816000875af11580156115ce573d6000803e3d6000fd5b505050506040513d601f19601f820116820180604052508101906115f29190613bf0565b505b8360cd60006101000a81548173ffffffffffffffffffffffffffffffffffffffff021916908373ffffffffffffffffffffffffffffffffffffffff1602179055508373ffffffffffffffffffffffffffffffffffffffff168273ffffffffffffffffffffffffffffffffffffffff167fc133375757269458a329c73a344c8ef483535870f46ed4cd332f857a5ef525d0836040516116929190613408565b60405180910390a35050506116a5612762565b50565b6000801b6116b58161276b565b8160ce819055507f929e0b2903ee7e8bb87bf220a340db1f5551e7042e5f2567ed08117c0709fa21826040516116eb9190613408565b60405180910390a15050565b60006098600084815260200190815260200160002060000160008373ffffffffffffffffffffffffffffffffffffffff1673ffffffffffffffffffffffffffffffffffffffff16815260200190815260200160002060009054906101000a900460ff16905092915050565b60008073ffffffffffffffffffffffffffffffffffffffff1660cd60009054906101000a900473ffffffffffffffffffffffffffffffffffffffff1673ffffffffffffffffffffffffffffffffffffffff1614156117c357600090506118eb565b60cd60009054906101000a900473ffffffffffffffffffffffffffffffffffffffff1673ffffffffffffffffffffffffffffffffffffffff166370a08231306040518263ffffffff1660e01b815260040161181e919061376d565b602060405180830381865afa15801561183b573d6000803e3d6000fd5b505050506040513d601f19601f8201168201806040525081019061185f9190613b6e565b905060cd60009054906101000a900473ffffffffffffffffffffffffffffffffffffffff1673ffffffffffffffffffffffffffffffffffffffff1660cc60009054906101000a900473ffffffffffffffffffffffffffffffffffffffff1673ffffffffffffffffffffffffffffffffffffffff1614156118ea5760cb54816118e79190613850565b90505b5b90565b6060603880546118fd90613941565b80601f016020809104026020016040519081016040528092919081815260200182805461192990613941565b80156119765780601f1061194b57610100808354040283529160200191611976565b820191906000526020600020905b81548152906001019060200180831161195957829003601f168201915b5050505050905090565b600061198b33611e3d565b905090565b6000801b81565b60cd601a9054906101000a900465ffffffffffff1681565b600080603560006119be6120e7565b73ffffffffffffffffffffffffffffffffffffffff1673ffffffffffffffffffffffffffffffffffffffff16815260200190815260200160002060008573ffffffffffffffffffffffffffffffffffffffff1673ffffffffffffffffffffffffffffffffffffffff16815260200190815260200160002054905082811015611a7b576040517f08c379a0000000000000000000000000000000000000000000000000000000008152600401611a7290613c8f565b60405180910390fd5b611a8f611a866120e7565b858584036120ef565b600191505092915050565b6000611aa461245e565b611aad82612c1b565b9050611ab7612762565b919050565b6000611ad0611ac96120e7565b84846122ba565b6001905092915050565b600060ca60003373ffffffffffffffffffffffffffffffffffffffff1673ffffffffffffffffffffffffffffffffffffffff16815260200190815260200160002060000160009054906101000a900465ffffffffffff16905090565b600060ca60008373ffffffffffffffffffffffffffffffffffffffff1673ffffffffffffffffffffffffffffffffffffffff168152602001908152602001600020600001600c9054906101000a900473ffffffffffffffffffffffffffffffffffffffff1673ffffffffffffffffffffffffffffffffffffffff169050919050565b611bc182610f47565b611bca8161276b565b611bd48383612860565b505050565b60cd60149054906101000a900465ffffffffffff1681565b60008060ca60008473ffffffffffffffffffffffffffffffffffffffff1673ffffffffffffffffffffffffffffffffffffffff168152602001908152602001600020600001600c9054906101000a900473ffffffffffffffffffffffffffffffffffffffff1673ffffffffffffffffffffffffffffffffffffffff1611611c7e5765ffffffffffff611cd4565b60ca60008373ffffffffffffffffffffffffffffffffffffffff1673ffffffffffffffffffffffffffffffffffffffff16815260200190815260200160002060000160069054906101000a900465ffffffffffff165b9050919050565b6000603560008473ffffffffffffffffffffffffffffffffffffffff1673ffffffffffffffffffffffffffffffffffffffff16815260200190815260200160002060008373ffffffffffffffffffffffffffffffffffffffff1673ffffffffffffffffffffffffffffffffffffffff16815260200190815260200160002054905092915050565b6000611d6d33611ff8565b905090565b6000801b611d7f8161276b565b4260cd601a9054906101000a900465ffffffffffff1665ffffffffffff1611611ddd576040517f08c379a0000000000000000000000000000000000000000000000000000000008152600401611dd490613cfb565b60405180910390fd5b8160cd601a6101000a81548165ffffffffffff021916908365ffffffffffff1602179055507fb8ec1a7db76539d0a932b67153298ec5ba41b1f965bd5f66e9419431d517291a82604051611e31919061356b565b60405180910390a15050565b60008073ffffffffffffffffffffffffffffffffffffffff1660cd60009054906101000a900473ffffffffffffffffffffffffffffffffffffffff1673ffffffffffffffffffffffffffffffffffffffff161480611e9d5750600060ce54145b15611eab5760009050611ec4565b60ce54611eb783611ff8565b611ec19190613d4a565b90505b919050565b6000801b611ed68161276b565b8160cd60146101000a81548165ffffffffffff021916908365ffffffffffff1602179055507fe9f020bdf01408388704d87e8162e06252d160de9f8cc075b32ce7ebbebc263e82604051611f2a919061356b565b60405180910390a15050565b7f3c11d16cbaffd01df69ce1c404f6340ee057498f5f00246190ea54220576a848611f608161276b565b6000611f6b84612e6f565b90508060010154831015611f995782816001016000828254611f8d9190613850565b92505081905550611fa4565b600081600101819055505b8373ffffffffffffffffffffffffffffffffffffffff167f33e88885e6abd26d1f3ea3b4b37c2f6e0ff31fa24c7721763eca867537bdf5d284604051611fea9190613408565b60405180910390a250505050565b600060ca60008373ffffffffffffffffffffffffffffffffffffffff1673ffffffffffffffffffffffffffffffffffffffff1681526020019081526020016000206001015461204683610afc565b6120509190613a97565b9050919050565b60cd60009054906101000a900473ffffffffffffffffffffffffffffffffffffffff1681565b60007f01ffc9a7000000000000000000000000000000000000000000000000000000007bffffffffffffffffffffffffffffffffffffffffffffffffffffffff1916827bffffffffffffffffffffffffffffffffffffffffffffffffffffffff1916149050919050565b600033905090565b600073ffffffffffffffffffffffffffffffffffffffff168373ffffffffffffffffffffffffffffffffffffffff16141561215f576040517f08c379a000000000000000000000000000000000000000000000000000000000815260040161215690613ded565b60405180910390fd5b600073ffffffffffffffffffffffffffffffffffffffff168273ffffffffffffffffffffffffffffffffffffffff1614156121cf576040517f08c379a00000000000000000000000000000000000000000000000000000000081526004016121c690613e7f565b60405180910390fd5b80603560008573ffffffffffffffffffffffffffffffffffffffff1673ffffffffffffffffffffffffffffffffffffffff16815260200190815260200160002060008473ffffffffffffffffffffffffffffffffffffffff1673ffffffffffffffffffffffffffffffffffffffff168152602001908152602001600020819055508173ffffffffffffffffffffffffffffffffffffffff168373ffffffffffffffffffffffffffffffffffffffff167f8c5be1e5ebec7d5bd14f71427d1e84f3dd0314c0f7b2291e5b200ac8c7c3b925836040516122ad9190613408565b60405180910390a3505050565b6122c5838383612f09565b6000603460008573ffffffffffffffffffffffffffffffffffffffff1673ffffffffffffffffffffffffffffffffffffffff1681526020019081526020016000205490508181101561234c576040517f08c379a000000000000000000000000000000000000000000000000000000000815260040161234390613f11565b60405180910390fd5b818103603460008673ffffffffffffffffffffffffffffffffffffffff1673ffffffffffffffffffffffffffffffffffffffff1681526020019081526020016000208190555081603460008573ffffffffffffffffffffffffffffffffffffffff1673ffffffffffffffffffffffffffffffffffffffff16815260200190815260200160002060008282546123e19190613a97565b925050819055508273ffffffffffffffffffffffffffffffffffffffff168473ffffffffffffffffffffffffffffffffffffffff167fddf252ad1be2c89b69c2b068fc378daa952ba7f163c4a11628f55a4df523b3ef846040516124459190613408565b60405180910390a3612458848484612f0e565b50505050565b600260015414156124a4576040517f08c379a000000000000000000000000000000000000000000000000000000000815260040161249b90613f7d565b60405180910390fd5b6002600181905550565b60008082116124f2576040517f08c379a00000000000000000000000000000000000000000000000000000000081526004016124e990613fe9565b60405180910390fd5b6124fb33611bf1565b65ffffffffffff164211612544576040517f08c379a000000000000000000000000000000000000000000000000000000000815260040161253b90614055565b60405180910390fd5b600061254f33612e6f565b905080600001600c9054906101000a900473ffffffffffffffffffffffffffffffffffffffff1673ffffffffffffffffffffffffffffffffffffffff168311156125ce576040517f08c379a00000000000000000000000000000000000000000000000000000000081526004016125c5906140c1565b60405180910390fd5b6125d783612f13565b81600001600c8282829054906101000a900473ffffffffffffffffffffffffffffffffffffffff1661260991906140e1565b92506101000a81548173ffffffffffffffffffffffffffffffffffffffff021916908373ffffffffffffffffffffffffffffffffffffffff1602179055508260cb60008282546126599190613850565b9250508190555060cc60009054906101000a900473ffffffffffffffffffffffffffffffffffffffff1673ffffffffffffffffffffffffffffffffffffffff1663a9059cbb33856040518363ffffffff1660e01b81526004016126bd929190613b9b565b6020604051808303816000875af11580156126dc573d6000803e3d6000fd5b505050506040513d601f19601f820116820180604052508101906127009190613bf0565b503373ffffffffffffffffffffffffffffffffffffffff167ff279e6a1f5e320cca91135676d9cb6e44ca8a08c0b88342bcdb1144f6511b5688461274342612f76565b604051612751929190614150565b60405180910390a282915050919050565b60018081905550565b61277c816127776120e7565b612fcb565b50565b61278982826116f7565b61285c5760016098600084815260200190815260200160002060000160008373ffffffffffffffffffffffffffffffffffffffff1673ffffffffffffffffffffffffffffffffffffffff16815260200190815260200160002060006101000a81548160ff0219169083151502179055506128016120e7565b73ffffffffffffffffffffffffffffffffffffffff168173ffffffffffffffffffffffffffffffffffffffff16837f2f8788117e7eff1d82e926ec794901d17c78024a50270940304540a733656f0d60405160405180910390a45b5050565b61286a82826116f7565b1561293e5760006098600084815260200190815260200160002060000160008373ffffffffffffffffffffffffffffffffffffffff1673ffffffffffffffffffffffffffffffffffffffff16815260200190815260200160002060006101000a81548160ff0219169083151502179055506128e36120e7565b73ffffffffffffffffffffffffffffffffffffffff168173ffffffffffffffffffffffffffffffffffffffff16837ff6391f5c32d9c69d2a47ea670b442974b53935d1edc7fd64eb21e047a839171b60405160405180910390a45b5050565b60008073ffffffffffffffffffffffffffffffffffffffff1660cd60009054906101000a900473ffffffffffffffffffffffffffffffffffffffff1673ffffffffffffffffffffffffffffffffffffffff1614156129d5576040517f08c379a00000000000000000000000000000000000000000000000000000000081526004016129cc906141c5565b60405180910390fd5b60006129e033611e3d565b905060008111612a25576040517f08c379a0000000000000000000000000000000000000000000000000000000008152600401612a1c90614231565b60405180910390fd5b600060ca60003373ffffffffffffffffffffffffffffffffffffffff1673ffffffffffffffffffffffffffffffffffffffff168152602001908152602001600020905060008160010181905550612a7b42612f76565b8160000160006101000a81548165ffffffffffff021916908365ffffffffffff160217905550612aa9611762565b821115612aeb576040517f08c379a0000000000000000000000000000000000000000000000000000000008152600401612ae29061429d565b60405180910390fd5b60cd60009054906101000a900473ffffffffffffffffffffffffffffffffffffffff1673ffffffffffffffffffffffffffffffffffffffff1663a9059cbb33846040518363ffffffff1660e01b8152600401612b48929190613b9b565b6020604051808303816000875af1158015612b67573d6000803e3d6000fd5b505050506040513d601f19601f82011682018060405250810190612b8b9190613bf0565b5060cd60009054906101000a900473ffffffffffffffffffffffffffffffffffffffff1673ffffffffffffffffffffffffffffffffffffffff163373ffffffffffffffffffffffffffffffffffffffff167ff7a40077ff7a04c7e61f6f26fb13774259ddf1b6bce9ecf26a8276cdd399268384604051612c0b9190613408565b60405180910390a3819250505090565b6000808211612c5f576040517f08c379a0000000000000000000000000000000000000000000000000000000008152600401612c5690614309565b60405180910390fd5b6000612c6a33612e6f565b9050612cba8382600001600c9054906101000a900473ffffffffffffffffffffffffffffffffffffffff1673ffffffffffffffffffffffffffffffffffffffff16612cb59190613a97565b612f13565b81600001600c6101000a81548173ffffffffffffffffffffffffffffffffffffffff021916908373ffffffffffffffffffffffffffffffffffffffff1602179055508260cb6000828254612d0e9190613a97565b92505081905550612d4560cd60149054906101000a900465ffffffffffff1665ffffffffffff1642612d409190613a97565b612f76565b8160000160066101000a81548165ffffffffffff021916908365ffffffffffff16021790555060cc60009054906101000a900473ffffffffffffffffffffffffffffffffffffffff1673ffffffffffffffffffffffffffffffffffffffff166323b872dd3330866040518463ffffffff1660e01b8152600401612dca93929190614329565b6020604051808303816000875af1158015612de9573d6000803e3d6000fd5b505050506040513d601f19601f82011682018060405250810190612e0d9190613bf0565b503373ffffffffffffffffffffffffffffffffffffffff167f5af417134f72a9d41143ace85b0a26dce6f550f894f2cbc1eeee8810603d91b684612e5042612f76565b604051612e5e929190614150565b60405180910390a282915050919050565b600060ca60008373ffffffffffffffffffffffffffffffffffffffff1673ffffffffffffffffffffffffffffffffffffffff1681526020019081526020016000209050612ebb82610afc565b816001016000828254612ece9190613a97565b92505081905550612ede42612f76565b8160000160006101000a81548165ffffffffffff021916908365ffffffffffff160217905550919050565b505050565b505050565b600073ffffffffffffffffffffffffffffffffffffffff8016821115612f6e576040517f08c379a0000000000000000000000000000000000000000000000000000000008152600401612f65906143ac565b60405180910390fd5b819050919050565b600065ffffffffffff8016821115612fc3576040517f08c379a0000000000000000000000000000000000000000000000000000000008152600401612fba90614418565b60405180910390fd5b819050919050565b612fd582826116f7565b61306457612ffa8173ffffffffffffffffffffffffffffffffffffffff166014613068565b6130088360001c6020613068565b60405160200161301992919061450c565b6040516020818303038152906040526040517f08c379a000000000000000000000000000000000000000000000000000000000815260040161305b91906134bc565b60405180910390fd5b5050565b60606000600283600261307b91906138b8565b6130859190613a97565b67ffffffffffffffff81111561309e5761309d614546565b5b6040519080825280601f01601f1916602001820160405280156130d05781602001600182028036833780820191505090505b5090507f30000000000000000000000000000000000000000000000000000000000000008160008151811061310857613107614575565b5b60200101907effffffffffffffffffffffffffffffffffffffffffffffffffffffffffffff1916908160001a9053507f78000000000000000000000000000000000000000000000000000000000000008160018151811061316c5761316b614575565b5b60200101907effffffffffffffffffffffffffffffffffffffffffffffffffffffffffffff1916908160001a905350600060018460026131ac91906138b8565b6131b69190613a97565b90505b6001811115613256577f3031323334353637383961626364656600000000000000000000000000000000600f8616601081106131f8576131f7614575565b5b1a60f81b82828151811061320f5761320e614575565b5b60200101907effffffffffffffffffffffffffffffffffffffffffffffffffffffffffffff1916908160001a905350600485901c94508061324f906145a4565b90506131b9565b506000841461329a576040517f08c379a00000000000000000000000000000000000000000000000000000000081526004016132919061461a565b60405180910390fd5b8091505092915050565b600080fd5b60007fffffffff0000000000000000000000000000000000000000000000000000000082169050919050565b6132de816132a9565b81146132e957600080fd5b50565b6000813590506132fb816132d5565b92915050565b600060208284031215613317576133166132a4565b5b6000613325848285016132ec565b91505092915050565b60008115159050919050565b6133438161332e565b82525050565b600060208201905061335e600083018461333a565b92915050565b600073ffffffffffffffffffffffffffffffffffffffff82169050919050565b600061338f82613364565b9050919050565b61339f81613384565b81146133aa57600080fd5b50565b6000813590506133bc81613396565b92915050565b6000602082840312156133d8576133d76132a4565b5b60006133e6848285016133ad565b91505092915050565b6000819050919050565b613402816133ef565b82525050565b600060208201905061341d60008301846133f9565b92915050565b600081519050919050565b600082825260208201905092915050565b60005b8381101561345d578082015181840152602081019050613442565b8381111561346c576000848401525b50505050565b6000601f19601f8301169050919050565b600061348e82613423565b613498818561342e565b93506134a881856020860161343f565b6134b181613472565b840191505092915050565b600060208201905081810360008301526134d68184613483565b905092915050565b6134e7816133ef565b81146134f257600080fd5b50565b600081359050613504816134de565b92915050565b60008060408385031215613521576135206132a4565b5b600061352f858286016133ad565b9250506020613540858286016134f5565b9150509250929050565b600065ffffffffffff82169050919050565b6135658161354a565b82525050565b6000602082019050613580600083018461355c565b92915050565b60008060006060848603121561359f5761359e6132a4565b5b60006135ad868287016133ad565b93505060206135be868287016133ad565b92505060406135cf868287016134f5565b9150509250925092565b6000819050919050565b6135ec816135d9565b81146135f757600080fd5b50565b600081359050613609816135e3565b92915050565b600060208284031215613625576136246132a4565b5b6000613633848285016135fa565b91505092915050565b613645816135d9565b82525050565b6000602082019050613660600083018461363c565b92915050565b61366f81613364565b82525050565b600060808201905061368a600083018761355c565b613697602083018661355c565b6136a46040830185613666565b6136b160608301846133f9565b95945050505050565b6000602082840312156136d0576136cf6132a4565b5b60006136de848285016134f5565b91505092915050565b600080604083850312156136fe576136fd6132a4565b5b600061370c858286016135fa565b925050602061371d858286016133ad565b9150509250929050565b600060ff82169050919050565b61373d81613727565b82525050565b60006020820190506137586000830184613734565b92915050565b61376781613384565b82525050565b6000602082019050613782600083018461375e565b92915050565b6000806040838503121561379f5761379e6132a4565b5b60006137ad858286016133ad565b92505060206137be858286016133ad565b9150509250929050565b6137d18161354a565b81146137dc57600080fd5b50565b6000813590506137ee816137c8565b92915050565b60006020828403121561380a576138096132a4565b5b6000613818848285016137df565b91505092915050565b7f4e487b7100000000000000000000000000000000000000000000000000000000600052601160045260246000fd5b600061385b826133ef565b9150613866836133ef565b92508282101561387957613878613821565b5b828203905092915050565b600061388f8261354a565b915061389a8361354a565b9250828210156138ad576138ac613821565b5b828203905092915050565b60006138c3826133ef565b91506138ce836133ef565b9250817fffffffffffffffffffffffffffffffffffffffffffffffffffffffffffffffff048311821515161561390757613906613821565b5b828202905092915050565b7f4e487b7100000000000000000000000000000000000000000000000000000000600052602260045260246000fd5b6000600282049050600182168061395957607f821691505b6020821081141561396d5761396c613912565b5b50919050565b7f45524332303a207472616e7366657220616d6f756e742065786365656473206160008201527f6c6c6f77616e6365000000000000000000000000000000000000000000000000602082015250565b60006139cf60288361342e565b91506139da82613973565b604082019050919050565b600060208201905081810360008301526139fe816139c2565b9050919050565b7f416363657373436f6e74726f6c3a2063616e206f6e6c792072656e6f756e636560008201527f20726f6c657320666f722073656c660000000000000000000000000000000000602082015250565b6000613a61602f8361342e565b9150613a6c82613a05565b604082019050919050565b60006020820190508181036000830152613a9081613a54565b9050919050565b6000613aa2826133ef565b9150613aad836133ef565b9250827fffffffffffffffffffffffffffffffffffffffffffffffffffffffffffffffff03821115613ae257613ae1613821565b5b828201905092915050565b7f63616e206e6f74207769746864726177207374616b696e6720746f6b656e0000600082015250565b6000613b23601e8361342e565b9150613b2e82613aed565b602082019050919050565b60006020820190508181036000830152613b5281613b16565b9050919050565b600081519050613b68816134de565b92915050565b600060208284031215613b8457613b836132a4565b5b6000613b9284828501613b59565b91505092915050565b6000604082019050613bb0600083018561375e565b613bbd60208301846133f9565b9392505050565b613bcd8161332e565b8114613bd857600080fd5b50565b600081519050613bea81613bc4565b92915050565b600060208284031215613c0657613c056132a4565b5b6000613c1484828501613bdb565b91505092915050565b7f45524332303a2064656372656173656420616c6c6f77616e63652062656c6f7760008201527f207a65726f000000000000000000000000000000000000000000000000000000602082015250565b6000613c7960258361342e565b9150613c8482613c1d565b604082019050919050565b60006020820190508181036000830152613ca881613c6c565b9050919050565b7f74696d652068617320746f20626520696e207468652066757475726500000000600082015250565b6000613ce5601c8361342e565b9150613cf082613caf565b602082019050919050565b60006020820190508181036000830152613d1481613cd8565b9050919050565b7f4e487b7100000000000000000000000000000000000000000000000000000000600052601260045260246000fd5b6000613d55826133ef565b9150613d60836133ef565b925082613d7057613d6f613d1b565b5b828204905092915050565b7f45524332303a20617070726f76652066726f6d20746865207a65726f2061646460008201527f7265737300000000000000000000000000000000000000000000000000000000602082015250565b6000613dd760248361342e565b9150613de282613d7b565b604082019050919050565b60006020820190508181036000830152613e0681613dca565b9050919050565b7f45524332303a20617070726f766520746f20746865207a65726f20616464726560008201527f7373000000000000000000000000000000000000000000000000000000000000602082015250565b6000613e6960228361342e565b9150613e7482613e0d565b604082019050919050565b60006020820190508181036000830152613e9881613e5c565b9050919050565b7f45524332303a207472616e7366657220616d6f756e742065786365656473206260008201527f616c616e63650000000000000000000000000000000000000000000000000000602082015250565b6000613efb60268361342e565b9150613f0682613e9f565b604082019050919050565b60006020820190508181036000830152613f2a81613eee565b9050919050565b7f5265656e7472616e637947756172643a207265656e7472616e742063616c6c00600082015250565b6000613f67601f8361342e565b9150613f7282613f31565b602082019050919050565b60006020820190508181036000830152613f9681613f5a565b9050919050565b7f616d6f756e7420746f207769746864726177206e6f74203e2030000000000000600082015250565b6000613fd3601a8361342e565b9150613fde82613f9d565b602082019050919050565b6000602082019050818103600083015261400281613fc6565b9050919050565b7f7374616b656420746f6b656e7320617265207374696c6c206c6f636b65640000600082015250565b600061403f601e8361342e565b915061404a82614009565b602082019050919050565b6000602082019050818103600083015261406e81614032565b9050919050565b7f776974686472617720616d6f756e74203e207374616b656420616d6f756e7400600082015250565b60006140ab601f8361342e565b91506140b682614075565b602082019050919050565b600060208201905081810360008301526140da8161409e565b9050919050565b60006140ec82613364565b91506140f783613364565b92508282101561410a57614109613821565b5b828203905092915050565b6000819050919050565b600061413a6141356141308461354a565b614115565b6133ef565b9050919050565b61414a8161411f565b82525050565b600060408201905061416560008301856133f9565b6141726020830184614141565b9392505050565b7f6e6f2072657761726420746f6b656e20636f6e74726163740000000000000000600082015250565b60006141af60188361342e565b91506141ba82614179565b602082019050919050565b600060208201905081810360008301526141de816141a2565b9050919050565b7f6e6f20746f6b656e7320746f20636c61696d0000000000000000000000000000600082015250565b600061421b60128361342e565b9150614226826141e5565b602082019050919050565b6000602082019050818103600083015261424a8161420e565b9050919050565b7f6e6f7420656e6f7567682072657761726420746f6b656e730000000000000000600082015250565b600061428760188361342e565b915061429282614251565b602082019050919050565b600060208201905081810360008301526142b68161427a565b9050919050565b7f7374616b6520616d6f756e74206d757374206265203e20300000000000000000600082015250565b60006142f360188361342e565b91506142fe826142bd565b602082019050919050565b60006020820190508181036000830152614322816142e6565b9050919050565b600060608201905061433e600083018661375e565b61434b602083018561375e565b61435860408301846133f9565b949350505050565b7f76616c756520646f65736e27742066697420696e203136302062697473000000600082015250565b6000614396601d8361342e565b91506143a182614360565b602082019050919050565b600060208201905081810360008301526143c581614389565b9050919050565b7f76616c756520646f65736e27742066697420696e203438206269747300000000600082015250565b6000614402601c8361342e565b915061440d826143cc565b602082019050919050565b60006020820190508181036000830152614431816143f5565b9050919050565b600081905092915050565b7f416363657373436f6e74726f6c3a206163636f756e7420000000000000000000600082015250565b6000614479601783614438565b915061448482614443565b601782019050919050565b600061449a82613423565b6144a48185614438565b93506144b481856020860161343f565b80840191505092915050565b7f206973206d697373696e6720726f6c6520000000000000000000000000000000600082015250565b60006144f6601183614438565b9150614501826144c0565b601182019050919050565b60006145178261446c565b9150614523828561448f565b915061452e826144e9565b915061453a828461448f565b91508190509392505050565b7f4e487b7100000000000000000000000000000000000000000000000000000000600052604160045260246000fd5b7f4e487b7100000000000000000000000000000000000000000000000000000000600052603260045260246000fd5b60006145af826133ef565b915060008214156145c3576145c2613821565b5b600182039050919050565b7f537472696e67733a20686578206c656e67746820696e73756666696369656e74600082015250565b600061460460208361342e565b915061460f826145ce565b602082019050919050565b60006020820190508181036000830152614633816145f7565b905091905056fea2646970667358221220b22654dbf0f79c903581eff702e97dc0428b8fc36f31880a596ad6c3769e886164736f6c634300080a0033",
  "linkReferences": {},
  "deployedLinkReferences": {}
}