{
  "_format": "hh-sol-artifact-1",
  "contractName": "K4RallyTokenV1",
  "sourceName": "contracts/K4RallyTokenV1.sol",
  "abi": [
    {
      "inputs": [],
      "stateMutability": "nonpayable",
      "type": "constructor"
    },
    {
      "anonymous": false,
      "inputs": [
        {
          "indexed": true,
          "internalType": "address",
          "name": "owner",
          "type": "address"
        },
        {
          "indexed": true,
          "internalType": "address",
          "name": "spender",
          "type": "address"
        },
        {
          "indexed": false,
          "internalType": "uint256",
          "name": "value",
          "type": "uint256"
        }
      ],
      "name": "Approval",
      "type": "event"
    },
    {
      "anonymous": false,
      "inputs": [
        {
          "indexed": true,
          "internalType": "address",
          "name": "previousOwner",
          "type": "address"
        },
        {
          "indexed": true,
          "internalType": "address",
          "name": "newOwner",
          "type": "address"
        }
      ],
      "name": "OwnershipTransferred",
      "type": "event"
    },
    {
      "anonymous": false,
      "inputs": [
        {
          "indexed": false,
          "internalType": "address",
          "name": "account",
          "type": "address"
        }
      ],
      "name": "Paused",
      "type": "event"
    },
    {
      "anonymous": false,
      "inputs": [
        {
          "indexed": true,
          "internalType": "address",
          "name": "from",
          "type": "address"
        },
        {
          "indexed": true,
          "internalType": "address",
          "name": "to",
          "type": "address"
        },
        {
          "indexed": false,
          "internalType": "uint256",
          "name": "value",
          "type": "uint256"
        }
      ],
      "name": "Transfer",
      "type": "event"
    },
    {
      "anonymous": false,
      "inputs": [
        {
          "indexed": false,
          "internalType": "address",
          "name": "account",
          "type": "address"
        }
      ],
      "name": "Unpaused",
      "type": "event"
    },
    {
      "inputs": [
        {
          "internalType": "address",
          "name": "owner",
          "type": "address"
        },
        {
          "internalType": "address",
          "name": "spender",
          "type": "address"
        }
      ],
      "name": "allowance",
      "outputs": [
        {
          "internalType": "uint256",
          "name": "",
          "type": "uint256"
        }
      ],
      "stateMutability": "view",
      "type": "function"
    },
    {
      "inputs": [
        {
          "internalType": "address",
          "name": "spender",
          "type": "address"
        },
        {
          "internalType": "uint256",
          "name": "amount",
          "type": "uint256"
        }
      ],
      "name": "approve",
      "outputs": [
        {
          "internalType": "bool",
          "name": "",
          "type": "bool"
        }
      ],
      "stateMutability": "nonpayable",
      "type": "function"
    },
    {
      "inputs": [
        {
          "internalType": "address",
          "name": "account",
          "type": "address"
        }
      ],
      "name": "balanceOf",
      "outputs": [
        {
          "internalType": "uint256",
          "name": "",
          "type": "uint256"
        }
      ],
      "stateMutability": "view",
      "type": "function"
    },
    {
      "inputs": [],
      "name": "decimals",
      "outputs": [
        {
          "internalType": "uint8",
          "name": "",
          "type": "uint8"
        }
      ],
      "stateMutability": "view",
      "type": "function"
    },
    {
      "inputs": [
        {
          "internalType": "address",
          "name": "spender",
          "type": "address"
        },
        {
          "internalType": "uint256",
          "name": "subtractedValue",
          "type": "uint256"
        }
      ],
      "name": "decreaseAllowance",
      "outputs": [
        {
          "internalType": "bool",
          "name": "",
          "type": "bool"
        }
      ],
      "stateMutability": "nonpayable",
      "type": "function"
    },
    {
      "inputs": [
        {
          "internalType": "address",
          "name": "spender",
          "type": "address"
        },
        {
          "internalType": "uint256",
          "name": "addedValue",
          "type": "uint256"
        }
      ],
      "name": "increaseAllowance",
      "outputs": [
        {
          "internalType": "bool",
          "name": "",
          "type": "bool"
        }
      ],
      "stateMutability": "nonpayable",
      "type": "function"
    },
    {
      "inputs": [],
      "name": "initialize",
      "outputs": [],
      "stateMutability": "nonpayable",
      "type": "function"
    },
    {
      "inputs": [],
      "name": "name",
      "outputs": [
        {
          "internalType": "string",
          "name": "",
          "type": "string"
        }
      ],
      "stateMutability": "view",
      "type": "function"
    },
    {
      "inputs": [],
      "name": "owner",
      "outputs": [
        {
          "internalType": "address",
          "name": "",
          "type": "address"
        }
      ],
      "stateMutability": "view",
      "type": "function"
    },
    {
      "inputs": [],
      "name": "pause",
      "outputs": [],
      "stateMutability": "nonpayable",
      "type": "function"
    },
    {
      "inputs": [],
      "name": "paused",
      "outputs": [
        {
          "internalType": "bool",
          "name": "",
          "type": "bool"
        }
      ],
      "stateMutability": "view",
      "type": "function"
    },
    {
      "inputs": [],
      "name": "renounceOwnership",
      "outputs": [],
      "stateMutability": "nonpayable",
      "type": "function"
    },
    {
      "inputs": [],
      "name": "symbol",
      "outputs": [
        {
          "internalType": "string",
          "name": "",
          "type": "string"
        }
      ],
      "stateMutability": "view",
      "type": "function"
    },
    {
      "inputs": [],
      "name": "totalSupply",
      "outputs": [
        {
          "internalType": "uint256",
          "name": "",
          "type": "uint256"
        }
      ],
      "stateMutability": "view",
      "type": "function"
    },
    {
      "inputs": [
        {
          "internalType": "address",
          "name": "recipient",
          "type": "address"
        },
        {
          "internalType": "uint256",
          "name": "amount",
          "type": "uint256"
        }
      ],
      "name": "transfer",
      "outputs": [
        {
          "internalType": "bool",
          "name": "",
          "type": "bool"
        }
      ],
      "stateMutability": "nonpayable",
      "type": "function"
    },
    {
      "inputs": [
        {
          "internalType": "address",
          "name": "sender",
          "type": "address"
        },
        {
          "internalType": "address",
          "name": "recipient",
          "type": "address"
        },
        {
          "internalType": "uint256",
          "name": "amount",
          "type": "uint256"
        }
      ],
      "name": "transferFrom",
      "outputs": [
        {
          "internalType": "bool",
          "name": "",
          "type": "bool"
        }
      ],
      "stateMutability": "nonpayable",
      "type": "function"
    },
    {
      "inputs": [
        {
          "internalType": "address",
          "name": "newOwner",
          "type": "address"
        }
      ],
      "name": "transferOwnership",
      "outputs": [],
      "stateMutability": "nonpayable",
      "type": "function"
    },
    {
      "inputs": [],
      "name": "unpause",
      "outputs": [],
      "stateMutability": "nonpayable",
      "type": "function"
    }
  ],
  "bytecode": "0x60806040523480156200001157600080fd5b50600060019054906101000a900460ff168062000039575060008054906101000a900460ff16155b6200007b576040517f08c379a000000000000000000000000000000000000000000000000000000000815260040162000072906200017c565b60405180910390fd5b60008060019054906101000a900460ff161590508015620000cc576001600060016101000a81548160ff02191690831515021790555060016000806101000a81548160ff0219169083151502179055505b8015620000ee5760008060016101000a81548160ff0219169083151502179055505b506200019e565b600082825260208201905092915050565b7f496e697469616c697a61626c653a20636f6e747261637420697320616c72656160008201527f647920696e697469616c697a6564000000000000000000000000000000000000602082015250565b600062000164602e83620000f5565b9150620001718262000106565b604082019050919050565b60006020820190508181036000830152620001978162000155565b9050919050565b6128ac80620001ae6000396000f3fe608060405234801561001057600080fd5b50600436106101165760003560e01c8063715018a6116100a257806395d89b411161007157806395d89b4114610299578063a457c2d7146102b7578063a9059cbb146102e7578063dd62ed3e14610317578063f2fde38b1461034757610116565b8063715018a61461025d5780638129fc1c146102675780638456cb59146102715780638da5cb5b1461027b57610116565b8063313ce567116100e9578063313ce567146101b757806339509351146101d55780633f4ba83a146102055780635c975abb1461020f57806370a082311461022d57610116565b806306fdde031461011b578063095ea7b31461013957806318160ddd1461016957806323b872dd14610187575b600080fd5b610123610363565b6040516101309190611c6a565b60405180910390f35b610153600480360381019061014e9190611d25565b6103f5565b6040516101609190611d80565b60405180910390f35b610171610413565b60405161017e9190611daa565b60405180910390f35b6101a1600480360381019061019c9190611dc5565b61041d565b6040516101ae9190611d80565b60405180910390f35b6101bf610515565b6040516101cc9190611e34565b60405180910390f35b6101ef60048036038101906101ea9190611d25565b61051e565b6040516101fc9190611d80565b60405180910390f35b61020d6105ca565b005b610217610650565b6040516102249190611d80565b60405180910390f35b61024760048036038101906102429190611e4f565b610667565b6040516102549190611daa565b60405180910390f35b6102656106b0565b005b61026f610738565b005b6102796108c1565b005b610283610947565b6040516102909190611e8b565b60405180910390f35b6102a1610971565b6040516102ae9190611c6a565b60405180910390f35b6102d160048036038101906102cc9190611d25565b610a03565b6040516102de9190611d80565b60405180910390f35b61030160048036038101906102fc9190611d25565b610aee565b60405161030e9190611d80565b60405180910390f35b610331600480360381019061032c9190611ea6565b610b0c565b60405161033e9190611daa565b60405180910390f35b610361600480360381019061035c9190611e4f565b610b93565b005b60606036805461037290611f15565b80601f016020809104026020016040519081016040528092919081815260200182805461039e90611f15565b80156103eb5780601f106103c0576101008083540402835291602001916103eb565b820191906000526020600020905b8154815290600101906020018083116103ce57829003601f168201915b5050505050905090565b6000610409610402610c8b565b8484610c93565b6001905092915050565b6000603554905090565b600061042a848484610e5e565b6000603460008673ffffffffffffffffffffffffffffffffffffffff1673ffffffffffffffffffffffffffffffffffffffff1681526020019081526020016000206000610475610c8b565b73ffffffffffffffffffffffffffffffffffffffff1673ffffffffffffffffffffffffffffffffffffffff168152602001908152602001600020549050828110156104f5576040517f08c379a00000000000000000000000000000000000000000000000000000000081526004016104ec90611fb9565b60405180910390fd5b61050985610501610c8b565b858403610c93565b60019150509392505050565b60006012905090565b60006105c061052b610c8b565b848460346000610539610c8b565b73ffffffffffffffffffffffffffffffffffffffff1673ffffffffffffffffffffffffffffffffffffffff16815260200190815260200160002060008873ffffffffffffffffffffffffffffffffffffffff1673ffffffffffffffffffffffffffffffffffffffff168152602001908152602001600020546105bb9190612008565b610c93565b6001905092915050565b6105d2610c8b565b73ffffffffffffffffffffffffffffffffffffffff166105f0610947565b73ffffffffffffffffffffffffffffffffffffffff1614610646576040517f08c379a000000000000000000000000000000000000000000000000000000000815260040161063d906120aa565b60405180910390fd5b61064e6110e2565b565b6000606560009054906101000a900460ff16905090565b6000603360008373ffffffffffffffffffffffffffffffffffffffff1673ffffffffffffffffffffffffffffffffffffffff168152602001908152602001600020549050919050565b6106b8610c8b565b73ffffffffffffffffffffffffffffffffffffffff166106d6610947565b73ffffffffffffffffffffffffffffffffffffffff161461072c576040517f08c379a0000000000000000000000000000000000000000000000000000000008152600401610723906120aa565b60405180910390fd5b6107366000611184565b565b600060019054906101000a900460ff168061075e575060008054906101000a900460ff16155b61079d576040517f08c379a00000000000000000000000000000000000000000000000000000000081526004016107949061213c565b60405180910390fd5b60008060019054906101000a900460ff1615905080156107ed576001600060016101000a81548160ff02191690831515021790555060016000806101000a81548160ff0219169083151502179055505b6108616040518060400160405280600e81526020017f4b342052616c6c7920546f6b656e0000000000000000000000000000000000008152506040518060400160405280600381526020017f4b3452000000000000000000000000000000000000000000000000000000000081525061124a565b610869611337565b610871611420565b61089d3361087d610515565b600a610889919061228f565b633b9aca0061089891906122da565b611509565b80156108be5760008060016101000a81548160ff0219169083151502179055505b50565b6108c9610c8b565b73ffffffffffffffffffffffffffffffffffffffff166108e7610947565b73ffffffffffffffffffffffffffffffffffffffff161461093d576040517f08c379a0000000000000000000000000000000000000000000000000000000008152600401610934906120aa565b60405180910390fd5b61094561166a565b565b6000609760009054906101000a900473ffffffffffffffffffffffffffffffffffffffff16905090565b60606037805461098090611f15565b80601f01602080910402602001604051908101604052809291908181526020018280546109ac90611f15565b80156109f95780601f106109ce576101008083540402835291602001916109f9565b820191906000526020600020905b8154815290600101906020018083116109dc57829003601f168201915b5050505050905090565b60008060346000610a12610c8b565b73ffffffffffffffffffffffffffffffffffffffff1673ffffffffffffffffffffffffffffffffffffffff16815260200190815260200160002060008573ffffffffffffffffffffffffffffffffffffffff1673ffffffffffffffffffffffffffffffffffffffff16815260200190815260200160002054905082811015610acf576040517f08c379a0000000000000000000000000000000000000000000000000000000008152600401610ac6906123a6565b60405180910390fd5b610ae3610ada610c8b565b85858403610c93565b600191505092915050565b6000610b02610afb610c8b565b8484610e5e565b6001905092915050565b6000603460008473ffffffffffffffffffffffffffffffffffffffff1673ffffffffffffffffffffffffffffffffffffffff16815260200190815260200160002060008373ffffffffffffffffffffffffffffffffffffffff1673ffffffffffffffffffffffffffffffffffffffff16815260200190815260200160002054905092915050565b610b9b610c8b565b73ffffffffffffffffffffffffffffffffffffffff16610bb9610947565b73ffffffffffffffffffffffffffffffffffffffff1614610c0f576040517f08c379a0000000000000000000000000000000000000000000000000000000008152600401610c06906120aa565b60405180910390fd5b600073ffffffffffffffffffffffffffffffffffffffff168173ffffffffffffffffffffffffffffffffffffffff161415610c7f576040517f08c379a0000000000000000000000000000000000000000000000000000000008152600401610c7690612438565b60405180910390fd5b610c8881611184565b50565b600033905090565b600073ffffffffffffffffffffffffffffffffffffffff168373ffffffffffffffffffffffffffffffffffffffff161415610d03576040517f08c379a0000000000000000000000000000000000000000000000000000000008152600401610cfa906124ca565b60405180910390fd5b600073ffffffffffffffffffffffffffffffffffffffff168273ffffffffffffffffffffffffffffffffffffffff161415610d73576040517f08c379a0000000000000000000000000000000000000000000000000000000008152600401610d6a9061255c565b60405180910390fd5b80603460008573ffffffffffffffffffffffffffffffffffffffff1673ffffffffffffffffffffffffffffffffffffffff16815260200190815260200160002060008473ffffffffffffffffffffffffffffffffffffffff1673ffffffffffffffffffffffffffffffffffffffff168152602001908152602001600020819055508173ffffffffffffffffffffffffffffffffffffffff168373ffffffffffffffffffffffffffffffffffffffff167f8c5be1e5ebec7d5bd14f71427d1e84f3dd0314c0f7b2291e5b200ac8c7c3b92583604051610e519190611daa565b60405180910390a3505050565b600073ffffffffffffffffffffffffffffffffffffffff168373ffffffffffffffffffffffffffffffffffffffff161415610ece576040517f08c379a0000000000000000000000000000000000000000000000000000000008152600401610ec5906125ee565b60405180910390fd5b600073ffffffffffffffffffffffffffffffffffffffff168273ffffffffffffffffffffffffffffffffffffffff161415610f3e576040517f08c379a0000000000000000000000000000000000000000000000000000000008152600401610f3590612680565b60405180910390fd5b610f4983838361170d565b6000603360008573ffffffffffffffffffffffffffffffffffffffff1673ffffffffffffffffffffffffffffffffffffffff16815260200190815260200160002054905081811015610fd0576040517f08c379a0000000000000000000000000000000000000000000000000000000008152600401610fc790612712565b60405180910390fd5b818103603360008673ffffffffffffffffffffffffffffffffffffffff1673ffffffffffffffffffffffffffffffffffffffff1681526020019081526020016000208190555081603360008573ffffffffffffffffffffffffffffffffffffffff1673ffffffffffffffffffffffffffffffffffffffff16815260200190815260200160002060008282546110659190612008565b925050819055508273ffffffffffffffffffffffffffffffffffffffff168473ffffffffffffffffffffffffffffffffffffffff167fddf252ad1be2c89b69c2b068fc378daa952ba7f163c4a11628f55a4df523b3ef846040516110c99190611daa565b60405180910390a36110dc848484611765565b50505050565b6110ea610650565b611129576040517f08c379a00000000000000000000000000000000000000000000000000000000081526004016111209061277e565b60405180910390fd5b6000606560006101000a81548160ff0219169083151502179055507f5db9ee0a495bf2e6ff9c91a7834c1ba4fdd244a5e8aa4e537bd38aeae4b073aa61116d610c8b565b60405161117a9190611e8b565b60405180910390a1565b6000609760009054906101000a900473ffffffffffffffffffffffffffffffffffffffff16905081609760006101000a81548173ffffffffffffffffffffffffffffffffffffffff021916908373ffffffffffffffffffffffffffffffffffffffff1602179055508173ffffffffffffffffffffffffffffffffffffffff168173ffffffffffffffffffffffffffffffffffffffff167f8be0079c531659141344cd1fd0a4f28419497f9722a3daafe3b4186f6b6457e060405160405180910390a35050565b600060019054906101000a900460ff1680611270575060008054906101000a900460ff16155b6112af576040517f08c379a00000000000000000000000000000000000000000000000000000000081526004016112a69061213c565b60405180910390fd5b60008060019054906101000a900460ff1615905080156112ff576001600060016101000a81548160ff02191690831515021790555060016000806101000a81548160ff0219169083151502179055505b61130761176a565b6113118383611843565b80156113325760008060016101000a81548160ff0219169083151502179055505b505050565b600060019054906101000a900460ff168061135d575060008054906101000a900460ff16155b61139c576040517f08c379a00000000000000000000000000000000000000000000000000000000081526004016113939061213c565b60405180910390fd5b60008060019054906101000a900460ff1615905080156113ec576001600060016101000a81548160ff02191690831515021790555060016000806101000a81548160ff0219169083151502179055505b6113f461176a565b6113fc61194c565b801561141d5760008060016101000a81548160ff0219169083151502179055505b50565b600060019054906101000a900460ff1680611446575060008054906101000a900460ff16155b611485576040517f08c379a000000000000000000000000000000000000000000000000000000000815260040161147c9061213c565b60405180910390fd5b60008060019054906101000a900460ff1615905080156114d5576001600060016101000a81548160ff02191690831515021790555060016000806101000a81548160ff0219169083151502179055505b6114dd61176a565b6114e5611a40565b80156115065760008060016101000a81548160ff0219169083151502179055505b50565b600073ffffffffffffffffffffffffffffffffffffffff168273ffffffffffffffffffffffffffffffffffffffff161415611579576040517f08c379a0000000000000000000000000000000000000000000000000000000008152600401611570906127ea565b60405180910390fd5b6115856000838361170d565b80603560008282546115979190612008565b9250508190555080603360008473ffffffffffffffffffffffffffffffffffffffff1673ffffffffffffffffffffffffffffffffffffffff16815260200190815260200160002060008282546115ed9190612008565b925050819055508173ffffffffffffffffffffffffffffffffffffffff16600073ffffffffffffffffffffffffffffffffffffffff167fddf252ad1be2c89b69c2b068fc378daa952ba7f163c4a11628f55a4df523b3ef836040516116529190611daa565b60405180910390a361166660008383611765565b5050565b611672610650565b156116b2576040517f08c379a00000000000000000000000000000000000000000000000000000000081526004016116a990612856565b60405180910390fd5b6001606560006101000a81548160ff0219169083151502179055507f62e78cea01bee320cd4e420270b5ea74000d11b0c9f74754ebdbfc544b05a2586116f6610c8b565b6040516117039190611e8b565b60405180910390a1565b611715610650565b15611755576040517f08c379a000000000000000000000000000000000000000000000000000000000815260040161174c90612856565b60405180910390fd5b611760838383611b29565b505050565b505050565b600060019054906101000a900460ff1680611790575060008054906101000a900460ff16155b6117cf576040517f08c379a00000000000000000000000000000000000000000000000000000000081526004016117c69061213c565b60405180910390fd5b60008060019054906101000a900460ff16159050801561181f576001600060016101000a81548160ff02191690831515021790555060016000806101000a81548160ff0219169083151502179055505b80156118405760008060016101000a81548160ff0219169083151502179055505b50565b600060019054906101000a900460ff1680611869575060008054906101000a900460ff16155b6118a8576040517f08c379a000000000000000000000000000000000000000000000000000000000815260040161189f9061213c565b60405180910390fd5b60008060019054906101000a900460ff1615905080156118f8576001600060016101000a81548160ff02191690831515021790555060016000806101000a81548160ff0219169083151502179055505b826036908051906020019061190e929190611b2e565b508160379080519060200190611925929190611b2e565b5080156119475760008060016101000a81548160ff0219169083151502179055505b505050565b600060019054906101000a900460ff1680611972575060008054906101000a900460ff16155b6119b1576040517f08c379a00000000000000000000000000000000000000000000000000000000081526004016119a89061213c565b60405180910390fd5b60008060019054906101000a900460ff161590508015611a01576001600060016101000a81548160ff02191690831515021790555060016000806101000a81548160ff0219169083151502179055505b6000606560006101000a81548160ff0219169083151502179055508015611a3d5760008060016101000a81548160ff0219169083151502179055505b50565b600060019054906101000a900460ff1680611a66575060008054906101000a900460ff16155b611aa5576040517f08c379a0000000000000000000000000000000000000000000000000000000008152600401611a9c9061213c565b60405180910390fd5b60008060019054906101000a900460ff161590508015611af5576001600060016101000a81548160ff02191690831515021790555060016000806101000a81548160ff0219169083151502179055505b611b05611b00610c8b565b611184565b8015611b265760008060016101000a81548160ff0219169083151502179055505b50565b505050565b828054611b3a90611f15565b90600052602060002090601f016020900481019282611b5c5760008555611ba3565b82601f10611b7557805160ff1916838001178555611ba3565b82800160010185558215611ba3579182015b82811115611ba2578251825591602001919060010190611b87565b5b509050611bb09190611bb4565b5090565b5b80821115611bcd576000816000905550600101611bb5565b5090565b600081519050919050565b600082825260208201905092915050565b60005b83811015611c0b578082015181840152602081019050611bf0565b83811115611c1a576000848401525b50505050565b6000601f19601f8301169050919050565b6000611c3c82611bd1565b611c468185611bdc565b9350611c56818560208601611bed565b611c5f81611c20565b840191505092915050565b60006020820190508181036000830152611c848184611c31565b905092915050565b600080fd5b600073ffffffffffffffffffffffffffffffffffffffff82169050919050565b6000611cbc82611c91565b9050919050565b611ccc81611cb1565b8114611cd757600080fd5b50565b600081359050611ce981611cc3565b92915050565b6000819050919050565b611d0281611cef565b8114611d0d57600080fd5b50565b600081359050611d1f81611cf9565b92915050565b60008060408385031215611d3c57611d3b611c8c565b5b6000611d4a85828601611cda565b9250506020611d5b85828601611d10565b9150509250929050565b60008115159050919050565b611d7a81611d65565b82525050565b6000602082019050611d956000830184611d71565b92915050565b611da481611cef565b82525050565b6000602082019050611dbf6000830184611d9b565b92915050565b600080600060608486031215611dde57611ddd611c8c565b5b6000611dec86828701611cda565b9350506020611dfd86828701611cda565b9250506040611e0e86828701611d10565b9150509250925092565b600060ff82169050919050565b611e2e81611e18565b82525050565b6000602082019050611e496000830184611e25565b92915050565b600060208284031215611e6557611e64611c8c565b5b6000611e7384828501611cda565b91505092915050565b611e8581611cb1565b82525050565b6000602082019050611ea06000830184611e7c565b92915050565b60008060408385031215611ebd57611ebc611c8c565b5b6000611ecb85828601611cda565b9250506020611edc85828601611cda565b9150509250929050565b7f4e487b7100000000000000000000000000000000000000000000000000000000600052602260045260246000fd5b60006002820490506001821680611f2d57607f821691505b60208210811415611f4157611f40611ee6565b5b50919050565b7f45524332303a207472616e7366657220616d6f756e742065786365656473206160008201527f6c6c6f77616e6365000000000000000000000000000000000000000000000000602082015250565b6000611fa3602883611bdc565b9150611fae82611f47565b604082019050919050565b60006020820190508181036000830152611fd281611f96565b9050919050565b7f4e487b7100000000000000000000000000000000000000000000000000000000600052601160045260246000fd5b600061201382611cef565b915061201e83611cef565b9250827fffffffffffffffffffffffffffffffffffffffffffffffffffffffffffffffff0382111561205357612052611fd9565b5b828201905092915050565b7f4f776e61626c653a2063616c6c6572206973206e6f7420746865206f776e6572600082015250565b6000612094602083611bdc565b915061209f8261205e565b602082019050919050565b600060208201905081810360008301526120c381612087565b9050919050565b7f496e697469616c697a61626c653a20636f6e747261637420697320616c72656160008201527f647920696e697469616c697a6564000000000000000000000000000000000000602082015250565b6000612126602e83611bdc565b9150612131826120ca565b604082019050919050565b6000602082019050818103600083015261215581612119565b9050919050565b60008160011c9050919050565b6000808291508390505b60018511156121b35780860481111561218f5761218e611fd9565b5b600185161561219e5780820291505b80810290506121ac8561215c565b9450612173565b94509492505050565b6000826121cc5760019050612288565b816121da5760009050612288565b81600181146121f057600281146121fa57612229565b6001915050612288565b60ff84111561220c5761220b611fd9565b5b8360020a91508482111561222357612222611fd9565b5b50612288565b5060208310610133831016604e8410600b841016171561225e5782820a90508381111561225957612258611fd9565b5b612288565b61226b8484846001612169565b9250905081840481111561228257612281611fd9565b5b81810290505b9392505050565b600061229a82611cef565b91506122a583611e18565b92506122d27fffffffffffffffffffffffffffffffffffffffffffffffffffffffffffffffff84846121bc565b905092915050565b60006122e582611cef565b91506122f083611cef565b9250817fffffffffffffffffffffffffffffffffffffffffffffffffffffffffffffffff048311821515161561232957612328611fd9565b5b828202905092915050565b7f45524332303a2064656372656173656420616c6c6f77616e63652062656c6f7760008201527f207a65726f000000000000000000000000000000000000000000000000000000602082015250565b6000612390602583611bdc565b915061239b82612334565b604082019050919050565b600060208201905081810360008301526123bf81612383565b9050919050565b7f4f776e61626c653a206e6577206f776e657220697320746865207a65726f206160008201527f6464726573730000000000000000000000000000000000000000000000000000602082015250565b6000612422602683611bdc565b915061242d826123c6565b604082019050919050565b6000602082019050818103600083015261245181612415565b9050919050565b7f45524332303a20617070726f76652066726f6d20746865207a65726f2061646460008201527f7265737300000000000000000000000000000000000000000000000000000000602082015250565b60006124b4602483611bdc565b91506124bf82612458565b604082019050919050565b600060208201905081810360008301526124e3816124a7565b9050919050565b7f45524332303a20617070726f766520746f20746865207a65726f20616464726560008201527f7373000000000000000000000000000000000000000000000000000000000000602082015250565b6000612546602283611bdc565b9150612551826124ea565b604082019050919050565b6000602082019050818103600083015261257581612539565b9050919050565b7f45524332303a207472616e736665722066726f6d20746865207a65726f20616460008201527f6472657373000000000000000000000000000000000000000000000000000000602082015250565b60006125d8602583611bdc565b91506125e38261257c565b604082019050919050565b60006020820190508181036000830152612607816125cb565b9050919050565b7f45524332303a207472616e7366657220746f20746865207a65726f206164647260008201527f6573730000000000000000000000000000000000000000000000000000000000602082015250565b600061266a602383611bdc565b91506126758261260e565b604082019050919050565b600060208201905081810360008301526126998161265d565b9050919050565b7f45524332303a207472616e7366657220616d6f756e742065786365656473206260008201527f616c616e63650000000000000000000000000000000000000000000000000000602082015250565b60006126fc602683611bdc565b9150612707826126a0565b604082019050919050565b6000602082019050818103600083015261272b816126ef565b9050919050565b7f5061757361626c653a206e6f7420706175736564000000000000000000000000600082015250565b6000612768601483611bdc565b915061277382612732565b602082019050919050565b600060208201905081810360008301526127978161275b565b9050919050565b7f45524332303a206d696e7420746f20746865207a65726f206164647265737300600082015250565b60006127d4601f83611bdc565b91506127df8261279e565b602082019050919050565b60006020820190508181036000830152612803816127c7565b9050919050565b7f5061757361626c653a2070617573656400000000000000000000000000000000600082015250565b6000612840601083611bdc565b915061284b8261280a565b602082019050919050565b6000602082019050818103600083015261286f81612833565b905091905056fea26469706673582212202f8275926f5b6fdb164300d4189d069401ebec285a47c5b3b484a957270e384564736f6c634300080a0033",
  "linkReferences": {},
  "deployedLinkReferences": {}
}