{
  "_format": "hh-sol-artifact-1",
  "contractName": "K4RallyTokenV1",
  "sourceName": "contracts/K4RallyTokenV1.sol",
  "abi": [
    {
      "inputs": [],
      "stateMutability": "nonpayable",
      "type": "constructor"
    },
    {
      "anonymous": false,
      "inputs": [
        {
          "indexed": true,
          "internalType": "address",
          "name": "owner",
          "type": "address"
        },
        {
          "indexed": true,
          "internalType": "address",
          "name": "spender",
          "type": "address"
        },
        {
          "indexed": false,
          "internalType": "uint256",
          "name": "value",
          "type": "uint256"
        }
      ],
      "name": "Approval",
      "type": "event"
    },
    {
      "anonymous": false,
      "inputs": [
        {
          "indexed": true,
          "internalType": "address",
          "name": "wallet",
          "type": "address"
        },
        {
          "indexed": true,
          "internalType": "address",
          "name": "rewardToken",
          "type": "address"
        },
        {
          "indexed": false,
          "internalType": "uint256",
          "name": "amount",
          "type": "uint256"
        }
      ],
      "name": "Claimed",
      "type": "event"
    },
    {
      "anonymous": false,
      "inputs": [
        {
          "indexed": true,
          "internalType": "address",
          "name": "tokenAddress",
          "type": "address"
        },
        {
          "indexed": true,
          "internalType": "address",
          "name": "receiver",
          "type": "address"
        },
        {
          "indexed": false,
          "internalType": "uint256",
          "name": "amount",
          "type": "uint256"
        }
      ],
      "name": "ERC20TokensRemoved",
      "type": "event"
    },
    {
      "anonymous": false,
      "inputs": [
        {
          "indexed": false,
          "internalType": "uint8",
          "name": "version",
          "type": "uint8"
        }
      ],
      "name": "Initialized",
      "type": "event"
    },
    {
      "anonymous": false,
      "inputs": [
        {
          "indexed": false,
          "internalType": "uint48",
          "name": "lockTimePeriod",
          "type": "uint48"
        }
      ],
      "name": "LockTimePeriodChanged",
      "type": "event"
    },
    {
      "anonymous": false,
      "inputs": [
        {
          "indexed": true,
          "internalType": "address",
          "name": "previousOwner",
          "type": "address"
        },
        {
          "indexed": true,
          "internalType": "address",
          "name": "newOwner",
          "type": "address"
        }
      ],
      "name": "OwnershipTransferred",
      "type": "event"
    },
    {
      "anonymous": false,
      "inputs": [
        {
          "indexed": false,
          "internalType": "address",
          "name": "account",
          "type": "address"
        }
      ],
      "name": "Paused",
      "type": "event"
    },
    {
      "anonymous": false,
      "inputs": [
        {
          "indexed": true,
          "internalType": "address",
          "name": "oldRewardToken",
          "type": "address"
        },
        {
          "indexed": false,
          "internalType": "uint256",
          "name": "returnedAmount",
          "type": "uint256"
        },
        {
          "indexed": true,
          "internalType": "address",
          "name": "newRewardToken",
          "type": "address"
        }
      ],
      "name": "RewardTokenChanged",
      "type": "event"
    },
    {
      "anonymous": false,
      "inputs": [
        {
          "indexed": true,
          "internalType": "address",
          "name": "staker",
          "type": "address"
        },
        {
          "indexed": false,
          "internalType": "uint256",
          "name": "amount",
          "type": "uint256"
        }
      ],
      "name": "RewardsBurned",
      "type": "event"
    },
    {
      "anonymous": false,
      "inputs": [
        {
          "indexed": true,
          "internalType": "bytes32",
          "name": "role",
          "type": "bytes32"
        },
        {
          "indexed": true,
          "internalType": "bytes32",
          "name": "previousAdminRole",
          "type": "bytes32"
        },
        {
          "indexed": true,
          "internalType": "bytes32",
          "name": "newAdminRole",
          "type": "bytes32"
        }
      ],
      "name": "RoleAdminChanged",
      "type": "event"
    },
    {
      "anonymous": false,
      "inputs": [
        {
          "indexed": true,
          "internalType": "bytes32",
          "name": "role",
          "type": "bytes32"
        },
        {
          "indexed": true,
          "internalType": "address",
          "name": "account",
          "type": "address"
        },
        {
          "indexed": true,
          "internalType": "address",
          "name": "sender",
          "type": "address"
        }
      ],
      "name": "RoleGranted",
      "type": "event"
    },
    {
      "anonymous": false,
      "inputs": [
        {
          "indexed": true,
          "internalType": "bytes32",
          "name": "role",
          "type": "bytes32"
        },
        {
          "indexed": true,
          "internalType": "address",
          "name": "account",
          "type": "address"
        },
        {
          "indexed": true,
          "internalType": "address",
          "name": "sender",
          "type": "address"
        }
      ],
      "name": "RoleRevoked",
      "type": "event"
    },
    {
      "anonymous": false,
      "inputs": [
        {
          "indexed": true,
          "internalType": "address",
          "name": "wallet",
          "type": "address"
        },
        {
          "indexed": false,
          "internalType": "uint256",
          "name": "amount",
          "type": "uint256"
        },
        {
          "indexed": false,
          "internalType": "uint256",
          "name": "date",
          "type": "uint256"
        }
      ],
      "name": "Stake",
      "type": "event"
    },
    {
      "anonymous": false,
      "inputs": [
        {
          "indexed": false,
          "internalType": "uint48",
          "name": "stakeRewardEndTime",
          "type": "uint48"
        }
      ],
      "name": "StakeRewardEndTimeChanged",
      "type": "event"
    },
    {
      "anonymous": false,
      "inputs": [
        {
          "indexed": false,
          "internalType": "uint256",
          "name": "stakeRewardFactor",
          "type": "uint256"
        }
      ],
      "name": "StakeRewardFactorChanged",
      "type": "event"
    },
    {
      "anonymous": false,
      "inputs": [
        {
          "indexed": true,
          "internalType": "address",
          "name": "from",
          "type": "address"
        },
        {
          "indexed": true,
          "internalType": "address",
          "name": "to",
          "type": "address"
        },
        {
          "indexed": false,
          "internalType": "uint256",
          "name": "value",
          "type": "uint256"
        }
      ],
      "name": "Transfer",
      "type": "event"
    },
    {
      "anonymous": false,
      "inputs": [
        {
          "indexed": false,
          "internalType": "address",
          "name": "account",
          "type": "address"
        }
      ],
      "name": "Unpaused",
      "type": "event"
    },
    {
      "anonymous": false,
      "inputs": [
        {
          "indexed": true,
          "internalType": "address",
          "name": "wallet",
          "type": "address"
        },
        {
          "indexed": false,
          "internalType": "uint256",
          "name": "amount",
          "type": "uint256"
        },
        {
          "indexed": false,
          "internalType": "uint256",
          "name": "date",
          "type": "uint256"
        }
      ],
      "name": "Withdraw",
      "type": "event"
    },
    {
      "inputs": [],
      "name": "BURNER_ROLE",
      "outputs": [
        {
          "internalType": "bytes32",
          "name": "",
          "type": "bytes32"
        }
      ],
      "stateMutability": "view",
      "type": "function"
    },
    {
      "inputs": [],
      "name": "DEFAULT_ADMIN_ROLE",
      "outputs": [
        {
          "internalType": "bytes32",
          "name": "",
          "type": "bytes32"
        }
      ],
      "stateMutability": "view",
      "type": "function"
    },
    {
      "inputs": [],
      "name": "MAX_TIME",
      "outputs": [
        {
          "internalType": "uint48",
          "name": "",
          "type": "uint48"
        }
      ],
      "stateMutability": "view",
      "type": "function"
    },
    {
      "inputs": [
        {
          "internalType": "address",
          "name": "owner",
          "type": "address"
        },
        {
          "internalType": "address",
          "name": "spender",
          "type": "address"
        }
      ],
      "name": "allowance",
      "outputs": [
        {
          "internalType": "uint256",
          "name": "",
          "type": "uint256"
        }
      ],
      "stateMutability": "view",
      "type": "function"
    },
    {
      "inputs": [
        {
          "internalType": "address",
          "name": "spender",
          "type": "address"
        },
        {
          "internalType": "uint256",
          "name": "amount",
          "type": "uint256"
        }
      ],
      "name": "approve",
      "outputs": [
        {
          "internalType": "bool",
          "name": "",
          "type": "bool"
        }
      ],
      "stateMutability": "nonpayable",
      "type": "function"
    },
    {
      "inputs": [
        {
          "internalType": "address",
          "name": "_staker",
          "type": "address"
        }
      ],
      "name": "balanceOf",
      "outputs": [
        {
          "internalType": "uint256",
          "name": "balance",
          "type": "uint256"
        }
      ],
      "stateMutability": "view",
      "type": "function"
    },
    {
      "inputs": [
        {
          "internalType": "address",
          "name": "_staker",
          "type": "address"
        },
        {
          "internalType": "uint256",
          "name": "_amount",
          "type": "uint256"
        }
      ],
      "name": "burnRewards",
      "outputs": [],
      "stateMutability": "nonpayable",
      "type": "function"
    },
    {
      "inputs": [],
      "name": "claim",
      "outputs": [
        {
          "internalType": "uint256",
          "name": "",
          "type": "uint256"
        }
      ],
      "stateMutability": "nonpayable",
      "type": "function"
    },
    {
      "inputs": [],
      "name": "decimals",
      "outputs": [
        {
          "internalType": "uint8",
          "name": "",
          "type": "uint8"
        }
      ],
      "stateMutability": "view",
      "type": "function"
    },
    {
      "inputs": [
        {
          "internalType": "address",
          "name": "spender",
          "type": "address"
        },
        {
          "internalType": "uint256",
          "name": "subtractedValue",
          "type": "uint256"
        }
      ],
      "name": "decreaseAllowance",
      "outputs": [
        {
          "internalType": "bool",
          "name": "",
          "type": "bool"
        }
      ],
      "stateMutability": "nonpayable",
      "type": "function"
    },
    {
      "inputs": [
        {
          "internalType": "address",
          "name": "_staker",
          "type": "address"
        }
      ],
      "name": "getEarnedRewardTokens",
      "outputs": [
        {
          "internalType": "uint256",
          "name": "claimableRewardTokens",
          "type": "uint256"
        }
      ],
      "stateMutability": "view",
      "type": "function"
    },
    {
      "inputs": [],
      "name": "getEarnedRewardTokens_msgSender",
      "outputs": [
        {
          "internalType": "uint256",
          "name": "",
          "type": "uint256"
        }
      ],
      "stateMutability": "view",
      "type": "function"
    },
    {
      "inputs": [],
      "name": "getRewardTokenBalance",
      "outputs": [
        {
          "internalType": "uint256",
          "name": "balance",
          "type": "uint256"
        }
      ],
      "stateMutability": "view",
      "type": "function"
    },
    {
      "inputs": [
        {
          "internalType": "bytes32",
          "name": "role",
          "type": "bytes32"
        }
      ],
      "name": "getRoleAdmin",
      "outputs": [
        {
          "internalType": "bytes32",
          "name": "",
          "type": "bytes32"
        }
      ],
      "stateMutability": "view",
      "type": "function"
    },
    {
      "inputs": [
        {
          "internalType": "address",
          "name": "_staker",
          "type": "address"
        }
      ],
      "name": "getUnlockTime",
      "outputs": [
        {
          "internalType": "uint48",
          "name": "unlockTime",
          "type": "uint48"
        }
      ],
      "stateMutability": "view",
      "type": "function"
    },
    {
      "inputs": [],
      "name": "getUnlockTime_msgSender",
      "outputs": [
        {
          "internalType": "uint48",
          "name": "unlockTime",
          "type": "uint48"
        }
      ],
      "stateMutability": "view",
      "type": "function"
    },
    {
      "inputs": [
        {
          "internalType": "bytes32",
          "name": "role",
          "type": "bytes32"
        },
        {
          "internalType": "address",
          "name": "account",
          "type": "address"
        }
      ],
      "name": "grantRole",
      "outputs": [],
      "stateMutability": "nonpayable",
      "type": "function"
    },
    {
      "inputs": [
        {
          "internalType": "bytes32",
          "name": "role",
          "type": "bytes32"
        },
        {
          "internalType": "address",
          "name": "account",
          "type": "address"
        }
      ],
      "name": "hasRole",
      "outputs": [
        {
          "internalType": "bool",
          "name": "",
          "type": "bool"
        }
      ],
      "stateMutability": "view",
      "type": "function"
    },
    {
      "inputs": [
        {
          "internalType": "address",
          "name": "spender",
          "type": "address"
        },
        {
          "internalType": "uint256",
          "name": "addedValue",
          "type": "uint256"
        }
      ],
      "name": "increaseAllowance",
      "outputs": [
        {
          "internalType": "bool",
          "name": "",
          "type": "bool"
        }
      ],
      "stateMutability": "nonpayable",
      "type": "function"
    },
    {
      "inputs": [
        {
          "internalType": "address",
          "name": "_stakingToken",
          "type": "address"
        },
        {
          "internalType": "uint48",
          "name": "_lockTimePeriod",
          "type": "uint48"
        }
      ],
      "name": "initialize",
      "outputs": [],
      "stateMutability": "nonpayable",
      "type": "function"
    },
    {
      "inputs": [],
      "name": "lockTimePeriod",
      "outputs": [
        {
          "internalType": "uint48",
          "name": "",
          "type": "uint48"
        }
      ],
      "stateMutability": "view",
      "type": "function"
    },
    {
      "inputs": [],
      "name": "name",
      "outputs": [
        {
          "internalType": "string",
          "name": "",
          "type": "string"
        }
      ],
      "stateMutability": "view",
      "type": "function"
    },
    {
      "inputs": [],
      "name": "owner",
      "outputs": [
        {
          "internalType": "address",
          "name": "",
          "type": "address"
        }
      ],
      "stateMutability": "view",
      "type": "function"
    },
    {
      "inputs": [],
      "name": "pause",
      "outputs": [],
      "stateMutability": "nonpayable",
      "type": "function"
    },
    {
      "inputs": [],
      "name": "paused",
      "outputs": [
        {
          "internalType": "bool",
          "name": "",
          "type": "bool"
        }
      ],
      "stateMutability": "view",
      "type": "function"
    },
    {
      "inputs": [
        {
          "internalType": "address",
          "name": "_tokenAddress",
          "type": "address"
        }
      ],
      "name": "removeOtherERC20Tokens",
      "outputs": [],
      "stateMutability": "nonpayable",
      "type": "function"
    },
    {
      "inputs": [],
      "name": "renounceOwnership",
      "outputs": [],
      "stateMutability": "nonpayable",
      "type": "function"
    },
    {
      "inputs": [
        {
          "internalType": "bytes32",
          "name": "role",
          "type": "bytes32"
        },
        {
          "internalType": "address",
          "name": "account",
          "type": "address"
        }
      ],
      "name": "renounceRole",
      "outputs": [],
      "stateMutability": "nonpayable",
      "type": "function"
    },
    {
      "inputs": [
        {
          "internalType": "bytes32",
          "name": "role",
          "type": "bytes32"
        },
        {
          "internalType": "address",
          "name": "account",
          "type": "address"
        }
      ],
      "name": "revokeRole",
      "outputs": [],
      "stateMutability": "nonpayable",
      "type": "function"
    },
    {
      "inputs": [],
      "name": "rewardToken",
      "outputs": [
        {
          "internalType": "address",
          "name": "",
          "type": "address"
        }
      ],
      "stateMutability": "view",
      "type": "function"
    },
    {
      "inputs": [
        {
          "internalType": "uint48",
          "name": "_lockTimePeriod",
          "type": "uint48"
        }
      ],
      "name": "setLockTimePeriod",
      "outputs": [],
      "stateMutability": "nonpayable",
      "type": "function"
    },
    {
      "inputs": [
        {
          "internalType": "address",
          "name": "newRewardToken",
          "type": "address"
        }
      ],
      "name": "setRewardToken",
      "outputs": [],
      "stateMutability": "nonpayable",
      "type": "function"
    },
    {
      "inputs": [
        {
          "internalType": "uint48",
          "name": "_stakeRewardEndTime",
          "type": "uint48"
        }
      ],
      "name": "setStakeRewardEndTime",
      "outputs": [],
      "stateMutability": "nonpayable",
      "type": "function"
    },
    {
      "inputs": [
        {
          "internalType": "uint256",
          "name": "_stakeRewardFactor",
          "type": "uint256"
        }
      ],
      "name": "setStakeRewardFactor",
      "outputs": [],
      "stateMutability": "nonpayable",
      "type": "function"
    },
    {
      "inputs": [
        {
          "internalType": "uint256",
          "name": "_amount",
          "type": "uint256"
        }
      ],
      "name": "stake",
      "outputs": [
        {
          "internalType": "uint256",
          "name": "",
          "type": "uint256"
        }
      ],
      "stateMutability": "nonpayable",
      "type": "function"
    },
    {
      "inputs": [
        {
          "internalType": "address",
          "name": "_staker",
          "type": "address"
        }
      ],
      "name": "stakeAmount",
      "outputs": [
        {
          "internalType": "uint256",
          "name": "balance",
          "type": "uint256"
        }
      ],
      "stateMutability": "view",
      "type": "function"
    },
    {
      "inputs": [],
      "name": "stakeAmount_msgSender",
      "outputs": [
        {
          "internalType": "uint256",
          "name": "",
          "type": "uint256"
        }
      ],
      "stateMutability": "view",
      "type": "function"
    },
    {
      "inputs": [],
      "name": "stakeRewardEndTime",
      "outputs": [
        {
          "internalType": "uint48",
          "name": "",
          "type": "uint48"
        }
      ],
      "stateMutability": "view",
      "type": "function"
    },
    {
      "inputs": [],
      "name": "stakeRewardFactor",
      "outputs": [
        {
          "internalType": "uint256",
          "name": "",
          "type": "uint256"
        }
      ],
      "stateMutability": "view",
      "type": "function"
    },
    {
      "inputs": [
        {
          "internalType": "address",
          "name": "_staker",
          "type": "address"
        }
      ],
      "name": "stakeTime",
      "outputs": [
        {
          "internalType": "uint48",
          "name": "dateTime",
          "type": "uint48"
        }
      ],
      "stateMutability": "view",
      "type": "function"
    },
    {
      "inputs": [],
      "name": "stakeTime_msgSender",
      "outputs": [
        {
          "internalType": "uint48",
          "name": "",
          "type": "uint48"
        }
      ],
      "stateMutability": "view",
      "type": "function"
    },
    {
      "inputs": [],
      "name": "stakingToken",
      "outputs": [
        {
          "internalType": "address",
          "name": "",
          "type": "address"
        }
      ],
      "stateMutability": "view",
      "type": "function"
    },
    {
      "inputs": [
        {
          "internalType": "bytes4",
          "name": "interfaceId",
          "type": "bytes4"
        }
      ],
      "name": "supportsInterface",
      "outputs": [
        {
          "internalType": "bool",
          "name": "",
          "type": "bool"
        }
      ],
      "stateMutability": "view",
      "type": "function"
    },
    {
      "inputs": [],
      "name": "symbol",
      "outputs": [
        {
          "internalType": "string",
          "name": "",
          "type": "string"
        }
      ],
      "stateMutability": "view",
      "type": "function"
    },
    {
      "inputs": [],
      "name": "tokenTotalStaked",
      "outputs": [
        {
          "internalType": "uint256",
          "name": "",
          "type": "uint256"
        }
      ],
      "stateMutability": "view",
      "type": "function"
    },
    {
      "inputs": [],
      "name": "totalSupply",
      "outputs": [
        {
          "internalType": "uint256",
          "name": "",
          "type": "uint256"
        }
      ],
      "stateMutability": "view",
      "type": "function"
    },
    {
      "inputs": [
        {
          "internalType": "address",
          "name": "recipient",
          "type": "address"
        },
        {
          "internalType": "uint256",
          "name": "amount",
          "type": "uint256"
        }
      ],
      "name": "transfer",
      "outputs": [
        {
          "internalType": "bool",
          "name": "",
          "type": "bool"
        }
      ],
      "stateMutability": "nonpayable",
      "type": "function"
    },
    {
      "inputs": [
        {
          "internalType": "address",
          "name": "sender",
          "type": "address"
        },
        {
          "internalType": "address",
          "name": "recipient",
          "type": "address"
        },
        {
          "internalType": "uint256",
          "name": "amount",
          "type": "uint256"
        }
      ],
      "name": "transferFrom",
      "outputs": [
        {
          "internalType": "bool",
          "name": "",
          "type": "bool"
        }
      ],
      "stateMutability": "nonpayable",
      "type": "function"
    },
    {
      "inputs": [
        {
          "internalType": "address",
          "name": "newOwner",
          "type": "address"
        }
      ],
      "name": "transferOwnership",
      "outputs": [],
      "stateMutability": "nonpayable",
      "type": "function"
    },
    {
      "inputs": [],
      "name": "unpause",
      "outputs": [],
      "stateMutability": "nonpayable",
      "type": "function"
    },
    {
      "inputs": [
        {
          "internalType": "address",
          "name": "_staker",
          "type": "address"
        }
      ],
      "name": "userAccumulatedRewards",
      "outputs": [
        {
          "internalType": "uint256",
          "name": "rewards",
          "type": "uint256"
        }
      ],
      "stateMutability": "view",
      "type": "function"
    },
    {
      "inputs": [],
      "name": "userAccumulatedRewards_msgSender",
      "outputs": [
        {
          "internalType": "uint256",
          "name": "",
          "type": "uint256"
        }
      ],
      "stateMutability": "view",
      "type": "function"
    },
    {
      "inputs": [
        {
          "internalType": "address",
          "name": "_staker",
          "type": "address"
        }
      ],
      "name": "userClaimableRewards",
      "outputs": [
        {
          "internalType": "uint256",
          "name": "",
          "type": "uint256"
        }
      ],
      "stateMutability": "view",
      "type": "function"
    },
    {
      "inputs": [],
      "name": "userClaimableRewards_msgSender",
      "outputs": [
        {
          "internalType": "uint256",
          "name": "",
          "type": "uint256"
        }
      ],
      "stateMutability": "view",
      "type": "function"
    },
    {
      "inputs": [
        {
          "internalType": "address",
          "name": "",
          "type": "address"
        }
      ],
      "name": "userMap",
      "outputs": [
        {
          "internalType": "uint48",
          "name": "stakeTime",
          "type": "uint48"
        },
        {
          "internalType": "uint48",
          "name": "unlockTime",
          "type": "uint48"
        },
        {
          "internalType": "uint160",
          "name": "stakeAmount",
          "type": "uint160"
        },
        {
          "internalType": "uint256",
          "name": "accumulatedRewards",
          "type": "uint256"
        }
      ],
      "stateMutability": "view",
      "type": "function"
    },
    {
      "inputs": [
        {
          "internalType": "address",
          "name": "_staker",
          "type": "address"
        }
      ],
      "name": "userTotalRewards",
      "outputs": [
        {
          "internalType": "uint256",
          "name": "",
          "type": "uint256"
        }
      ],
      "stateMutability": "view",
      "type": "function"
    },
    {
      "inputs": [],
      "name": "userTotalRewards_msgSender",
      "outputs": [
        {
          "internalType": "uint256",
          "name": "",
          "type": "uint256"
        }
      ],
      "stateMutability": "view",
      "type": "function"
    },
    {
      "inputs": [
        {
          "internalType": "uint256",
          "name": "amount",
          "type": "uint256"
        }
      ],
      "name": "withdraw",
      "outputs": [
        {
          "internalType": "uint256",
          "name": "",
          "type": "uint256"
        }
      ],
      "stateMutability": "nonpayable",
      "type": "function"
    },
    {
      "inputs": [],
      "name": "withdrawAll",
      "outputs": [
        {
          "internalType": "uint256",
          "name": "",
          "type": "uint256"
        }
      ],
      "stateMutability": "nonpayable",
      "type": "function"
    }
  ],
  "bytecode": "0x60806040523480156200001157600080fd5b506000620000266001620000ae60201b60201c565b905080156200004b576001600060016101000a81548160ff0219169083151502179055505b8015620000a75760008060016101000a81548160ff0219169083151502179055507f7f26b83ff96e1f2b6a682f133852f6798a09c465da95921460cefb384740249860016040516200009e919062000231565b60405180910390a15b50620002f7565b60008060019054906101000a900460ff1615620001385760018260ff16148015620000ec5750620000ea30620001b460201b620027181760201c565b155b6200012e576040517f08c379a00000000000000000000000000000000000000000000000000000000081526004016200012590620002d5565b60405180910390fd5b60009050620001af565b8160ff1660008054906101000a900460ff1660ff161062000190576040517f08c379a00000000000000000000000000000000000000000000000000000000081526004016200018790620002d5565b60405180910390fd5b816000806101000a81548160ff021916908360ff160217905550600190505b919050565b6000808273ffffffffffffffffffffffffffffffffffffffff163b119050919050565b6000819050919050565b600060ff82169050919050565b6000819050919050565b600062000219620002136200020d84620001d7565b620001ee565b620001e1565b9050919050565b6200022b81620001f8565b82525050565b600060208201905062000248600083018462000220565b92915050565b600082825260208201905092915050565b7f496e697469616c697a61626c653a20636f6e747261637420697320616c72656160008201527f647920696e697469616c697a6564000000000000000000000000000000000000602082015250565b6000620002bd602e836200024e565b9150620002ca826200025f565b604082019050919050565b60006020820190508181036000830152620002f081620002ae565b9050919050565b615f1380620003076000396000f3fe608060405234801561001057600080fd5b50600436106103995760003560e01c8063853828b6116101e9578063aaa748d31161010f578063dfdf35c4116100ad578063f3b95cd71161007c578063f3b95cd714610b1b578063f4b9786c14610b37578063f6a3f3cf14610b53578063f7c618c114610b8357610399565b8063dfdf35c414610a97578063ee2d505e14610ab3578063ee61e0cd14610ae3578063f2fde38b14610aff57610399565b8063d953a867116100e9578063d953a867146109fb578063dbed1e8814610a19578063dd62ed3e14610a49578063de3717fc14610a7957610399565b8063aaa748d314610991578063bf135267146109af578063d547741f146109df57610399565b806393ce534311610187578063a38a57c411610156578063a38a57c4146108e3578063a457c2d714610901578063a694fc3a14610931578063a9059cbb1461096157610399565b806393ce53431461086b57806395d89b41146108895780639a7cc1b8146108a7578063a217fddf146108c557610399565b80638aee8127116101c35780638aee8127146107e55780638da5cb5b146108015780638efb31c71461081f57806391d148541461083b57610399565b8063853828b61461078b578063872b26da146107a957806387f075d9146107c757610399565b80632f2ff15d116102ce5780635951eff11161026c57806370a082311161023b57806370a0823114610729578063715018a61461075957806372f702f3146107635780638456cb591461078157610399565b80635951eff1146106b35780635bd4b5df146106cf5780635c975abb146106ed5780636bb64e231461070b57610399565b806339509351116102a8578063395093511461063d5780633cb2efc91461066d5780633f4ba83a1461068b5780634e71d92d1461069557610399565b80632f2ff15d146105e7578063313ce5671461060357806336568abe1461062157610399565b80632170e4721161033b57806326949984116103155780632694998414610548578063282c51f3146105665780632bcc23f8146105845780632e1a7d4d146105b757610399565b80632170e472146104b857806323b872dd146104e8578063248a9ca31461051857610399565b806307dc1e1a1161037757806307dc1e1a1461041c578063095ea7b31461043a57806309ef67e61461046a57806318160ddd1461049a57610399565b806301ffc9a71461039e5780630584bd09146103ce57806306fdde03146103fe575b600080fd5b6103b860048036038101906103b3919061442e565b610ba1565b6040516103c59190614476565b60405180910390f35b6103e860048036038101906103e391906144ef565b610c1b565b6040516103f59190614535565b60405180910390f35b610406610dc0565b60405161041391906145e9565b60405180910390f35b610424610e52565b6040516104319190614535565b60405180910390f35b610454600480360381019061044f9190614637565b610e9c565b6040516104619190614476565b60405180910390f35b610484600480360381019061047f91906144ef565b610eba565b6040516104919190614535565b60405180910390f35b6104a2610f06565b6040516104af9190614535565b60405180910390f35b6104d260048036038101906104cd91906144ef565b610f10565b6040516104df9190614698565b60405180910390f35b61050260048036038101906104fd91906146b3565b610f6e565b60405161050f9190614476565b60405180910390f35b610532600480360381019061052d919061473c565b611066565b60405161053f9190614778565b60405180910390f35b610550611086565b60405161055d9190614698565b60405180910390f35b61056e611090565b60405161057b9190614778565b60405180910390f35b61059e600480360381019061059991906144ef565b6110b4565b6040516105ae94939291906147a2565b60405180910390f35b6105d160048036038101906105cc91906147e7565b611128565b6040516105de9190614535565b60405180910390f35b61060160048036038101906105fc9190614814565b61114a565b005b61060b61116b565b6040516106189190614870565b60405180910390f35b61063b60048036038101906106369190614814565b611174565b005b61065760048036038101906106529190614637565b6111f7565b6040516106649190614476565b60405180910390f35b6106756112a3565b6040516106829190614698565b60405180910390f35b6106936112b3565b005b61069d611339565b6040516106aa9190614535565b60405180910390f35b6106cd60048036038101906106c891906144ef565b611358565b005b6106d761155d565b6040516106e49190614535565b60405180910390f35b6106f561156d565b6040516107029190614476565b60405180910390f35b610713611584565b6040516107209190614535565b60405180910390f35b610743600480360381019061073e91906144ef565b611604565b6040516107509190614535565b60405180910390f35b610761611686565b005b61076b61170e565b604051610778919061489a565b60405180910390f35b610789611734565b005b6107936117ba565b6040516107a09190614535565b60405180910390f35b6107b16117e1565b6040516107be9190614535565b60405180910390f35b6107cf6117e7565b6040516107dc9190614535565b60405180910390f35b6107ff60048036038101906107fa91906144ef565b6117ed565b005b610809611972565b604051610816919061489a565b60405180910390f35b610839600480360381019061083491906147e7565b61199d565b005b61085560048036038101906108509190614814565b6119ec565b6040516108629190614476565b60405180910390f35b610873611a57565b6040516108809190614535565b60405180910390f35b610891611be3565b60405161089e91906145e9565b60405180910390f35b6108af611c75565b6040516108bc9190614535565b60405180910390f35b6108cd611c85565b6040516108da9190614778565b60405180910390f35b6108eb611c8c565b6040516108f89190614698565b60405180910390f35b61091b60048036038101906109169190614637565b611ca4565b6040516109289190614476565b60405180910390f35b61094b600480360381019061094691906147e7565b611d8f565b6040516109589190614535565b60405180910390f35b61097b60048036038101906109769190614637565b611db1565b6040516109889190614476565b60405180910390f35b610999611dcf565b6040516109a69190614698565b60405180910390f35b6109c960048036038101906109c491906144ef565b611e2b565b6040516109d69190614535565b60405180910390f35b6109f960048036038101906109f49190614814565b611ead565b005b610a03611ece565b604051610a109190614698565b60405180910390f35b610a336004803603810190610a2e91906144ef565b611ee6565b604051610a409190614698565b60405180910390f35b610a636004803603810190610a5e91906148b5565b611fd0565b604051610a709190614535565b60405180910390f35b610a81612057565b604051610a8e9190614535565b60405180910390f35b610ab16004803603810190610aac9190614921565b612067565b005b610acd6004803603810190610ac891906144ef565b612132565b604051610ada9190614535565b60405180910390f35b610afd6004803603810190610af89190614921565b6121be565b005b610b196004803603810190610b1491906144ef565b61222b565b005b610b356004803603810190610b309190614637565b612323565b005b610b516004803603810190610b4c919061494e565b6123e5565b005b610b6d6004803603810190610b6891906144ef565b612693565b604051610b7a9190614535565b60405180910390f35b610b8b6126f2565b604051610b98919061489a565b60405180910390f35b60007f7965db0b000000000000000000000000000000000000000000000000000000007bffffffffffffffffffffffffffffffffffffffffffffffffffffffff1916827bffffffffffffffffffffffffffffffffffffffffffffffffffffffff19161480610c145750610c138261273b565b5b9050919050565b60008060ca60008473ffffffffffffffffffffffffffffffffffffffff1673ffffffffffffffffffffffffffffffffffffffff16815260200190815260200160002090508060000160009054906101000a900465ffffffffffff1665ffffffffffff164211610c8e576000915050610dbb565b8060000160009054906101000a900465ffffffffffff1665ffffffffffff1660cd601a9054906101000a900465ffffffffffff1665ffffffffffff1611610cd9576000915050610dbb565b600060cd601a9054906101000a900465ffffffffffff1665ffffffffffff164211610d2f578160000160009054906101000a900465ffffffffffff1665ffffffffffff1642610d2891906149bd565b9050610d70565b8160000160009054906101000a900465ffffffffffff1660cd601a9054906101000a900465ffffffffffff16610d6591906149f1565b65ffffffffffff1690505b81600001600c9054906101000a900473ffffffffffffffffffffffffffffffffffffffff1673ffffffffffffffffffffffffffffffffffffffff1681610db69190614a25565b925050505b919050565b606060378054610dcf90614aae565b80601f0160208091040260200160405190810160405280929190818152602001828054610dfb90614aae565b8015610e485780601f10610e1d57610100808354040283529160200191610e48565b820191906000526020600020905b815481529060010190602001808311610e2b57829003601f168201915b5050505050905090565b600060ca60003373ffffffffffffffffffffffffffffffffffffffff1673ffffffffffffffffffffffffffffffffffffffff16815260200190815260200160002060010154905090565b6000610eb0610ea96127a5565b84846127ad565b6001905092915050565b600060ca60008373ffffffffffffffffffffffffffffffffffffffff1673ffffffffffffffffffffffffffffffffffffffff168152602001908152602001600020600101549050919050565b6000603654905090565b600060ca60008373ffffffffffffffffffffffffffffffffffffffff1673ffffffffffffffffffffffffffffffffffffffff16815260200190815260200160002060000160009054906101000a900465ffffffffffff169050919050565b6000610f7b848484612978565b6000603560008673ffffffffffffffffffffffffffffffffffffffff1673ffffffffffffffffffffffffffffffffffffffff1681526020019081526020016000206000610fc66127a5565b73ffffffffffffffffffffffffffffffffffffffff1673ffffffffffffffffffffffffffffffffffffffff16815260200190815260200160002054905082811015611046576040517f08c379a000000000000000000000000000000000000000000000000000000000815260040161103d90614b52565b60405180910390fd5b61105a856110526127a5565b8584036127ad565b60019150509392505050565b600060986000838152602001908152602001600020600101549050919050565b65ffffffffffff81565b7f3c11d16cbaffd01df69ce1c404f6340ee057498f5f00246190ea54220576a84881565b60ca6020528060005260406000206000915090508060000160009054906101000a900465ffffffffffff16908060000160069054906101000a900465ffffffffffff169080600001600c9054906101000a900473ffffffffffffffffffffffffffffffffffffffff16908060010154905084565b6000611132612bfc565b61113b82612c4c565b9050611145612f00565b919050565b61115382611066565b61115c81612f09565b6111668383612f1d565b505050565b60006012905090565b61117c6127a5565b73ffffffffffffffffffffffffffffffffffffffff168173ffffffffffffffffffffffffffffffffffffffff16146111e9576040517f08c379a00000000000000000000000000000000000000000000000000000000081526004016111e090614be4565b60405180910390fd5b6111f38282612ffe565b5050565b60006112996112046127a5565b8484603560006112126127a5565b73ffffffffffffffffffffffffffffffffffffffff1673ffffffffffffffffffffffffffffffffffffffff16815260200190815260200160002060008873ffffffffffffffffffffffffffffffffffffffff1673ffffffffffffffffffffffffffffffffffffffff168152602001908152602001600020546112949190614c04565b6127ad565b6001905092915050565b60006112ae33611ee6565b905090565b6112bb6127a5565b73ffffffffffffffffffffffffffffffffffffffff166112d9611972565b73ffffffffffffffffffffffffffffffffffffffff161461132f576040517f08c379a000000000000000000000000000000000000000000000000000000000815260040161132690614ca6565b60405180910390fd5b6113376130e0565b565b6000611343612bfc565b61134b613182565b9050611355612f00565b90565b6000801b61136581612f09565b60cc60009054906101000a900473ffffffffffffffffffffffffffffffffffffffff1673ffffffffffffffffffffffffffffffffffffffff168273ffffffffffffffffffffffffffffffffffffffff1614156113f6576040517f08c379a00000000000000000000000000000000000000000000000000000000081526004016113ed90614d12565b60405180910390fd5b60008273ffffffffffffffffffffffffffffffffffffffff166370a08231306040518263ffffffff1660e01b8152600401611431919061489a565b602060405180830381865afa15801561144e573d6000803e3d6000fd5b505050506040513d601f19601f820116820180604052508101906114729190614d47565b90508273ffffffffffffffffffffffffffffffffffffffff1663a9059cbb33836040518363ffffffff1660e01b81526004016114af929190614d74565b6020604051808303816000875af11580156114ce573d6000803e3d6000fd5b505050506040513d601f19601f820116820180604052508101906114f29190614dc9565b503373ffffffffffffffffffffffffffffffffffffffff168373ffffffffffffffffffffffffffffffffffffffff167f4c9443772ec3472e2ea8a88e5c31e6bb75e94541dc672d5ca2a1197ada10b598836040516115509190614535565b60405180910390a3505050565b600061156833610c1b565b905090565b600060cf60009054906101000a900460ff16905090565b600060ca60003373ffffffffffffffffffffffffffffffffffffffff1673ffffffffffffffffffffffffffffffffffffffff168152602001908152602001600020600001600c9054906101000a900473ffffffffffffffffffffffffffffffffffffffff1673ffffffffffffffffffffffffffffffffffffffff16905090565b600060ca60008373ffffffffffffffffffffffffffffffffffffffff1673ffffffffffffffffffffffffffffffffffffffff168152602001908152602001600020600001600c9054906101000a900473ffffffffffffffffffffffffffffffffffffffff1673ffffffffffffffffffffffffffffffffffffffff169050919050565b61168e6127a5565b73ffffffffffffffffffffffffffffffffffffffff166116ac611972565b73ffffffffffffffffffffffffffffffffffffffff1614611702576040517f08c379a00000000000000000000000000000000000000000000000000000000081526004016116f990614ca6565b60405180910390fd5b61170c600061345b565b565b60cc60009054906101000a900473ffffffffffffffffffffffffffffffffffffffff1681565b61173c6127a5565b73ffffffffffffffffffffffffffffffffffffffff1661175a611972565b73ffffffffffffffffffffffffffffffffffffffff16146117b0576040517f08c379a00000000000000000000000000000000000000000000000000000000081526004016117a790614ca6565b60405180910390fd5b6117b8613523565b565b60006117c4612bfc565b6117d46117cf611584565b612c4c565b90506117de612f00565b90565b60cb5481565b60ce5481565b6117f5612bfc565b6000801b61180281612f09565b600060cd60009054906101000a900473ffffffffffffffffffffffffffffffffffffffff1690506000611833611a57565b905060008111156118be578173ffffffffffffffffffffffffffffffffffffffff1663a9059cbb33836040518363ffffffff1660e01b8152600401611879929190614d74565b6020604051808303816000875af1158015611898573d6000803e3d6000fd5b505050506040513d601f19601f820116820180604052508101906118bc9190614dc9565b505b8360cd60006101000a81548173ffffffffffffffffffffffffffffffffffffffff021916908373ffffffffffffffffffffffffffffffffffffffff1602179055508373ffffffffffffffffffffffffffffffffffffffff168273ffffffffffffffffffffffffffffffffffffffff167fc133375757269458a329c73a344c8ef483535870f46ed4cd332f857a5ef525d08360405161195c9190614535565b60405180910390a350505061196f612f00565b50565b600061010160009054906101000a900473ffffffffffffffffffffffffffffffffffffffff16905090565b6000801b6119aa81612f09565b8160ce819055507f929e0b2903ee7e8bb87bf220a340db1f5551e7042e5f2567ed08117c0709fa21826040516119e09190614535565b60405180910390a15050565b60006098600084815260200190815260200160002060000160008373ffffffffffffffffffffffffffffffffffffffff1673ffffffffffffffffffffffffffffffffffffffff16815260200190815260200160002060009054906101000a900460ff16905092915050565b60008073ffffffffffffffffffffffffffffffffffffffff1660cd60009054906101000a900473ffffffffffffffffffffffffffffffffffffffff1673ffffffffffffffffffffffffffffffffffffffff161415611ab85760009050611be0565b60cd60009054906101000a900473ffffffffffffffffffffffffffffffffffffffff1673ffffffffffffffffffffffffffffffffffffffff166370a08231306040518263ffffffff1660e01b8152600401611b13919061489a565b602060405180830381865afa158015611b30573d6000803e3d6000fd5b505050506040513d601f19601f82011682018060405250810190611b549190614d47565b905060cd60009054906101000a900473ffffffffffffffffffffffffffffffffffffffff1673ffffffffffffffffffffffffffffffffffffffff1660cc60009054906101000a900473ffffffffffffffffffffffffffffffffffffffff1673ffffffffffffffffffffffffffffffffffffffff161415611bdf5760cb5481611bdc91906149bd565b90505b5b90565b606060388054611bf290614aae565b80601f0160208091040260200160405190810160405280929190818152602001828054611c1e90614aae565b8015611c6b5780601f10611c4057610100808354040283529160200191611c6b565b820191906000526020600020905b815481529060010190602001808311611c4e57829003601f168201915b5050505050905090565b6000611c8033612132565b905090565b6000801b81565b60cd601a9054906101000a900465ffffffffffff1681565b60008060356000611cb36127a5565b73ffffffffffffffffffffffffffffffffffffffff1673ffffffffffffffffffffffffffffffffffffffff16815260200190815260200160002060008573ffffffffffffffffffffffffffffffffffffffff1673ffffffffffffffffffffffffffffffffffffffff16815260200190815260200160002054905082811015611d70576040517f08c379a0000000000000000000000000000000000000000000000000000000008152600401611d6790614e68565b60405180910390fd5b611d84611d7b6127a5565b858584036127ad565b600191505092915050565b6000611d99612bfc565b611da2826135c6565b9050611dac612f00565b919050565b6000611dc5611dbe6127a5565b8484612978565b6001905092915050565b600060ca60003373ffffffffffffffffffffffffffffffffffffffff1673ffffffffffffffffffffffffffffffffffffffff16815260200190815260200160002060000160009054906101000a900465ffffffffffff16905090565b600060ca60008373ffffffffffffffffffffffffffffffffffffffff1673ffffffffffffffffffffffffffffffffffffffff168152602001908152602001600020600001600c9054906101000a900473ffffffffffffffffffffffffffffffffffffffff1673ffffffffffffffffffffffffffffffffffffffff169050919050565b611eb682611066565b611ebf81612f09565b611ec98383612ffe565b505050565b60cd60149054906101000a900465ffffffffffff1681565b60008060ca60008473ffffffffffffffffffffffffffffffffffffffff1673ffffffffffffffffffffffffffffffffffffffff168152602001908152602001600020600001600c9054906101000a900473ffffffffffffffffffffffffffffffffffffffff1673ffffffffffffffffffffffffffffffffffffffff1611611f735765ffffffffffff611fc9565b60ca60008373ffffffffffffffffffffffffffffffffffffffff1673ffffffffffffffffffffffffffffffffffffffff16815260200190815260200160002060000160069054906101000a900465ffffffffffff165b9050919050565b6000603560008473ffffffffffffffffffffffffffffffffffffffff1673ffffffffffffffffffffffffffffffffffffffff16815260200190815260200160002060008373ffffffffffffffffffffffffffffffffffffffff1673ffffffffffffffffffffffffffffffffffffffff16815260200190815260200160002054905092915050565b600061206233612693565b905090565b6000801b61207481612f09565b4260cd601a9054906101000a900465ffffffffffff1665ffffffffffff16116120d2576040517f08c379a00000000000000000000000000000000000000000000000000000000081526004016120c990614ed4565b60405180910390fd5b8160cd601a6101000a81548165ffffffffffff021916908365ffffffffffff1602179055507fb8ec1a7db76539d0a932b67153298ec5ba41b1f965bd5f66e9419431d517291a826040516121269190614698565b60405180910390a15050565b60008073ffffffffffffffffffffffffffffffffffffffff1660cd60009054906101000a900473ffffffffffffffffffffffffffffffffffffffff1673ffffffffffffffffffffffffffffffffffffffff1614806121925750600060ce54145b156121a057600090506121b9565b60ce546121ac83612693565b6121b69190614f23565b90505b919050565b6000801b6121cb81612f09565b8160cd60146101000a81548165ffffffffffff021916908365ffffffffffff1602179055507fe9f020bdf01408388704d87e8162e06252d160de9f8cc075b32ce7ebbebc263e8260405161221f9190614698565b60405180910390a15050565b6122336127a5565b73ffffffffffffffffffffffffffffffffffffffff16612251611972565b73ffffffffffffffffffffffffffffffffffffffff16146122a7576040517f08c379a000000000000000000000000000000000000000000000000000000000815260040161229e90614ca6565b60405180910390fd5b600073ffffffffffffffffffffffffffffffffffffffff168173ffffffffffffffffffffffffffffffffffffffff161415612317576040517f08c379a000000000000000000000000000000000000000000000000000000000815260040161230e90614fc6565b60405180910390fd5b6123208161345b565b50565b7f3c11d16cbaffd01df69ce1c404f6340ee057498f5f00246190ea54220576a84861234d81612f09565b60006123588461381a565b90508060010154831015612386578281600101600082825461237a91906149bd565b92505081905550612391565b600081600101819055505b8373ffffffffffffffffffffffffffffffffffffffff167f33e88885e6abd26d1f3ea3b4b37c2f6e0ff31fa24c7721763eca867537bdf5d2846040516123d79190614535565b60405180910390a250505050565b60006123f160016138b4565b90508015612415576001600060016101000a81548160ff0219169083151502179055505b6124896040518060400160405280600e81526020017f4b342052616c6c7920546f6b656e0000000000000000000000000000000000008152506040518060400160405280600381526020017f4b345200000000000000000000000000000000000000000000000000000000008152506139a4565b612491613a44565b612499613ae0565b600073ffffffffffffffffffffffffffffffffffffffff168373ffffffffffffffffffffffffffffffffffffffff161415612509576040517f08c379a000000000000000000000000000000000000000000000000000000000815260040161250090615032565b60405180910390fd5b6301e285008265ffffffffffff1610612557576040517f08c379a000000000000000000000000000000000000000000000000000000000815260040161254e9061509e565b60405180910390fd5b8260cc60006101000a81548173ffffffffffffffffffffffffffffffffffffffff021916908373ffffffffffffffffffffffffffffffffffffffff1602179055508160cd60146101000a81548165ffffffffffff021916908365ffffffffffff1602179055506305265c0060ce819055506301e28500426125d89190614c04565b60cd601a6101000a81548165ffffffffffff021916908365ffffffffffff1602179055506126096000801b33613b7c565b6126353361261561116b565b600a61262191906151f1565b633b9aca006126309190614a25565b613b8a565b801561268e5760008060016101000a81548160ff0219169083151502179055507f7f26b83ff96e1f2b6a682f133852f6798a09c465da95921460cefb384740249860016040516126859190615281565b60405180910390a15b505050565b600060ca60008373ffffffffffffffffffffffffffffffffffffffff1673ffffffffffffffffffffffffffffffffffffffff168152602001908152602001600020600101546126e183610c1b565b6126eb9190614c04565b9050919050565b60cd60009054906101000a900473ffffffffffffffffffffffffffffffffffffffff1681565b6000808273ffffffffffffffffffffffffffffffffffffffff163b119050919050565b60007f01ffc9a7000000000000000000000000000000000000000000000000000000007bffffffffffffffffffffffffffffffffffffffffffffffffffffffff1916827bffffffffffffffffffffffffffffffffffffffffffffffffffffffff1916149050919050565b600033905090565b600073ffffffffffffffffffffffffffffffffffffffff168373ffffffffffffffffffffffffffffffffffffffff16141561281d576040517f08c379a00000000000000000000000000000000000000000000000000000000081526004016128149061530e565b60405180910390fd5b600073ffffffffffffffffffffffffffffffffffffffff168273ffffffffffffffffffffffffffffffffffffffff16141561288d576040517f08c379a0000000000000000000000000000000000000000000000000000000008152600401612884906153a0565b60405180910390fd5b80603560008573ffffffffffffffffffffffffffffffffffffffff1673ffffffffffffffffffffffffffffffffffffffff16815260200190815260200160002060008473ffffffffffffffffffffffffffffffffffffffff1673ffffffffffffffffffffffffffffffffffffffff168152602001908152602001600020819055508173ffffffffffffffffffffffffffffffffffffffff168373ffffffffffffffffffffffffffffffffffffffff167f8c5be1e5ebec7d5bd14f71427d1e84f3dd0314c0f7b2291e5b200ac8c7c3b9258360405161296b9190614535565b60405180910390a3505050565b600073ffffffffffffffffffffffffffffffffffffffff168373ffffffffffffffffffffffffffffffffffffffff1614156129e8576040517f08c379a00000000000000000000000000000000000000000000000000000000081526004016129df90615432565b60405180910390fd5b600073ffffffffffffffffffffffffffffffffffffffff168273ffffffffffffffffffffffffffffffffffffffff161415612a58576040517f08c379a0000000000000000000000000000000000000000000000000000000008152600401612a4f906154c4565b60405180910390fd5b612a63838383613ceb565b6000603460008573ffffffffffffffffffffffffffffffffffffffff1673ffffffffffffffffffffffffffffffffffffffff16815260200190815260200160002054905081811015612aea576040517f08c379a0000000000000000000000000000000000000000000000000000000008152600401612ae190615556565b60405180910390fd5b818103603460008673ffffffffffffffffffffffffffffffffffffffff1673ffffffffffffffffffffffffffffffffffffffff1681526020019081526020016000208190555081603460008573ffffffffffffffffffffffffffffffffffffffff1673ffffffffffffffffffffffffffffffffffffffff1681526020019081526020016000206000828254612b7f9190614c04565b925050819055508273ffffffffffffffffffffffffffffffffffffffff168473ffffffffffffffffffffffffffffffffffffffff167fddf252ad1be2c89b69c2b068fc378daa952ba7f163c4a11628f55a4df523b3ef84604051612be39190614535565b60405180910390a3612bf6848484613d43565b50505050565b60026001541415612c42576040517f08c379a0000000000000000000000000000000000000000000000000000000008152600401612c39906155c2565b60405180910390fd5b6002600181905550565b6000808211612c90576040517f08c379a0000000000000000000000000000000000000000000000000000000008152600401612c879061562e565b60405180910390fd5b612c9933611ee6565b65ffffffffffff164211612ce2576040517f08c379a0000000000000000000000000000000000000000000000000000000008152600401612cd99061569a565b60405180910390fd5b6000612ced3361381a565b905080600001600c9054906101000a900473ffffffffffffffffffffffffffffffffffffffff1673ffffffffffffffffffffffffffffffffffffffff16831115612d6c576040517f08c379a0000000000000000000000000000000000000000000000000000000008152600401612d6390615706565b60405180910390fd5b612d7583613d48565b81600001600c8282829054906101000a900473ffffffffffffffffffffffffffffffffffffffff16612da79190615726565b92506101000a81548173ffffffffffffffffffffffffffffffffffffffff021916908373ffffffffffffffffffffffffffffffffffffffff1602179055508260cb6000828254612df791906149bd565b9250508190555060cc60009054906101000a900473ffffffffffffffffffffffffffffffffffffffff1673ffffffffffffffffffffffffffffffffffffffff1663a9059cbb33856040518363ffffffff1660e01b8152600401612e5b929190614d74565b6020604051808303816000875af1158015612e7a573d6000803e3d6000fd5b505050506040513d601f19601f82011682018060405250810190612e9e9190614dc9565b503373ffffffffffffffffffffffffffffffffffffffff167ff279e6a1f5e320cca91135676d9cb6e44ca8a08c0b88342bcdb1144f6511b56884612ee142613dab565b604051612eef92919061578b565b60405180910390a282915050919050565b60018081905550565b612f1a81612f156127a5565b613e00565b50565b612f2782826119ec565b612ffa5760016098600084815260200190815260200160002060000160008373ffffffffffffffffffffffffffffffffffffffff1673ffffffffffffffffffffffffffffffffffffffff16815260200190815260200160002060006101000a81548160ff021916908315150217905550612f9f6127a5565b73ffffffffffffffffffffffffffffffffffffffff168173ffffffffffffffffffffffffffffffffffffffff16837f2f8788117e7eff1d82e926ec794901d17c78024a50270940304540a733656f0d60405160405180910390a45b5050565b61300882826119ec565b156130dc5760006098600084815260200190815260200160002060000160008373ffffffffffffffffffffffffffffffffffffffff1673ffffffffffffffffffffffffffffffffffffffff16815260200190815260200160002060006101000a81548160ff0219169083151502179055506130816127a5565b73ffffffffffffffffffffffffffffffffffffffff168173ffffffffffffffffffffffffffffffffffffffff16837ff6391f5c32d9c69d2a47ea670b442974b53935d1edc7fd64eb21e047a839171b60405160405180910390a45b5050565b6130e861156d565b613127576040517f08c379a000000000000000000000000000000000000000000000000000000000815260040161311e90615800565b60405180910390fd5b600060cf60006101000a81548160ff0219169083151502179055507f5db9ee0a495bf2e6ff9c91a7834c1ba4fdd244a5e8aa4e537bd38aeae4b073aa61316b6127a5565b604051613178919061489a565b60405180910390a1565b60008073ffffffffffffffffffffffffffffffffffffffff1660cd60009054906101000a900473ffffffffffffffffffffffffffffffffffffffff1673ffffffffffffffffffffffffffffffffffffffff161415613215576040517f08c379a000000000000000000000000000000000000000000000000000000000815260040161320c9061586c565b60405180910390fd5b600061322033612132565b905060008111613265576040517f08c379a000000000000000000000000000000000000000000000000000000000815260040161325c906158d8565b60405180910390fd5b600060ca60003373ffffffffffffffffffffffffffffffffffffffff1673ffffffffffffffffffffffffffffffffffffffff1681526020019081526020016000209050600081600101819055506132bb42613dab565b8160000160006101000a81548165ffffffffffff021916908365ffffffffffff1602179055506132e9611a57565b82111561332b576040517f08c379a000000000000000000000000000000000000000000000000000000000815260040161332290615944565b60405180910390fd5b60cd60009054906101000a900473ffffffffffffffffffffffffffffffffffffffff1673ffffffffffffffffffffffffffffffffffffffff1663a9059cbb33846040518363ffffffff1660e01b8152600401613388929190614d74565b6020604051808303816000875af11580156133a7573d6000803e3d6000fd5b505050506040513d601f19601f820116820180604052508101906133cb9190614dc9565b5060cd60009054906101000a900473ffffffffffffffffffffffffffffffffffffffff1673ffffffffffffffffffffffffffffffffffffffff163373ffffffffffffffffffffffffffffffffffffffff167ff7a40077ff7a04c7e61f6f26fb13774259ddf1b6bce9ecf26a8276cdd39926838460405161344b9190614535565b60405180910390a3819250505090565b600061010160009054906101000a900473ffffffffffffffffffffffffffffffffffffffff1690508161010160006101000a81548173ffffffffffffffffffffffffffffffffffffffff021916908373ffffffffffffffffffffffffffffffffffffffff1602179055508173ffffffffffffffffffffffffffffffffffffffff168173ffffffffffffffffffffffffffffffffffffffff167f8be0079c531659141344cd1fd0a4f28419497f9722a3daafe3b4186f6b6457e060405160405180910390a35050565b61352b61156d565b1561356b576040517f08c379a0000000000000000000000000000000000000000000000000000000008152600401613562906159b0565b60405180910390fd5b600160cf60006101000a81548160ff0219169083151502179055507f62e78cea01bee320cd4e420270b5ea74000d11b0c9f74754ebdbfc544b05a2586135af6127a5565b6040516135bc919061489a565b60405180910390a1565b600080821161360a576040517f08c379a000000000000000000000000000000000000000000000000000000000815260040161360190615a1c565b60405180910390fd5b60006136153361381a565b90506136658382600001600c9054906101000a900473ffffffffffffffffffffffffffffffffffffffff1673ffffffffffffffffffffffffffffffffffffffff166136609190614c04565b613d48565b81600001600c6101000a81548173ffffffffffffffffffffffffffffffffffffffff021916908373ffffffffffffffffffffffffffffffffffffffff1602179055508260cb60008282546136b99190614c04565b925050819055506136f060cd60149054906101000a900465ffffffffffff1665ffffffffffff16426136eb9190614c04565b613dab565b8160000160066101000a81548165ffffffffffff021916908365ffffffffffff16021790555060cc60009054906101000a900473ffffffffffffffffffffffffffffffffffffffff1673ffffffffffffffffffffffffffffffffffffffff166323b872dd3330866040518463ffffffff1660e01b815260040161377593929190615a3c565b6020604051808303816000875af1158015613794573d6000803e3d6000fd5b505050506040513d601f19601f820116820180604052508101906137b89190614dc9565b503373ffffffffffffffffffffffffffffffffffffffff167f5af417134f72a9d41143ace85b0a26dce6f550f894f2cbc1eeee8810603d91b6846137fb42613dab565b60405161380992919061578b565b60405180910390a282915050919050565b600060ca60008373ffffffffffffffffffffffffffffffffffffffff1673ffffffffffffffffffffffffffffffffffffffff168152602001908152602001600020905061386682610c1b565b8160010160008282546138799190614c04565b9250508190555061388942613dab565b8160000160006101000a81548165ffffffffffff021916908365ffffffffffff160217905550919050565b60008060019054906101000a900460ff161561392b5760018260ff161480156138e357506138e130612718565b155b613922576040517f08c379a000000000000000000000000000000000000000000000000000000000815260040161391990615ae5565b60405180910390fd5b6000905061399f565b8160ff1660008054906101000a900460ff1660ff1610613980576040517f08c379a000000000000000000000000000000000000000000000000000000000815260040161397790615ae5565b60405180910390fd5b816000806101000a81548160ff021916908360ff160217905550600190505b919050565b60006139b060016138b4565b905080156139d4576001600060016101000a81548160ff0219169083151502179055505b6139dc613e9d565b6139e68383613eee565b8015613a3f5760008060016101000a81548160ff0219169083151502179055507f7f26b83ff96e1f2b6a682f133852f6798a09c465da95921460cefb38474024986001604051613a369190615281565b60405180910390a15b505050565b6000613a5060016138b4565b90508015613a74576001600060016101000a81548160ff0219169083151502179055505b613a7c613e9d565b613a84613faa565b8015613add5760008060016101000a81548160ff0219169083151502179055507f7f26b83ff96e1f2b6a682f133852f6798a09c465da95921460cefb38474024986001604051613ad49190615281565b60405180910390a15b50565b6000613aec60016138b4565b90508015613b10576001600060016101000a81548160ff0219169083151502179055505b613b18613e9d565b613b20614051565b8015613b795760008060016101000a81548160ff0219169083151502179055507f7f26b83ff96e1f2b6a682f133852f6798a09c465da95921460cefb38474024986001604051613b709190615281565b60405180910390a15b50565b613b868282612f1d565b5050565b600073ffffffffffffffffffffffffffffffffffffffff168273ffffffffffffffffffffffffffffffffffffffff161415613bfa576040517f08c379a0000000000000000000000000000000000000000000000000000000008152600401613bf190615b51565b60405180910390fd5b613c0660008383613ceb565b8060366000828254613c189190614c04565b9250508190555080603460008473ffffffffffffffffffffffffffffffffffffffff1673ffffffffffffffffffffffffffffffffffffffff1681526020019081526020016000206000828254613c6e9190614c04565b925050819055508173ffffffffffffffffffffffffffffffffffffffff16600073ffffffffffffffffffffffffffffffffffffffff167fddf252ad1be2c89b69c2b068fc378daa952ba7f163c4a11628f55a4df523b3ef83604051613cd39190614535565b60405180910390a3613ce760008383613d43565b5050565b613cf361156d565b15613d33576040517f08c379a0000000000000000000000000000000000000000000000000000000008152600401613d2a906159b0565b60405180910390fd5b613d3e8383836140ed565b505050565b505050565b600073ffffffffffffffffffffffffffffffffffffffff8016821115613da3576040517f08c379a0000000000000000000000000000000000000000000000000000000008152600401613d9a90615bbd565b60405180910390fd5b819050919050565b600065ffffffffffff8016821115613df8576040517f08c379a0000000000000000000000000000000000000000000000000000000008152600401613def90615c29565b60405180910390fd5b819050919050565b613e0a82826119ec565b613e9957613e2f8173ffffffffffffffffffffffffffffffffffffffff1660146140f2565b613e3d8360001c60206140f2565b604051602001613e4e929190615d1d565b6040516020818303038152906040526040517f08c379a0000000000000000000000000000000000000000000000000000000008152600401613e9091906145e9565b60405180910390fd5b5050565b600060019054906101000a900460ff16613eec576040517f08c379a0000000000000000000000000000000000000000000000000000000008152600401613ee390615dc9565b60405180910390fd5b565b6000613efa60016138b4565b90508015613f1e576001600060016101000a81548160ff0219169083151502179055505b8260379080519060200190613f3492919061432e565b508160389080519060200190613f4b92919061432e565b508015613fa55760008060016101000a81548160ff0219169083151502179055507f7f26b83ff96e1f2b6a682f133852f6798a09c465da95921460cefb38474024986001604051613f9c9190615281565b60405180910390a15b505050565b6000613fb660016138b4565b90508015613fda576001600060016101000a81548160ff0219169083151502179055505b600060cf60006101000a81548160ff021916908315150217905550801561404e5760008060016101000a81548160ff0219169083151502179055507f7f26b83ff96e1f2b6a682f133852f6798a09c465da95921460cefb384740249860016040516140459190615281565b60405180910390a15b50565b600061405d60016138b4565b90508015614081576001600060016101000a81548160ff0219169083151502179055505b61409161408c6127a5565b61345b565b80156140ea5760008060016101000a81548160ff0219169083151502179055507f7f26b83ff96e1f2b6a682f133852f6798a09c465da95921460cefb384740249860016040516140e19190615281565b60405180910390a15b50565b505050565b6060600060028360026141059190614a25565b61410f9190614c04565b67ffffffffffffffff81111561412857614127615de9565b5b6040519080825280601f01601f19166020018201604052801561415a5781602001600182028036833780820191505090505b5090507f30000000000000000000000000000000000000000000000000000000000000008160008151811061419257614191615e18565b5b60200101907effffffffffffffffffffffffffffffffffffffffffffffffffffffffffffff1916908160001a9053507f7800000000000000000000000000000000000000000000000000000000000000816001815181106141f6576141f5615e18565b5b60200101907effffffffffffffffffffffffffffffffffffffffffffffffffffffffffffff1916908160001a905350600060018460026142369190614a25565b6142409190614c04565b90505b60018111156142e0577f3031323334353637383961626364656600000000000000000000000000000000600f86166010811061428257614281615e18565b5b1a60f81b82828151811061429957614298615e18565b5b60200101907effffffffffffffffffffffffffffffffffffffffffffffffffffffffffffff1916908160001a905350600485901c9450806142d990615e47565b9050614243565b5060008414614324576040517f08c379a000000000000000000000000000000000000000000000000000000000815260040161431b90615ebd565b60405180910390fd5b8091505092915050565b82805461433a90614aae565b90600052602060002090601f01602090048101928261435c57600085556143a3565b82601f1061437557805160ff19168380011785556143a3565b828001600101855582156143a3579182015b828111156143a2578251825591602001919060010190614387565b5b5090506143b091906143b4565b5090565b5b808211156143cd5760008160009055506001016143b5565b5090565b600080fd5b60007fffffffff0000000000000000000000000000000000000000000000000000000082169050919050565b61440b816143d6565b811461441657600080fd5b50565b60008135905061442881614402565b92915050565b600060208284031215614444576144436143d1565b5b600061445284828501614419565b91505092915050565b60008115159050919050565b6144708161445b565b82525050565b600060208201905061448b6000830184614467565b92915050565b600073ffffffffffffffffffffffffffffffffffffffff82169050919050565b60006144bc82614491565b9050919050565b6144cc816144b1565b81146144d757600080fd5b50565b6000813590506144e9816144c3565b92915050565b600060208284031215614505576145046143d1565b5b6000614513848285016144da565b91505092915050565b6000819050919050565b61452f8161451c565b82525050565b600060208201905061454a6000830184614526565b92915050565b600081519050919050565b600082825260208201905092915050565b60005b8381101561458a57808201518184015260208101905061456f565b83811115614599576000848401525b50505050565b6000601f19601f8301169050919050565b60006145bb82614550565b6145c5818561455b565b93506145d581856020860161456c565b6145de8161459f565b840191505092915050565b6000602082019050818103600083015261460381846145b0565b905092915050565b6146148161451c565b811461461f57600080fd5b50565b6000813590506146318161460b565b92915050565b6000806040838503121561464e5761464d6143d1565b5b600061465c858286016144da565b925050602061466d85828601614622565b9150509250929050565b600065ffffffffffff82169050919050565b61469281614677565b82525050565b60006020820190506146ad6000830184614689565b92915050565b6000806000606084860312156146cc576146cb6143d1565b5b60006146da868287016144da565b93505060206146eb868287016144da565b92505060406146fc86828701614622565b9150509250925092565b6000819050919050565b61471981614706565b811461472457600080fd5b50565b60008135905061473681614710565b92915050565b600060208284031215614752576147516143d1565b5b600061476084828501614727565b91505092915050565b61477281614706565b82525050565b600060208201905061478d6000830184614769565b92915050565b61479c81614491565b82525050565b60006080820190506147b76000830187614689565b6147c46020830186614689565b6147d16040830185614793565b6147de6060830184614526565b95945050505050565b6000602082840312156147fd576147fc6143d1565b5b600061480b84828501614622565b91505092915050565b6000806040838503121561482b5761482a6143d1565b5b600061483985828601614727565b925050602061484a858286016144da565b9150509250929050565b600060ff82169050919050565b61486a81614854565b82525050565b60006020820190506148856000830184614861565b92915050565b614894816144b1565b82525050565b60006020820190506148af600083018461488b565b92915050565b600080604083850312156148cc576148cb6143d1565b5b60006148da858286016144da565b92505060206148eb858286016144da565b9150509250929050565b6148fe81614677565b811461490957600080fd5b50565b60008135905061491b816148f5565b92915050565b600060208284031215614937576149366143d1565b5b60006149458482850161490c565b91505092915050565b60008060408385031215614965576149646143d1565b5b6000614973858286016144da565b92505060206149848582860161490c565b9150509250929050565b7f4e487b7100000000000000000000000000000000000000000000000000000000600052601160045260246000fd5b60006149c88261451c565b91506149d38361451c565b9250828210156149e6576149e561498e565b5b828203905092915050565b60006149fc82614677565b9150614a0783614677565b925082821015614a1a57614a1961498e565b5b828203905092915050565b6000614a308261451c565b9150614a3b8361451c565b9250817fffffffffffffffffffffffffffffffffffffffffffffffffffffffffffffffff0483118215151615614a7457614a7361498e565b5b828202905092915050565b7f4e487b7100000000000000000000000000000000000000000000000000000000600052602260045260246000fd5b60006002820490506001821680614ac657607f821691505b60208210811415614ada57614ad9614a7f565b5b50919050565b7f45524332303a207472616e7366657220616d6f756e742065786365656473206160008201527f6c6c6f77616e6365000000000000000000000000000000000000000000000000602082015250565b6000614b3c60288361455b565b9150614b4782614ae0565b604082019050919050565b60006020820190508181036000830152614b6b81614b2f565b9050919050565b7f416363657373436f6e74726f6c3a2063616e206f6e6c792072656e6f756e636560008201527f20726f6c657320666f722073656c660000000000000000000000000000000000602082015250565b6000614bce602f8361455b565b9150614bd982614b72565b604082019050919050565b60006020820190508181036000830152614bfd81614bc1565b9050919050565b6000614c0f8261451c565b9150614c1a8361451c565b9250827fffffffffffffffffffffffffffffffffffffffffffffffffffffffffffffffff03821115614c4f57614c4e61498e565b5b828201905092915050565b7f4f776e61626c653a2063616c6c6572206973206e6f7420746865206f776e6572600082015250565b6000614c9060208361455b565b9150614c9b82614c5a565b602082019050919050565b60006020820190508181036000830152614cbf81614c83565b9050919050565b7f63616e206e6f74207769746864726177207374616b696e6720746f6b656e0000600082015250565b6000614cfc601e8361455b565b9150614d0782614cc6565b602082019050919050565b60006020820190508181036000830152614d2b81614cef565b9050919050565b600081519050614d418161460b565b92915050565b600060208284031215614d5d57614d5c6143d1565b5b6000614d6b84828501614d32565b91505092915050565b6000604082019050614d89600083018561488b565b614d966020830184614526565b9392505050565b614da68161445b565b8114614db157600080fd5b50565b600081519050614dc381614d9d565b92915050565b600060208284031215614ddf57614dde6143d1565b5b6000614ded84828501614db4565b91505092915050565b7f45524332303a2064656372656173656420616c6c6f77616e63652062656c6f7760008201527f207a65726f000000000000000000000000000000000000000000000000000000602082015250565b6000614e5260258361455b565b9150614e5d82614df6565b604082019050919050565b60006020820190508181036000830152614e8181614e45565b9050919050565b7f74696d652068617320746f20626520696e207468652066757475726500000000600082015250565b6000614ebe601c8361455b565b9150614ec982614e88565b602082019050919050565b60006020820190508181036000830152614eed81614eb1565b9050919050565b7f4e487b7100000000000000000000000000000000000000000000000000000000600052601260045260246000fd5b6000614f2e8261451c565b9150614f398361451c565b925082614f4957614f48614ef4565b5b828204905092915050565b7f4f776e61626c653a206e6577206f776e657220697320746865207a65726f206160008201527f6464726573730000000000000000000000000000000000000000000000000000602082015250565b6000614fb060268361455b565b9150614fbb82614f54565b604082019050919050565b60006020820190508181036000830152614fdf81614fa3565b9050919050565b7f7374616b696e67546f6b656e2e61646472657373203d3d203000000000000000600082015250565b600061501c60198361455b565b915061502782614fe6565b602082019050919050565b6000602082019050818103600083015261504b8161500f565b9050919050565b7f6c6f636b54696d65506572696f64203e3d203336362064617973000000000000600082015250565b6000615088601a8361455b565b915061509382615052565b602082019050919050565b600060208201905081810360008301526150b78161507b565b9050919050565b60008160011c9050919050565b6000808291508390505b6001851115615115578086048111156150f1576150f061498e565b5b60018516156151005780820291505b808102905061510e856150be565b94506150d5565b94509492505050565b60008261512e57600190506151ea565b8161513c57600090506151ea565b8160018114615152576002811461515c5761518b565b60019150506151ea565b60ff84111561516e5761516d61498e565b5b8360020a9150848211156151855761518461498e565b5b506151ea565b5060208310610133831016604e8410600b84101617156151c05782820a9050838111156151bb576151ba61498e565b5b6151ea565b6151cd84848460016150cb565b925090508184048111156151e4576151e361498e565b5b81810290505b9392505050565b60006151fc8261451c565b915061520783614854565b92506152347fffffffffffffffffffffffffffffffffffffffffffffffffffffffffffffffff848461511e565b905092915050565b6000819050919050565b6000819050919050565b600061526b6152666152618461523c565b615246565b614854565b9050919050565b61527b81615250565b82525050565b60006020820190506152966000830184615272565b92915050565b7f45524332303a20617070726f76652066726f6d20746865207a65726f2061646460008201527f7265737300000000000000000000000000000000000000000000000000000000602082015250565b60006152f860248361455b565b91506153038261529c565b604082019050919050565b60006020820190508181036000830152615327816152eb565b9050919050565b7f45524332303a20617070726f766520746f20746865207a65726f20616464726560008201527f7373000000000000000000000000000000000000000000000000000000000000602082015250565b600061538a60228361455b565b91506153958261532e565b604082019050919050565b600060208201905081810360008301526153b98161537d565b9050919050565b7f45524332303a207472616e736665722066726f6d20746865207a65726f20616460008201527f6472657373000000000000000000000000000000000000000000000000000000602082015250565b600061541c60258361455b565b9150615427826153c0565b604082019050919050565b6000602082019050818103600083015261544b8161540f565b9050919050565b7f45524332303a207472616e7366657220746f20746865207a65726f206164647260008201527f6573730000000000000000000000000000000000000000000000000000000000602082015250565b60006154ae60238361455b565b91506154b982615452565b604082019050919050565b600060208201905081810360008301526154dd816154a1565b9050919050565b7f45524332303a207472616e7366657220616d6f756e742065786365656473206260008201527f616c616e63650000000000000000000000000000000000000000000000000000602082015250565b600061554060268361455b565b915061554b826154e4565b604082019050919050565b6000602082019050818103600083015261556f81615533565b9050919050565b7f5265656e7472616e637947756172643a207265656e7472616e742063616c6c00600082015250565b60006155ac601f8361455b565b91506155b782615576565b602082019050919050565b600060208201905081810360008301526155db8161559f565b9050919050565b7f616d6f756e7420746f207769746864726177206e6f74203e2030000000000000600082015250565b6000615618601a8361455b565b9150615623826155e2565b602082019050919050565b600060208201905081810360008301526156478161560b565b9050919050565b7f7374616b656420746f6b656e7320617265207374696c6c206c6f636b65640000600082015250565b6000615684601e8361455b565b915061568f8261564e565b602082019050919050565b600060208201905081810360008301526156b381615677565b9050919050565b7f776974686472617720616d6f756e74203e207374616b656420616d6f756e7400600082015250565b60006156f0601f8361455b565b91506156fb826156ba565b602082019050919050565b6000602082019050818103600083015261571f816156e3565b9050919050565b600061573182614491565b915061573c83614491565b92508282101561574f5761574e61498e565b5b828203905092915050565b600061577561577061576b84614677565b615246565b61451c565b9050919050565b6157858161575a565b82525050565b60006040820190506157a06000830185614526565b6157ad602083018461577c565b9392505050565b7f5061757361626c653a206e6f7420706175736564000000000000000000000000600082015250565b60006157ea60148361455b565b91506157f5826157b4565b602082019050919050565b60006020820190508181036000830152615819816157dd565b9050919050565b7f6e6f2072657761726420746f6b656e20636f6e74726163740000000000000000600082015250565b600061585660188361455b565b915061586182615820565b602082019050919050565b6000602082019050818103600083015261588581615849565b9050919050565b7f6e6f20746f6b656e7320746f20636c61696d0000000000000000000000000000600082015250565b60006158c260128361455b565b91506158cd8261588c565b602082019050919050565b600060208201905081810360008301526158f1816158b5565b9050919050565b7f6e6f7420656e6f7567682072657761726420746f6b656e730000000000000000600082015250565b600061592e60188361455b565b9150615939826158f8565b602082019050919050565b6000602082019050818103600083015261595d81615921565b9050919050565b7f5061757361626c653a2070617573656400000000000000000000000000000000600082015250565b600061599a60108361455b565b91506159a582615964565b602082019050919050565b600060208201905081810360008301526159c98161598d565b9050919050565b7f7374616b6520616d6f756e74206d757374206265203e20300000000000000000600082015250565b6000615a0660188361455b565b9150615a11826159d0565b602082019050919050565b60006020820190508181036000830152615a35816159f9565b9050919050565b6000606082019050615a51600083018661488b565b615a5e602083018561488b565b615a6b6040830184614526565b949350505050565b7f496e697469616c697a61626c653a20636f6e747261637420697320616c72656160008201527f647920696e697469616c697a6564000000000000000000000000000000000000602082015250565b6000615acf602e8361455b565b9150615ada82615a73565b604082019050919050565b60006020820190508181036000830152615afe81615ac2565b9050919050565b7f45524332303a206d696e7420746f20746865207a65726f206164647265737300600082015250565b6000615b3b601f8361455b565b9150615b4682615b05565b602082019050919050565b60006020820190508181036000830152615b6a81615b2e565b9050919050565b7f76616c756520646f65736e27742066697420696e203136302062697473000000600082015250565b6000615ba7601d8361455b565b9150615bb282615b71565b602082019050919050565b60006020820190508181036000830152615bd681615b9a565b9050919050565b7f76616c756520646f65736e27742066697420696e203438206269747300000000600082015250565b6000615c13601c8361455b565b9150615c1e82615bdd565b602082019050919050565b60006020820190508181036000830152615c4281615c06565b9050919050565b600081905092915050565b7f416363657373436f6e74726f6c3a206163636f756e7420000000000000000000600082015250565b6000615c8a601783615c49565b9150615c9582615c54565b601782019050919050565b6000615cab82614550565b615cb58185615c49565b9350615cc581856020860161456c565b80840191505092915050565b7f206973206d697373696e6720726f6c6520000000000000000000000000000000600082015250565b6000615d07601183615c49565b9150615d1282615cd1565b601182019050919050565b6000615d2882615c7d565b9150615d348285615ca0565b9150615d3f82615cfa565b9150615d4b8284615ca0565b91508190509392505050565b7f496e697469616c697a61626c653a20636f6e7472616374206973206e6f74206960008201527f6e697469616c697a696e67000000000000000000000000000000000000000000602082015250565b6000615db3602b8361455b565b9150615dbe82615d57565b604082019050919050565b60006020820190508181036000830152615de281615da6565b9050919050565b7f4e487b7100000000000000000000000000000000000000000000000000000000600052604160045260246000fd5b7f4e487b7100000000000000000000000000000000000000000000000000000000600052603260045260246000fd5b6000615e528261451c565b91506000821415615e6657615e6561498e565b5b600182039050919050565b7f537472696e67733a20686578206c656e67746820696e73756666696369656e74600082015250565b6000615ea760208361455b565b9150615eb282615e71565b602082019050919050565b60006020820190508181036000830152615ed681615e9a565b905091905056fea26469706673582212203bb4f88b9bf354ce814f9540d08283c335105e129121135f0272a940169407d464736f6c634300080a0033",
  "linkReferences": {},
  "deployedLinkReferences": {}
}