{
  "_format": "hh-sol-artifact-1",
  "contractName": "PolsStake",
  "sourceName": "contracts/K4RallyTokenV1.sol",
  "abi": [
    {
      "anonymous": false,
      "inputs": [
        {
          "indexed": true,
          "internalType": "address",
          "name": "owner",
          "type": "address"
        },
        {
          "indexed": true,
          "internalType": "address",
          "name": "spender",
          "type": "address"
        },
        {
          "indexed": false,
          "internalType": "uint256",
          "name": "value",
          "type": "uint256"
        }
      ],
      "name": "Approval",
      "type": "event"
    },
    {
      "anonymous": false,
      "inputs": [
        {
          "indexed": true,
          "internalType": "address",
          "name": "wallet",
          "type": "address"
        },
        {
          "indexed": true,
          "internalType": "address",
          "name": "rewardToken",
          "type": "address"
        },
        {
          "indexed": false,
          "internalType": "uint256",
          "name": "amount",
          "type": "uint256"
        }
      ],
      "name": "Claimed",
      "type": "event"
    },
    {
      "anonymous": false,
      "inputs": [
        {
          "indexed": true,
          "internalType": "address",
          "name": "tokenAddress",
          "type": "address"
        },
        {
          "indexed": true,
          "internalType": "address",
          "name": "receiver",
          "type": "address"
        },
        {
          "indexed": false,
          "internalType": "uint256",
          "name": "amount",
          "type": "uint256"
        }
      ],
      "name": "ERC20TokensRemoved",
      "type": "event"
    },
    {
      "anonymous": false,
      "inputs": [
        {
          "indexed": false,
          "internalType": "uint8",
          "name": "version",
          "type": "uint8"
        }
      ],
      "name": "Initialized",
      "type": "event"
    },
    {
      "anonymous": false,
      "inputs": [
        {
          "indexed": false,
          "internalType": "uint48",
          "name": "lockTimePeriod",
          "type": "uint48"
        }
      ],
      "name": "LockTimePeriodChanged",
      "type": "event"
    },
    {
      "anonymous": false,
      "inputs": [
        {
          "indexed": true,
          "internalType": "address",
          "name": "oldRewardToken",
          "type": "address"
        },
        {
          "indexed": false,
          "internalType": "uint256",
          "name": "returnedAmount",
          "type": "uint256"
        },
        {
          "indexed": true,
          "internalType": "address",
          "name": "newRewardToken",
          "type": "address"
        }
      ],
      "name": "RewardTokenChanged",
      "type": "event"
    },
    {
      "anonymous": false,
      "inputs": [
        {
          "indexed": true,
          "internalType": "address",
          "name": "staker",
          "type": "address"
        },
        {
          "indexed": false,
          "internalType": "uint256",
          "name": "amount",
          "type": "uint256"
        }
      ],
      "name": "RewardsBurned",
      "type": "event"
    },
    {
      "anonymous": false,
      "inputs": [
        {
          "indexed": true,
          "internalType": "bytes32",
          "name": "role",
          "type": "bytes32"
        },
        {
          "indexed": true,
          "internalType": "bytes32",
          "name": "previousAdminRole",
          "type": "bytes32"
        },
        {
          "indexed": true,
          "internalType": "bytes32",
          "name": "newAdminRole",
          "type": "bytes32"
        }
      ],
      "name": "RoleAdminChanged",
      "type": "event"
    },
    {
      "anonymous": false,
      "inputs": [
        {
          "indexed": true,
          "internalType": "bytes32",
          "name": "role",
          "type": "bytes32"
        },
        {
          "indexed": true,
          "internalType": "address",
          "name": "account",
          "type": "address"
        },
        {
          "indexed": true,
          "internalType": "address",
          "name": "sender",
          "type": "address"
        }
      ],
      "name": "RoleGranted",
      "type": "event"
    },
    {
      "anonymous": false,
      "inputs": [
        {
          "indexed": true,
          "internalType": "bytes32",
          "name": "role",
          "type": "bytes32"
        },
        {
          "indexed": true,
          "internalType": "address",
          "name": "account",
          "type": "address"
        },
        {
          "indexed": true,
          "internalType": "address",
          "name": "sender",
          "type": "address"
        }
      ],
      "name": "RoleRevoked",
      "type": "event"
    },
    {
      "anonymous": false,
      "inputs": [
        {
          "indexed": true,
          "internalType": "address",
          "name": "wallet",
          "type": "address"
        },
        {
          "indexed": false,
          "internalType": "uint256",
          "name": "amount",
          "type": "uint256"
        },
        {
          "indexed": false,
          "internalType": "uint256",
          "name": "date",
          "type": "uint256"
        }
      ],
      "name": "Stake",
      "type": "event"
    },
    {
      "anonymous": false,
      "inputs": [
        {
          "indexed": false,
          "internalType": "uint48",
          "name": "stakeRewardEndTime",
          "type": "uint48"
        }
      ],
      "name": "StakeRewardEndTimeChanged",
      "type": "event"
    },
    {
      "anonymous": false,
      "inputs": [
        {
          "indexed": false,
          "internalType": "uint256",
          "name": "stakeRewardFactor",
          "type": "uint256"
        }
      ],
      "name": "StakeRewardFactorChanged",
      "type": "event"
    },
    {
      "anonymous": false,
      "inputs": [
        {
          "indexed": true,
          "internalType": "address",
          "name": "from",
          "type": "address"
        },
        {
          "indexed": true,
          "internalType": "address",
          "name": "to",
          "type": "address"
        },
        {
          "indexed": false,
          "internalType": "uint256",
          "name": "value",
          "type": "uint256"
        }
      ],
      "name": "Transfer",
      "type": "event"
    },
    {
      "anonymous": false,
      "inputs": [
        {
          "indexed": true,
          "internalType": "address",
          "name": "wallet",
          "type": "address"
        },
        {
          "indexed": false,
          "internalType": "uint256",
          "name": "amount",
          "type": "uint256"
        },
        {
          "indexed": false,
          "internalType": "uint256",
          "name": "date",
          "type": "uint256"
        }
      ],
      "name": "Withdraw",
      "type": "event"
    },
    {
      "inputs": [],
      "name": "BURNER_ROLE",
      "outputs": [
        {
          "internalType": "bytes32",
          "name": "",
          "type": "bytes32"
        }
      ],
      "stateMutability": "view",
      "type": "function"
    },
    {
      "inputs": [],
      "name": "DEFAULT_ADMIN_ROLE",
      "outputs": [
        {
          "internalType": "bytes32",
          "name": "",
          "type": "bytes32"
        }
      ],
      "stateMutability": "view",
      "type": "function"
    },
    {
      "inputs": [],
      "name": "MAX_TIME",
      "outputs": [
        {
          "internalType": "uint48",
          "name": "",
          "type": "uint48"
        }
      ],
      "stateMutability": "view",
      "type": "function"
    },
    {
      "inputs": [
        {
          "internalType": "address",
          "name": "owner",
          "type": "address"
        },
        {
          "internalType": "address",
          "name": "spender",
          "type": "address"
        }
      ],
      "name": "allowance",
      "outputs": [
        {
          "internalType": "uint256",
          "name": "",
          "type": "uint256"
        }
      ],
      "stateMutability": "view",
      "type": "function"
    },
    {
      "inputs": [
        {
          "internalType": "address",
          "name": "spender",
          "type": "address"
        },
        {
          "internalType": "uint256",
          "name": "amount",
          "type": "uint256"
        }
      ],
      "name": "approve",
      "outputs": [
        {
          "internalType": "bool",
          "name": "",
          "type": "bool"
        }
      ],
      "stateMutability": "nonpayable",
      "type": "function"
    },
    {
      "inputs": [
        {
          "internalType": "address",
          "name": "_staker",
          "type": "address"
        }
      ],
      "name": "balanceOf",
      "outputs": [
        {
          "internalType": "uint256",
          "name": "balance",
          "type": "uint256"
        }
      ],
      "stateMutability": "view",
      "type": "function"
    },
    {
      "inputs": [
        {
          "internalType": "address",
          "name": "_staker",
          "type": "address"
        },
        {
          "internalType": "uint256",
          "name": "_amount",
          "type": "uint256"
        }
      ],
      "name": "burnRewards",
      "outputs": [],
      "stateMutability": "nonpayable",
      "type": "function"
    },
    {
      "inputs": [],
      "name": "claim",
      "outputs": [
        {
          "internalType": "uint256",
          "name": "",
          "type": "uint256"
        }
      ],
      "stateMutability": "nonpayable",
      "type": "function"
    },
    {
      "inputs": [],
      "name": "decimals",
      "outputs": [
        {
          "internalType": "uint8",
          "name": "",
          "type": "uint8"
        }
      ],
      "stateMutability": "view",
      "type": "function"
    },
    {
      "inputs": [
        {
          "internalType": "address",
          "name": "spender",
          "type": "address"
        },
        {
          "internalType": "uint256",
          "name": "subtractedValue",
          "type": "uint256"
        }
      ],
      "name": "decreaseAllowance",
      "outputs": [
        {
          "internalType": "bool",
          "name": "",
          "type": "bool"
        }
      ],
      "stateMutability": "nonpayable",
      "type": "function"
    },
    {
      "inputs": [
        {
          "internalType": "address",
          "name": "_staker",
          "type": "address"
        }
      ],
      "name": "getEarnedRewardTokens",
      "outputs": [
        {
          "internalType": "uint256",
          "name": "claimableRewardTokens",
          "type": "uint256"
        }
      ],
      "stateMutability": "view",
      "type": "function"
    },
    {
      "inputs": [],
      "name": "getEarnedRewardTokens_msgSender",
      "outputs": [
        {
          "internalType": "uint256",
          "name": "",
          "type": "uint256"
        }
      ],
      "stateMutability": "view",
      "type": "function"
    },
    {
      "inputs": [],
      "name": "getRewardTokenBalance",
      "outputs": [
        {
          "internalType": "uint256",
          "name": "balance",
          "type": "uint256"
        }
      ],
      "stateMutability": "view",
      "type": "function"
    },
    {
      "inputs": [
        {
          "internalType": "bytes32",
          "name": "role",
          "type": "bytes32"
        }
      ],
      "name": "getRoleAdmin",
      "outputs": [
        {
          "internalType": "bytes32",
          "name": "",
          "type": "bytes32"
        }
      ],
      "stateMutability": "view",
      "type": "function"
    },
    {
      "inputs": [
        {
          "internalType": "address",
          "name": "_staker",
          "type": "address"
        }
      ],
      "name": "getUnlockTime",
      "outputs": [
        {
          "internalType": "uint48",
          "name": "unlockTime",
          "type": "uint48"
        }
      ],
      "stateMutability": "view",
      "type": "function"
    },
    {
      "inputs": [],
      "name": "getUnlockTime_msgSender",
      "outputs": [
        {
          "internalType": "uint48",
          "name": "unlockTime",
          "type": "uint48"
        }
      ],
      "stateMutability": "view",
      "type": "function"
    },
    {
      "inputs": [
        {
          "internalType": "bytes32",
          "name": "role",
          "type": "bytes32"
        },
        {
          "internalType": "address",
          "name": "account",
          "type": "address"
        }
      ],
      "name": "grantRole",
      "outputs": [],
      "stateMutability": "nonpayable",
      "type": "function"
    },
    {
      "inputs": [
        {
          "internalType": "bytes32",
          "name": "role",
          "type": "bytes32"
        },
        {
          "internalType": "address",
          "name": "account",
          "type": "address"
        }
      ],
      "name": "hasRole",
      "outputs": [
        {
          "internalType": "bool",
          "name": "",
          "type": "bool"
        }
      ],
      "stateMutability": "view",
      "type": "function"
    },
    {
      "inputs": [
        {
          "internalType": "address",
          "name": "spender",
          "type": "address"
        },
        {
          "internalType": "uint256",
          "name": "addedValue",
          "type": "uint256"
        }
      ],
      "name": "increaseAllowance",
      "outputs": [
        {
          "internalType": "bool",
          "name": "",
          "type": "bool"
        }
      ],
      "stateMutability": "nonpayable",
      "type": "function"
    },
    {
      "inputs": [],
      "name": "lockTimePeriod",
      "outputs": [
        {
          "internalType": "uint48",
          "name": "",
          "type": "uint48"
        }
      ],
      "stateMutability": "view",
      "type": "function"
    },
    {
      "inputs": [],
      "name": "name",
      "outputs": [
        {
          "internalType": "string",
          "name": "",
          "type": "string"
        }
      ],
      "stateMutability": "view",
      "type": "function"
    },
    {
      "inputs": [
        {
          "internalType": "address",
          "name": "_tokenAddress",
          "type": "address"
        }
      ],
      "name": "removeOtherERC20Tokens",
      "outputs": [],
      "stateMutability": "nonpayable",
      "type": "function"
    },
    {
      "inputs": [
        {
          "internalType": "bytes32",
          "name": "role",
          "type": "bytes32"
        },
        {
          "internalType": "address",
          "name": "account",
          "type": "address"
        }
      ],
      "name": "renounceRole",
      "outputs": [],
      "stateMutability": "nonpayable",
      "type": "function"
    },
    {
      "inputs": [
        {
          "internalType": "bytes32",
          "name": "role",
          "type": "bytes32"
        },
        {
          "internalType": "address",
          "name": "account",
          "type": "address"
        }
      ],
      "name": "revokeRole",
      "outputs": [],
      "stateMutability": "nonpayable",
      "type": "function"
    },
    {
      "inputs": [],
      "name": "rewardToken",
      "outputs": [
        {
          "internalType": "address",
          "name": "",
          "type": "address"
        }
      ],
      "stateMutability": "view",
      "type": "function"
    },
    {
      "inputs": [
        {
          "internalType": "uint48",
          "name": "_lockTimePeriod",
          "type": "uint48"
        }
      ],
      "name": "setLockTimePeriod",
      "outputs": [],
      "stateMutability": "nonpayable",
      "type": "function"
    },
    {
      "inputs": [
        {
          "internalType": "address",
          "name": "newRewardToken",
          "type": "address"
        }
      ],
      "name": "setRewardToken",
      "outputs": [],
      "stateMutability": "nonpayable",
      "type": "function"
    },
    {
      "inputs": [
        {
          "internalType": "uint48",
          "name": "_stakeRewardEndTime",
          "type": "uint48"
        }
      ],
      "name": "setStakeRewardEndTime",
      "outputs": [],
      "stateMutability": "nonpayable",
      "type": "function"
    },
    {
      "inputs": [
        {
          "internalType": "uint256",
          "name": "_stakeRewardFactor",
          "type": "uint256"
        }
      ],
      "name": "setStakeRewardFactor",
      "outputs": [],
      "stateMutability": "nonpayable",
      "type": "function"
    },
    {
      "inputs": [
        {
          "internalType": "uint256",
          "name": "_amount",
          "type": "uint256"
        }
      ],
      "name": "stake",
      "outputs": [
        {
          "internalType": "uint256",
          "name": "",
          "type": "uint256"
        }
      ],
      "stateMutability": "nonpayable",
      "type": "function"
    },
    {
      "inputs": [
        {
          "internalType": "address",
          "name": "_staker",
          "type": "address"
        }
      ],
      "name": "stakeAmount",
      "outputs": [
        {
          "internalType": "uint256",
          "name": "balance",
          "type": "uint256"
        }
      ],
      "stateMutability": "view",
      "type": "function"
    },
    {
      "inputs": [],
      "name": "stakeAmount_msgSender",
      "outputs": [
        {
          "internalType": "uint256",
          "name": "",
          "type": "uint256"
        }
      ],
      "stateMutability": "view",
      "type": "function"
    },
    {
      "inputs": [],
      "name": "stakeRewardEndTime",
      "outputs": [
        {
          "internalType": "uint48",
          "name": "",
          "type": "uint48"
        }
      ],
      "stateMutability": "view",
      "type": "function"
    },
    {
      "inputs": [],
      "name": "stakeRewardFactor",
      "outputs": [
        {
          "internalType": "uint256",
          "name": "",
          "type": "uint256"
        }
      ],
      "stateMutability": "view",
      "type": "function"
    },
    {
      "inputs": [
        {
          "internalType": "address",
          "name": "_staker",
          "type": "address"
        }
      ],
      "name": "stakeTime",
      "outputs": [
        {
          "internalType": "uint48",
          "name": "dateTime",
          "type": "uint48"
        }
      ],
      "stateMutability": "view",
      "type": "function"
    },
    {
      "inputs": [],
      "name": "stakeTime_msgSender",
      "outputs": [
        {
          "internalType": "uint48",
          "name": "",
          "type": "uint48"
        }
      ],
      "stateMutability": "view",
      "type": "function"
    },
    {
      "inputs": [],
      "name": "stakingToken",
      "outputs": [
        {
          "internalType": "address",
          "name": "",
          "type": "address"
        }
      ],
      "stateMutability": "view",
      "type": "function"
    },
    {
      "inputs": [
        {
          "internalType": "bytes4",
          "name": "interfaceId",
          "type": "bytes4"
        }
      ],
      "name": "supportsInterface",
      "outputs": [
        {
          "internalType": "bool",
          "name": "",
          "type": "bool"
        }
      ],
      "stateMutability": "view",
      "type": "function"
    },
    {
      "inputs": [],
      "name": "symbol",
      "outputs": [
        {
          "internalType": "string",
          "name": "",
          "type": "string"
        }
      ],
      "stateMutability": "view",
      "type": "function"
    },
    {
      "inputs": [],
      "name": "tokenTotalStaked",
      "outputs": [
        {
          "internalType": "uint256",
          "name": "",
          "type": "uint256"
        }
      ],
      "stateMutability": "view",
      "type": "function"
    },
    {
      "inputs": [],
      "name": "totalSupply",
      "outputs": [
        {
          "internalType": "uint256",
          "name": "",
          "type": "uint256"
        }
      ],
      "stateMutability": "view",
      "type": "function"
    },
    {
      "inputs": [
        {
          "internalType": "address",
          "name": "recipient",
          "type": "address"
        },
        {
          "internalType": "uint256",
          "name": "amount",
          "type": "uint256"
        }
      ],
      "name": "transfer",
      "outputs": [
        {
          "internalType": "bool",
          "name": "",
          "type": "bool"
        }
      ],
      "stateMutability": "nonpayable",
      "type": "function"
    },
    {
      "inputs": [
        {
          "internalType": "address",
          "name": "sender",
          "type": "address"
        },
        {
          "internalType": "address",
          "name": "recipient",
          "type": "address"
        },
        {
          "internalType": "uint256",
          "name": "amount",
          "type": "uint256"
        }
      ],
      "name": "transferFrom",
      "outputs": [
        {
          "internalType": "bool",
          "name": "",
          "type": "bool"
        }
      ],
      "stateMutability": "nonpayable",
      "type": "function"
    },
    {
      "inputs": [
        {
          "internalType": "address",
          "name": "_staker",
          "type": "address"
        }
      ],
      "name": "userAccumulatedRewards",
      "outputs": [
        {
          "internalType": "uint256",
          "name": "rewards",
          "type": "uint256"
        }
      ],
      "stateMutability": "view",
      "type": "function"
    },
    {
      "inputs": [],
      "name": "userAccumulatedRewards_msgSender",
      "outputs": [
        {
          "internalType": "uint256",
          "name": "",
          "type": "uint256"
        }
      ],
      "stateMutability": "view",
      "type": "function"
    },
    {
      "inputs": [
        {
          "internalType": "address",
          "name": "_staker",
          "type": "address"
        }
      ],
      "name": "userClaimableRewards",
      "outputs": [
        {
          "internalType": "uint256",
          "name": "",
          "type": "uint256"
        }
      ],
      "stateMutability": "view",
      "type": "function"
    },
    {
      "inputs": [],
      "name": "userClaimableRewards_msgSender",
      "outputs": [
        {
          "internalType": "uint256",
          "name": "",
          "type": "uint256"
        }
      ],
      "stateMutability": "view",
      "type": "function"
    },
    {
      "inputs": [
        {
          "internalType": "address",
          "name": "",
          "type": "address"
        }
      ],
      "name": "userMap",
      "outputs": [
        {
          "internalType": "uint48",
          "name": "stakeTime",
          "type": "uint48"
        },
        {
          "internalType": "uint48",
          "name": "unlockTime",
          "type": "uint48"
        },
        {
          "internalType": "uint160",
          "name": "stakeAmount",
          "type": "uint160"
        },
        {
          "internalType": "uint256",
          "name": "accumulatedRewards",
          "type": "uint256"
        }
      ],
      "stateMutability": "view",
      "type": "function"
    },
    {
      "inputs": [
        {
          "internalType": "address",
          "name": "_staker",
          "type": "address"
        }
      ],
      "name": "userTotalRewards",
      "outputs": [
        {
          "internalType": "uint256",
          "name": "",
          "type": "uint256"
        }
      ],
      "stateMutability": "view",
      "type": "function"
    },
    {
      "inputs": [],
      "name": "userTotalRewards_msgSender",
      "outputs": [
        {
          "internalType": "uint256",
          "name": "",
          "type": "uint256"
        }
      ],
      "stateMutability": "view",
      "type": "function"
    },
    {
      "inputs": [
        {
          "internalType": "uint256",
          "name": "amount",
          "type": "uint256"
        }
      ],
      "name": "withdraw",
      "outputs": [
        {
          "internalType": "uint256",
          "name": "",
          "type": "uint256"
        }
      ],
      "stateMutability": "nonpayable",
      "type": "function"
    },
    {
      "inputs": [],
      "name": "withdrawAll",
      "outputs": [
        {
          "internalType": "uint256",
          "name": "",
          "type": "uint256"
        }
      ],
      "stateMutability": "nonpayable",
      "type": "function"
    }
  ],
  "bytecode": "0x608060405234801561001057600080fd5b50614874806100206000396000f3fe608060405234801561001057600080fd5b506004361061030c5760003560e01c8063872b26da1161019d578063aaa748d3116100e9578063de3717fc116100a2578063ee61e0cd1161007c578063ee61e0cd146109fc578063f3b95cd714610a18578063f6a3f3cf14610a34578063f7c618c114610a645761030c565b8063de3717fc14610992578063dfdf35c4146109b0578063ee2d505e146109cc5761030c565b8063aaa748d3146108aa578063bf135267146108c8578063d547741f146108f8578063d953a86714610914578063dbed1e8814610932578063dd62ed3e146109625761030c565b806395d89b4111610156578063a38a57c411610130578063a38a57c4146107fc578063a457c2d71461081a578063a694fc3a1461084a578063a9059cbb1461087a5761030c565b806395d89b41146107a25780639a7cc1b8146107c0578063a217fddf146107de5761030c565b8063872b26da146106e057806387f075d9146106fe5780638aee81271461071c5780638efb31c71461073857806391d148541461075457806393ce5343146107845761030c565b80632e1a7d4d1161025c5780634e71d92d116102155780636bb64e23116101ef5780636bb64e231461065657806370a082311461067457806372f702f3146106a4578063853828b6146106c25761030c565b80634e71d92d146105fe5780635951eff11461061c5780635bd4b5df146106385761030c565b80632e1a7d4d1461052a5780632f2ff15d1461055a578063313ce5671461057657806336568abe1461059457806339509351146105b05780633cb2efc9146105e05761030c565b806318160ddd116102c9578063248a9ca3116102a3578063248a9ca31461048b57806326949984146104bb578063282c51f3146104d95780632bcc23f8146104f75761030c565b806318160ddd1461040d5780632170e4721461042b57806323b872dd1461045b5761030c565b806301ffc9a7146103115780630584bd091461034157806306fdde031461037157806307dc1e1a1461038f578063095ea7b3146103ad57806309ef67e6146103dd575b600080fd5b61032b600480360381019061032691906133e1565b610a82565b6040516103389190613429565b60405180910390f35b61035b600480360381019061035691906134a2565b610afc565b60405161036891906134e8565b60405180910390f35b610379610ca1565b604051610386919061359c565b60405180910390f35b610397610d33565b6040516103a491906134e8565b60405180910390f35b6103c760048036038101906103c291906135ea565b610d7d565b6040516103d49190613429565b60405180910390f35b6103f760048036038101906103f291906134a2565b610d9b565b60405161040491906134e8565b60405180910390f35b610415610de7565b60405161042291906134e8565b60405180910390f35b610445600480360381019061044091906134a2565b610df1565b604051610452919061364b565b60405180910390f35b61047560048036038101906104709190613666565b610e4f565b6040516104829190613429565b60405180910390f35b6104a560048036038101906104a091906136ef565b610f47565b6040516104b2919061372b565b60405180910390f35b6104c3610f67565b6040516104d0919061364b565b60405180910390f35b6104e1610f71565b6040516104ee919061372b565b60405180910390f35b610511600480360381019061050c91906134a2565b610f95565b6040516105219493929190613755565b60405180910390f35b610544600480360381019061053f919061379a565b611009565b60405161055191906134e8565b60405180910390f35b610574600480360381019061056f91906137c7565b61102b565b005b61057e61104c565b60405161058b9190613823565b60405180910390f35b6105ae60048036038101906105a991906137c7565b611055565b005b6105ca60048036038101906105c591906135ea565b6110d8565b6040516105d79190613429565b60405180910390f35b6105e8611184565b6040516105f5919061364b565b60405180910390f35b610606611194565b60405161061391906134e8565b60405180910390f35b610636600480360381019061063191906134a2565b6111b3565b005b6106406113b8565b60405161064d91906134e8565b60405180910390f35b61065e6113c8565b60405161066b91906134e8565b60405180910390f35b61068e600480360381019061068991906134a2565b611448565b60405161069b91906134e8565b60405180910390f35b6106ac6114ca565b6040516106b9919061384d565b60405180910390f35b6106ca6114f0565b6040516106d791906134e8565b60405180910390f35b6106e8611517565b6040516106f591906134e8565b60405180910390f35b61070661151d565b60405161071391906134e8565b60405180910390f35b610736600480360381019061073191906134a2565b611523565b005b610752600480360381019061074d919061379a565b6116a8565b005b61076e600480360381019061076991906137c7565b6116f7565b60405161077b9190613429565b60405180910390f35b61078c611762565b60405161079991906134e8565b60405180910390f35b6107aa6118ee565b6040516107b7919061359c565b60405180910390f35b6107c8611980565b6040516107d591906134e8565b60405180910390f35b6107e6611990565b6040516107f3919061372b565b60405180910390f35b610804611997565b604051610811919061364b565b60405180910390f35b610834600480360381019061082f91906135ea565b6119af565b6040516108419190613429565b60405180910390f35b610864600480360381019061085f919061379a565b611a9a565b60405161087191906134e8565b60405180910390f35b610894600480360381019061088f91906135ea565b611abc565b6040516108a19190613429565b60405180910390f35b6108b2611ada565b6040516108bf919061364b565b60405180910390f35b6108e260048036038101906108dd91906134a2565b611b36565b6040516108ef91906134e8565b60405180910390f35b610912600480360381019061090d91906137c7565b611bb8565b005b61091c611bd9565b604051610929919061364b565b60405180910390f35b61094c600480360381019061094791906134a2565b611bf1565b604051610959919061364b565b60405180910390f35b61097c60048036038101906109779190613868565b611cdb565b60405161098991906134e8565b60405180910390f35b61099a611d62565b6040516109a791906134e8565b60405180910390f35b6109ca60048036038101906109c591906138d4565b611d72565b005b6109e660048036038101906109e191906134a2565b611e3d565b6040516109f391906134e8565b60405180910390f35b610a166004803603810190610a1191906138d4565b611ec9565b005b610a326004803603810190610a2d91906135ea565b611f36565b005b610a4e6004803603810190610a4991906134a2565b611ff8565b604051610a5b91906134e8565b60405180910390f35b610a6c612057565b604051610a79919061384d565b60405180910390f35b60007f7965db0b000000000000000000000000000000000000000000000000000000007bffffffffffffffffffffffffffffffffffffffffffffffffffffffff1916827bffffffffffffffffffffffffffffffffffffffffffffffffffffffff19161480610af55750610af48261207d565b5b9050919050565b60008060ca60008473ffffffffffffffffffffffffffffffffffffffff1673ffffffffffffffffffffffffffffffffffffffff16815260200190815260200160002090508060000160009054906101000a900465ffffffffffff1665ffffffffffff164211610b6f576000915050610c9c565b8060000160009054906101000a900465ffffffffffff1665ffffffffffff1660cd601a9054906101000a900465ffffffffffff1665ffffffffffff1611610bba576000915050610c9c565b600060cd601a9054906101000a900465ffffffffffff1665ffffffffffff164211610c10578160000160009054906101000a900465ffffffffffff1665ffffffffffff1642610c099190613930565b9050610c51565b8160000160009054906101000a900465ffffffffffff1660cd601a9054906101000a900465ffffffffffff16610c469190613964565b65ffffffffffff1690505b81600001600c9054906101000a900473ffffffffffffffffffffffffffffffffffffffff1673ffffffffffffffffffffffffffffffffffffffff1681610c979190613998565b925050505b919050565b606060378054610cb090613a21565b80601f0160208091040260200160405190810160405280929190818152602001828054610cdc90613a21565b8015610d295780601f10610cfe57610100808354040283529160200191610d29565b820191906000526020600020905b815481529060010190602001808311610d0c57829003601f168201915b5050505050905090565b600060ca60003373ffffffffffffffffffffffffffffffffffffffff1673ffffffffffffffffffffffffffffffffffffffff16815260200190815260200160002060010154905090565b6000610d91610d8a6120e7565b84846120ef565b6001905092915050565b600060ca60008373ffffffffffffffffffffffffffffffffffffffff1673ffffffffffffffffffffffffffffffffffffffff168152602001908152602001600020600101549050919050565b6000603654905090565b600060ca60008373ffffffffffffffffffffffffffffffffffffffff1673ffffffffffffffffffffffffffffffffffffffff16815260200190815260200160002060000160009054906101000a900465ffffffffffff169050919050565b6000610e5c8484846122ba565b6000603560008673ffffffffffffffffffffffffffffffffffffffff1673ffffffffffffffffffffffffffffffffffffffff1681526020019081526020016000206000610ea76120e7565b73ffffffffffffffffffffffffffffffffffffffff1673ffffffffffffffffffffffffffffffffffffffff16815260200190815260200160002054905082811015610f27576040517f08c379a0000000000000000000000000000000000000000000000000000000008152600401610f1e90613ac5565b60405180910390fd5b610f3b85610f336120e7565b8584036120ef565b60019150509392505050565b600060986000838152602001908152602001600020600101549050919050565b65ffffffffffff81565b7f3c11d16cbaffd01df69ce1c404f6340ee057498f5f00246190ea54220576a84881565b60ca6020528060005260406000206000915090508060000160009054906101000a900465ffffffffffff16908060000160069054906101000a900465ffffffffffff169080600001600c9054906101000a900473ffffffffffffffffffffffffffffffffffffffff16908060010154905084565b600061101361253e565b61101c8261258e565b9050611026612842565b919050565b61103482610f47565b61103d8161284b565b611047838361285f565b505050565b60006012905090565b61105d6120e7565b73ffffffffffffffffffffffffffffffffffffffff168173ffffffffffffffffffffffffffffffffffffffff16146110ca576040517f08c379a00000000000000000000000000000000000000000000000000000000081526004016110c190613b57565b60405180910390fd5b6110d48282612940565b5050565b600061117a6110e56120e7565b8484603560006110f36120e7565b73ffffffffffffffffffffffffffffffffffffffff1673ffffffffffffffffffffffffffffffffffffffff16815260200190815260200160002060008873ffffffffffffffffffffffffffffffffffffffff1673ffffffffffffffffffffffffffffffffffffffff168152602001908152602001600020546111759190613b77565b6120ef565b6001905092915050565b600061118f33611bf1565b905090565b600061119e61253e565b6111a6612a22565b90506111b0612842565b90565b6000801b6111c08161284b565b60cc60009054906101000a900473ffffffffffffffffffffffffffffffffffffffff1673ffffffffffffffffffffffffffffffffffffffff168273ffffffffffffffffffffffffffffffffffffffff161415611251576040517f08c379a000000000000000000000000000000000000000000000000000000000815260040161124890613c19565b60405180910390fd5b60008273ffffffffffffffffffffffffffffffffffffffff166370a08231306040518263ffffffff1660e01b815260040161128c919061384d565b602060405180830381865afa1580156112a9573d6000803e3d6000fd5b505050506040513d601f19601f820116820180604052508101906112cd9190613c4e565b90508273ffffffffffffffffffffffffffffffffffffffff1663a9059cbb33836040518363ffffffff1660e01b815260040161130a929190613c7b565b6020604051808303816000875af1158015611329573d6000803e3d6000fd5b505050506040513d601f19601f8201168201806040525081019061134d9190613cd0565b503373ffffffffffffffffffffffffffffffffffffffff168373ffffffffffffffffffffffffffffffffffffffff167f4c9443772ec3472e2ea8a88e5c31e6bb75e94541dc672d5ca2a1197ada10b598836040516113ab91906134e8565b60405180910390a3505050565b60006113c333610afc565b905090565b600060ca60003373ffffffffffffffffffffffffffffffffffffffff1673ffffffffffffffffffffffffffffffffffffffff168152602001908152602001600020600001600c9054906101000a900473ffffffffffffffffffffffffffffffffffffffff1673ffffffffffffffffffffffffffffffffffffffff16905090565b600060ca60008373ffffffffffffffffffffffffffffffffffffffff1673ffffffffffffffffffffffffffffffffffffffff168152602001908152602001600020600001600c9054906101000a900473ffffffffffffffffffffffffffffffffffffffff1673ffffffffffffffffffffffffffffffffffffffff169050919050565b60cc60009054906101000a900473ffffffffffffffffffffffffffffffffffffffff1681565b60006114fa61253e565b61150a6115056113c8565b61258e565b9050611514612842565b90565b60cb5481565b60ce5481565b61152b61253e565b6000801b6115388161284b565b600060cd60009054906101000a900473ffffffffffffffffffffffffffffffffffffffff1690506000611569611762565b905060008111156115f4578173ffffffffffffffffffffffffffffffffffffffff1663a9059cbb33836040518363ffffffff1660e01b81526004016115af929190613c7b565b6020604051808303816000875af11580156115ce573d6000803e3d6000fd5b505050506040513d601f19601f820116820180604052508101906115f29190613cd0565b505b8360cd60006101000a81548173ffffffffffffffffffffffffffffffffffffffff021916908373ffffffffffffffffffffffffffffffffffffffff1602179055508373ffffffffffffffffffffffffffffffffffffffff168273ffffffffffffffffffffffffffffffffffffffff167fc133375757269458a329c73a344c8ef483535870f46ed4cd332f857a5ef525d08360405161169291906134e8565b60405180910390a35050506116a5612842565b50565b6000801b6116b58161284b565b8160ce819055507f929e0b2903ee7e8bb87bf220a340db1f5551e7042e5f2567ed08117c0709fa21826040516116eb91906134e8565b60405180910390a15050565b60006098600084815260200190815260200160002060000160008373ffffffffffffffffffffffffffffffffffffffff1673ffffffffffffffffffffffffffffffffffffffff16815260200190815260200160002060009054906101000a900460ff16905092915050565b60008073ffffffffffffffffffffffffffffffffffffffff1660cd60009054906101000a900473ffffffffffffffffffffffffffffffffffffffff1673ffffffffffffffffffffffffffffffffffffffff1614156117c357600090506118eb565b60cd60009054906101000a900473ffffffffffffffffffffffffffffffffffffffff1673ffffffffffffffffffffffffffffffffffffffff166370a08231306040518263ffffffff1660e01b815260040161181e919061384d565b602060405180830381865afa15801561183b573d6000803e3d6000fd5b505050506040513d601f19601f8201168201806040525081019061185f9190613c4e565b905060cd60009054906101000a900473ffffffffffffffffffffffffffffffffffffffff1673ffffffffffffffffffffffffffffffffffffffff1660cc60009054906101000a900473ffffffffffffffffffffffffffffffffffffffff1673ffffffffffffffffffffffffffffffffffffffff1614156118ea5760cb54816118e79190613930565b90505b5b90565b6060603880546118fd90613a21565b80601f016020809104026020016040519081016040528092919081815260200182805461192990613a21565b80156119765780601f1061194b57610100808354040283529160200191611976565b820191906000526020600020905b81548152906001019060200180831161195957829003601f168201915b5050505050905090565b600061198b33611e3d565b905090565b6000801b81565b60cd601a9054906101000a900465ffffffffffff1681565b600080603560006119be6120e7565b73ffffffffffffffffffffffffffffffffffffffff1673ffffffffffffffffffffffffffffffffffffffff16815260200190815260200160002060008573ffffffffffffffffffffffffffffffffffffffff1673ffffffffffffffffffffffffffffffffffffffff16815260200190815260200160002054905082811015611a7b576040517f08c379a0000000000000000000000000000000000000000000000000000000008152600401611a7290613d6f565b60405180910390fd5b611a8f611a866120e7565b858584036120ef565b600191505092915050565b6000611aa461253e565b611aad82612cfb565b9050611ab7612842565b919050565b6000611ad0611ac96120e7565b84846122ba565b6001905092915050565b600060ca60003373ffffffffffffffffffffffffffffffffffffffff1673ffffffffffffffffffffffffffffffffffffffff16815260200190815260200160002060000160009054906101000a900465ffffffffffff16905090565b600060ca60008373ffffffffffffffffffffffffffffffffffffffff1673ffffffffffffffffffffffffffffffffffffffff168152602001908152602001600020600001600c9054906101000a900473ffffffffffffffffffffffffffffffffffffffff1673ffffffffffffffffffffffffffffffffffffffff169050919050565b611bc182610f47565b611bca8161284b565b611bd48383612940565b505050565b60cd60149054906101000a900465ffffffffffff1681565b60008060ca60008473ffffffffffffffffffffffffffffffffffffffff1673ffffffffffffffffffffffffffffffffffffffff168152602001908152602001600020600001600c9054906101000a900473ffffffffffffffffffffffffffffffffffffffff1673ffffffffffffffffffffffffffffffffffffffff1611611c7e5765ffffffffffff611cd4565b60ca60008373ffffffffffffffffffffffffffffffffffffffff1673ffffffffffffffffffffffffffffffffffffffff16815260200190815260200160002060000160069054906101000a900465ffffffffffff165b9050919050565b6000603560008473ffffffffffffffffffffffffffffffffffffffff1673ffffffffffffffffffffffffffffffffffffffff16815260200190815260200160002060008373ffffffffffffffffffffffffffffffffffffffff1673ffffffffffffffffffffffffffffffffffffffff16815260200190815260200160002054905092915050565b6000611d6d33611ff8565b905090565b6000801b611d7f8161284b565b4260cd601a9054906101000a900465ffffffffffff1665ffffffffffff1611611ddd576040517f08c379a0000000000000000000000000000000000000000000000000000000008152600401611dd490613ddb565b60405180910390fd5b8160cd601a6101000a81548165ffffffffffff021916908365ffffffffffff1602179055507fb8ec1a7db76539d0a932b67153298ec5ba41b1f965bd5f66e9419431d517291a82604051611e31919061364b565b60405180910390a15050565b60008073ffffffffffffffffffffffffffffffffffffffff1660cd60009054906101000a900473ffffffffffffffffffffffffffffffffffffffff1673ffffffffffffffffffffffffffffffffffffffff161480611e9d5750600060ce54145b15611eab5760009050611ec4565b60ce54611eb783611ff8565b611ec19190613e2a565b90505b919050565b6000801b611ed68161284b565b8160cd60146101000a81548165ffffffffffff021916908365ffffffffffff1602179055507fe9f020bdf01408388704d87e8162e06252d160de9f8cc075b32ce7ebbebc263e82604051611f2a919061364b565b60405180910390a15050565b7f3c11d16cbaffd01df69ce1c404f6340ee057498f5f00246190ea54220576a848611f608161284b565b6000611f6b84612f4f565b90508060010154831015611f995782816001016000828254611f8d9190613930565b92505081905550611fa4565b600081600101819055505b8373ffffffffffffffffffffffffffffffffffffffff167f33e88885e6abd26d1f3ea3b4b37c2f6e0ff31fa24c7721763eca867537bdf5d284604051611fea91906134e8565b60405180910390a250505050565b600060ca60008373ffffffffffffffffffffffffffffffffffffffff1673ffffffffffffffffffffffffffffffffffffffff1681526020019081526020016000206001015461204683610afc565b6120509190613b77565b9050919050565b60cd60009054906101000a900473ffffffffffffffffffffffffffffffffffffffff1681565b60007f01ffc9a7000000000000000000000000000000000000000000000000000000007bffffffffffffffffffffffffffffffffffffffffffffffffffffffff1916827bffffffffffffffffffffffffffffffffffffffffffffffffffffffff1916149050919050565b600033905090565b600073ffffffffffffffffffffffffffffffffffffffff168373ffffffffffffffffffffffffffffffffffffffff16141561215f576040517f08c379a000000000000000000000000000000000000000000000000000000000815260040161215690613ecd565b60405180910390fd5b600073ffffffffffffffffffffffffffffffffffffffff168273ffffffffffffffffffffffffffffffffffffffff1614156121cf576040517f08c379a00000000000000000000000000000000000000000000000000000000081526004016121c690613f5f565b60405180910390fd5b80603560008573ffffffffffffffffffffffffffffffffffffffff1673ffffffffffffffffffffffffffffffffffffffff16815260200190815260200160002060008473ffffffffffffffffffffffffffffffffffffffff1673ffffffffffffffffffffffffffffffffffffffff168152602001908152602001600020819055508173ffffffffffffffffffffffffffffffffffffffff168373ffffffffffffffffffffffffffffffffffffffff167f8c5be1e5ebec7d5bd14f71427d1e84f3dd0314c0f7b2291e5b200ac8c7c3b925836040516122ad91906134e8565b60405180910390a3505050565b600073ffffffffffffffffffffffffffffffffffffffff168373ffffffffffffffffffffffffffffffffffffffff16141561232a576040517f08c379a000000000000000000000000000000000000000000000000000000000815260040161232190613ff1565b60405180910390fd5b600073ffffffffffffffffffffffffffffffffffffffff168273ffffffffffffffffffffffffffffffffffffffff16141561239a576040517f08c379a000000000000000000000000000000000000000000000000000000000815260040161239190614083565b60405180910390fd5b6123a5838383612fe9565b6000603460008573ffffffffffffffffffffffffffffffffffffffff1673ffffffffffffffffffffffffffffffffffffffff1681526020019081526020016000205490508181101561242c576040517f08c379a000000000000000000000000000000000000000000000000000000000815260040161242390614115565b60405180910390fd5b818103603460008673ffffffffffffffffffffffffffffffffffffffff1673ffffffffffffffffffffffffffffffffffffffff1681526020019081526020016000208190555081603460008573ffffffffffffffffffffffffffffffffffffffff1673ffffffffffffffffffffffffffffffffffffffff16815260200190815260200160002060008282546124c19190613b77565b925050819055508273ffffffffffffffffffffffffffffffffffffffff168473ffffffffffffffffffffffffffffffffffffffff167fddf252ad1be2c89b69c2b068fc378daa952ba7f163c4a11628f55a4df523b3ef8460405161252591906134e8565b60405180910390a3612538848484612fee565b50505050565b60026001541415612584576040517f08c379a000000000000000000000000000000000000000000000000000000000815260040161257b90614181565b60405180910390fd5b6002600181905550565b60008082116125d2576040517f08c379a00000000000000000000000000000000000000000000000000000000081526004016125c9906141ed565b60405180910390fd5b6125db33611bf1565b65ffffffffffff164211612624576040517f08c379a000000000000000000000000000000000000000000000000000000000815260040161261b90614259565b60405180910390fd5b600061262f33612f4f565b905080600001600c9054906101000a900473ffffffffffffffffffffffffffffffffffffffff1673ffffffffffffffffffffffffffffffffffffffff168311156126ae576040517f08c379a00000000000000000000000000000000000000000000000000000000081526004016126a5906142c5565b60405180910390fd5b6126b783612ff3565b81600001600c8282829054906101000a900473ffffffffffffffffffffffffffffffffffffffff166126e991906142e5565b92506101000a81548173ffffffffffffffffffffffffffffffffffffffff021916908373ffffffffffffffffffffffffffffffffffffffff1602179055508260cb60008282546127399190613930565b9250508190555060cc60009054906101000a900473ffffffffffffffffffffffffffffffffffffffff1673ffffffffffffffffffffffffffffffffffffffff1663a9059cbb33856040518363ffffffff1660e01b815260040161279d929190613c7b565b6020604051808303816000875af11580156127bc573d6000803e3d6000fd5b505050506040513d601f19601f820116820180604052508101906127e09190613cd0565b503373ffffffffffffffffffffffffffffffffffffffff167ff279e6a1f5e320cca91135676d9cb6e44ca8a08c0b88342bcdb1144f6511b5688461282342613056565b604051612831929190614354565b60405180910390a282915050919050565b60018081905550565b61285c816128576120e7565b6130ab565b50565b61286982826116f7565b61293c5760016098600084815260200190815260200160002060000160008373ffffffffffffffffffffffffffffffffffffffff1673ffffffffffffffffffffffffffffffffffffffff16815260200190815260200160002060006101000a81548160ff0219169083151502179055506128e16120e7565b73ffffffffffffffffffffffffffffffffffffffff168173ffffffffffffffffffffffffffffffffffffffff16837f2f8788117e7eff1d82e926ec794901d17c78024a50270940304540a733656f0d60405160405180910390a45b5050565b61294a82826116f7565b15612a1e5760006098600084815260200190815260200160002060000160008373ffffffffffffffffffffffffffffffffffffffff1673ffffffffffffffffffffffffffffffffffffffff16815260200190815260200160002060006101000a81548160ff0219169083151502179055506129c36120e7565b73ffffffffffffffffffffffffffffffffffffffff168173ffffffffffffffffffffffffffffffffffffffff16837ff6391f5c32d9c69d2a47ea670b442974b53935d1edc7fd64eb21e047a839171b60405160405180910390a45b5050565b60008073ffffffffffffffffffffffffffffffffffffffff1660cd60009054906101000a900473ffffffffffffffffffffffffffffffffffffffff1673ffffffffffffffffffffffffffffffffffffffff161415612ab5576040517f08c379a0000000000000000000000000000000000000000000000000000000008152600401612aac906143c9565b60405180910390fd5b6000612ac033611e3d565b905060008111612b05576040517f08c379a0000000000000000000000000000000000000000000000000000000008152600401612afc90614435565b60405180910390fd5b600060ca60003373ffffffffffffffffffffffffffffffffffffffff1673ffffffffffffffffffffffffffffffffffffffff168152602001908152602001600020905060008160010181905550612b5b42613056565b8160000160006101000a81548165ffffffffffff021916908365ffffffffffff160217905550612b89611762565b821115612bcb576040517f08c379a0000000000000000000000000000000000000000000000000000000008152600401612bc2906144a1565b60405180910390fd5b60cd60009054906101000a900473ffffffffffffffffffffffffffffffffffffffff1673ffffffffffffffffffffffffffffffffffffffff1663a9059cbb33846040518363ffffffff1660e01b8152600401612c28929190613c7b565b6020604051808303816000875af1158015612c47573d6000803e3d6000fd5b505050506040513d601f19601f82011682018060405250810190612c6b9190613cd0565b5060cd60009054906101000a900473ffffffffffffffffffffffffffffffffffffffff1673ffffffffffffffffffffffffffffffffffffffff163373ffffffffffffffffffffffffffffffffffffffff167ff7a40077ff7a04c7e61f6f26fb13774259ddf1b6bce9ecf26a8276cdd399268384604051612ceb91906134e8565b60405180910390a3819250505090565b6000808211612d3f576040517f08c379a0000000000000000000000000000000000000000000000000000000008152600401612d369061450d565b60405180910390fd5b6000612d4a33612f4f565b9050612d9a8382600001600c9054906101000a900473ffffffffffffffffffffffffffffffffffffffff1673ffffffffffffffffffffffffffffffffffffffff16612d959190613b77565b612ff3565b81600001600c6101000a81548173ffffffffffffffffffffffffffffffffffffffff021916908373ffffffffffffffffffffffffffffffffffffffff1602179055508260cb6000828254612dee9190613b77565b92505081905550612e2560cd60149054906101000a900465ffffffffffff1665ffffffffffff1642612e209190613b77565b613056565b8160000160066101000a81548165ffffffffffff021916908365ffffffffffff16021790555060cc60009054906101000a900473ffffffffffffffffffffffffffffffffffffffff1673ffffffffffffffffffffffffffffffffffffffff166323b872dd3330866040518463ffffffff1660e01b8152600401612eaa9392919061452d565b6020604051808303816000875af1158015612ec9573d6000803e3d6000fd5b505050506040513d601f19601f82011682018060405250810190612eed9190613cd0565b503373ffffffffffffffffffffffffffffffffffffffff167f5af417134f72a9d41143ace85b0a26dce6f550f894f2cbc1eeee8810603d91b684612f3042613056565b604051612f3e929190614354565b60405180910390a282915050919050565b600060ca60008373ffffffffffffffffffffffffffffffffffffffff1673ffffffffffffffffffffffffffffffffffffffff1681526020019081526020016000209050612f9b82610afc565b816001016000828254612fae9190613b77565b92505081905550612fbe42613056565b8160000160006101000a81548165ffffffffffff021916908365ffffffffffff160217905550919050565b505050565b505050565b600073ffffffffffffffffffffffffffffffffffffffff801682111561304e576040517f08c379a0000000000000000000000000000000000000000000000000000000008152600401613045906145b0565b60405180910390fd5b819050919050565b600065ffffffffffff80168211156130a3576040517f08c379a000000000000000000000000000000000000000000000000000000000815260040161309a9061461c565b60405180910390fd5b819050919050565b6130b582826116f7565b613144576130da8173ffffffffffffffffffffffffffffffffffffffff166014613148565b6130e88360001c6020613148565b6040516020016130f9929190614710565b6040516020818303038152906040526040517f08c379a000000000000000000000000000000000000000000000000000000000815260040161313b919061359c565b60405180910390fd5b5050565b60606000600283600261315b9190613998565b6131659190613b77565b67ffffffffffffffff81111561317e5761317d61474a565b5b6040519080825280601f01601f1916602001820160405280156131b05781602001600182028036833780820191505090505b5090507f3000000000000000000000000000000000000000000000000000000000000000816000815181106131e8576131e7614779565b5b60200101907effffffffffffffffffffffffffffffffffffffffffffffffffffffffffffff1916908160001a9053507f78000000000000000000000000000000000000000000000000000000000000008160018151811061324c5761324b614779565b5b60200101907effffffffffffffffffffffffffffffffffffffffffffffffffffffffffffff1916908160001a9053506000600184600261328c9190613998565b6132969190613b77565b90505b6001811115613336577f3031323334353637383961626364656600000000000000000000000000000000600f8616601081106132d8576132d7614779565b5b1a60f81b8282815181106132ef576132ee614779565b5b60200101907effffffffffffffffffffffffffffffffffffffffffffffffffffffffffffff1916908160001a905350600485901c94508061332f906147a8565b9050613299565b506000841461337a576040517f08c379a00000000000000000000000000000000000000000000000000000000081526004016133719061481e565b60405180910390fd5b8091505092915050565b600080fd5b60007fffffffff0000000000000000000000000000000000000000000000000000000082169050919050565b6133be81613389565b81146133c957600080fd5b50565b6000813590506133db816133b5565b92915050565b6000602082840312156133f7576133f6613384565b5b6000613405848285016133cc565b91505092915050565b60008115159050919050565b6134238161340e565b82525050565b600060208201905061343e600083018461341a565b92915050565b600073ffffffffffffffffffffffffffffffffffffffff82169050919050565b600061346f82613444565b9050919050565b61347f81613464565b811461348a57600080fd5b50565b60008135905061349c81613476565b92915050565b6000602082840312156134b8576134b7613384565b5b60006134c68482850161348d565b91505092915050565b6000819050919050565b6134e2816134cf565b82525050565b60006020820190506134fd60008301846134d9565b92915050565b600081519050919050565b600082825260208201905092915050565b60005b8381101561353d578082015181840152602081019050613522565b8381111561354c576000848401525b50505050565b6000601f19601f8301169050919050565b600061356e82613503565b613578818561350e565b935061358881856020860161351f565b61359181613552565b840191505092915050565b600060208201905081810360008301526135b68184613563565b905092915050565b6135c7816134cf565b81146135d257600080fd5b50565b6000813590506135e4816135be565b92915050565b6000806040838503121561360157613600613384565b5b600061360f8582860161348d565b9250506020613620858286016135d5565b9150509250929050565b600065ffffffffffff82169050919050565b6136458161362a565b82525050565b6000602082019050613660600083018461363c565b92915050565b60008060006060848603121561367f5761367e613384565b5b600061368d8682870161348d565b935050602061369e8682870161348d565b92505060406136af868287016135d5565b9150509250925092565b6000819050919050565b6136cc816136b9565b81146136d757600080fd5b50565b6000813590506136e9816136c3565b92915050565b60006020828403121561370557613704613384565b5b6000613713848285016136da565b91505092915050565b613725816136b9565b82525050565b6000602082019050613740600083018461371c565b92915050565b61374f81613444565b82525050565b600060808201905061376a600083018761363c565b613777602083018661363c565b6137846040830185613746565b61379160608301846134d9565b95945050505050565b6000602082840312156137b0576137af613384565b5b60006137be848285016135d5565b91505092915050565b600080604083850312156137de576137dd613384565b5b60006137ec858286016136da565b92505060206137fd8582860161348d565b9150509250929050565b600060ff82169050919050565b61381d81613807565b82525050565b60006020820190506138386000830184613814565b92915050565b61384781613464565b82525050565b6000602082019050613862600083018461383e565b92915050565b6000806040838503121561387f5761387e613384565b5b600061388d8582860161348d565b925050602061389e8582860161348d565b9150509250929050565b6138b18161362a565b81146138bc57600080fd5b50565b6000813590506138ce816138a8565b92915050565b6000602082840312156138ea576138e9613384565b5b60006138f8848285016138bf565b91505092915050565b7f4e487b7100000000000000000000000000000000000000000000000000000000600052601160045260246000fd5b600061393b826134cf565b9150613946836134cf565b92508282101561395957613958613901565b5b828203905092915050565b600061396f8261362a565b915061397a8361362a565b92508282101561398d5761398c613901565b5b828203905092915050565b60006139a3826134cf565b91506139ae836134cf565b9250817fffffffffffffffffffffffffffffffffffffffffffffffffffffffffffffffff04831182151516156139e7576139e6613901565b5b828202905092915050565b7f4e487b7100000000000000000000000000000000000000000000000000000000600052602260045260246000fd5b60006002820490506001821680613a3957607f821691505b60208210811415613a4d57613a4c6139f2565b5b50919050565b7f45524332303a207472616e7366657220616d6f756e742065786365656473206160008201527f6c6c6f77616e6365000000000000000000000000000000000000000000000000602082015250565b6000613aaf60288361350e565b9150613aba82613a53565b604082019050919050565b60006020820190508181036000830152613ade81613aa2565b9050919050565b7f416363657373436f6e74726f6c3a2063616e206f6e6c792072656e6f756e636560008201527f20726f6c657320666f722073656c660000000000000000000000000000000000602082015250565b6000613b41602f8361350e565b9150613b4c82613ae5565b604082019050919050565b60006020820190508181036000830152613b7081613b34565b9050919050565b6000613b82826134cf565b9150613b8d836134cf565b9250827fffffffffffffffffffffffffffffffffffffffffffffffffffffffffffffffff03821115613bc257613bc1613901565b5b828201905092915050565b7f63616e206e6f74207769746864726177207374616b696e6720746f6b656e0000600082015250565b6000613c03601e8361350e565b9150613c0e82613bcd565b602082019050919050565b60006020820190508181036000830152613c3281613bf6565b9050919050565b600081519050613c48816135be565b92915050565b600060208284031215613c6457613c63613384565b5b6000613c7284828501613c39565b91505092915050565b6000604082019050613c90600083018561383e565b613c9d60208301846134d9565b9392505050565b613cad8161340e565b8114613cb857600080fd5b50565b600081519050613cca81613ca4565b92915050565b600060208284031215613ce657613ce5613384565b5b6000613cf484828501613cbb565b91505092915050565b7f45524332303a2064656372656173656420616c6c6f77616e63652062656c6f7760008201527f207a65726f000000000000000000000000000000000000000000000000000000602082015250565b6000613d5960258361350e565b9150613d6482613cfd565b604082019050919050565b60006020820190508181036000830152613d8881613d4c565b9050919050565b7f74696d652068617320746f20626520696e207468652066757475726500000000600082015250565b6000613dc5601c8361350e565b9150613dd082613d8f565b602082019050919050565b60006020820190508181036000830152613df481613db8565b9050919050565b7f4e487b7100000000000000000000000000000000000000000000000000000000600052601260045260246000fd5b6000613e35826134cf565b9150613e40836134cf565b925082613e5057613e4f613dfb565b5b828204905092915050565b7f45524332303a20617070726f76652066726f6d20746865207a65726f2061646460008201527f7265737300000000000000000000000000000000000000000000000000000000602082015250565b6000613eb760248361350e565b9150613ec282613e5b565b604082019050919050565b60006020820190508181036000830152613ee681613eaa565b9050919050565b7f45524332303a20617070726f766520746f20746865207a65726f20616464726560008201527f7373000000000000000000000000000000000000000000000000000000000000602082015250565b6000613f4960228361350e565b9150613f5482613eed565b604082019050919050565b60006020820190508181036000830152613f7881613f3c565b9050919050565b7f45524332303a207472616e736665722066726f6d20746865207a65726f20616460008201527f6472657373000000000000000000000000000000000000000000000000000000602082015250565b6000613fdb60258361350e565b9150613fe682613f7f565b604082019050919050565b6000602082019050818103600083015261400a81613fce565b9050919050565b7f45524332303a207472616e7366657220746f20746865207a65726f206164647260008201527f6573730000000000000000000000000000000000000000000000000000000000602082015250565b600061406d60238361350e565b915061407882614011565b604082019050919050565b6000602082019050818103600083015261409c81614060565b9050919050565b7f45524332303a207472616e7366657220616d6f756e742065786365656473206260008201527f616c616e63650000000000000000000000000000000000000000000000000000602082015250565b60006140ff60268361350e565b915061410a826140a3565b604082019050919050565b6000602082019050818103600083015261412e816140f2565b9050919050565b7f5265656e7472616e637947756172643a207265656e7472616e742063616c6c00600082015250565b600061416b601f8361350e565b915061417682614135565b602082019050919050565b6000602082019050818103600083015261419a8161415e565b9050919050565b7f616d6f756e7420746f207769746864726177206e6f74203e2030000000000000600082015250565b60006141d7601a8361350e565b91506141e2826141a1565b602082019050919050565b60006020820190508181036000830152614206816141ca565b9050919050565b7f7374616b656420746f6b656e7320617265207374696c6c206c6f636b65640000600082015250565b6000614243601e8361350e565b915061424e8261420d565b602082019050919050565b6000602082019050818103600083015261427281614236565b9050919050565b7f776974686472617720616d6f756e74203e207374616b656420616d6f756e7400600082015250565b60006142af601f8361350e565b91506142ba82614279565b602082019050919050565b600060208201905081810360008301526142de816142a2565b9050919050565b60006142f082613444565b91506142fb83613444565b92508282101561430e5761430d613901565b5b828203905092915050565b6000819050919050565b600061433e6143396143348461362a565b614319565b6134cf565b9050919050565b61434e81614323565b82525050565b600060408201905061436960008301856134d9565b6143766020830184614345565b9392505050565b7f6e6f2072657761726420746f6b656e20636f6e74726163740000000000000000600082015250565b60006143b360188361350e565b91506143be8261437d565b602082019050919050565b600060208201905081810360008301526143e2816143a6565b9050919050565b7f6e6f20746f6b656e7320746f20636c61696d0000000000000000000000000000600082015250565b600061441f60128361350e565b915061442a826143e9565b602082019050919050565b6000602082019050818103600083015261444e81614412565b9050919050565b7f6e6f7420656e6f7567682072657761726420746f6b656e730000000000000000600082015250565b600061448b60188361350e565b915061449682614455565b602082019050919050565b600060208201905081810360008301526144ba8161447e565b9050919050565b7f7374616b6520616d6f756e74206d757374206265203e20300000000000000000600082015250565b60006144f760188361350e565b9150614502826144c1565b602082019050919050565b60006020820190508181036000830152614526816144ea565b9050919050565b6000606082019050614542600083018661383e565b61454f602083018561383e565b61455c60408301846134d9565b949350505050565b7f76616c756520646f65736e27742066697420696e203136302062697473000000600082015250565b600061459a601d8361350e565b91506145a582614564565b602082019050919050565b600060208201905081810360008301526145c98161458d565b9050919050565b7f76616c756520646f65736e27742066697420696e203438206269747300000000600082015250565b6000614606601c8361350e565b9150614611826145d0565b602082019050919050565b60006020820190508181036000830152614635816145f9565b9050919050565b600081905092915050565b7f416363657373436f6e74726f6c3a206163636f756e7420000000000000000000600082015250565b600061467d60178361463c565b915061468882614647565b601782019050919050565b600061469e82613503565b6146a8818561463c565b93506146b881856020860161351f565b80840191505092915050565b7f206973206d697373696e6720726f6c6520000000000000000000000000000000600082015250565b60006146fa60118361463c565b9150614705826146c4565b601182019050919050565b600061471b82614670565b91506147278285614693565b9150614732826146ed565b915061473e8284614693565b91508190509392505050565b7f4e487b7100000000000000000000000000000000000000000000000000000000600052604160045260246000fd5b7f4e487b7100000000000000000000000000000000000000000000000000000000600052603260045260246000fd5b60006147b3826134cf565b915060008214156147c7576147c6613901565b5b600182039050919050565b7f537472696e67733a20686578206c656e67746820696e73756666696369656e74600082015250565b600061480860208361350e565b9150614813826147d2565b602082019050919050565b60006020820190508181036000830152614837816147fb565b905091905056fea26469706673582212200aa3fd65084009e5c6a6868cc440fdeb2376521d4fdc7e966125dda4b79fc27964736f6c634300080a0033",
  "linkReferences": {},
  "deployedLinkReferences": {}
}